:020000022000DC
:1060000000000120B5620200DD620200DF620200D2
:10601000E1620200E3620200E562020000000000AB
:10602000000000000000000000000000E762020025
:10603000E962020000000000EB620200ED62020073
:10604000C5940200EF620200C19C0200EF620200F0
:10605000EF620200EF6202007D980200EF62020030
:10606000EF620200EF620200EF620200EF620200E4
:10607000EF620200EF620200EF620200EF620200D4
:10608000EF6202004D7F0200EF620200EF62020049
:10609000EF620200EF620200F5CF0200EF62020041
:1060A000EF620200EF620200EF620200EF620200A4
:1060B000EF620200EF62020000000000000000003A
:1060C000EF620200EF620200EF620200EF62020084
:1060D000EF620200EF620200EF62020000000000C7
:1060E00000000000000000000000000000000000B0
:1060F00000000000000000000000000000000000A0
:10610000000000000000000000000000000000008F
:10611000000000000000000000000000000000007F
:10612000000000000000000000000000000000006F
:10613000000000000000000000000000000000005F
:10614000000000000000000000000000000000004F
:10615000000000000000000000000000000000003F
:10616000000000000000000000000000000000002F
:10617000000000000000000000000000000000001F
:10618000000000000000000000000000000000000F
:1061900000000000000000000000000000000000FF
:1061A00000000000000000000000000000000000EF
:1061B00000000000000000000000000000000000DF
:1061C00000000000000000000000000000000000CF
:1061D00000000000000000000000000000000000BF
:1061E00000000000000000000000000000000000AF
:1061F000000000000000000000000000000000009F
:1062000010B5054C237833B9044B13B10448AFF3F0
:1062100000800123237010BD182C00200000000016
:1062200040F5020008B5034B1BB103490348AFF327
:10623000008008BD000000001C2C002040F502007A
:10624000154B002B08BF134B9D46A3F5803A002148
:106250008B460F461348144A121A07F0B5F80F4B35
:10626000002B00D098470E4B002B00D09847002001
:10627000002104000D000D48002802D00C48AFF3A7
:10628000008007F06FF82000290004F0D5FF07F028
:1062900055F800BF000008000000012000000000C9
:1062A00000000000182C0020E43E00200000000048
:1062B000000000000649074A074B9B1A03DD043B18
:1062C000C858D050FBDC02F023FDFFF7B9FF0000F7
:1062D00050F60200D82A0020182C0020FEE7FEE726
:1062E000FEE7FEE7FEE7FEE7FEE7FEE7FEE7FEE786
:1062F000704700BF00B583B0044B0093044A4023AD
:1063000000F036F803B05DF804FB00BF156302002F
:10631000382C002002B32DE9F843114B114E88466A
:10632000144643F0010903270025224608EB050126
:10633000002005F0B9F803461D444FF47A40E41AF2
:1063400023B9337833B1C847013F06D001233370F6
:10635000002CEAD1BDE8F88370473770BDE8F883B8
:10636000C0E60200342C0020704700BF05F07AB967
:10637000F0B595B000241D460E460846174602F0BB
:106380005DFB304623460822099505A91A9D08970A
:106390000D950A948DF82C400C9402F0B3FB9DF8F7
:1063A00014308DF81140DDE9061003F00302012AD4
:1063B000CDE9020128D0022A04D0304602F042FB87
:1063C00015B0F0BDBDF81650C3F3C2038DF8103000
:1063D000C5F389150827082D2C4628BF08243B46FD
:1063E00022460EA9304602F08DFB2D1B214608AB3C
:1063F00002AA0EA8274400F019FD002DEBD130466B
:1064000002F020FB15B0F0BDBDF81470059DC7F378
:106410008312C3F3C2040EA93046920008238DF8FC
:106420001040C7F3831702F06DFBC5F3952508AB49
:106430003A4628460EA9009302AB00F07FFC304696
:1064400002F000FB15B0F0BD08B5FFF78FFF044860
:10645000042100F0F1FB034B01225A7108BD00BF7B
:1064600038F60200D82A0020064B074810B5002253
:106470001A7002F097FA044610B9044802F0B8FB0B
:10648000204610BD482D0020A4F50200FCE60200C5
:1064900099B10E4B0E495B1ADB0815D030B40022BF
:1064A0000C4D02E0013293420BD035F82240844279
:1064B000F8D151F8320030BC7047054951F830002E
:1064C0007047002030BC70471846704738F602000D
:1064D000B8F50200182C0020094B013903EBC0006D
:1064E00003290BD8DFE801F00402080604207047F6
:1064F000022070474079704700797047002070474C
:10650000B8F50200704700BF2DE9F0438C4CD4E988
:1065100001239A4285B060D00023C4F81834BFF339
:106520004F8FA568EAB2D31C04EB830114F8233023
:10653000580718D566680B7803F00303012B42D087
:10654000022B03D14B88023505EB9315EAB2D4F840
:106550001804D31C04EB830128B9AE4239D914F8CE
:1065600023305B07E7D404EB82026B1CD2680192F4
:10657000DBB204EB830302F00302DB680293022A1E
:1065800005F102062DD0012A00F08D80D4F81054B8
:106590003DB12B6828469B689847EB681D68002D25
:1065A000F7D16848684B6949C01AC008000440F038
:1065B000020000F0D1F8D4E90130C01A18BF012060
:1065C00005B0BDE8F0830B880235C3F383131D4487
:1065D000BCE7A66005B0BDE8F083002005B0BDE8CB
:1065E000F083BDF806305A48C3F389184546502D4C
:1065F00028BF502565F38F1305F10801ADF806306B
:1066000002F0D2F907460028C0D002F017FA0023A2
:1066100001A90822384602F041FAF343DBB2013304
:10662000B5EB830F4FEA8309F1B277D9A5EB0905E2
:10663000033104EB810108234A463846EDB202F0EB
:106640002DFA44492A4609F10803384602F026FA91
:1066500008F1030806EB9806D4F81834002B6AD129
:10666000D4F8105465B1EB685A7928463946002AA7
:106670005DD02B681B689847EB681D68002DF2D130
:10668000384602F0DFF900230DF103008DF80330E6
:1066900001F0C8FAD4F8183403B9A6609DF80300D5
:1066A00001F0E6FA87E7BDF804302948C3F3831206
:1066B000062A28BF0622911C62F389138900ADF8CF
:1066C000043002F071F9074600283FF45FAF02F092
:1066D000B5F90023082201A9384602F0DFF9BDF818
:1066E000043013F4707FB7D06FF00108A8EB0508F1
:1066F0000825F1B203312B46042204EB8101384610
:1067000002F0CCF9BDF80420013608EB0603C2F311
:1067100083129A4205F10405EBD89DE703312A461E
:1067200004EB81010823384602F0B8F990E71D68B0
:10673000002D98D1A4E7384602F084F93BE700BF6A
:10674000482D0020E0F50200B8F50200E4E6020062
:10675000A4F50200542D00202DE9F04F5F4C87B0C6
:10676000002306460DF10B008DF80B300F4601F0AB
:1067700059FAD4E9015303F580735B1B012B7DD8D3
:1067800004F21C4804F5836A04F214491AE0BDF8C7
:106790000E30C3F389130333090C0BEB930B4846FC
:1067A000019101F0E7FC0199002839D04046C4F876
:1067B00008B001F0B3FCD4E9013202F58072D21ABC
:1067C000012A5CD80121404601F0A8FC504601F0A6
:1067D000C1FC484601F0BEFCA368DAB2D11C04EB50
:1067E000810014F8211001F0040C490728D404EBAF
:1067F0008202591CD2680392C9B204EB810102F0F3
:106800000302012AC96803F1020B30D0022ABED06C
:1068100000214846019101F0ADFC01990028C5D145
:106820004046C6E743880EEB9313DAB2D11C04EB63
:10683000810014F8211001F0040CBCF1000FD6D037
:10684000017801F0030101290BD0022903F1020EA6
:1068500002F10301E6D004EB8100BCF1000FEFD19F
:10686000C5E702880233C2F383121344DDE7BDF8A3
:106870000C30C3F38313090C9B4490E72B46DAB228
:106880000332023305219DF80B0044F822106360A7
:1068900001F0EEF90021124801F016FC80F310001F
:1068A000F1006B1C01F03801DBB2EDB204EB8303A5
:1068B00041F001010004033540EA164641EA87270A
:1068C000DE6044F8257023781BB1FFF71DFE002819
:1068D000FBD1FFF717FE07B0BDE8F08F482D002071
:1068E000643100202DE9F04F644C87B00023064648
:1068F0000DF10B008DF80B300F46904601F092F928
:10690000D4E9015303F580735B1B022B7FD804F29B
:106910001C4904F5836B04F2144A1BE0BDF80E20F9
:10692000C2F389120332090C03EB92035046CDE9FE
:10693000003101F01FFC019900283AD0009BA360B0
:10694000484601F0EBFBD4E9013202F58072D21A1D
:10695000022A5DD80121484601F0E0FB584601F0CB
:10696000F9FB504601F0F6FBA368DAB2D11C04EB48
:10697000810014F8211001F0040C490729D404EB1C
:106980008202591CD2680392C9B204EB810102F061
:106990000302012AC96803F1020331D0022ABDD0E3
:1069A00000215046CDE9003101F0E4FB01990028B7
:1069B000C4D14846C5E743880EEB9313DAB2D11C25
:1069C00004EB810014F8211001F0040CBCF1000F5D
:1069D000D5D0017801F0030101290BD0022903F180
:1069E000020E02F10301E6D004EB8100BCF1000FBE
:1069F000EFD1C4E702880233C2F383121344DDE708
:106A0000BDF80C20C2F38312090C13448EE72B4609
:106A1000DAB20332033345219DF80B0044F822100B
:106A2000636001F025F9AB1CDBB204EB83030021AA
:106A30001348C3F80C8001F047FB80F31000F1000D
:106A40006B1C01F03801DBB2EDB204EB830341F0C3
:106A500041010004033540EA164641EA8727DE601B
:106A600044F8257023781BB1FFF74EFD0028FBD1B9
:106A7000FFF748FD07B0BDE8F08F00BF482D0020AC
:106A8000643100202DE9F04F694C89B0002506469D
:106A90000DF113001F468DF813508846039201F044
:106AA000C1F8D4E9015303F580735B1B032B00F29B
:106AB000828004F21C4904F5836B04F2144A1BE043
:106AC000BDF81620C2F389120332090C03EB9203BE
:106AD0005046CDE9013101F04DFB029900283BD031
:106AE000019BA360484601F019FBD4E9013202F58D
:106AF0008072D21A032A5FD80121484601F00EFBAA
:106B0000584601F027FB504601F024FBA368DAB297
:106B1000D11C04EB810014F821C01CF0040F0CF010
:106B2000040128D104EB8202591CD2680592C9B233
:106B300004EB810102F00302012AC96803F1020398
:106B400032D0022ABCD000215046CDE9013101F0FB
:106B500011FB02990028C3D14846C4E743880EEBD5
:106B60009313DAB2D11C04EB810014F8211001F068
:106B700004010029D6D090F800C00CF0030CBCF141
:106B8000010F0BD0BCF1020F03F1020E02F1030C56
:106B9000E4D004EB8C000029EDD1C3E70288023376
:106BA000C2F383121344DCE7BDF81420C2F383124E
:106BB000090C13448CE72B46DAB2033204338521E7
:106BC0009DF8130044F82210636001F051F8AA1CEC
:106BD000EB1CDBB2D2B204EB830C04EB8202039B0E
:106BE0001448D3600021CCF80C7001F06DFA80F3EA
:106BF0001000F1006B1C01F03801DBB2EDB204EBC8
:106C0000830341F081010004033540EA164641EA5E
:106C10008821DE6044F8251023781BB1FFF774FC4F
:106C20000028FBD1FFF76EFC09B0BDE8F08F00BF74
:106C3000482D00206431002030B4154DD5F81014D3
:106C40000446002071B10B4601E01B6853B1DB68BC
:106C50001A798242F9D101300A28F3D14FF0FF307E
:106C600030BC7047E3681871D5F810344BB1DA685E
:106C7000E36812681A60D5F81034DB681C6030BC19
:106C80007047C5F81044E268136030BC704700BF1D
:106C9000482D002038B5084BD3F8104401251D704D
:106CA0004CB1E3685D71236820465B689847E368F0
:106CB0001C68002CF5D138BD482D002030B5C388A4
:106CC00085B004460D461BBB217A05291ED0627A89
:106CD00082B9134AA08852F8212003920021FFF7BD
:106CE000D7FB039A0F490346284605B0BDE830405C
:106CF00001F0BCBAA088FFF7EFFB0B4B0B4953F830
:106D00002020284601F0B2FA217AE2E705B030BD32
:106D1000074A00920749084A284601F0A7FAD3E734
:106D2000D4E7020034E70200B0E7020030E70200D7
:106D300028E7020010E7020008E702002DE9F0430F
:106D400085B04FF0000C0C9C814694F80C8084F8C0
:106D50000CC00E461746184621461D46FFF7AEFFEB
:106D6000062F09D8DFE807F0042E343B444F1F00FC
:106D70004946204601F07AFA2B7A052B05D06B7A2A
:106D80005BB92749204601F071FA204601F062FA0A
:106D900084F80C8005B0BDE8F083224A22492046E1
:106DA00001F064FAEDE7D6E90413F2680393B368DF
:106DB0000291CDE900324946D6E90023204601F090
:106DC00055FAD9E732684946204601F04FFAD3E731
:106DD000D6E900234946204601F048FACCE7B368DB
:106DE0000093D6E900234946204601F03FFAC3E765
:106DF000D6E9023201920093D6E9002349462046A3
:106E000001F034FAB8E7D6E90321B3680291CDE97D
:106E100000324946D6E90023204601F027FAABE7C5
:106E200040E7020028E7020030E70200082900D905
:106E300070472DE9F04F9B4683B000241B7B8BF8F5
:106E40000C400D4606465946104690460193DFF821
:106E5000D0902C4FFFF732FF05E0325D013401F096
:106E600005FA082C09D0A54239465846F5D84946B6
:106E7000013401F0FBF9082CF5D12349DFF8A49087
:106E8000224C234F584601F0F1F94FF0000A0DE073
:106E9000D15D11F0970F08BF2E22214658460AF106
:106EA000010A01F0E3F9BAF1080F10D0554505D9F0
:106EB00016F80A207E2AEBD92E22EEE749465846DC
:106EC0000AF1010A01F0D2F9BAF1080FEED198F8EF
:106ED0000830052B02D098F8093063B90D4958469F
:106EE00001F0C4F9584601F0B5F9019B8BF80C305C
:106EF00003B0BDE8F08F084A0849584601F0B6F9DA
:106F0000ECE700BF44E7020050E7020054E702004C
:106F1000A5F3020040E7020028E7020030E7020084
:106F20004CE702003CE7020038B5174B1D783DB333
:106F3000164B1968C0B200230C4604E00133AB4283
:106F400004F108041CD011F833209042F6D102F06D
:106F50008BFC6378A3F10103B3FA83F35B098342EB
:106F600000D038BD0A4BD3E900231343F9D1094BB4
:106F7000094819680022BDE83840490800F042BCC1
:106F800000231B78FFDE00BF0032002020320020EB
:106F90000832002004320020E02A00202DE9F04FC2
:106FA000DFF8548298F8003083B0002B00F019818C
:106FB000DFF848928C4F8D4E00254FF0010A3C6857
:106FC00014F8350002F050FC04EBC50314F835400A
:106FD0005B784FEA540C14F0010E16F80C10A3F174
:106FE0000103B3FA83F314BF0A0901F00F025B092E
:106FF000042A00F2A080DFE802F0725D3220030074
:10700000834240F0AB80BEF1000F0CBFF0230F2392
:1070100003EA01030CBF03213021194306F80C10C9
:1070200098F8002001359542C9DBD9E900231343C4
:1070300040F0CD8003B0BDE8F08F83427BD0BEF13D
:10704000000F0CBFF0230F2303EA01030CBF042140
:107050004021194306F80C1098F80020E2E783421B
:107060006CD1BEF1000F0CBFF0230F2303EA010324
:1070700098F800200CBF03213021194306F80C10AA
:10708000002AD2D0D7F800C00023614603E0934223
:1070900001F10801C6D01CF83300A04203F101033E
:1070A000F5D14B68002BBDD020460121984798F8B8
:1070B0000020B7E7834219BF0020034602232020A7
:1070C000BEF1000F0CBFF0220F2201EA020118BF2F
:1070D00003460B4306F80C3098F80020A2E78342E1
:1070E00029D1BEF1000F14BF0F23F02303EA0103DF
:1070F00014BF1021012119430DF107004FF00003C7
:1071000006F80C108DF8073000F08CFDD9E900323C
:10711000A4F12001C4F120000AFA01F12AFA00F0DA
:1071200001430AFA04F4114323439DF80700C9E917
:10713000003100F09DFD98F8002073E7BEF1000FCC
:107140000CBFF0230F2303EA01030CBF0121102120
:10715000194306F80C1098F8002063E7BEF1000F01
:1071600014BF0F23F02398F80000194006F80C1004
:1071700098B1D7F800C00023624603E0834202F1D1
:1071800008020AD01CF83310A14203F10103F5D123
:10719000536813B10021204698474FF000030DF1CA
:1071A00007008DF8073000F03DFDD9E90032A4F169
:1071B0002001C4F120000AFA01F12AFA00F001438B
:1071C0000AFA04F422EA010123EA0403ADE7084BBA
:1071D000084819680022490800F014FB03B0BDE814
:1071E000F08FDFF8189020E72032002010320020C6
:1071F00004320020E02A0020003200200832002063
:10720000092A43D92DE9F04182B0144606460D46BD
:1072100002F0DEF9002832D0214A2249224B1660C2
:107220000D7022481C600021102206F0CDF8204B82
:10723000002000216C1EC3E90001E4B245B3DFF871
:107240007C8006EBC404032702E0A64220D01C4643
:107250009DF80630A57820788DF8047023F0070398
:10726000424601A98DF806308DF8055002F0BAF9B2
:10727000A4F108030028E8D002B0BDE8F08102F0D4
:1072800057F90028C8D002B0BDE8F0810720704748
:10729000084A0948002100F09FFA02B0BDE8F081D9
:1072A0002032002000320020043200201032002062
:1072B000083200209D6F0200F4E70200296F0200EF
:1072C00070B5084D2B785BB1074E0024336801215F
:1072D00013F8340002F06AFA2B780134A342F5D88F
:1072E000002070BD003200202032002000B585B0A3
:1072F0000346002101AA44F20100CDE901110393E4
:1073000000F004F805B05DF804FB00BF10B572B6DC
:10731000FFF7C0FCFFF7F8F80028FBD1104B114C29
:107320001149E41AE408240444F00100FFF714FAB8
:107330000E4B1B68DB0700D500BE0D4944F0020070
:10734000FFF70AFABFF34F8F0A490B4BCA6802F4E2
:10735000E0621343CB60BFF34F8F00BFFDE700BF78
:10736000B8F50200E0F50200F8E70200F0ED00E0F9
:1073700004E8020000ED00E00400FA0559B142B152
:10738000531E1A4005D1826001608380C26010469E
:107390007047092070470E20704700BF10B4846802
:1073A000C26803468088121B904203D204205DF815
:1073B000044B7047DA681C6802400020A154DA6868
:1073C0000132DA605DF8044B704700BF0346806805
:1073D000DA6890420DD010B498689A881C68024010
:1073E0000020A25C0A709A6801329A605DF8044B32
:1073F00070470520704700BFD0E90223D1E90201A0
:10740000994208BF90422CBF01200020704700BF66
:1074100010B5044682B000230DF107008DF8073047
:1074200000F000FC23692BB94FF0FF324FF0FF331F
:10743000C4E902239DF8070000F01AFCD4E90530E6
:10744000984700230DF107008DF8073000F0EAFBA4
:107450002369B3B1D4E902014A1C08BFB0F1FF3F70
:107460000FD0C01841F10001C4E902019DF80700E6
:1074700000F0FEFB0648214601F0DEFB012002B0D1
:1074800010BD9DF8070000F0F3FB002002B010BD16
:1074900024E802002DE9F04F87B0064600F014FD05
:1074A00040B1AA4AD2E9003113F1807341F10001E1
:1074B000C2E900310021304600F022FDA44C60B347
:1074C000236853B3A34B25681B7823B31DB3A2488D
:1074D00000F026FD9D4BA149D3E90023D1E90089A5
:1074E000121843F100034B4508BF424503D212F185
:1074F000807243F10003D5E902018B4208BF82424A
:1075000080F02081013108BFB0F1FF3F03D09448E3
:10751000294601F091FB002323600121304600F051
:10752000EFFC002840F0F2808E4805A900F06EFDC7
:1075300078B38C4D4FF0FF384FF0FF390BE0002B44
:1075400000F0958005A9284600F090FD05A9284681
:1075500000F05CFDE8B10378012B11D0022BEED1D5
:107560007F4F384601F07CFB30B1C0E902893846D4
:1075700001F076FB0028F8D1764B01221A70E1E782
:1075800041682368994200F0B680754801F072FBAB
:10759000D8E7DFF8CC81704FDFF8B091404601F0BA
:1075A00065FB002859D0D0E90223591C08BFB2F16D
:1075B000FF3F58D0216891B12168D1E902018B4287
:1075C00008BF82424CD22368D3E90223013308BFAB
:1075D000B2F1FF3F03D02168404601F02DFB404649
:1075E00001F03EFB05463846AA68EB680392029319
:1075F00000F096FCD9E900AB584BD3E900231AEB15
:10760000000A4BF1000B9B4508BF9245DDE90232B1
:1076100003D21AF1807A4BF1000BB2EB0A0163EB53
:107620000B0301930091DDE90001012871F10003D2
:107630002ADBB0F5350F58D24FF4960300213846B7
:1076400000F0BCFB00284AD00D2821D00023404682
:10765000236001F00BFB0028A5D12368002B6DD01F
:1076600007B0BDE8F08F404601F0FAFA96E74168AE
:10767000D1E90223013308BFB2F1FF3F3FF462AF0B
:10768000374801F0D9FA5DE70021384600F02CFCBC
:10769000304B1B78002BD9D0384600F041FCD9E99B
:1076A00000232E49D1E900AB121843F100035B45DA
:1076B00008BF524503D212F1807243F10003D5E9AD
:1076C00002018B4208BF82421CD2013108BFB0F1D7
:1076D000FF3FBBD02946404601F0AEFAB6E723682B
:1076E00063B1256007B0BDE8F08F384600F018FCA4
:1076F0001D4A0244A0E70023236023E7304600F040
:107700002FFBEEE72846FFF783FE9FE71248134D55
:1077100000F006FC0D4BD3E90089D5E9002318EBF6
:10772000000849F10009994508BF904503D218F1B6
:10773000807849F10009C5E90089F5E6304600F096
:1077400013FB8DE72846FFF763FEE4E628320020AE
:10775000A832002030320020002B0020A032002070
:1077600024E802008C320020FFFFB40010B5134B58
:1077700013491B68134882B058220193082300F074
:10778000EFFB044610B1204602B010BD0E4A0F4870
:1077900001A900F085FA04460028F4D10B48012124
:1077A00000F088FB01231946094A084800F0E0FA76
:1077B000084B012220461A7002B010BD20E80200DA
:1077C000343200208C32002095740200002B0020FF
:1077D000FFFF7F00303200208AB130B4A1F10101F7
:1077E0000368B1FA81F14FF0FF344FF0FF354909DA
:1077F000C3E90412C3E90245002030BC70470720EA
:10780000704700BF2DE9F04383B00546002401A86E
:1078100017460E468DF8044000F004FAD5E902231D
:10782000013308BFB2F1FF3F07D09DF8040000F01C
:107830001FFA204603B0BDE8F0831D4800F070FB3E
:107840001C4B1D49D3E90023D1E90089121843F1EB
:1078500000034B4508BF424525D3921943F100036D
:10786000C5E902239DF8040000F002FA2B69AF611C
:1078700003B12E61114801A900F08AFB78B1002400
:107880004560047001A90D4800F0B0FB0028D1D07C
:10789000074800F049FB204603B0BDE8F083042010
:1078A00003B0BDE8F08312F180726341D5E700BFF9
:1078B000002B002028320020A03200208C32002033
:1078C00030B583B00446002501A88DF8045000F0BF
:1078D000A9F9D4E90223013308BFB2F1FF3F1BD05D
:1078E0004FF0FF324FF0FF339DF80400C4E902234C
:1078F00000F0BEF90F4801A900F04AFB48B101238E
:107900004460037001A90B4800F070FB58B903B044
:1079100030BD042003B030BD9DF8040000F0A8F98C
:10792000284603B030BD044800F0FEFA284603B0F4
:1079300030BD00BF8C320020002B002030B5047811
:10794000012C83B004D0022C2DD0ECB103B030BD9B
:10795000037A002B3CD04368364D19782846FFF750
:107960001DFD002854D0344B01901B688DF8004059
:1079700068469847A968EB68AA885B1A9A4227D29A
:107980002E4B01221A70E1E72D492E48FFF71EFD0C
:1079900000282ED0284B03221B688DF80020684653
:1079A000984703B030BD284B284D1A78C168AA5CAF
:1079B00001918DF80040B2B9254903F10C00012274
:1079C00002F0D4FB1C4B68461B68984703B030BDDF
:1079D0001D4B1E4A1B781E49D35C0122A3B11D48D2
:1079E00002F072FEB2E71A49181D012202F06CFE85
:1079F000E8E71548154A0378D35CA3B11049012282
:107A0000043002F0F9FDA1E7134802F0AFFB9DE757
:107A1000AA68EB689A42ADD0074B8DF800001B684E
:107A200068469847A6E7064901220C3002F02AFB77
:107A30008CE700BFB0320020AC320020C032002002
:107A4000D8320020C4320020082B0020583E0020ED
:107A5000D43200200C2B0020142B00202DE9F04103
:107A6000334D8AB02A60002956D08A8880460D4658
:107A7000304809681C46FFF781FC10B10AB0BDE828
:107A8000F081AA89A9682C48FFF778FC0028F5D175
:107A90002A4E98F810C02A4F0FCE02AD0FC596E8B7
:107AA0000F0098F81160BCF1000C85E80F0018BFBA
:107AB0004FF0010CD8F804300193002ED8F81430A0
:107AC000D8F808508DF8244014BF0E220022D8F8B0
:107AD0000C40D8F800608DF81D200893194A019BCE
:107AE0008DF81CC002A93846CDE9044503960293DF
:107AF00001F06EFC0028C1D1D8F80030124A0133E1
:107B00001070BBD0114A3B78D35C4BB11049381D83
:107B1000012202F0D9FDB1E707200AB0BDE8F081EB
:107B20000B4907F10C00012202F020FBA6E700BF81
:107B3000AC320020B0320020C432002030E8020015
:107B4000082B00203D790200C0320020583E002062
:107B5000D432002070B5114D014611482E78FFF740
:107B600035FC04460EB9204670BD0E480E4A037817
:107B7000D35C00222A7053B10C490430012202F078
:107B8000A3FD0028EFD0FFF7B1FB204670BD0749E9
:107B900001220C3002F0EAFAF3E700BFC032002005
:107BA000B0320020082B0020583E0020D4320020A4
:107BB00070B501461548FFF7F1FB044608B12046B1
:107BC00070BD134D134E2B78F35CA3B1281D02F04A
:107BD0006DFD0028F3D110490C48FFF7F7FB002892
:107BE000EDD12B780C49F35C01224BB1BDE870401C
:107BF0000A4802F001BD05F10C0002F0ABFAE8E71B
:107C0000BDE87040064802F03DBA00BFC432002013
:107C1000082B0020583E0020D83200200C2B0020DA
:107C2000142B002070B4EFF3108472B60D4B9A68D9
:107C3000AAB90D490D4E01259D60D1F880503540FF
:107C40001D60C1F88060D1F884505D604FF0FF3353
:107C5000C1F88430027004B962B670BC7047012369
:107C60000370F8E74C3E002000E100E0FC06FFBD99
:107C7000094B9A687AB170B910B4EFF3108172B6FB
:107C8000064A1C6814605C685460986001B962B66A
:107C90005DF8044B704770474C3E002000E100E067
:107CA00070B5274C4379274E04EBC30546F82320D3
:107CB0002D79002D37D103680A88C3F8082590F97B
:107CC00004308A78002B26DB03F1604303F561431F
:107CD0005201D2B283F8002390F90430002B07DB65
:107CE000194903F01F0501225B09AA4041F823202E
:107CF0004279164B164D44F83200581B04EBC2046F
:107D0000C008012300041349237140F00300FEF76B
:107D100023FD002070BD104903F00F0352011944E8
:107D2000D2B20A76D8E70A4B08480C49C01AC008F4
:107D3000000440F00200FEF70FFD082070BD00BFF8
:107D4000DC320020E432002000E100E0F0F5020027
:107D5000B8F5020074E80200FCEC00E050E8020014
:107D6000036801221A607047036801225A60704755
:107D7000F0B404684FF480358D40C4F808530668A9
:107D800001F15004C6F84853A4000668A4B20027C5
:107D9000375182B036590468019601F5A87122F076
:107DA0007F42019E44F821200268C2F8445313B177
:107DB0000368C3F8045302B0F0BC70472DE9F047E4
:107DC00004464FF4803600688E40C0F8486320684F
:107DD000C0F80863206800EB81058A46D0F80415D6
:107DE000D5F84005C5F840150AF15005AD002768E3
:107DF000ADB24FF0000847F8058082B0401A7F59B5
:107E0000009720F07F40012822F07F479946009A92
:107E100041D02268D2F80455C2F844637A1B22F09C
:107E20007F42012A0AF5A87125D0226842F8217004
:107E30002068D0F804557A1BC9F1FF13013A03F505
:107E40007F4322F07F42934211D342B1C0F8446392
:107E500023680020C3F8046302B0BDE8F08701374F
:107E600040F821702068D0F804359D42EED00D20F6
:107E700002B0BDE8F08720680D4B013740F8217053
:107E800043F001034FF4806098472068D0F8043530
:107E90009D42DBD0EBE7064A4FF4806042F00102DE
:107EA0009047226842F8058052590192019AB0E742
:107EB00090E8020002680223C2F8443311B102685C
:107EC000C2F80433704700BF0368D3F8040100B957
:107ED0007047002282B0C3F80421D3F80431019323
:107EE000019B012002B0704702684FF4803303FA0F
:107EF00001F1C2F848130368C3F80813704700BFC4
:107F000050318900036889B2585800B9704700227F
:107F10005A5082B05B580193019B012002B0704718
:107F20000368D3F80405704790F90430002B09DB8F
:107F30005A090548403203F01F03012101FA03F3F7
:107F400040F82230704700BF00E100E0024A034BD6
:107F500010681B68184700BFDC320020E4320020A4
:107F600099B110B4B2FBF3F403FB1424A4B244B9E6
:107F7000C0E9001484608281C38120465DF8044B0F
:107F8000704709205DF8044B70470E20704700BF12
:107F900030B482B050E8013F9DB2C4892544848941
:107FA000A54228BF2D1B0489A54202BFBFF32F8F16
:107FB000002207E0C5EA030540E80154002CE9D19E
:107FC0004FF001028DF803200193019B9DF80320DF
:107FD0000B602AB10B880068184402B030BC7047AF
:107FE00002F0FF03184602B030BC70470A884B8885
:107FF0009A4201D00020704750E8012FC2EA0242A5
:1080000040E80123002BF7D10120704730B482B043
:1080100050E8023F1FFAA3F5C488A54202BFBFF390
:108020002F8F00220DE0C48925448489A54228BFF2
:108030002D1BC3EA054540E80254002CE8D14FF05F
:1080400001028DF803200193019B9DF803200B6032
:108050002AB14B880068184402B030BC704702F067
:10806000FF03184602B030BC704700BF0A884B8837
:108070009A4201D00020704750E8022FC2EA224203
:1080800040E80223002BF7D1012070474A09012361
:1080900001F01F0100EB820003FA01F100F022B8A9
:1080A00001F01F0201234909934000EB8100D943ED
:1080B00000F026B84B0901F01F0150F82300C8401A
:1080C00000F00100704700BF10B4034653E8000FF2
:1080D0000A4643E8002494F0000FF7D15DF8044B02
:1080E000704700BF10B4034653E8002F42EA010076
:1080F00043E8000494F0000FF6D15DF8044B70479C
:1081000010B4034653E8002F02EA010043E80004DC
:1081100094F0000FF6D15DF8044B704710B403469D
:1081200053E8002F02EB010043E8000494F0000F35
:10813000F6D15DF8044B704710B4034653E8002FA6
:10814000A2EB010043E8000494F0000FF6D15DF8C3
:10815000044B704710B40346012253E8001F41EA64
:10816000020043E8000494F0000FF6D15DF8044BE0
:10817000704700BF10B40346002253E8000F00EA26
:10818000020143E8001494F0000FF6D15DF8044BAF
:10819000704700BFB8B130B4D0E90112521A046878
:1081A000D2B2531E2160DBB242B101680A685C1E84
:1081B000551C0D601370E3B2FF2BF6D1036800204D
:1081C000187130BC70470E20704700BFF0B583B007
:1081D000044600250DF107008DF80750FFF722FD3A
:1081E000D4E900311A688A4210D9511E19602168F9
:1081F000A3680F6812F8015C0A79268AE068DB1B25
:10820000DBB29A4206FB050538BF0B719DF80700EB
:10821000FFF72EFD284603B0F0BD00BF30B5054680
:1082200083B000230DF107000C468DF80730FFF7EF
:10823000F9FC2A681368591C1160E9682A8A641AD3
:10824000B4FBF2F41C709DF80700FFF711FD03B0BA
:1082500030BD00BF826842B110B504464369016871
:10826000006998470023A36010BD70470EB400B5A5
:1082700082B0039921B104AB01AA019300F0ACF8DC
:1082800002B05DF804EB03B0704700BF2DE9F04F7A
:10829000164683B0B142DDE90C920F4605469A4678
:1082A000C0F095800B464FF00108B3FBF6F39E42F9
:1082B00008F10108F9D9D04538BFD04612F00103C2
:1082C000019302D1B9F1000F5ED1AA68012403E045
:1082D0000AF1FF3A06FB04F4BAF1010FF8D8B7FB34
:1082E000F4F39E42F6D9DFF8ECA007E0B442B4FB09
:1082F000F6F31AD3AA681C46B7FBF3F31AF803B0D7
:10830000BBF10A0F04FB137728D02B68511CA9601E
:1083100003F802B0D5E901329A42E7D32846FFF7C5
:1083200099FFB4FBF6F3B442E4D2019B9BB1B9F1DF
:10833000000F10D02024C84509F1FF390BD2AB68DB
:108340002A68591CA960D454D5E901329A4214D242
:10835000B9F1000FEFD103B0BDE8F08F511C2B68CD
:10836000A9604FF00D019954D5E901329A42CCD35E
:108370002846FFF76FFFAA68C7E72846FFF76AFF9E
:10838000B9F1000FD7D1E6E793071AD42024AA68E1
:10839000C84502F1010199D22B68A9609C54D5E926
:1083A00001329A4209F1FF3903D2B9F1000FEFD13E
:1083B0008CE72846FFF74EFFAA68B9F1000FE7D116
:1083C00084E7BAF1000F0CBF30242024DFE74FF020
:1083D000010870E798E80200002900F054822DE9B6
:1083E000F04FDFF8B8950C7885B0064690460D46FC
:1083F0004FF00D0A10E00A2CB36800F0AD8032682F
:10840000591CB160D454D6E901329A4280F0A08060
:108410002C78002C00F087800135002C00F0838040
:10842000252CE8D1294600270D4611F8012B2D2ACD
:1084300000F08880302A00F088802B2A7AD02A2AFF
:1084400000F09980A2F13003092B4FF000040BD803
:1084500004EB840402EB440415F8012FA2F130036D
:10846000092BA4F13004F3D92E2A00F090800023C8
:1084700001E015F8012F02F0FB016829F9D0252A47
:1084800000F07781583AD1B2202947D8202A45D820
:10849000DFE812F035014400440044004400440089
:1084A00044004400440044004400430113014400DC
:1084B00044004400440013014400440044004400CC
:1084C00044004400D20044004400A2004400940050
:1084D00044004400350101209842024638BF1A4644
:1084E0000292002C40F05081B80740F16E81002BC1
:1084F00040F04E821C46BBF1000FC0F20A827A07A0
:1085000000F11A8207F00302022A00F0EA81CDE9A5
:10851000004759460A223046FFF7B8FE01352C784D
:10852000002C7FF479AF337B002B40F01C8105B029
:10853000BDE8F08F0D4611F8012B2D2A47F00407F6
:108540007FF478AF47F001076EE747F002076BE76B
:108550003046FFF77FFE5BE73268591CB16002F8D6
:1085600003A0D6E901239342FFF449AF3046FFF759
:1085700071FEB36843E7D8F800301A1DC8F8002030
:108580006A781C682E2A05F101057FF470AF6A78BD
:10859000A2F13003092B05F101054FF000033FF66E
:1085A0006AAF03EB830302EB430315F8012FA2F13B
:1085B00030010929A3F13003F3D95CE7D8F8002092
:1085C000111DC8F8001011683046CDE900470A2295
:1085D000FFF75CFE0135A2E7D8F800301A1DC8F895
:1085E000002017F00107D3F800B040F0F080BBF195
:1085F000000F03D0584604F00FFF0746BC4240F27C
:108600004381002C00F04081202205E0BC4200F0B4
:108610003B81002C00F03881B1683368481CB060A1
:108620005A54D6E90130984204F1FF34EED3304673
:10863000FFF710FE2022E9E7D8F80020131DC8F844
:108640000030B36831681768581C3022B060CA54D3
:10865000D6E90123934280F0EF803268581C7821DC
:10866000B060D154D6E901329A4280F0E0800F2FF9
:1086700003D93B461B090F2BFCD84FF0805406E072
:108680000F2C4FEA14137FF649AFB2681C46B7FBB4
:10869000F4F319F803B0BBF10A0F04FB137754D0BD
:1086A0003368511CB16003F802B0D6E901329A4236
:1086B000E6D33046FFF7CEFDE2E7D8F80020111DE3
:1086C000C8F80010D2F800B08BEAEB72A2EBEB72A4
:1086D000092A7FF700AFDFF8C8C2012011466329DD
:1086E000ACFB02E200F101004FEAD202F6DC984254
:1086F000024638BF1A460292002C45D1F4E6D8F85B
:108700000020111DC8F8001011683046CDE900475F
:108710001022FFF7BBFD013501E7D8F800301A1D24
:10872000C8F800201C78B3680A2C00F01181326868
:10873000591CB160D454D6E901329A42FFF4EEAE2E
:108740003046FFF787FD0135E9E63368511CB1601B
:1087500003F802A0D6E901329A42A1D33046FFF7CE
:1087600079FDB2689CE7304605B0BDE8F04FFFF7F1
:1087700071BDB3683168581CB060CA54D6E9013283
:108780009A42DDD20135CAE6BBF1000F59DB7A0708
:1087900057D4B80702D5002B3FF4ADAEF9073FF52B
:1087A000AAAE94B120220299A142BFF4A4AEB1684E
:1087B000481CB06030684254D6E90101814204F19E
:1087C000FF3480F0D480002CEDD1002493E69BF898
:1087D0000030002B00F0E080B0685F46CBF1010272
:1087E0000A2B02EB070B3CD0411CB16031680B54E3
:1087F000D6E90130984226D217F8013F002BEFD17D
:108800005C457FF68BAE202702E05C453FF486AEE8
:10881000B2683368511CB1609F54D6E901329A4264
:1088200004F1FF34F1D33046FFF714FDEDE7304695
:10883000FFF710FDB2681AE73046FFF70BFDB3688B
:108840000BE7013CA5E730460292FFF703FD17F85E
:10885000013F002BD4D0029AB0680A2B02EB070B21
:10886000C2D1411CB160316801F800A0D6E9011005
:108870008842B9D33046CDE90232FFF7EBFCDDE99F
:108880000232B068B0E770479BF80040002C3FF41C
:1088900045AE0A2CB0680ED03368421CB2601C543E
:1088A000D6E90130984214D21BF8014F002C3FF456
:1088B00035AE0A2CF0D13368421CB26003F800A038
:1088C000D6E901309842E7D33046FFF7C3FCB068E1
:1088D000E2E73046FFF7BEFC1BF8014F002CD8D171
:1088E0001CE6002B7FF413AE8CB130220299A1421A
:1088F000BFF40DAEB168481CB06030684254D6E990
:108900000101814204F1FF343BD2002CEED100245E
:10891000FDE5B1684A1CB26032682D205054D6E99A
:1089200001219142CBF1000BFFF4ECAD30460393F3
:10893000FFF790FC039BE5E5B1684A1CB260326822
:108940002B205054D6E901219142FFF4DBADEDE735
:108950003268591CB16002F803A0D6E901239342A2
:10896000FFF4E5AE3046FFF775FCB368DFE630464E
:108970000393FFF76FFC039B2022002C7FF413AFBF
:1089800023E730460393FFF765FC039B3022BCE7E7
:10899000F9073FF5B0AD18E79B4631E798E80200CC
:1089A000CDCCCCCCFFF7F6BB2DE9F041058A0331E5
:1089B000043D4E198046B6FBF5F6FFF707FCA0B361
:1089C000F6B24FF48073013E0446C580C0F80080C3
:1089D00083802BD00346002508E06279AE4202F185
:1089E000010262713860C0F800801FD040461F4607
:1089F000FFF7ECFB013503460028EED16779791EBD
:108A000017D02246013399421268FBD1D2F8008078
:108A10005FB12668002501E03446366821460135FD
:108A20004046FFF7FBFBAF42F6D800242046BDE8E6
:108A3000F08120682146FFF7F1FBF6E704300121C1
:108A4000FFF76CBB2DE9F041012104460430FFF72C
:108A500073FB10F0FF0301D0BDE8F0816779791E48
:108A600016D02246013399421268FBD1D2F8008019
:108A7000002FF1D02668002501E0344636682146F3
:108A800001354046FFF7CAFBAF42F6D8BDE8F0819A
:108A900020682146BDE8F041FFF7C0BB2DE9F8434F
:108AA0000546C6884079144606FB00F2043A04EBFA
:108AB000030C1F1D624538BFD41ABE428846B7FB5F
:108AC000F6F106FB117002D801392D68FCD1371A76
:108AD000A74228BF27469CB14FF000090430E41B91
:108AE00028443A4608EB090104F060FCA642B94468
:108AF0002D6837464FF0000028BF2746002CEDD1E7
:108B0000BDE8F8832DE9F8430546C6884079144648
:108B100006FB00F2043A04EB030C1F1D624538BF4C
:108B2000D41ABE428846B7FBF6F106FB117002D894
:108B300001392D68FCD1371AA74228BF27469CB1BE
:108B40004FF0000904302918E41B3A4608EB0900ED
:108B500004F02CFCA642B9442D6837464FF00000C3
:108B600028BF2746002CEDD1BDE8F88341DF7047D0
:108B7000064A074B10B5002414701C60BFF35F8FCA
:108B80000449054800F042F8204610BDF0320020AC
:108B9000F4320020B4E80200E832002000B583B0CF
:108BA00000230DF107008DF80730FFF73BF8F1EED9
:108BB000103A23F09F03E1EE103ABFF35F8F0B4BA7
:108BC0004022C3F884219DF80700FFF751F804F014
:108BD0000BFA28B920BF40BF20BF03B05DF804FBEB
:108BE000FFF7C4FF03B05DF804FB00BF00E100E045
:108BF000826800239360826813618268536182688F
:108C0000D3608268536082681360704701600B68AC
:108C100043604A68934204BF00234360704700BF2B
:108C2000436843B1026891680B44436052689342C1
:108C300004BF00234360704770B54468064620684F
:108C40000D4618B908E02468206828B1B3682946A1
:108C500098470028F7D120682860256070BD00BFC4
:108C60004368186808B102681A607047436818685A
:108C7000704700BF4368186818B908E003460068E9
:108C800028B18142FAD10A681A6001207047704702
:108C9000114910B4A1F5947205E052F833309842AE
:108CA00038BF21460CD28C1AE30F03EBE4035B10B0
:108CB000914202EBC304F0D808485DF8044B7047BA
:108CC00002D904F10802EEE76068044B5DF8044B3A
:108CD000002808BF18467047F4ED0200B8EC020007
:108CE00070B5161E07DD0C468D1914F8010BFEF742
:108CF0005FFFA542F9D1304670BD00BF10B50C46EC
:108D00002046FEF727FF0528FAD0012010BD00BF3E
:108D100030B4B24B1B68591C04BFB14B1B78062BF7
:108D200005D1B04BB04A1B68C3F304231360AC4BAE
:108D30001B78062B00F0FD80A84B1B685A1C04BF53
:108D4000A74B1B78062B05D1A84BA94A1B68C3F378
:108D500042331360A24B1B78062B00F0D7809F4B49
:108D60001B685D1C04BF9E4B1B78062B08D14FF07F
:108D700080430022C3F80C21C3F81021C3F8382522
:108D8000974B1B78062B00F0A180944B1A68541C5B
:108D900024D0984B062A1B6828D0974AD2F88830EE
:108DA00043F47003C2F88830BFF34F8FBFF36F8F67
:108DB0008A4B1B68062B00F0CD804FF01023D3F8B0
:108DC0000022002AC0F24681D3F80432002BC0F200
:108DD00041818A4B8A4A1A6030BC70478049894B6E
:108DE00009781B680629D8D1C3F30313033B042B6E
:108DF00040F2CA804FF08052834BD2F80414C3F87B
:108E00002015D2F80814C3F82415D2F80C14C3F8AE
:108E10002815D2F81014C3F82C15D2F81414C3F87E
:108E20003015D2F81814C3F83415D2F81C14C3F84E
:108E30004015D2F82014C3F84415D2F82414C3F80E
:108E40004815D2F82814C3F84C15D2F82C14C3F8DE
:108E50005015D2F83014C3F85415D2F83414C3F8AE
:108E60006015D2F83814C3F86415D2F83C14C3F86E
:108E70006815D2F840145948C3F86C15D2F8441458
:108E80000268C3F87015501C00F0A280062A84D135
:108E90005E4B524A1B685E49126803F04F030B6039
:108EA000511C77D0062A7FF478AF4FF08043D3F877
:108EB0000034DA077AD44F4B1B68033B042B5DD98F
:108EC000544A136843F48063136066E74D4B1B6894
:108ED000C3F30313033B042B3FF657AF4E4AD25C58
:108EE00012B14E4A032111604D4AD35C002B3FF46E
:108EF0004CAF4C4A4C4C4D494D4B05201060012560
:108F000000203F22256008601A603EE73D4B1B6849
:108F1000C3F30313033B042B3FF621AF454AD35C55
:108F2000002B3FF41CAF444AD36823F08073D36016
:108F300015E7344B1B68C3F30313033B042B3FF6C5
:108F4000FBAE3E4AD35C002B3FF4F6AE3C4B3D4AB1
:108F50001A60F1E6274B1B68033B042B08D94FF03E
:108F600010224FF08043D2F80822C3F8582524E796
:108F7000354AD35C002B3FF420AFF0E7334AD35C93
:108F8000002B3FF40AAF9BE73149CB5C002B3FF449
:108F90007AAF2FE7124B1B78062B7FF4FEAE4FF013
:108FA0008043D3F80034DB077FF5F7AE0B4B1B682B
:108FB0004FF080426FF00101062BC2F800147FF4DD
:108FC000ECAE0C4B1B68033B042B3FF679AFD5E7A7
:108FD000034B1B78062B3FF45BAFDEE6300100103D
:108FE000E00F00F02403001040350140440200105F
:108FF0003C0500403401001000ED00E01C2B002077
:109000000090D003E80F00F000C0004058020010AC
:10901000E40E00403C1700400CEE0200A0050040AA
:109020000CEE0200105600408856004018560040D2
:10903000145600400CEE0200F0ED00E00CEE0200D1
:1090400074C007400DF0ADBA04EE0200FCED020062
:10905000F4ED0200184A0123C2F80435D2F80034B6
:10906000002BFBD04FF010231521134AC3F8001238
:10907000D2F80034002BFBD04FF0102315210E4AFC
:10908000C3F80412D2F80034002BFBD000230A49A5
:10909000C2F80435D1F80034002BFBD0BFF34F8F5A
:1090A0000649074BCA6802F4E0621343CB60BFF382
:1090B0004F8F00BFFDE700BF00E0014000ED00E082
:1090C0000400FA054FF0A042044B1B5CD2F80405E3
:1090D000D840C04300F00100704700BF18EE020006
:1090E000044B195C4FF0A04201238B40C2F80C35B1
:1090F000704700BF18EE0200044B195C4FF0A0420D
:1091000001238B40C2F80835704700BF18EE0200FB
:109110004FF0A04310B44FF480204FF400344FF4CC
:1091200000214FF48012C3F80845C3F80805C3F8BE
:109130000815C3F808255DF8044B70474FF0A043AD
:1091400010B44FF480204FF400344FF400214FF45A
:109150008012C3F80C45C3F80C05C3F80C15C3F80E
:109160000C255DF8044B7047074B4FF0A041185C8D
:10917000D1F804350122824022EA03001340C1F8ED
:109180000805C1F80C35704718EE02004FF0A042F8
:10919000044B1B5CD2F81005D840C04300F001001E
:1091A000704700BF14EE02000D2809D00E2809D028
:1091B0000F2809D010280CBF03204FF0FF30704754
:1091C000002070470120704702207047014B185C57
:1091D000704700BF14EE0200C20730B41AD54FF03A
:1091E000A0430322C3F844274FF40035C3F84827AF
:1091F0004FF48024C3F84C274FF40021C3F85027C4
:109200004FF48012C3F80855C3F80845C3F8081591
:10921000C3F8082583070AD54FF0A0430C22C3F8F2
:109220003427C3F83827C3F83C27C3F8402730BC9D
:10923000704700BF10B568B90E4CA3680122627078
:109240003BB1D3E900230020A2609847A368002B1C
:10925000F7D110BD0128FCD1064C2369A070002B6A
:10926000F7D0D3E900230120226198472369002B1E
:10927000F7D110BDF832002070B910B5074CA368C3
:10928000012262703BB1D3E900230020A26098471D
:10929000A368002BF7D110BD704700BFF832002043
:1092A00030B5012883B004D0032821D0B0B103B079
:1092B00030BD294C00230DF107008DF80730FEF773
:1092C000B1FC23786BB3E3689DF8070001330122FA
:1092D000E360A270FEF7CCFC03B030BD1F4B01224F
:1092E000C3F88020BFF34F8FBFF36F8F03B030BD43
:1092F000194C00F0B9F800230DF107008DF8073084
:10930000FEF790FCE368013BE360E3681BB9144B94
:10931000D3F80054C5B19DF80700FEF7A9FC03B0CF
:1093200030BD10486360A3602361E36000F090F8F3
:1093300003F05AFE60B10A4A01232370D2F80024D8
:10934000002AC0D0A370BEE700F0A0F8A570E2E745
:1093500000F08AF8EFE700BFF832002000E100E0FB
:10936000000001403592020030B585B004784568B0
:109370008DF80040D0E90240064A074B039053F8AD
:109380002130019552F821108DF808406846984721
:1093900005B030BD0C3300201033002030B585B04F
:1093A000047845688DF80040D0E90240064A074B32
:1093B000039053F82130019552F821108DF80840A0
:1093C0006846984705B030BD0C33002010330020AC
:1093D000F0B51A4B90F800C0194C1A4D91F81DE0E9
:1093E00044F82C200746086945F82C0003F80CE0E7
:1093F0000C4616460FCC89B06D460FC594E80F0099
:1094000085E80F00CDF810C0BEF1000F0AD0002E85
:109410000D4A694607F1040008BF324600F0FEFF1E
:1094200009B0F0BD002E094A694607F10C0008BFDB
:10943000324600F055FD09B0F0BD00BF583E002097
:10944000103300200C330020699302009D9302002A
:10945000044A137923B9012110609180184670479E
:109460008520704714330020074B1A68D20704D4B4
:10947000C02283F8002301221A604FF080430122AA
:10948000C3F81825704700BF00E100E010B40B4B93
:109490000B494FF0804200200224C2F8084383B0F9
:1094A00018601B680193012301980B60D2F81834EF
:1094B000DB03FBD403B05DF8044B704704010040AC
:1094C0000C00004010B5174B1A6882B062B1002141
:1094D000154A19601B68507900934FF080410123B1
:1094E000009CC1F8083398B1104B1A68BAB1002239
:1094F0001A601B6801934FF0804202210A4B0198C9
:10950000C2F808131B68012002B0BDE810401847DC
:10951000116853718847054B1A68002AE7D102B0D9
:1095200010BD00BF000100401433002004010040C2
:10953000F0B5224C94F8583083B0002B3BD14FF05B
:10954000FF3121FA03F2D20748BFE21803F1010309
:1095500048BF82F83010202BF3D14FF0FF334FF08B
:10956000FF364FF0FF370422002115482365C4E978
:109570000233C4E90433C4E90633C4E90833C4E957
:109580000A33C4E9006703F01FFF0E4BC02283F8C3
:10959000062340221A600C4B0C4A002018601B68FE
:1095A0000193019D01214FF0004384F85810C2F847
:1095B000043303B0F0BD082003B0F0BD2033002019
:1095C0007433002000E100E07C6100400060004056
:1095D000034B93F85800003818BF0120704700BFB4
:1095E00020330020F0B46F4B1D1895F93040002C4B
:1095F00061DA8C78A707C4F3400C53D41C6A013499
:1096000000F0C8805C6A013400F0BD800C260A249A
:1096100053F82450013552D0651CB5423FD253F85F
:109620002570013700F0A780A51CB54237D253F84A
:109630002570013700F09F80E71CB7422FD253F806
:10964000275001353AD0271DB74228D253F827506A
:10965000013533D0671DB74221D253F82750013569
:109660002CD0A71DB7421AD253F82750013525D068
:10967000E71DB74213D253F8275001351ED004F12D
:109680000807B7420BD253F82750013516D00934DA
:10969000B44204D2DC6A013408BF0B240FD004208A
:1096A000F0BC70471C68013467D05C68013460D03E
:1096B00008260224ACE70820F0BC70473C461E1880
:1096C00065B243F8242086F83050BCF1000F02D177
:1096D0001C4484F848008A78540714D4D6073ED432
:1096E0004C784FF0A04600F5E072A40046F8224006
:1096F0002D4EC40800F0070C375D012202FA0CF26F
:109700003A4332558A7812F002021CD0AB0003F1C2
:10971000804303F5C0430978D3F8104524F4473457
:1097200024F44074C3F8104502020904D3F810056C
:1097300001F4403102F4F8520A430243C3F8102501
:109740000020F0BC7047083D2B44087893F8501077
:1097500041EA801183F850101046F0BC7047820037
:1097600002F1A042D2F8004724F00204C2F80047F8
:10977000BEE70124A3E72C46A1E7002485F830408A
:109780001A602546A7E7092685F830605A623446F4
:1097900035469DE7082685F830601A62344635461E
:1097A00096E700BF203300207433002070B42C4CA7
:1097B000251883B095F93020072A1CDD224492F841
:1097C00048309B09032B40D0012B0CBF4FF40033D2
:1097D0004FF44033800000F1A040D0F8002722F47D
:1097E0004032C0F80027D0F800271343C0F80037F4
:1097F00003B070BC7047D3B2072BF9D8900000F1CA
:10980000804000F5C04002F140039B00D0F8106595
:109810009BB203F1804303F5C04346F00106C0F854
:109820001065002018601B680193019B0029DFD0A0
:1098300095F9303054F82330002BD9D00949012351
:1098400003FA02F2C1F80423D2E74FF0A043D3F8A1
:109850001035C34003F0010302331B04BAE700BF15
:1098600020330020006000404FF0A043D3F81035B3
:1098700023FA00F000F00100704700BFF0B585B09A
:10988000C84A002301931168012900F0E7811E46B0
:10989000C54B1A68012A00F0D381C44B1A68012A0B
:1098A00000F0C081C24B1A68012A00F0AD81C14BA3
:1098B0001A68012A00F09A81BF4B1A68012A00F049
:1098C0008781BE4B1A68012A00F05D81BC4B1A6883
:1098D000012A07D0BB4B1A68012A00F0CB81FEB9E0
:1098E00005B0F0BDB84AD2F804231206F2D5002222
:1098F0001A6019680291196E0298012903F1600338
:1099000046F080060CD11A601B6803934FF0A04309
:10991000039AD3F820250192C3F8202546F000468B
:10992000AA4F00240125A30003F180432E4203F532
:10993000C0434FEA45050BD0D3F8100557F8242053
:10994000D3F81015C0F30420C1F3014102B19047D0
:109950000134082CE7D1002EC2DA9C4C01254FF0CF
:10996000A04694F95000471C3DD0C0F3C20204AB9E
:109970001A4400F0070312F80C2C05FA03F31A42FC
:10998000C1B200F03F002ED0830003F1A04305FADE
:1099900000FCD3F80027D3F8007727F44037C3F84A
:1099A0000077C2F30142D3F80077022A0CBF4FF4CC
:1099B000403E4FF4003E4EEA070E2718C3F800E77A
:1099C000C6F820C597F9303054F823305BB18909C7
:1099D000032900F07181022A00F06B81032A02D171
:1099E000022900F0698194F95100411C3DD0C0F377
:1099F000C20204AB1A4400F0070312F80C2C05FA5B
:109A000003F31A42C1B200F03F002ED0830003F1ED
:109A1000A04305FA00FCD3F80027D3F8007727F419
:109A20004037C3F80077C2F30142D3F80077022A27
:109A30000CBF4FF4403E4FF4003E4EEA070E27188D
:109A4000C3F800E7C6F820C597F9303054F8233042
:109A50005BB18909032900F02581022A00F01F81EA
:109A6000032A02D1022900F01D8194F95200421C00
:109A70003DD0C0F3C20204AB1A4400F0070312F851
:109A80000C2C05FA03F31A42C1B200F03F002ED0AD
:109A9000830003F1A04305FA00FCD3F80027D3F8B4
:109AA000007727F44037C3F80077C2F30142D3F8B8
:109AB0000077022A0CBF4FF4403E4FF4003E4EEABE
:109AC000070E2718C3F800E7C6F820C597F930300D
:109AD00054F823305BB18909032900F0DE80022AA3
:109AE00000F0D880032A02D1022900F0D68094F930
:109AF0005300431C3DD0C0F3C20204AB1A4400F033
:109B0000070312F80C2C05FA03F31A42C1B200F055
:109B10003F002ED0830003F1A04305FA00FCD3F8E8
:109B20000027D3F8007727F44037C3F80077C2F353
:109B30000142D3F80077022A0CBF4FF4403E4FF4A5
:109B4000003E4EEA070E2718C3F800E7C6F820C506
:109B500097F9303054F823305BB18909032900F0BC
:109B6000A680022A00F0A080032A02D1022900F078
:109B70009E80D6F820350193C6F82035002B7FF45F
:109B8000F0AE05B0F0BD104AD2F8042351067FF5BF
:109B90009DAE00221A601B680293029B46F04006AD
:109BA00094E600BF0061004004610040086100408D
:109BB0000C610040106100401461004018610040D9
:109BC0001C6100407C6100400060004020330020A8
:109BD0003A4AD2F8042390067FF573AE00221A6049
:109BE0001B680293029B46F020066AE6334AD2F8CD
:109BF0000423D4067FF560AE00221A601B6802932E
:109C0000029B46F0100657E62C4AD2F804231507AB
:109C10007FF54DAE00221A601B680293029B46F04E
:109C2000080644E6254AD2F8042357077FF53AAEE2
:109C300000221A601B680293029B46F0040631E67C
:109C40001E4AD2F8042392077FF527AE00221A603D
:109C50001B680293029B46F002061EE61749D1F8E4
:109C6000046316F001063FF413AE13601368029309
:109C7000029B0DE600221A601B6803934FF0A0437D
:109C8000039AD3F820250192C3F82025002E3FF433
:109C900064AE43E601297FF42AAF984727E70129FC
:109CA0007FF4E3AE9847E0E601297FF462AF98477E
:109CB0005FE701297FF497AE984794E60060004083
:109CC000014B1B68184700BF7C330020114B9842A2
:109CD0001DD130B583B000230DF107008DF807309A
:109CE0000D46FDF79FFF0C4B1C794CB99DF8070002
:109CF0001D6001221A71FDF7BBFF204603B030BD85
:109D00009DF80700FDF7B4FF112003B030BD00201F
:109D1000704700BF002000407C33002030B56E4A01
:109D2000D2F8043399058BB068D5D2F82431002BD2
:109D300064D00023C2F82431D2F8243101934FF4C7
:109D40000171664B0198C2F8081393F8291009B9FC
:109D500001215160604902228DF81820D1F8802439
:109D6000C1F880249869D968099200240025CDE9BA
:109D70000710C3E90645D3E9001206A89047564AE2
:109D8000D2F81C31C3B1554B5869196A88426AD957
:109D900093F8281001F0FF00002964D1C2F81C01DB
:109DA000D2F81C11039103999C68186A196A205C07
:109DB00001311962C2F81C05474AD2F84431DBB1BF
:109DC0000021464BC2F84411D2F8440193F82910FF
:109DD0000090009809B1012111609A6962B1586A36
:109DE000D96800229A610122CDE907108DF8182068
:109DF00006A8D3E9001290470BB030BD364AD2F81E
:109E000004335B07BBD5D2F80831002BB7D0334BF6
:109E1000996900293ED00021C2F80811D2F8081132
:109E200004910499D868596AD2F8182542545A6A9C
:109E3000996901325A625A6A8A42A0D1DA69002AC3
:109E400031D0DD685C6A18699A6101210022D8600E
:109E5000DA615A628DF81810CDE90754D3E900127F
:109E600006A890478BE71C4A0021C2F81C11D2F8C3
:109E70001C210292029A5A69002A9DD058699A6858
:109E80008DF8181008905961079206A8D3E90012BE
:109E9000904791E7C2F80811D2F80801059005989B
:109EA000D2F81825C7E793F8292012B90A4A0121E8
:109EB0005160094A4FF40171C2F80813596ADA680F
:109EC00008910024012007928DF81800D3E90012B0
:109ED0009C6106A8904752E700200040883300208C
:109EE0002DE9F041624F06792C2303FB067382B003
:109EF00093F82A30002B40F08D8005460C46006810
:109F00005C499046FFF7E2FE00287FD12368591C88
:109F10000CD001224FF0A04102FA03F3C1F808353A
:109F2000236803F5E073032241F8232063685A1C79
:109F300006D003F5E0734FF0A042002142F8231051
:109F40002B68A269C3F82425217D637D2A680B4311
:109F5000C2F86C35D4E900122B68C3F81425C3F895
:109F60000C15237D012B61D02C2303FB06F3FA187B
:109F7000C2F804802269FA502A68B8F1000F33D081
:109F80000021237FC2F81C11D2F81C2100922A68FC
:109F9000DDF800C0C2F84411D2F844112A680191DA
:109FA000354C0199C2F804432A6842F3073100296D
:109FB0004FEA123232DB01F1604101F561415B0190
:109FC000DBB281F800332A6842F30733002B4FEAF3
:109FD000123109DB294C01225B0901F01F0102FA51
:109FE00001F144F823102A682C2303FB0676012490
:109FF00000230421C2F80015C6E9063386F82A407A
:10A0000086F82930736102B0BDE8F081112002B0FA
:10A01000BDE8F081082002B0BDE8F081184902F0E7
:10A020000F025B011144DBB20B76CCE7A368591C2D
:10A0300006D003F5E0734FF0A042002142F8231050
:10A04000E3685A1C0DD001224FF0A04102FA03F33D
:10A05000C1F80835E36803F5E073032241F82320D3
:10A06000E3682A68A168C2F80835C2F810157BE7D2
:10A07000883300201D9D02008000020000E100E006
:10A08000FCEC00E02DE9F041314E05792C2303FB77
:10A0900005630446586984B000284CD15A61996020
:10A0A000186283F828002268C2F81C01D2F81C113B
:10A0B000226802910121029F91602268D3F808C0B2
:10A0C000C2F81C01D2F81C11019101991F6A196A8A
:10A0D0001CF8077001311962C2F81C755A6812B178
:10A0E00004B0BDE8F0815F691A6A216897421BD904
:10A0F000864602E093F828200ABBD1F81C21002AEA
:10A10000F8D0C1F81CE1D1F81C210392039AD3F8CE
:10A1100020801A6A1CF8088001321A62C1F81C8576
:10A120001A6A9742E9D82168D1F81C31002BFBD07C
:10A130000123CB6004E0112004B0BDE8F0810F20C2
:10A140002C2303FB056500236B6104B0BDE8F0819F
:10A15000883300200379044A2C2101FB032358692A
:10A16000003818BF0120704788330020F0B4504FEA
:10A1700006792C2303FB067386B05D68044625B17F
:10A1800003684FF40170C3F808032C2303FB067324
:10A19000986990B1D86900287CD11961DA612C23C3
:10A1A00003FB06735A683AB323684FF40172C3F88D
:10A1B0000423002006B0F0BC704793F829509A6140
:10A1C000D9605862D861002DE9D12368C3F82451C1
:10A1D000D3F8242123680192019AC3F80851D3F8D7
:10A1E000082123680292012202991A602C2303FBA2
:10A1F00006735A68002AD7D12168C1F84421D1F8E2
:10A2000044210392039A2268D2F82411D2F808510B
:10A21000D2F8440155B9002833D10029F4D02C23B9
:10A2200003FB06760023B3610320C3E70029F6D1C0
:10A2300048BB9969C2F8080181B1D2F808110491AC
:10A240000499DD68596AD2F818256A545A6A9969DE
:10A2500001325A625A6A9142D5D806E0D2F8081102
:10A2600005910599D2F818255B6A2C2303FB067625
:10A27000002296F82930B261A3B1236801221A6046
:10A2800098E70029CBD12C2303FB06760023B3618A
:10A290000F208FE755B123684FF40172C3F80423F0
:10A2A000112087E7236801225A6083E7112081E7A4
:10A2B0008833002030B5574BD3F824218BB0002AC7
:10A2C00075D00022C3F82421D3F82421049202225D
:10A2D0008DF81820049AD3F880144F4AC3F88014DC
:10A2E0000991D3F83C15D368089100240025079301
:10A2F000C2E906451168536806A89847454BD3F84C
:10A30000442152B10021444AC3F84411D3F8440116
:10A31000916903900398002938D13E4BD3F820214E
:10A320005AB10021C3F82011D3F820210292012054
:10A33000394A029CD8605069D8B9364BD3F85821B5
:10A34000AAB10021C3F85811D3F85801324A01903C
:10A350000198506958B1D3F84C05936808908DF86E
:10A3600018105161079306A8D2E9001398470BB063
:10A3700030BDD3F84C05936808908DF818105161E2
:10A38000079306A8D2E900139847D6E7D3F83C35DF
:10A39000D168089300240025012307918DF8183017
:10A3A000C2E90645D2E9001306A89847B5E7D3F8F5
:10A3B00010110029A2D0C3F81021D3F810111648AB
:10A3C000059105998469D3F83C15A14296D1C469D9
:10A3D000A4B1D3F80052846125F02005C3F80052DF
:10A3E000D0E90343C26101220891C3600168436858
:10A3F00007948DF8182006A898477FE7C268846103
:10A400000123CDE907218DF81830D0E9001306A803
:10A41000984773E700200040B83300202DE9F0434F
:10A420000779704E07EBC70306EB830387B093F8F9
:10A430002030002B40F0A78004460D4600686A4992
:10A440009146FFF743FC002840F099802B68591C87
:10A450004FEAC7080CD001224FF0A04102FA03F3E3
:10A46000C1F808352B6803F5E073032241F8232077
:10A470006B685A1C06D003F5E0734FF0A042002130
:10A4800042F823102368A969C3F82415297D6A7D41
:10A4900023680A43C3F86C25D5E900312268C2F865
:10A4A0000C35C2F814152B7D012B78D008EB070270
:10A4B00006EB8203C3F804902B6946F82230B9F109
:10A4C000000F4BD021682B7F484D0022C1F810218E
:10A4D000D1F8101101912168DDF804C0C1F82021E4
:10A4E000D1F8201102912168DDF808C0C1F82421BB
:10A4F000D1F8241103912168DDF80CC0C1F8442182
:10A50000D1F8441104912168DDF810C0C1F8582138
:10A51000D1F85811226805910599C2F804532268B0
:10A5200042F3073100294FEA123230DB01F160417A
:10A5300001F561415B01DBB281F80033226842F32F
:10A540000733002B4FEA123109DB294D01225B0949
:10A5500001F01F0102FA01F145F823102268474477
:10A5600006EB8706002301240821C2F80015C6E97E
:10A57000063386F82040736107B0BDE8F0831120F0
:10A5800007B0BDE8F083082007B0BDE8F0831949A3
:10A5900002F00F025B011144DBB20B76CEE7AB6831
:10A5A000591C06D003F5E0734FF0A042002142F899
:10A5B0002310EB685A1C0DD001224FF0A04102FA83
:10A5C00003F3C1F80835EB6803F5E073032241F8A3
:10A5D0002320EB682268A968C2F80835C2F8101574
:10A5E00064E700BFB8330020B5A2020010034200A8
:10A5F00000E100E0FCEC00E0F0B401F06044B4F1F4
:10A60000005F82B02CD10579274E05EBC50406EB1F
:10A61000840403466069EF0000283ED16261A160B6
:10A620001A68C2F82001D2F820C11A68CDF804C017
:10A63000DDF804C0C2F85801D2F8582100921A6817
:10A64000DDF800C0D4F814C0C2F84415C2F848C5FB
:10A650001A6801219160626832B102B0F0BC7047A3
:10A66000102002B0F0BC70471A6800E0C8B9D2F8F8
:10A670002011D2F858010029F8D090B90121D160F9
:10A680001B68D3F85821002AFBD07B1906EB830303
:10A6900000225A6102B0F0BC7047112002B0F0BC39
:10A6A00070470F20F1E700BFB83300200379054A57
:10A6B00003EBC30302EB83035869003818BF012082
:10A6C000704700BFB833002001F06043B3F1005F72
:10A6D0005ED1F0B40479474D04EBC40605EB860661
:10A6E00082B07668E30026B107684FF4047CC7F8AF
:10A6F00008C3234405EB83039C694CBB9A61DC616E
:10A70000D9600368C3F81041D3F81061036801965B
:10A71000019EC3F84441D3F8444103680094009C6F
:10A72000C3F83415C3F83825036801221A60047988
:10A7300004EBC40305EB8303E6005B6853B30368D3
:10A740004FF40472C3F80423002002B0F0BC704739
:10A75000DC69002C37D11961DA610368C3F8104154
:10A76000D3F8106103680196019EC3F84441D3F801
:10A77000444103680094009CC3F83415C3F838259D
:10A780000268D2F8003243F02003C2F80032CEE76C
:10A7900010207047036801E0E9B910BBD3F810211D
:10A7A000D3F84411D3F82401002AF5D0344400280A
:10A7B0004FF0000305EB840518BF0320994218BF32
:10A7C0000F20AB61C1E796B103684FF40472C3F880
:10A7D00004231120B9E7344405EB84050F20AA6156
:10A7E000B3E7344405EB84050320A961ADE71120EC
:10A7F000ABE700BFB83300200220FEF7B5BC00BFB6
:10A800002DE9F0470D460646FEF7CEFC032805D895
:10A81000012D04461AD0022D27D00DB1BDE8F087D6
:10A820001B48FDF74DF81B4B1B4A04EB44010B443E
:10A83000125D9D78AA42F1D1002DEFD0174B1B6815
:10A84000002BEBD02846BDE8F0471847114F00EB2E
:10A850004003FA18FD5C53784FEA40085BB9A04406
:10A8600047440D4BBA781A55E6E70A4B00EB400413
:10A870001C446578E0E7DFF8289005484A464FF425
:10A880008041FCF7BFFF0028E9D189F80060E6E7C6
:10A89000402B0020E0330020FC330020F433002064
:10A8A000DC33002010B50078FEF77EFC03280BD8BF
:10A8B000064B00EB40001844407828B1044B1B685D
:10A8C00013B1BDE81040184710BD00BFE0330020B1
:10A8D000F433002038B5C04D2B7804466BB1BF4B24
:10A8E0001B7800202870002B4DD0FEF705FC0120BE
:10A8F000FEF702FC0320FEF7FFFB172C00F26A8133
:10A90000DFE814F0F700630063009F00B200C500A9
:10A91000D700970050004400500044007A0018000F
:10A920001800180018001800E500240181000C012F
:10A930005C005C00AA48FCF7C3FFD4F11104054693
:10A9400000F03281002840F02F81012C14D0C82360
:10A9500003FB04F44FF47A704FF400430021C3FB6F
:10A9600004014FF4FA62002303F022FD2A46014657
:10A970009B48FCF747FF05460220FEF7B1FB974BCB
:10A9800001221A701FE0FEF7C3FBB6E70120287012
:10A99000FEF7EAFBBDE83840924800224FF4005130
:10A9A000FCF730BF01202870FEF7DEFBBDE8384021
:10A9B0008C48002240F26661FCF724BFFEF7BEFB24
:10A9C000894B00251C70284638BD0020FEF77AFB15
:10A9D000002840F0CF80FEF783FB40F6CD4141F6E2
:10A9E0009A13022C18BF19467F4B7E481C70BDE895
:10A9F00038400022FCF706BFFEF7A0FB7A4B0C2282
:10AA00001A700025DFE7754B1B78002B00F0DF8004
:10AA10000020FEF771FB0120FEF76EFB0320FEF71E
:10AA20006BFB0120FEF75CFB6F4B14221A700025B4
:10AA3000C9E70020FEF754FB6B4B07221A70002574
:10AA4000C1E70020FEF73EFB002840F0A780FEF79C
:10AA500047FB40F6CD41644B624803241C70BDE8BF
:10AA600038400022FCF7CEBE0020FEF72BFB00286A
:10AA700040F08E80FEF734FB41F69A115A4B59484C
:10AA800004241C70BDE838400022FCF7BBBE002047
:10AA9000FEF718FB002877D1FEF722FB524B5148F6
:10AAA00005241C70BDE83840002240F6CD41FCF77B
:10AAB000A9BE0020FEF758FB4B4B4A4806241C70E9
:10AAC000BDE83840002240F26661FCF79BBE434B74
:10AAD0001B78002B78D00020FEF70EFB0120FEF73C
:10AAE0000BFB0320FEF708FB3F4B12221A700025D8
:10AAF00069E73A4B1B78002B60D00020FEF7FCFA88
:10AB00000120FEF7F9FA0320FEF7F6FA3548FCF7C4
:10AB1000D7FE354B002205461A7054E72F4B1B78A1
:10AB2000002B48D00020FEF7E7FA0120FEF7E4FAF8
:10AB30000320FEF7E1FA0020FEF7D2FA0120FEF72B
:10AB4000CFFA294B15221A7000253CE7234B1B78BE
:10AB5000BBB30020FEF7D0FA0120FEF7CDFA0320A8
:10AB6000FEF7CAFA0020FEF7BBFA1F4B13221A7039
:10AB7000002528E70020FEF7BFFA022C47F2333108
:10AB800018BF4FF480312FE70020FEF7B5FA85E7B4
:10AB90000020FEF7B1FA4FF480316FE70020FEF796
:10ABA000ABFA43F2333156E70220FEF7A5FA0B4B1E
:10ABB00000221A7007E7FEF7ABFABCE7FEF7A8FA27
:10ABC000A4E7FEF7A5FACDE7FEF7A2FA8CE7FEF7B9
:10ABD0009FFA26E70025F6E6F0330020DD3300205B
:10ABE000202B0020602B0020F8330020044B1B6832
:10ABF000DB0700D47047034B1878FFF76BBE00BF2C
:10AC0000EC330020F8330020032801D900207047DE
:10AC1000FEF7BCBA044B1B6813F0010301D11846C0
:10AC20007047FFF757BE00BFEC33002038B5244B08
:10AC3000244A196081070446106004D410F001050D
:10AC40002CD1284638BD204B20480E250F2210213C
:10AC50001D701125DA7099715D7240F23332042152
:10AC6000FCF7CEFA054630B1E207EAD50120FEF73F
:10AC7000B3FA284638BDFCF723FB05460028F3D17C
:10AC80000146134A1348FCF7A7FDE3070546D8D54C
:10AC90000120FEF7A1FA002DD3D102E00120FEF73A
:10ACA0009BFA0D4A0D480021FCF796FD0546002849
:10ACB000C7D1BDE838400A4A0A480121FCF78CBDDB
:10ACC000F4330020EC330020E033002048EE020093
:10ACD000A5A802006CEE0200EDAB020070EE0200CF
:10ACE000F9A7020068EE0200032806D8012A06D060
:10ACF00001291BD0022908D071B107207047012912
:10AD000011D002294FF00002F6D10B4B00EB4000AE
:10AD1000034400205A707047074B00EB4000034487
:10AD200008469A70704700F10E02D2B200EB400361
:10AD300001490020CA547047E0330020032801D99C
:10AD40000620704708B5FEF741FA800000F1A043E5
:10AD50000020D3F8002722F44032C3F80027D3F8AC
:10AD6000002742F44032C3F8002708BD10B503881D
:10AD7000102B07D0112B04D1254B1868013818600F
:10AD800030B110BD224C216811B30131216010BDDA
:10AD900001220221FFF7A8FF40B1072806D01D4B72
:10ADA0001B68002BEDD0BDE8104018470722022198
:10ADB0000120FFF799FF08B10728F0D100210846CC
:10ADC0000A22FFF791FF0028DBD00728E7D1D8E758
:10ADD00001220846FFF788FF38B1072805D00D4B40
:10ADE0001B6803B198472168CFE7072202210120A1
:10ADF000FFF77AFF08B10728F1D1042202210020D1
:10AE0000FFF772FF0028EED00728E8D1EBE700BF7C
:10AE1000043400200034002008B50020FFF78EFF26
:10AE200010B1062800D008BD0120FFF787FF0028D9
:10AE3000F9D0062808BF002008BD00BF184B10B588
:10AE4000186031B101200C46FFF7DEFEF8B1022395
:10AE50002370144B186808B1002010BD0122022194
:10AE6000FFF742FF08B10728F7D10722022101208E
:10AE7000FFF73AFF08B10728EFD1002108460A2260
:10AE8000FFF732FF0028E7D00728E5D010BDFFF715
:10AE9000BBFE10B10B232370DBE72070D9E700BFA6
:10AEA000003400200434002076DF70477ADF7047DA
:10AEB0007CDF70477FDF70478FDF7047B1DF7047FF
:10AEC00033DF7047FCF712BA10B50388212B82B02C
:10AED00004460FD80F2B18D9103B112B15D8DFE8DB
:10AEE00003F0243C144C14141414141414141414E7
:10AEF0001414141A522B4AD0562B08D1A0881321AF
:10AF0000FFF7D2FF08B1FCF7F1F902B010BD3B2BFF
:10AF1000F4D002B010BD00238088ADF8043001A940
:10AF2000FFF7CAFF0028F0D0EDE71F4B1F4820496C
:10AF3000C01AC008000440F00300FBF70DFC072016
:10AF4000FFF768FE00282CD11A4BA1881A481980F7
:10AF500001F0E2FD0028D8D0D5E7134B134817497C
:10AF6000C01AC008000440F00300FBF7F5FB114BCA
:10AF70004FF6FF721A8002B010BD0E4A00231088EF
:10AF800085211A46FFF796FF0028BED0BBE7094A85
:10AF90000023108819461A46FFF790FF0028B4D006
:10AFA000B1E7FCF7A3F9CFE7B8F50200E0F502003E
:10AFB00074EE0200862B00204C39002080EE020047
:10AFC0000E4B4A881B889A4200D070470A8840F688
:10AFD00077239A42F9D110B4094A0A488B880A4C5F
:10AFE0000A49801A033BC0089BB20004238040F04A
:10AFF00003005DF8044B1A46FBF744BD862B002086
:10B00000B8F50200E0F50200842B002090EE02006B
:10B0100008B5037803B108BD054B3B211888FFF73D
:10B0200043FF0028F7D0BDE80840FCF75FB900BF38
:10B03000862B0020072808B51CD00A280ED004282B
:10B0400000D008BD154B13211888FFF72DFF30F0F5
:10B050000803F6D0BDE80840FCF748B90020FFF728
:10B06000D9FDB8B9FFF7D8FE88B9FFF729FF002846
:10B07000F0D108BD094B1A884FF6FF739A42E0D110
:10B08000074801F019F830F00803E3D108BDFCF7D8
:10B090002DF9EAE7FCF72AF9E4E700BF862B002048
:10B0A00000350020F0B50378012B83B004D0022BCB
:10B0B00002D033B103B0F0BD4068FCF717F903B01C
:10B0C000F0BD194C194D20782844FCF743FD227837
:10B0D0000132D2B21544227015F8013C0A2B05D07A
:10B0E0000D2B03D0124B1B889342E3D8012A12D9AF
:10B0F000104F0E4E104DADF806203B880DF10602A4
:10B100003146284601F0ACFE082804D0132806D0AA
:10B11000052800D028B90023237003B0F0BD2278A1
:10B12000E9E7FCF7E3F8F6E7FC34002008340020F8
:10B13000842B0020862B0020882B00202DE9F04155
:10B140000578D5B9838A06467BB3194F194BDFF8CA
:10B150006880FF1AFF083F0447F001073369585D14
:10B16000FCF726FD0446A8B9B38A0135AB42F5D8F1
:10B17000013B3269D35C0D2B01D0BDE8F0810A2080
:10B18000FCF716FD1128F8D10A20FCF711FD112853
:10B19000F5D0F2E7112C024641463846DED0FBF7E7
:10B1A000A1FB2046FCF7A2F8DEE74FF0FF33E0E713
:10B1B000E0F50200B8F50200ACEE0200FCF796B82C
:10B1C00008B530B1032803D10220FFF723FD50B9A1
:10B1D00008BDFFF71FFD50B9FFF71EFE68B9FFF766
:10B1E0006FFE0028F4D0BDE80840FCF77FB8FCF7FC
:10B1F0007DF8FFF711FE0028F1D0FCF777F8EEE7B5
:10B2000008B50B490B4801F069FB28B90948F7213B
:10B2100001F07CFB40B908BDFCF768F80548F72150
:10B2200001F074FB0028F6D0BDE80840FCF75EB8DA
:10B23000C1AF02003439002000B5874D874BB1B053
:10B2400004AC00930FCD0FC495E803004FF4807356
:10B2500084E803000193824C0393824A0294694676
:10B2600004A80723FCF7FAFB002840F0C4804FF441
:10B2700080410020FBF7F8F8002840F0E980FBF758
:10B28000E3F8FCF773FA002840F0DF8076490320EA
:10B29000FFF7CCFC002840F0D58004A90020FFF780
:10B2A000CDFD002840F0CB80FDF762FC002840F087
:10B2B000C38001F00DFE002840F0BB80002304A9EC
:10B2C0000120049301F0E4FE002840F0AF8004A8C0
:10B2D00001F0BCFF002840F0A680112363488DF8E0
:10B2E000003002F099F8614982B26846FFF7E0FD4C
:10B2F000002840F095800822002104A802F064F89C
:10B300005B4B049304A84FF0C8730593FFF7CEFD81
:10B31000002840F08280FFF773FF564B5648049395
:10B3200004A901F0E7FB002874D10021042268463B
:10B3300002F04AF8514B52480093694601F01CFD57
:10B34000002864D1AC22002104A802F03DF84D4C45
:10B350004D4A189402214FF4A06001238DF810107B
:10B36000ADF81200402444F250654848ADF85C3016
:10B3700004A9CDE926458DF88C302D9200F0CAFD48
:10B38000002841D14148012100F0C0FD1C220021CC
:10B3900004A802F019F800233D4A0493ADF81E30CA
:10B3A0008DF820303B4B4FF4A0354FF4F0240321AF
:10B3B00004A8CDE90554CDE909238DF81C1000F04F
:10B3C000D9FFF0B9344802F007F8344B3448354916
:10B3D000C01AC008000440F00300FBF7BDF92B4879
:10B3E000032100F01DFE48B9FBF78EF80028FBD1C1
:10B3F000FDF7D4FBF8E7FBF779FF38E7FBF776FFBB
:10B40000F2E7FBF773FFDDE7FBF770FFBAE7FBF747
:10B410006DFF97E7FBF76AFF87E7FBF767FF7AE7C0
:10B42000FBF764FF67E7FBF761FF56E7FBF75EFF9B
:10B430004DE7FBF75BFF41E7FBF758FF39E7FBF709
:10B4400055FF31E7FBF752FF27E7FBF74FFF1DE7FB
:10B45000FBF74CFF13E700BF24EF02005839002030
:10B46000583A0020A5B0020035B00200D8EE020024
:10B4700010003C00C5AE02004C3900203DB1020076
:10B48000882B0020802B0020C1B102000035002055
:10B4900011B00200BDB10200E4EE0200B8F50200F6
:10B4A000E0F50200F8EE02002DE9F04FDFF8B09170
:10B4B00000EB400509EBC50583B0EE6A012E074697
:10B4C0008A4690464FEA400407D0022E4FD056B32A
:10B4D0000026304603B0BDE8F08FAE6AD5F824B040
:10B4E0005E457DD9013EA6EB0B062D6A464528BF79
:10B4F0004646A5EB0B0296427ED27B1C03EB430330
:10B5000009EBC303324658685146584401F04EFFD8
:10B51000274409EBC70906EB0B023046C9F8242083
:10B5200003B0BDE8F08FAB6AD5F824B05B459CBF93
:10B530002A6A9B18013BA3EB0B039845C9D8044426
:10B5400009EBC4040137256AA5EB0B0607EB470797
:10B55000B04509EBC7096FD2D9F8040042465844F8
:10B5600001F024FF08EB0B0363624646B1E70137A5
:10B5700007EB47076C6AFF000026AB6AA34203F1A2
:10B58000FF3222D9131B2A6A434509EB0701A2EBBC
:10B59000040B28BF43469B45486828BF9B46204470
:10B5A00051465A4601F002FF2B6A5C449C425E44BD
:10B5B000A8EB0B08DA440DD06C62B8F1000F88D00C
:10B5C000AB6AA34203F1FF32DCD82A6A1344013B81
:10B5D0001B1BD9E700246C62B8F1000FCDD178E7CE
:10B5E0002D6A2E44013EA6EB0B06464528BF464673
:10B5F000A5EB0B02964280D307F1010808EB48083F
:10B6000009EBC8085146D8F804000192584401F0EB
:10B61000CDFE751B019AD8F804005D440AEB0201C7
:10B620002A4601F0C3FE274409EBC7093046C9F892
:10B63000245003B0BDE8F08FD9F804005844C34447
:10B640003246ABEB050501F0B1FE0AEB0601D9F875
:10B6500004002A4601F0AAFE4646656239E700BFAB
:10B660005C3E002038B5114C114B1248E3611025A7
:10B670004FF40073104A11492362E06400232565EA
:10B68000E01D0225A3626362E362A3656365E3656F
:10B69000A261A264C4E9045501F0B6FE084920463F
:10B6A00001F0B2FE2023A37138BD00BF5C3E002034
:10B6B000683B0020583B00203CEF020048EF0200AE
:10B6C0004CEF02006DDF704779DF70477DDF704718
:10B6D00064DF70472DE9F04F87B00746119D008861
:10B6E0002C880394BDF84840DDF840A0CDE9014224
:10B6F000002858D04FF0000988461E46CB4604E08B
:10B700003A880BF1010B93452CDAD8F8002052F857
:10B710002B00059000220DF1130105A8FFF7D8FFBB
:10B72000044658BB9DF81320B242E9D1B9F1000F8D
:10B7300028D02A88019B9119994239DC52440DF195
:10B74000130105A84FF00109FFF7C2FF002834D10B
:10B7500029889DF813200A442A803A880BF1010BAE
:10B760009345D2DBB9F1000F1DD02B88039A013B22
:10B770009B1A9BB2FF2B1BD80AF80230204607B059
:10B78000BDE8F08F2A88019B511C324402329A4254
:10B7900089B20DDC029B29800AF801302A88013227
:10B7A00092B22A80CAE70024204607B0BDE8F08F95
:10B7B0000C24204607B0BDE8F08F0446204607B0B1
:10B7C000BDE8F08F2DE9F04700231788138090F82B
:10B7D0002D3088B0144605460E46002B40F00081FF
:10B7E000AA78002A40F0F580E978A1B1DA1CBA42C3
:10B7F00000F2F2800222F254238801339BB201222C
:10B800002380F254238813449BB22380F15423886D
:10B8100013449BB223806A68AAB1D91CB94200F2D2
:10B82000DB80022192F90020F154238801339BB27E
:10B830000A212380F154238801339BB22380F254E0
:10B840002388013323802B89002B40F0F3802B8A3F
:10B85000002B40F02B812B8B002B40F046812B6A74
:10B86000002B44D02088821DBA4200F2B5801A888D
:10B87000052A40F299816FF4486802EB080189B209
:10B880004FF27D3C614540F28F815988052940F295
:10B890008B816FF4486E8E441FFA8EFEE64540F2AF
:10B8A00083814FF6FF7C624504D0614502D08A4215
:10B8B00000F27A81052232542288013292B212219A
:10B8C0002280B1542288013292B222801988B15468
:10B8D0003244090A51702288023292B222805B8877
:10B8E000B35432441B0A53702388023323806B6A9B
:10B8F000002B2FD09988B4F800C0881C0CF10202EC
:10B900000244BA4268D8FE2866D8033106F80C1003
:10B910002288013292B2FF212280B1542288013262
:10B9200092B222801988B1543244090A5170208899
:10B93000023080B220809A8862B19968059300290C
:10B9400000F03281304401F031FD059B9A88238854
:10B950001344238095F82C30002B40F0E3802878A6
:10B9600000283AD02B88012B00F01E8123889A1CD6
:10B97000BA4231D8012804D16978023119448F4282
:10B980002AD3023FFF1ABFB2B01806A9ADF818704B
:10B99000FFF79CFE08BB2B78022B00F00D81697825
:10B9A000BDF818209142C0F003819742C0F0008199
:10B9B00017460922FE2F0FD82388791CF1542388BB
:10B9C00001339BB22380F254238801331F44278024
:10B9D00003E00433BB424CD90C2008B0BDE8F0872B
:10B9E000082FF9D906A8FFF76DFE0028F5D12388A6
:10B9F0000822F254238801339BB21B222380F25485
:10BA00002088013080B22080062230440DF11901D7
:10BA100001F0CCFC23889DF8182006339BB212F06D
:10BA2000FE0218BF01222380F254238801339BB207
:10BA30002380D5E605F10808022305F10C01CDE9C4
:10BA40000147009640461A460591FFF743FE00283D
:10BA5000C3D1CDE90147059900964046102306223F
:10BA6000FFF738FE0028B8D12B8A002B3FF4F3AE45
:10BA70001CE006A8FFF728FE0028AED12388BDF8F9
:10BA800018200321F154238801339BB2192123800C
:10BA9000F154238801339BB2F1182380F254130A26
:10BAA0004B70238802339BB223809DE605F110087A
:10BAB00005F11401CDE90147009640460223032217
:10BAC0000591FFF707FE002887D1CDE901470599C9
:10BAD0000096404610230722FFF7FCFD00287FF464
