:020000022000DC
:10600000000001205D630200456302004763020057
:10601000496302004B6302004D6302000000000070
:106020000000000000000000000000004F630200BC
:106030005163020000000000536302005563020038
:10604000D987020057630200DD8B0200576302000C
:106050005763020057630200918A020057630200EF
:106060005763020057630200576302005763020040
:106070005763020057630200576302005763020030
:10608000576302005577020057630200576302000E
:106090005763020057630200E9AF02005763020032
:1060A0005763020057630200576302005763020000
:1060B0005763020057630200000000000000000068
:1060C00057630200576302005763020057630200E0
:1060D000576302005763020057630200000000008C
:1060E00000000000000000000000000000000000B0
:1060F00000000000000000000000000000000000A0
:10610000000000000000000000000000000000008F
:10611000000000000000000000000000000000007F
:10612000000000000000000000000000000000006F
:10613000000000000000000000000000000000005F
:10614000000000000000000000000000000000004F
:10615000000000000000000000000000000000003F
:10616000000000000000000000000000000000002F
:10617000000000000000000000000000000000001F
:10618000000000000000000000000000000000000F
:1061900000000000000000000000000000000000FF
:1061A00000000000000000000000000000000000EF
:1061B00000000000000000000000000000000000DF
:1061C00000000000000000000000000000000000CF
:1061D00000000000000000000000000000000000BF
:1061E00000000000000000000000000000000000AF
:1061F000000000000000000000000000000000009F
:10620000314932480A1A02D0072291438D4630495B
:1062100030480A1A06D00722914381F309880222E6
:1062200082F314882C482D492D4A00F03CF82D4863
:106230002D492E4A00F037F82D482E492E4A00F0FD
:1062400032F82E482E492F4A00F02DF82E482F49BB
:106250002F4A00F028F82F482F49304A00F023F841
:106260002F483049304A00F01EF8304830490022AB
:1062700000F024F82F483049002200F01FF82F4A80
:1062800090471F481F49884205D00268043003B474
:10629000904703BCF7E700208646EC46002000212B
:1062A000274A9047FEE7884207D0521A05D0037864
:1062B00001300B700131013AF9D17047884202D0A8
:1062C00002700130FAE770470000012000E0002072
:1062D00000000120000001200CC60200B81D0020B3
:1062E00008240020B8630200B8630200F8B402007A
:1062F0000CC60200B81D0020B81D00203CB60200EC
:106300003CB602003CB602003CB602003CB60200BD
:106310003CB602003CB602003CB602000CC60200CD
:106320005CCC02000824002008240020082400205F
:10633000642E0020642E0020642E0020856302005D
:10634000AD980200FEE7FEE7FEE7FEE7FEE7FEE7A8
:10635000FEE7FEE7FEE7FEE700F002B8FFF7FCBF4E
:106360000F484FF00701884385460E4880470E4886
:10637000016841F470010160BFF34F8FBFF36F8F6D
:10638000FFF73EBF09480A490A4A884207D0521A15
:1063900005D0037801300B700131013AF9D1704713
:1063A000000001201D82020088ED00E03CB60200E2
:0863B000B81D0020B81D0020FB
:1063B800F0B595B01D46164608460C4601F074FD2A
:1063C8001A9B0D93CDE9086500252B46082205A9DF
:1063D80020460A958DF82C500C9501F081FD079BFD
:1063E8000293069B03939DF814308DF8115003F027
:1063F8000302012A1DD1BDF81420059DC3F3C20371
:10640800C2F383168DF81030B20008230EA9204677
:1064180001F066FDC5F3952508AB0093324602AB43
:106428000EA9284600F0BAFB204601F041FD15B040
:10643800F0BD022AF8D1BDF81650C3F3C203C5F364
:1064480089158DF810300827082D2E4628BF0826F4
:106458003B4632460EA9204601F042FDAD1B08AB73
:1064680002AA31460EA8374400F0FCFB002DEBD100
:10647800DAE70000014B01221A7070474924002016
:106488007047000070B50E4D06460FCD88B06C46BB
:106498000FC495E80F00002E84E80F00094A0A4847
:1064A8004FF0060308BF00226946009302F018F96E
:1064B80008B100F0A9FD054B1E7008B070BD00BF03
:1064C8003CB602007D640200B81D002008240020AC
:1064D80007B5044B0093044A4023FFF769FF03B054
:1064E8005DF804FBF56402000924002038B50D4866
:1064F8000D4C0E4D002323700378EB5CD2B263B1D0
:10650800043002F0F5FF08B100F07EFD084B1A7860
:1065180012B12378002BFBD038BD0C3002F096FD69
:10652800F1E700BFB81D002049240020C82A002038
:106538000824002008B50848084A0378D35C3BB112
:10654800043002F039FFBDE808400020FFF79ABF89
:106558000C3002F005FDF6E7B81D0020C82A00201F
:106568000120FFF78FBF000008B5FFF7F9FF0448C7
:10657800042100F07DFA034B01225A7108BD00BFC7
:106588002CB60200CC1D0020037813F0040216D0AC
:1065980003F00303012B03D0022B09D0012070471D
:1065A8000A6800880232C0F3831002440A60F5E7E3
:1065B8000B684288023303EB92130B60EEE7104638
:1065C800704700002DE9F04FDFF81CA187B00F4697
:1065D80000230446861C0DF1070015468DF8073088
:1065E80000F046FFDAF804203A60DAF8083003F5DC
:1065F80080739B1A0AF21C470AF583690AF2144849
:10660800B3421AD30020002D69D004F00F039B0178
:1066180043F0050363F30F00DAF80430DAB203320B
:1066280033444AF822009DF80700CAF8043000F005
:1066380043FF012007B0BDE8F08F0121384601F083
:1066480062F9484601F077F9404601F074F9DAF842
:1066580008000290C0B203300AEB800002A9FFF7DD
:1066680093FF029B30BBDAB20AEB8202D168039136
:106678009A1C0133DBB20AEB83030292D3F80CB005
:1066880001F00303012B22D0022B15D0834640468C
:1066980001F054F910B1029BCAF80830594638463F
:1066A80001F031F9DAF80830DAF8042003F58073DC
:1066B8009B1AA5E7D8B2CEE7BDF80E30C3F389130D
:1066C80003334FEA1B4B02EB93030293DFE7BDF85A
:1066D8000C30C3F383134FEA1B4B1344F5E7A405AF
:1066E80044F0060098E700BF1C250020064B074829
:1066F80010B500221A7001F090FB044610B9044846
:1067080001F0F1FC204610BD1C250020D8B5020080
:1067180090B6020030B50A4C71B10A4A0A49121BF8
:10672800D20800239A4201D1002030BD31F823500D
:10673800854202D00133F5E7034654F83300F4E705
:1067480040B50200D8B50200B81D0020094B013938
:1067580003EBC000032909D8DFE801F00A020406A8
:1067680004207047007970474079704700207047CF
:106778000220704740B5020070470000034BD3E980
:106788000130C31A58425841704700BF1C250020E9
:106798002DE9F04186B0FFF7F1FF0546002840F0EB
:1067A800ED80774CC4F81804BFF34F8FA3680293A9
:1067B800DBB2033304EB830002A9FFF7E5FE029B7B
:1067C80018B1D4F81824002A5AD0DAB2991C013327
:1067D80004EB8202DBB204EB8303D268DB68049328
:1067E80002F00303022B0392029154D1BDF80E303C
:1067F8006448C3F38917502F3E4628BF502606F138
:10680800080166F38F13C1F30901ADF80E3001F0EA
:106818001CFB0546002800F09C8001F045FB002386
:10682800082203A9284601F051FB0299CB43DBB2A9
:106838000133C9B20331B6EB830F4FEA830204EB8D
:10684800810125D95FFA82F80823A6EB08062846B5
:1068580001F03CFBF6B208F108034B4903F0FC03D6
:106868003246284601F032FB029B033703EB9707B9
:106878000297D4F81834002B43D1D4F8106453E0AD
:1068880062689A4294D8A260284606B0BDE8F081B2
:1068980008233246E5E7012B5BD1BDF80C303948B7
:1068A800C3F38311062928BF062161F38913023136
:1068B80001F00F018900ADF80C3001F0C6FA054669
:1068C800002846D001F0F0FA0023082203A9284640
:1068D80001F0FCFA0026BDF80C20C2F38312B300C5
:1068E800964203F10803C4D202994A1CC9B2033183
:1068F800029204EB81010422284601F0E7FA0136EE
:10690800E9E7284601F0D4FAFFF738FF80F00100E4
:10691800C5B2B9E7F3685B7923B1336829461B68C8
:1069280030469847F3681E68002EF3D1284601F0D8
:10693800BFFA0DF107008DF8076000F099FDD4F853
:1069480018340BB9029BA3609DF8070000F0B4FD52
:10695800DAE7D4F8104454B90C4B0D480D49C01A65
:10696800C008000440F0020000F05EF8CCE723689D
:1069780020469B689847E3681C68ECE7002583E796
:106988001C250020D8B502002825002040B50200AB
:1069980068B5020079B602002DE9F34704460E46B1
:1069A800924601A9012218469946FFF70BFE1C4F93
:1069B80010B3019D4FF00008AA1CC84508EB02015E
:1069C80025D11848002100F06FFF80F31000000463
:1069D80040EA1440E4006B1C04F03804DBB2EDB26A
:1069E80044F0010407EB8303033544EA881444EABE
:1069F8008624D86047F825403B781BB1FFF7C8FECE
:106A08000028FBD1FFF7B8FE02B0BDE8F087C9B295
:106A180007EB81015AF82830CB6008F10108CCE770
:106A28001C2500203829002000231A46FFF7B4BF90
:106A380007B50123019201AAFFF7AEFF03B05DF885
:106A480004FB07B5CDE9002302236A46FFF7A4FF3C
:106A580003B05DF804FB1FB5CDE90123069B039342
:106A680001AA0323FFF798FF05B05DF804FB0000B7
:106A780030B50F4CD4F8102403460020114631B924
:106A8800D96808714AB9C4F810340A6030BDC968B9
:106A98000D79854206D00968F1E7D26814680C6060
:106AA8001360F3E701300A28E8D14FF0FF30EDE733
:106AB8001C25002038B5084B0125D3F810441D705B
:106AC80004B938BDE3685D71236820465B68984760
:106AD800E3681C68F4E700BF1C25002030B5C388B4
:106AE80085B004460D4633B1144A00921449154A3C
:106AF800284600F086FF217A05291DD0637A4BB11C
:106B0800A088FFF723FE104B104953F82020284691
:106B180000F077FF227A0E4BA08853F822200392C8
:106B28000021FFF7F7FD039A0A490346284605B0F6
:106B3800BDE8304000F065BF05B030BDBCB602000E
:106B4800A4B602009CB6020028B70200C1B6020033
:106B58004CB70200C4B6020007B503460846197AC6
:106B6800052911D05B7A2BB1094A0A49019000F036
:106B780048FF01980849019000F043FF019803B0CD
:106B88005DF804EB00F032BF002AF8D0F2E700BF4E
:106B9800BCB60200C1B60200B9B602002DE9F04346
:106BA80085B01F460C9D002395F80C902B73064664
:106BB8000C46904629463846FFF790FFB8F1060F75
:106BC80009D8DFE808F00412181F283340003146BE
:106BD800284600F016FF002229463846FFF7BCFF7A
:106BE80085F80C9005B0BDE8F08322683146284648
:106BF80000F007FFEFE7D4E900233146284600F00C
:106C080000FFE8E7A36800933146D4E9002328464B
:106C180000F0F7FEDFE7E3680193A36800933146CD
:106C2800D4E90023284600F0ECFED4E72369029358
:106C3800E3680193A36800933146D4E9002328460A
:106C480000F0DFFEC7E76369039323690293E368F3
:106C58000193A36800933146D4E90023284600F045
:106C6800D0FEB8E708292DE9F74F80460E461746AB
:106C78001C463DD800251B7B2573214610460193F1
:106C8800FFF72CFFDFF88CA0DFF88CB0AE4232D9CA
:106C980018F805205946204600F0B3FE0135082DA6
:106CA800F4D11B49DFF874A0DFF874B0204600F077
:106CB800A8FE4FF000094E4524D918F809507E2D3A
:106CC8001ED8284604F01EFB002814BF2A462E2290
:106CD8005946204600F095FE09F10109B9F1080F5F
:106CE800E9D1012221463846FFF736FF019B23737D
:106CF80003B0BDE8F08F5146204600F082FECDE794
:106D08002E22E5E75146204600F07BFEE4E700BF6F
:106D1800D8B60200D4B60200CEB60200D6B602003B
:106D2800DAB60200C30710B507D4F023054A4008B5
:106D3800145C23401943115410BD0901C9B20F2333
:106D4800F4E700BFE829002030B5094B1C78094B4F
:106D5800196800239C4202DC0022104630BD11F85D
:106D68003350854201EBC302F7D00133F2E700BF8D
:106D7800D4290020F829002013B504460191FFF713
:106D8800E3FF38B143682BB10199204602B0BDE852
:106D98001040184702B010BD034B04481968002280
:106DA800490800F055BA00BFD8290020D81D002096
:106DB80010B5C0B2FFF7C8FF0446007801F05AFECC
:106DC80063785A1E53425341834208D1044BD3E996
:106DD8000023134303D1BDE81040FFF7DDBF10BD0A
:106DE800E029002037B54308374AD35CC2074CBFB7
:106DF8001B0903F00F0304460D46042B25D8DFE8D2
:106E080003F003262F3C4000F9B10121FFF78AFF68
:106E180000230DF107008DF8073000F029FB012051
:106E2800A4F12003C4F12001284A20FA01F100FA54
:106E380003F30B43A040D2E9004120430B43C2E9CE
:106E480000039DF8070000F037FB03B030BD0029B0
:106E580018BF0221204603B0BDE83040FFF762BFEB
:106E680049B10321FFF75EFF0121204603B0BDE8C9
:106E78003040FFF781BF0121ECE70029E5D104216B
:106E8800E8E709B10321E5E7FFF74CFF294620466B
:106E9800FFF772FF0DF107008DF8075000F0E8FAD0
:106EA8000120A4F12003C4F12001084A20FA01F1CD
:106EB80000FA03F30B43A040D2E9004124EA0000A2
:106EC80021EA0303BBE700BFE8290020E0290020EE
:106ED8002DE9F041124E134F00243378A34208DC09
:106EE800114BD3E90023134318D0BDE8F041FFF755
:106EF80053BF3D6805EBC40815F8340001F0BAFD2E
:106F080098F801305A1E53425341181A41424141E0
:106F180015F83400FFF766FF0134DEE7BDE8F081BD
:106F2800D4290020F8290020E0290020092AF7B5F3
:106F380005460C4616463ED901F0D4FCE8B11F4B75
:106F48001F481D601F4B204F1C70204B0021102232
:106F58001E6004F042FA1E4B00200021C3E9000124
:106F6800013CE4B20326FF2C0DD11A4A1A4800212D
:106F780003B0BDE8F04000F059B901F07BFC0028EF
:106F8800DDD003B0F0BD9DF8063015F834008DF85B
:106F9800046005EBC40223F007038DF8063001A94D
:106FA80093788DF805303A4601F0A6FC013CE4B22E
:106FB8000028D8D0E5E70720E3E700BFF82900203C
:106FC800E8290020D4290020B96D0200D829002022
:106FD800E0290020D96E02006CB7020070B5084D98
:106FE800084E00242B789C4201D3002070BD3368E2
:106FF800012113F8340001F0F7FC0134F2E700BF77
:10700800D4290020F82900201FB50021039001AAE7
:1070180044F20100CDE9011100F004F805B05DF873
:1070280004FB000038B572B6FFF744FDFFF7B0FB6C
:107038000028FBD1104B114C114D1249E41AE408F9
:10704800240444F00100FFF7EFFCD5F8F030DB072B
:1070580000D500BE0C4944F00200FFF7E5FCBFF381
:107068004F8FEA68094B02F4E0621343EB60BFF309
:107078004F8F00BFFDE700BF40B5020068B50200B2
:1070880000ED00E070B702007CB702000400FA05CA
:1070980010B5D0E90243D1E90202A04272EB030322
:1070A8002CBF0120002010BD08B50A4800F037FBAE
:1070B800094AD2E90031C018084BD3E9002341F14D
:1070C8000001904271EB030303D210F1807041F18B
:1070D800000108BDF81D0020002A0020782A0020A1
:1070E80037B505460C460A4801A900F04CFB60B1CB
:1070F8000570446001A9064800F06FFB18B1054807
:1071080000F012FB002003B030BD0420FBE700BFF5
:10711800642A0020F81D0020294B73B51E78044608
:107128001EB90026304602B070BD0028F9D0FFF71E
:10713800BBFFD4E902239042994139D300230DF1D2
:1071480007008DF8073000F093F923692BB94FF049
:10715800FF324FF0FF33C4E902239DF8070000F027
:10716800ABF9D4E90530984700250DF107008DF8F3
:10717800075000F07DF92369C3B1D4E90212B2F1D6
:10718800FF3F08BFB1F1FF3F05D05B1842F1000295
:10719800C4E9023235469DF8070000F08DF9002D4C
:1071A800BFD00848214600F0BDFFBBE71D46F2E707
:1071B800B3F1FF3F08BFB2F1FF3FB2D0F1E700BF24
:1071C800082A002098B7020013B5114B1149186816
:1071D800019008231048582200F0C2FA044698B9D2
:1071E8000E4A0F4801A900F08BF9044660B90C4813
:1071F800012100F077FA01230A4A0948194600F0EC
:10720800D9F9094B01221A70204602B010BD00BFFF
:1072180094B702000C2A0020642A0020C1720200E0
:10722800F81D0020FFFF7F00082A002030B56AB152
:1072380003684FF0FF344FF0FF355A614A1E514240
:10724800C3E9024551411961002030BD0720FCE720
:10725800F7B5044600250DF1070017460E468DF8D0
:10726800075000F005F9D4E90223B3F1FF3F08BF46
:10727800B2F1FF3F07D1FFF717FF301841F10001C6
:10728800C4E9020101259DF8070000F015F955B180
:107298002369A76103B126612146002003B0BDE838
:1072A800F040FFF71DBF284603B0F0BD014800F0CD
:1072B80036BA00BFF81D00202DE9F743064600F056
:1072C80019FA40B1624AD2E9003113F1807341F1F1
:1072D8000001C2E900310021304600F01AFA38B145
:1072E8005C4C236823B12068FFF716FF0023236056
:1072F8000121304600F00DFA20B1FFF7D5FE564BBC
:10730800C3E900015548534C01A900F076FA4FF043
:10731800FF384FF0FF39A0B9DFF844814D4D4046A2
:1073280000F016FF002800F08580D0E90223B3F1B1
:10733800FF3F08BFB2F1FF3F32D1404600F002FFE5
:10734800EDE70378012B20D0022B08D1444D2846C5
:1073580000F0F8FE002877D0C0E90289F7E75BB9AA
:107368004168D1E90223B3F1FF3F08BFB2F1FF3F03
:1073780002D03B4800F0D6FE01A9384800F068FA70
:1073880001A9364800F039FAC5E7416823689942EF
:1073980002D100232360EFE7314800F0DCFEEBE781
:1073A800296891B12968D1E9020182428B412FD223
:1073B8002B68D3E90223B3F1FF3F08BFB2F1FF3FC7
:1073C80003D02968404600F0ADFE404600F0BAFE02
:1073D800D0E902490746FFF767FE201A69EB010961
:1073E800012879F1000318DBB0F5350F13D3FFF747
:1073F8005DFF1C4A02441C484FF49603002100F02C
:10740800F9F890B92B6813B9304600F0CBF82F6023
:1074180003B0BDE8F0832246EDE71348002100F0F1
:107428006EF93846FFF778FE01E00D28F9D0002301
:107438002B6074E7074B1B68002BE9D1304603B07B
:10744800BDE8F04300F0B2B8084B01221A7093E788
:10745800002A0020802A0020782A0020642A0020A0
:1074680098B70200FFFFB400F81D0020082A00208A
:1074780070B5EFF3108672B60C4A946801239CB974
:1074880093600B4B0B4DD3F8801029401160C3F863
:107498008050D3F8841051604FF0FF32C3F8842035
:1074A800047006B962B670BD0370FAE7842A00203A
:1074B80000E100E0FC06FFBD084B9A6810B55AB120
:1074C80050B9EFF3108172B6054A1C6814605C6805
:1074D8005460986001B962B610BD00BF842A0020CC
:1074E80000E100E0435882B03BB1002343504358C9
:1074F8000193019B012002B070471846FBE700008A
:10750800F8B5204B4479204E43F824201F4A204BDD
:1075180006EBC4049B1A2279DB081B0432B143F042
:1075280002001C49FFF780FA0820F8BD02680C88A1
:10753800C2F8084590F904508A7804795201002D60
:10754800D2B219DB14494F1987F8002301226D09BB
:1075580004F01F0402FA04F441F82540427906EBCE
:10756800C201012446F832000C7143F003000B49B4
:10757800FFF75AFA0020D8E7094904F00F040A5522
:10758800ECE700BF982A0020902A002040B50200AE
:1075980078B50200A4B7020000E100E0C6B7020017
:1075A80014ED00E0036801221A60704703680122A5
:1075B8005A60704773B501F15005AD000068ADB26F
:1075C8004FF480348C400026C0F80843C0F8484384
:1075D800465101F5A8714559019522F07F42019D58
:1075E80040F82120C0F844430BB1C0F8044302B06E
:1075F80070BD00002DE9F74F0D4622F07F44026868
:107608004FF4803705F150068F408046B60002EBF4
:107618008500C2F84873B6B2C2F80873D2F80415E8
:1076280099464FF0000BD0F84035C0F8401542F8A5
:1076380006B05B1A9259009223F07F43012B009AFF
:107648004FEA850A0CD1264B4FF4806043F00103C2
:107658009847D8F8003043F806B09B590193019B2E
:10766800D8F80010D1F80465C1F84473A31B23F0BF
:107678007F43012B1CD11A4B05F5A875013443F043
:10768800010341F825404FF480609847D8F800304E
:10769800D3F804359E4209D1D8F800300020C3F849
:1076A8004473C3F8047303B0BDE8F08F0D20FAE704
:1076B8008A44C9F1FF13CAF84045D1F80405221AD3
:1076C800013A22F07F4203F57F439342EED3002A2A
:1076D800E2D10134CAF84045D1F804359842DAE7D6
:1076E800E0B7020003680222C3F8442309B1C3F8D3
:1076F8000423704700684FF48271FFF7F3BE4FF41C
:10770800803303FA01F10368C3F84813C3F8081378
:10771800704750318900006889B2FFF7E3BE0368FB
:10772800D3F804057047000090F90430002B09DBFA
:107738005A09012103F01F0301FA03F340320249F9
:1077480041F82230704700BF00E100E0024B034AD5
:107758001B681068184700BF982A0020902A00204C
:1077680010B561B1B2FBF3F403FB1424A4B244B91D
:10777800C0E9001484608281C381204610BD0E20B8
:10778800FCE70920FAE737B550E8013F9DB2C48904
:1077980025448489A54228BF2D1B0489A54202BF20
:1077A800BFF32F8F002207E0C5EA030540E8015424
:1077B800002CE9D14FF001028DF803200193019AC2
:1077C8000A609DF8031001F0FF0321B1006810FA68
:1077D80082F003B030BD1846FBE70A884B889A420E
:1077E80009D150E8012FC2EA024240E80123002BE8
:1077F800F7D1012070470020704737B550E8023FA5
:107808001FFAA3F5C488A54202BFBFF32F8F002239
:107818000DE0C48925448489A54228BF2D1BC3EAED
:10782800054540E80254002CE8D14FF001028DF8DC
:1078380003200193019A0A609DF8031001F0FF03E9
:1078480021B1006800EB124003B030BD1846FBE7D9
:107858000A884B889A4209D150E8022FC2EA22428C
:1078680040E80223002BF7D1012070470020704721
:1078780001F01F024B090121914000EB830000F049
:107888001EB801F01F0301229A404B0900EB830048
:10789800D14300F02CB84B0901F01F0150F8230028
:1078A800C84000F00100704710B5034653E8000FC8
:1078B8000A4643E8002494F0000FF7D110BD10B534
:1078C800034653E8002F42EA010043E8000494F01D
:1078D800000FF6D110BD10B5034653E8000F00EABB
:1078E800010243E8002494F0000FF6D110BD10B552
:1078F800034653E8002F02EA010043E8000494F02D
:10790800000FF6D110BD10B5034653E8002F02EB67
:10791800010043E8000494F0000FF6D110BD10B543
:10792800034653E8002FA2EB010043E8000494F05B
:10793800000FF6D110BD0121FFF7C1BF0021FFF7ED
:10794800CABF10B590B1D0E9012301689B1ADBB218
:107958000A60013BDBB2FF2B026802D100201071E4
:1079680010BD11684C1C14600B70F2E70E20F7E78D
:1079780037B5054600240DF107008DF80740FFF7DD
:1079880077FD2A686B68116899420ED9481E106005
:1079980011F8013CEC68298A01FB0344AB681179B2
:1079A8001B1ADBB2994238BF13719DF80700FFF725
:1079B80083FD204603B030BD37B5054600230DF1E1
:1079C80007000C468DF80730FFF752FD2A68136848
:1079D800591C1160E968641A298AB4FBF1F41C7017
:1079E8009DF80700FFF768FD03B030BD826810B549
:1079F80004462AB143690168006998470023A360D7
:107A080010BD0EB403B5039921B104AB01AA0193CB
:107A180000F076F802B05DF804EB03B070470A296D
:107A280038B504460D4602D10D21FFF7F8FFA368CB
:107A38002268591CA160D554D4E901329A4204D372
:107A48002046BDE83840FFF7D1BF38BD2DE9F84FD3
:107A58009846DDE90A43154682460F460A464FF026
:107A68000109AA420FD2C14538BFC14613F0010B24
:107A780001D16CB900240126B8F1010F1BD908F116
:107A8800FF386E43F8E709F10109B2FBF5F2E8E7C0
:107A98009B070ED5B8F1000F0CBF30262026A14554
:107AA800E9D2013C31465046FFF7B9FF002CF6D128
:107AB800E0E72026F3E7B7FBF6F39D42E1D9DFF8CC
:107AC8003C80B7FBF6F3504618F8031006FB137713
:107AD800FFF7A5FF3346AB42B6FBF5F6F1D2BBF193
:107AE800000F02D00CB1A14501D3BDE8F88F2021C9
:107AF8005046013CFFF793FFF4E700BFE6B70200EA
:107B08002DE9F74F054617468846002900F03E81C3
:107B180018F8011B49B92B7B002B00F03781284648
:107B280003B0BDE8F04FFFF761BF252940F0B780EB
:107B3800002698F800302D2B424608F1010823D082
:107B4800302B24D02B2B25D000242A2B02F1010125
:107B580023D13B681A1D1B683A601C440A461378F7
:107B68002E2B26D101324FF0000A104610F8011BC7
:107B7800A1F1300CBCF1090F1DD80A2303FB0A132D
:107B8800A3F1300A0246F0E746F00106D1E746F0D5
:107B98000206CEE746F00406CBE711F8013CA3F154
:107BA80030000928DBD80A2202FB0434303C0A469C
:107BB800CBE74FF0000A12F8011B01F0FB00682820
:107BC8009046F8D0782909D86F290CD8632962D053
:107BD80022D8252963D0582900F0888098F80030E9
:107BE800002B95D197E770390829F7D801A353F8E6
:107BF80021F000BF6F7D0200E57B0200E57B0200FB
:107C0800057D0200E57B0200E37C0200E57B0200C3
:107C1800E57B0200F57C0200642901D06929DDD1E9
:107C28003A68D2F80090111D89EAE9723960A2EB2E
:107C3800E9724FF0010B092A35DCD34538BFD3462A
:107C48002CB1B9F1000F01DB720700D5013CB30775
:107C580002D5BAF1000F03D0F00701D44CBB0024C1
:107C6800B9F1000F2DDAC9F100092D212846FFF7D7
:107C7800D6FE06F00302022A04D1BAF1000F01D1A0
:107C88001CBB0024CDE9004653460A224946284633
:107C9800FFF7DCFEA2E73B681A1D19783A60284610
:107CA800FFF7BDFE9AE70A230BF1010BB2FBF3F2D3
:107CB800C1E7A345D4D220212846013CFFF7AFFEF7
:107CC800CCE77107D5D52B21D0E7A345DAD23021EF
:107CD8002846013CFFF7A3FED2E73968CDE9004604
:107CE8000A1D3A6053460A220968D0E739680A1D16
:107CF8003A60CDE9004653461022F5E73B681A1D65
:107D08003A6016F00106D3F8009024D1B9F1000FBB
:107D180003D0484603F0BBFB0646B4421DD809F120
:107D2800FF3919F8011F00293FF458AF2846FFF71B
:107D380076FEF6E728460136FFF771FE19F80610B9
:107D48000029F7D1A642BFF449AF20212846013CBB
:107D5800FFF765FEF6E70026F0E720212846013CFC
:107D6800FFF75DFED9E73B681A1D3A6030212846C7
:107D78001C68FFF754FE78212846FFF750FE0022C2
:107D88000823CDE900322146102280E703B0BDE880
:107D9800F08F00BF2DE9F84FB0F806A04579D2F86A
:107DA80000B09DF828900AFB05F5043D88460BEBCA
:107DB8000301A94203F1040488BFA5EB030BB4FB3C
:107DC800FAF607460AFB1644C2F800B04EB9AAEB09
:107DD80004055D4528BF5D46BBF1000F04D1BDE831
:107DE800F88F3F68013EF1E7043408EB06003C4495
:107DF8002A46B9F1000F0DD02146ABEB050B03F075
:107E0800C3FADA452E443F6855464FF0000428BFB0
:107E18005D46E1E701462046EFE7FFF792BDF8B57A
:107E280046790146721E0546002393422D6803D306
:107E38000024A64202D8F8BD0133F6E70F682846A9
:107E4800FFF7BAFD01343946F3E72DE9F843068A0E
:107E5800CD1C0746FFF78CFD043E35440446B5FBB0
:107E6800F6F5F0B14FF48073EDB28380C680013D22
:107E7800076081464FF00008A84512D23846FFF740
:107E880077FD064648B163790133637108F101084B
:107E9800C9F8000007608146EEE72046FFF7BFFFFC
:107EA80034462046BDE8F88301210430FFF72BBD96
:107EB80010B5012104460430FFF731FDC0B220B9E6
:107EC8002046BDE81040FFF7AABF10BD1FB50392BA
:107ED8000022009203AAFFF75DFF05B05DF804FBDE
:107EE8001FB503920122009203AAFFF753FF05B0C2
:107EF8005DF804FB41DF7047064B10B500241C7089
:107F0800054B1C60BFF35F8F0449054800F0F4F887
:107F1800204610BDA42A0020A82A002000B802008C
:107F28009C2A002007B500230DF107008DF80730C3
:107F3800FFF79EFAF1EE103A23F09F03E1EE103AB4
:107F4800BFF35F8F0A4B4022C3F884219DF80700D6
:107F5800FFF7B2FA03F02AF820B103B05DF804EB9A
:107F6800FFF7C8BF20BF40BF20BF03B05DF804FBC8
:107F780000E100E0026813685268934291BFD01A8A
:107F880080680130801888BFC01A7047036881680C
:107F98001A685B688B4234BF01330023D31A5842F6
:107FA8005841704773B5002304460DF107000D468C
:107FB8008DF80730FFF75CFA2046FFF7E7FF10B1AE
:107FC800237C002B3BD12368A1685E685A688A42EB
:107FD80034BF013200225A6028B11A688A4234BF7D
:107FE800013200221A60E2686368511E072920D80E
:107FF800DFE801F004101F141F1F1F182A789A5574
:108008002046FFF7B7FF23689A68824200D298603B
:10801800002415E02A8823F81620F1E72A6843F897
:108028002620EDE7D5E9000103EBC603C3E900010B
:10803800E6E7294602FB063003F0A6F9E0E7042448
:108048009DF80700FFF738FA204602B070BD0368B4
:1080580018685B68C31A58425841704773B50023C3
:1080680005460DF107000C4616468DF80730FFF758
:10807800FFF92846FFF7EBFF002832D12B68196873
:108088002EB91A68A868824238BF561C1E60EA6872
:108098006B68501E07281ED8DFE800F0040E1D127A
:1080A8001D1D1D165B5C237000249DF80700FFF75B
:1080B80003FA204602B070BD33F811302380F3E78D
:1080C80053F821302360EFE703EBC103D3E9002322
:1080D800C4E90023E8E701FB0231204603F054F924
:1080E800E2E70524E1E7836800225A60C3E9042235
:1080F8009A60DA601A6070470B684A684360934276
:1081080008BF0023016008BF43607047436843B15C
:108118000268916852680B449342436004BF00238D
:108128004360704770B5446806460D46206818B12C
:10813800B3682946984718B923682B60256070BD35
:108148002468F3E74368186808B102681A60704742
:108158004368186870474368186800B970478842D0
:1081680003D102681A600120704703460068F4E7EB
:1081780010B50D49A1F59472914201D800200FE085
:108188008C1AE30F03EBE4035B1002EBC30452F811
:108198003330834205D802D204F10802ECE7606864
:1081A80010BD2146E8E700BF0CBD020008B5FFF787
:1081B800DFFF024B002808BF184608BDCFBB0200EE
:1081C8004FF08053D3F83001421C04BF4FF0704386
:1081D80093F8E00F831F5842584170474FF070439F
:1081E80093F8E02F062A09D1D3F8E83FC3F3031325
:1081F800033B042B02D8024AD05C7047002070472A
:108208001BBD0200024AD2F80034002BFBD0704795
:1082180000E0014010B5FFF7D3FF40B14FF08053A5
:10822800944AD3F82433C3F30423C2F84035FFF744
:10823800D5FF10B1904B914A5A67FFF7C1FF48B17B
:108248004FF080534FF08042D3F84432C3F34233A7
:10825800C2F83C35FFF7C2FF30B1894AD2F8FC308A
:1082680023F08073C2F8FC30FFF7AAFF40B14FF04B
:1082780080430022C3F80C21C3F81021C3F8382525
:10828800FFF7ACFF20B14FF080430322C3F8A025CD
:10829800FFF7A4FF60B17B4B0522C3F8102601222B
:1082A800C3F888260022C3F818263F22C3F81426EC
:1082B8004FF08053D3F83021511C09BF4FF0704361
:1082C800D3F8343193F8E02FD3F8E83F08BFC3F36D
:1082D8000313062A4DD1033B042B03D86A4AD35C07
:1082E800002B46D04FF08052684BD2F80414C3F8E4
:1082F8002015D2F80814C3F82415D2F80C14C3F8C2
:108308002815D2F81014C3F82C15D2F81414C3F891
:108318003015D2F81814C3F83415D2F81C14C3F861
:108328004015D2F82014C3F84415D2F82414C3F821
:108338004815D2F82814C3F84C15D2F82C14C3F8F1
:108348005015D2F83014C3F85415D2F83414C3F8C1
:108358006015D2F83814C3F86415D2F83C14C3F881
:108368006815D2F84014C3F86C15D2F84424C3F841
:108378007025FFF725FF48B14FF080534FF080423A
:10838800D3F8583203F04F03C2F8E43EFFF718FF62
:1083980048B14FF08043D3F80024D20744BF6FF0B0
:1083A8000102C3F800244FF08053D3F83021062A85
:1083B8000ED1D3F83431033B042B02D8344AD35CB2
:1083C80033B1344AD2F83C3743F48063C2F83C37BF
:1083D8002B4AD2F8883043F47003C2F88830BFF3D0
:1083E8004F8FBFF36F8F4FF08053D3F83021062A99
:1083F8000FD1D3F83431033B042B02D8264AD35C7F
:108408003BB14FF01023D3F808224FF08043C3F854
:1084180058254FF01023D3F80022002A03DBD3F8A5
:108428000432002B22DA1D4901234FF01020C1F835
:1084380004351524FFF7E6FEC0F80042FFF7E2FE18
:10844800C0F80442FFF7DEFE0023C1F80435FFF749
:10845800D9FEBFF34F8F0A49114BCA6802F4E06294
:108468001343CB60BFF34F8F00BFFDE70D4B0E4AA0
:108478001A6010BD0030014000C007400DF0ADBAD1
:1084880000ED00E0005000400CBD020000C00040BC
:1084980011BD02000010004016BD020000E00140BE
:1084A8000400FA05001E00200090D003044B1A5C5B
:1084B800012393404FF0A042C2F80C35704700BF2B
:1084C80020BD0200044B1A5C012393404FF0A042E8
:1084D800C2F80835704700BF20BD020008B500206B
:1084E800FFF7F0FF0120FFF7EDFF0220FFF7EAFF9B
:1084F800BDE808400320FFF7E5BFC20708B50146FD
:108508000CD54FF0A0430322C3F84427C3F84827EB
:10851800C3F84C27C3F85027FFF7E0FF8B070AD5AD
:108528004FF0A0430C22C3F83427C3F83827C3F808
:108538003C27C3F8402708BD38B5074C051E04F191
:10854800080318BF1C4623682BB11A6822605B68B1
:1085580028469847F7E738BDB42A002020B9054BCC
:1085680001225A70FFF7E8BF012802D1014A907032
:10857800F8E77047AC2A002020B9034B01225A7053
:10858800FFF7DABF704700BFAC2A002038B50E4CA1
:108598002378B3B90D486360A3602361E36000F0FA
:1085A800E7F8054602F002FD08B900F0EDF80123EE
:1085B8002370074BD3F800340BB10123A37028466E
:1085C80038BD8525F5E700BFAC2A00206585020087
:1085D8000000014037B50D4C00230DF107008DF860
:1085E8000730FEF745FFE368013BE360E36833B912
:1085F800074BD3F8005415B900F0D8F8A5709DF8CA
:108608000700FEF759FF03B030BD00BFAC2A0020B9
:1086180000000140012813B50CD0032820D038B938
:10862800134B0122C3F88020BFF34F8FBFF36F8F26
:1086380002B010BD0F4C00230DF107008DF8073074
:10864800FEF716FF23780BB9FFF7A0FFE3689DF844
:1086580007000133E3600123A370FEF72DFFE7E76E
:1086680000F092F802B0BDE81040FFF7B3BF00BFBA
:1086780000E100E0AC2A00201FB503788DF8003037
:108688004368019383688DF80830C368054A0393EB
:10869800054B684653F8213052F82110984705B029
:1086A8005DF804FBC02A0020C42A00201FB5037807
:1086B8008DF800304368019383688DF80830C368EB
:1086C800054A0393054B684653F8213052F82110A8
:1086D800984705B05DF804FBC02A0020C42A002092
:1086E800F0B5194B90F800C091F81DE043F82C2024
:1086F800164B16460A6943F82C20154B03F80CE074
:108708000C4607460FCC89B06D460FC594E80F009C
:1087180085E80F00CDF810C0BEF1000F09D0002E7B
:108728000C4A694608BF3246381D00F083FD09B07F
:10873800F0BD002E084A694608BF324607F10C0012
:1087480000F05AFBF3E700BFC42A0020C02A00202B
:10875800C82A002081860200B586020000F1804008
:10876800002382B0036003680193019B02B0704745
:10877800044A137923B90121106091801846704783
:1087880085207047CC2A0020074B1A68D20704D4EA
:10879800C02283F8002301221A604FF0804301228F
:1087A800C3F81825704700BF00E100E04FF0804291
:1087B80008B50223C2F808334FF48270FFF7CEFFE2
:1087C8000123D360D2F81834DB03FBD408BD0000C2
:1087D8004FF0804110B5D1F8003163B14FF480708B
:1087E800FFF7BCFF0D4B58790122C1F8082310B9D7
:1087F8005A711B6898474FF08042D2F8043163B130
:108808004FF48270FFF7AAFF0223C2F80833034B24
:10881800BDE810401B680120184710BDCC2A002075
:1088280000F1804000F5C040002382B00360036877
:108838000193019B02B07047800000F1A040D0F87E
:10884800002722F44032C0F80027D0F8003743EA66
:108858000141C0F800177047054B4FF0FF32072859
:1088680043F8202084BFC01880F84820704700BF14
:10887800D42A002010B5184991F8583053BB4FF04E
:10888800FF3222FA03F0C00748BFC81803F10103FA
:1088980048BF80F83020202BF3D10024E0B2013407
:1088A800FFF7DAFF0C2CF9D10C4B0022C0204A65E7
:1088B80083F80603402018604FF4BE70FFF7B0FF3E
:1088C800074B4FF00040C3F80403012381F85830E8
:1088D800104610BD0820FCE7D42A002000E100E083
:1088E80000600040034B93F85800003818BF01207F
:1088F800704700BFD42A0020F0B5394E331893F9D9
:108908003030002B69DA8D78C5F34005002D0BBF98
:10891800082300230C240824A34201D10420F0BD1D
:1089280056F82370013743D137185CB246F8232034
:1089380087F8304015B9F21882F848008A78550748
:1089480016D4D70736D5820002F1A042D2F80057D4
:1089580025F00205C2F80057224FC50800F0070CA1
:10896800012202FA0CF217F805C042EA0C027A5505
:108978008A780D7812F0020225D09B0003F180431B
:1089880003F5C0430002D3F8102522F4473222F43D
:108998004072C3F810252D04D3F8102500F4F850C0
:1089A80005F4403528431043C3F810050020B6E706
:1089B8000133B1E74D7800F5E0724FF0A047AD0004
:1089C80047F82250C8E7083C46FA84F494F8500067
:1089D80040EA851584F85050E8E708209FE700BF73
:1089E800D42A0020282B002038B5204C251895F9CA
:1089F8003020072A18DD083A44FA82F494F85030F7
:108A08009B09032B0BD14FF0A043D3F81015C1409D
:108A180001F001010231BDE83840FFF70DBF012B1D
:108A28000CBF02210321F6E7D3B2072B1DD8930010
:108A380003F1804303F5C043D3F8100540F001006B
:108A4800C3F8100502F1400040B2800080B2FFF781
:108A5800E7FE51B195F9303054F823302BB101239A
:108A680003FA02F2024BC3F8042338BDD42A0020CB
:108A7800006000404FF0A043D3F8103523FA00F00F
:108A880000F00100704700002DE9F74F00244E4D1B
:108A980001944FF48072012102F1804303F5C04331
:108AA80090B21B68012B06D1D5F804330B4202D0D3
:108AB800FFF7B6FE0C430432B2F5907F4FEA41014E
:108AC800EAD1414BD3F87C31012B0CD14FF4BE7065
:108AD800FFF7A6FE4FF0A04344F00044D3F820254A
:108AE8000192C3F82025E3B2D3B1384F00250126FF
:108AF800344210D0AB0003F1804303F5C043D3F8F0
:108B08001005D3F8101557F8253023B1C1F30141EA
:108B1800C0F3042098470135082D4FEA4606E7D1EF
:108B2800002C48DA294D4FF0A048294E4FF0000993
:108B3800012716F9013B5A1C31D0C3F3C20208328F
:108B48006A44DCB212F8042C03F03F0A03F007036E
:108B580007FA03F31A4222D00AF5E073504658F890
:108B68002330C3F3014BBBF1020F0CBF03210221D9
:108B7800FFF762FE07FA0AF3C8F8203505EB0A0387
:108B880093F9303055F823304BB1A109032904D0AB
:108B9800BBF1020F12D1012901D15046984709F1C2
:108BA8000109B9F1040FC4D1D8F820350193C8F8E8
:108BB8002035002BB9D103B0BDE8F08FBBF1030F0E
:108BC800EDD10229E8E700BF00600040D42A002068
:108BD800242B0020014B1B68184700BF302B0020B6
:108BE8000E4B984237B50C4602D0002003B030BD7A
:108BF80000230DF107008DF80730FEF739FC084B0C
:108C08001D7915B901221C601A719DF80700FEF73D
:108C180053FC002DE9D01120E8E700BF00200040F8
:108C2800302B0020034B984201BF034B00221A60EF
:108C38001A71704700200040302B00200023435059
:108C480082B043580193019B02B070470A4610B5A1
:108C58004FF48E71FFF7F2FF136A9168C95C136ACB
:108C680001331362C0F81C1510BD8B690A4610B594
:108C78004FF4847123B9FFF7E1FFD0F8183510BD20
:108C8800FFF7DCFF536AD168D0F81805C854536A57
:108C980001335362F3E700001FB501238DF800305C
:108CA800044BCDE90110D3E900126846904705B09E
:108CB8005DF804FB382B002030B54D4DD5F8043352
:108CC8009A0585B051D5D5F82431002B4DD04FF4F5
:108CD80092712846FFF7B2FF4FF40173C5F80833C5
:108CE800444B93F829200AB901226A6040490222BC
:108CF8008DF80020D1F88024C1F8802403929A6965
:108D08000292DA6801920022C3E906226846D3E992
:108D1800001290473648D0F81C315BB1354A51698A
:108D2800136A99424DD992F82830002B49D111463F
:108D3800FFF78CFF2E48D0F84431002B56D04FF463
:108D4800A271FFF77BFF2B4B93F829200AB1012270
:108D580002609A69002A49D0586AD96800229A6143
:108D680005B0BDE83040FFF797BFD5F804335B077F
:108D7800D0D5D5F80831002BCCD01E4C1C48214644
:108D8800FFF773FF636AA2699A42C3D1E369E16896
:108D98004BB1A3612369E3600023606AE361636206
:108DA800FFF77AFFB6E794F829300BB901236B6017
:108DB8000F4B4FF40172C3F808230023606AA361C4
:108DC800EEE70B484FF48E71FFF738FF5369002B1D
:108DD800B0D051690291002391688DF8003001915B
:108DE80053616846D2E900139847A3E705B030BD40
:108DF80000200040382B00202DE9F843534D90F80F
:108E080004802C2303FB0853064693F82A300C46AB
:108E18009146002B40F096804D490068FFF7E0FE30
:108E28000746002840F0908022683068511C0BD01B
:108E38004FF0A04101239340C1F8083502F5E073D3
:108E48004FF0030C41F823C061684B1C1FBF01F5AC
:108E5800E0734FF0A04C4FF0000E4CF823E0A369EC
:108E6800C0F8243594F814C0637DBCF1010F4CEAB6
:108E78000303C0F86C35C0F81415C0F80C251DD1D3
:108E8800A268531C1FBF02F5E0734FF0A0414FF0DA
:108E9800000C41F823C0E368591C0BD04FF0A04CDC
:108EA80001219940CCF8081503F5E0714FF0030E45
:108EB8004CF821E0C0F80835C0F810252C2202FB38
:108EC80008F2AB18C3F804902369AB50B9F1000F4E
:108ED80020D04FF48E71247FFFF7B0FE4FF4A271BB
:108EE8003068FFF7ABFE32681A4BC2F80433130B35
:108EF80042F307326101002AC9B21EDB1648841802
:108F080084F800130121520903F01F0301FA03F347
:108F180040F8223033680422C3F800252C2303FBD1
:108F280008530022C3E9062283F829205A61012246
:108F380083F82A203846BDE8F883084A03F00F036F
:108F4800D154E7E70827F5E71127F3E7382B002086
:108F5800C18C02008000020000E100E014ED00E096
:108F6800F8B503680579304C0022C3F800252C2297
:108F780002FB05425268A2B12C4AC3F808231A0B17
:108F880043F30733002B0CDB02F01F015B090122BE
:108F98008A402033264941F82320BFF34F8FBFF37F
:108FA8006F8F0068D0F80C65D0F81415D0F8083524
:108FB800D0F810254FF0FF37BE42C0F8147518BF1F
:108FC80006F5E076C0F80C75C0F80875C0F810759D
:108FD8001EBF4FF0A0474FF0020C47F826C04E1CAA
:108FE8001FBF4FF0A04601F5E071022746F8217037
:108FF800511C1FBF4FF0A04102F5E072022641F854
:1090080022605A1C1FBF03F5E0734FF0A0420221F3
:1090180042F82310FFF706FE2C2303FB0544002328
:1090280084F82A306360F8BD382B002084020200DF
:1090380000E100E00279044B2C2101FB023358695E
:10904800003818BF01207047382B00202DE9F84F51
:10905800064690F8048089469246FFF7EBFF0446DF
:1090680000283CD1204F2C2508FB057B4FF48E713E
:10907800CBF814A0CBF80890CBF820008BF8280088
:109088003068FFF7DBFD3068012383605946FFF73E
:10909800DDFDDBF804305D461BBB3068DBF81440AF
:1090A8002B6A9C4211D83368D3F81C21002AFBD0C4
:1090B8000122DA6000202C2303FB087700237B6160
:1090C800BDE8F88F95F828303BB9D0F81C31002B53
:1090D800F8D05946FFF7BAFDE2E70F20EBE7112079
:1090E800EEE72046ECE700BF382B00200023435072
:1090F80082B043580193019B02B070471FB501230A
:109108008DF80030044BCDE90110D3E90012684610
:10911800904705B05DF804FB642B00207FB5434AF7
:10912800D2F82461002E60D010464FF49271FFF7F8
:10913800DDFF02238DF80030D2F88034C2F8803485
:109148000393D2F83C350293394BDA680192002236
:10915800C3E906226846D3E9001290473348D0F89D
:10916800443173B14FF4A271FFF7C0FF304B9A69D5
:109178003AB10022C3E90622D968D0F83C05FFF7C6
:10918800BDFF2A48D0F82031ABB14FF49071FFF7FA
:10919800ADFF0123C360264B5A6962B1D0F84C1564
:1091A8000291002299688DF8002001915A61684661
:1091B800D3E9001290471D48D0F858319BB14FF4BD
:1091C800AC71FFF793FF1A4B5A6962B1D0F84C158E
:1091D8000291002299688DF8002001915A61684631
:1091E800D3E90012904704B070BDD2F81031002BBB
:1091F800B4D04FF488711046FFF778FF0C4BD2F8C3
:109208003C0599698842A9D1DC69D96864B1D2F86A
:10921800005225F02005C2F800521A699C61DA60F4
:10922800DE61FFF76BFF99E79C61FAE700200040D9
:10923800642B00202DE9F8435A4E90F8048024232B
:1092480003FB0863044693F820300D469146002B33
:1092580040F0A38054490068FFF7C2FC0746002885
:1092680040F09D802A682068511C0BD04FF0A04127
:1092780001239340C1F8083502F5E0734FF0030C61
:1092880041F823C069684B1C1FBF01F5E0734FF01C
:10929800A04C4FF0000E4CF823E0AB69C0F8243521
:1092A80095F814C06B7DBCF1010F4CEA0303C0F8BC
:1092B8006C35C0F80C25C0F814151DD1AA68531CCC
:1092C8001FBF02F5E0734FF0A0414FF0000C41F8CA
:1092D80023C0EB68591C0BD04FF0A04C01219940DA
:1092E800CCF8081503F5E0714FF0030E4CF821E0B7
:1092F800C0F80835C0F81025242202FB08F2B3187C
:10930800C3F804902B69B350B9F1000F2FD04FF474
:1093180088712A7FFFF7EAFE20684FF49071FFF703
:10932800E5FE20684FF49271FFF7E0FE20684FF4E5
:10933800A271FFF7DBFE4FF4AC712068FFF7D6FE91
:1093480023681A49C3F80413190B43F3073352016E
:10935800002BD2B21CDB1648C51885F80023012261
:109368005B0901F01F0102FA01F140F8231023689C
:109378000822C3F80025242303FB08660023C6E956
:1093880006337361012386F820303846BDE8F88338
:10939800084B01F00F015A54E9E70827F5E71127B0
:1093A800F3E700BF642B0020259102001003420060
:1093B80000E100E014ED00E0F8B5444C0579242301
:1093C80003FB054302465B680068ABB1404BC0F83D
:1093D800083340F30733002B4FEA10310CDB01F060
:1093E8001F065B090121B14020333A4E46F823108D
:1093F800BFF34F8FBFF36F8FD0F8003223F02003F5
:10940800C0F80032242303FB05439B692BB14FF4BA
:10941800A271FFF76BFE012343604FF4AC71FFF7B5
:1094280065FE0123C360242303FB0543D0F85811CC
:109438000029FBD0996919B1D0F844110029F5D059
:109448000023C0F800351368D3F80C75D3F81465F9
:10945800D3F80825D3F810154FF0FF3C6745C3F83B
:109468000CC518BF07F5E077C3F814C5C3F808C5DD
:10947800C3F810C51EBF4FF0A0434FF0020C43F8CD
:1094880027C0771C1FBF4FF0A04306F5E0760227E0
:1094980043F826704E1C1FBF01F5E0714FF0A04342
:1094A800022643F82160531C1FBF4FF0A04302F56A
:1094B800E072022143F82210FFF7B4FB242303FBD8
:1094C8000544002384F820306360F8BD642B002035
:1094D8001003420000E100E00279044B242101FB63
:1094E80002335869003818BF01207047642B0020E8
:1094F80001F06043B3F1005F2DE9F0470646884666
:1095080092463BD190F80490FFF7E6FF0446002806
:1095180036D11D4F3068242505FB09754FF490712D
:10952800C5F814A0C5F80880FFF7E0FD4FF4AC714A
:109538003068FFF7DBFD33686A69A968C3F844152A
:10954800C3F8482501229A606A68DAB9D3F820215D
:10955800D3F858011AB90028F8D00F2007E00028DE
:10956800FBD10122DA60D3F85821002AFBD024234A
:1095780003FB097700237B61BDE8F0871020FBE738
:109588001120F9E72046F7E7642B0020032811D8BB
:10959800012A0AD101290FD100F10E02D2B20D4BD6
:1095A80000EB40001A54002070470129F7D0022927
:1095B80004D049B1072070470022F8E7054B00EBBB
:1095C800400018444270EEE7024B00EB400018449C
:1095D8008270E8E7882B002008B5012202210020CC
:1095E800FFF7D4FF08B1072810D107220221012074
:1095F800FFF7CCFF08B1072808D100210A22084646
:10960800FFF7C4FF10B1072808BF002008BD0000FD
:109618000388102B10B502D0112B1ED010BD1A4C88
:109628002168B1B901220846FFF7B0FF08B1072841
:1096380024D1072202210120FFF7A8FF08B107283B
:109648001CD1042202210020FFF7A0FF08B107283F
:1096580014D1236801332360E0E70B4A1368013B08
:109668001360002BDAD1FFF7B7FF0028D6D0074BDD
:109678001B68002BD2D0BDE810401847034B1B686D
:10968800002BE6D09847E4E7982B0020942B002085
:1096980075DF704776DF70478FDF7047FDF7B4BC22
:1096A8000146014801F0DEBA282D002070B50D787A
:1096B800012D06460C4602D0022D1ED070BD0A1D93
:1096C8001948498801F0DCFB1848194B6288194988
:1096D8001B1ADB081B0443F00300FDF7A9F9FDF78B
:1096E8007DFC08B1FDF790FC304601F071FB0028C5
:1096F800E4D0BDE87040FDF787BC0C4B0C480A79F4
:109708000D49C01AC008000440F00300FDF790F9A5
:10971800237928461BB1BDE87040FEF7C7BEBDE8F7
:109728007040FEF7CFBE00BF282D002040B50200D4
:1097380068B5020046BD020079BD020008B50748B9
:1097480001F0BCF908B1FDF75FFC0120FEF7BAFE95
:10975800BDE808400020FEF7A9BE00BF542D002038
:109768000388212B13B504464ED007D8112B30D0CF
:109778001F2B3DD0102B0AD002B010BD3B2B01D0BF
:10978800562BF9D1A0881321FFF784FF35E0254B2C
:1097980025482649C01AC008000440F00300FDF718
:1097A80043F9A1882248002201F06AFB08B1FDF7BD
:1097B8002BFCA1881F4800F0D5FB08B1FDF724FC5D
:1097C8000120FEF773FE002002B0BDE81040FEF74E
:1097D80079BE144B14481849C01AC008000440F058
:1097E8000300FDF721F902B0BDE81040FFF7A6BF5E
:1097F80000F108018088FFF74BFF0028BCD002B0B9
:10980800BDE81040FDF700BC002380888DF80430C7
:1098180001A98DF80530FFF73FFF0028ACD0FDF710
:10982800F3FBA9E740B5020068B502009FBD02003E
:10983800282D0020241E0020AABD02000D2807B5EF
:109848000BD11048019101F0EDFA019A50B143F2A1
:109858000202904213D0082811D003B05DF804EB3F
:10986800FDF7D2BB084B09480949C01AC0080004D3
:1098780040F0030003B05DF804EBFDF7D9B803B07E
:109888005DF804FB282D002040B5020068B50200F1
:10989800B8BD02000378052B03D1406808B1FDF775
:1098A800B3BB70471FB54FF480410020FCF71EFF83
:1098B80008B1FDF7A9FBFCF757FEFDF785FC08B1D9
:1098C800FDF7A2FB0120FEF718FE3B4840F23332B9
:1098D8000121FDF72BFB08B1FDF796FBFEF70CFB0A
:1098E80008B1FDF791FB01F023FB08B1FDF78CFBF4
:1098F800002369460120009301F0A6FB08B1FDF79B
:1099080083FB684601F042FC08B1FDF77DFB10229D
:109918000021684601F061FD0123284A28488DF896
:10992800043069468DF80C3001F078F808B1FDF77D
:109938006BFB23480022012101F058F808B1FDF71C
:1099480063FB204A1E48002101F026F808B1FDF704
:109958005BFB1D48002100F0E3FC08B1FDF754FB58
:109968001A4B1B4C00936846019400F0BDFA08B1ED
:10997800FDF74AFB174B1848CDE900346946174BE9
:10998800029301F0C3F908B1FDF73EFB144B1548EB
:109998001549C01AC008000440F00300FDF744F858
:1099A800FFF7CCFE0020FEF781FDFCF7F1FE002852
:1099B800FBD1FEF7B7FAF8E7041E00209D980200D5
:1099C800542D002004BE0200402D0020A99602005C
:1099D8000C1E0020B5960200282D0020A596020036
:1099E80040B5020068B50200CFBD020030B5C8B16D
:1099F800F2B10024651C8D4206DA1588A54212D8FA
:109A080005196D789D420ED1A14211D9005D48B16A
:109A1800013880B230B10234A3B210FA84F4A14202
:109A280006DB138030BD055D01352C44A4B2E1E7A7
:109A38000020F7E7F7B500230646ADF806301446D0
:109A480012B9002003B0F0BD09230DF10602FFF79B
:109A5800CDFFBDF806700546002FF2D00028F0D0E3
:109A6800204601F014FDA8420246EAD1F119204629
:109A780001F050FCB0FA80F04009E3E70AB1FDF7C5
:109A8800F7BEFDF7FEBE73B50191019C06466CB1A9
:109A980000252C46294601A8FDF7FDFE18B106EB66
:109AA800440301349D800135142DF3D130463460D0
:109AB80002B070BD2DE9F04703888488103B8CB054
:109AC80005460A2B21D8DFE803F006402020202095
:109AD800202020654700DFF8E880D8F80830DB430D
:109AE8000093D8F804106846FDF701FF009901A813
:109AF800FFF7C9FF0DF108090027019B9F4207D313
:109B0800132C12D90420FDF77FFA0CB0BDE8F087BA
:109B180039F802AB00260136514608EB8600FDF7FE
:109B2800B0FE1E2EF7D10137E7E71F482146FDF7A3
:109B38009FFE1E482146FDF79BFEEB7B022BE4D1DE
:109B48001B482146FDF794FEDFE7174821460CB075
:109B5800BDE8F047FDF795BE027A16483F2A4FEA5E
:109B68001215214694BF00220122FFF787FF022D1C
:109B780094BF0022012210482146FFF77FFF012DE4
:109B88000E4894BF0022012221460CB0BDE8F047E0
:109B9800FFF774BF037A002BB7D1427A0548C2F3A6
:109BA800C0022146F1E700BFC42D0020C02D0020CF
:109BB800C82D0020D42D0020D02D0020CC2D002031
:109BC800BC2D002030B50B4B19680B4B002291427D
:109BD80001D1002009E09D788478A54206D11D882E
:109BE8000488A54202D1054B186830BD0132043300
:109BF800EDE700BF402E0020442E0020382E002024
:109C08002DE9F84F90F8C6A24FF0760B04460AFBF0
:109C18000B0088469146FFF7D5FF074668B3D4F88E
:109C2800CC52052D29D804EBC5165A46A6F8D2926F
:109C38000BFB0A4106F5357001F0A6FBB8F1000FE1
:109C4800C6F84C730E4F14BF0023022386F8D03297
:109C58003B6801359D42C4F8CC520ED104F53475E9
:109C68000026EB6F284698473B6801369E4205F16F
:109C78008005F6D30023C4F8CC32BDE8F88F00BFC6
:109C8800402E002030B5A1B004460D467C220021AC
:109C980001A801F0A2FB03238DF80430044BADF8B2
:109CA80006501B6802940BB101A8984721B030BD3B
:109CB800382E00202DE9F041074691F8C602762398
:109CC8004FF00008A0B081F8C88200FB03100C46D2
:109CD8001546FFF777FF064660B17C22414601A88A
:109CE80001F07BFB01238DF80430ADF80650029794
:109CF80001A8B0472946204620B0BDE8F041FFF74B
:109D0800C1BF000030B504468BB00D4620220021AB
:109D180002A801F062FB94F8C53294F8C61213B396
:109D2800013BDAB276234B43122000FB0233234473
:109D38005B8A01339BB2ADF80430762303FB014103
:109D48002A460B89ADF8063003238DF80830019BAD
:109D5800CDE90543064B0493064B02A9186800F0A9
:109D6800EDFC0BB030BD762303FB0143DB88E2E753
:109D7800BD9C02005C2E0020F0B5044689B020226C
:109D88000D466846002101F028FB94F8C7321E4AA8
:109D980001331268DBB2934284F8C7324FF00002F5
:109DA8002AD294F8C632194F84F8C5220133DBB29F
:109DB800762113FB01F057F8237084F8C632261871
:109DC80027504B433271E358CDF81230104B0293B1
:109DD8000222104B8DF800200122ADF810201868DF
:109DE80003942A46694600F0A9FC18B12A46214680
:109DF800FFF760FF09B0F0BD84F8C8222946204665
:109E0800FFF740FFF6E700BF402E0020442E002059
:109E1800BD9C02005C2E00202DE9F047044688B066
:109E28000D46164600212022684601F0D6FA94F81D
:109E3800C6C294F8C51276231CFB03F2A0184FF093
:109E4800120E07791EFB012301F1010C0A33BC45F0
:109E580023441CD004F11C0C00F1220807F1FF393F
:109E68009444CAB2974216D989451B8919D00EFB6A
:109E780001FA013338F80A2093422AD10CEB0A037D
:109E880094F8C522013284F8C5220131E9E71B891B
:109E98000289934208D101232B70002008B0BDE845
:109EA800F0870289934218D001339BB2ADF8103085
:109EB8000B4B029300210B4B297004218DF80010E5
:109EC800ADF81220186803943246694600F036FC53
:109ED800E4E7013A9BB292B2E8E70023D0E700BF7B
:109EE800BD9C02005C2E002010B570B1026862B102
:109EF800436853B1064900200860064901240C70E4
:109F080005490A60054A136010BD0E20FCE700BF32
:109F1800402E00203C2E0020382E00205C2E0020F1
:109F280010B5044680B10C4B1B787BB1FFF74AFE95
:109F380070B90A4A1368052B0CD80949246841F8F6
:109F480023400133136010BD0E20FCE70820FAE718
:109F58000020F8E70420F6E73C2E0020402E0020E1
:109F6800442E0020F0B50D468BB0044600283BD0A7
:109F7800204B1B78002B39D01F4B1B68002B35D08A
:109F880090F8C812002933D14FF4BA621B4F0191DF
:109F980001F023FA0199202202A801F01EFA38687C
:109FA800294600F06BFCE8B9154BC4F8CC0284F8DC
:109FB800C502A4F8C6021868206002238DF808308C
:109FC8000126104BCDF81A00A4F8CA523868ADF82B
:109FD80018602A4602A90594049300F0AFFB08B95B
:109FE80084F8C8620BB0F0BD0E20FBE70820F9E743
:109FF8001120F7E73C2E0020402E00205C2E002088
:10A00800442E0020BD9C02002DE9FF410C46054668
:10A0180060B159B1974B1B7843B10388322B67D095
:10A0280007D8112B00F01881302B1FD004B0BDE8E1
:10A03800F081332BFAD18288B1F8CA329342F5D134
:10A04800C08891F8C6C291F8C562002800F0C080A7
:10A05800762101FB0C41002309798DF80F30731C20
:10A068008B4200F0E68084F8C532A5E08388B1F819
:10A07800CA229A42DAD1C3887BBB91F8C6327622CB
:10A0880002FB03130269C3F8062091F8C432827AEE
:10A098001344062B0EDC81F8C432A9882046FFF74A
:10A0A80031FE0028C2D0AA88214604B0BDE8F0419C
:10A0B800FFF700BE062381F8C4326F486F4B704922
:10A0C800C01AC008000440F002000190FCF7ACFC84
:10A0D8006C490198FCF7A8FCDFE720460021FFF750
:10A0E8008FFDA988204604B0BDE8F041FFF744BEC3
:10A0F8008288B1F8CA329A4298D1C388002B57D1C6
:10A1080091F8C672762317FB03F701EB0708837AE9
:10A1180098F804603344062B25DC88F804301222B2
:10A1280012FB0672334605F10C012244002098F810
:10A138000460B34201F10A0102F1120227D312228C
:10A14800013B02FB034394F8C62276213B4401FB02
:10A158000242598A138999422AD2062E28D0A98800
:10A1680084F8C5629AE7062388F804304248434BCE
:10A17800CA5B4549C01AC008000440F002000190BB
:10A18800FCF756FC41490198FCF74EFCC7E751F82B
:10A198000A6C42F8086C51F8066C42F8046C31F805
:10A1A800026C168050809080D08010810133BEE709
:10A1B800002384F8C532AA880DF10F012046FFF765
:10A1C8002BFE002842D0AA882146FFF773FD2DE711
:10A1D800762303FB0CF3122707FB0633B5F80AE0D6
:10A1E800294623447045BFF433AFCF89A7F52457D8
:10A1F800082F08D8DFE807F014170507070707072F
:10A208001A008F899F829F8A3FB1DF8A2FB11F8BE7
:10A218001FB15F8B002F7FF41BAF01300631E1E7E0
:10A228008F89DF82EFE78F891F83ECE78F895F8350
:10A23800E9E701238DF80F302046AA880121FFF7AE
:10A24800DFFCA9882046FFF797FDEFE69DF80F3061
:10A25800002B3FF4EBAEEFE7B1F8CA3282889A429E
:10A2680001BF002381F8C8324FF6FF73A1F8CA3244
:10A27800DCE600BF3C2E002080B5020040B502009D
:10A2880012BE020031BE020076BE0200BCBE020051
:10A2980090DF7047A5DF7047B5DF70477FB50023B3
:10A2A800ADF80810ADF80A106A4602A90646ADF8DE
:10A2B8000C30ADF80E300093ADF80430FFF7E8FF2E
:10A2C800054600B3114B124CE41AE408FDF76EFF83
:10A2D800240444F0010403460E4932462046FCF7A4
:10A2E800B0FBBDF80020BDF8023052EA030103D0EC
:10A2F80009492046FCF7A5FBBDF804201AB1074917
:10A308002046FCF795FB284604B070BD40B5020016
:10A31800A0B5020022BF02006CBF0200ABBF020062
:10A3280078B14FF0171303601B2303711723C38001
:10A33800038141F61B320023016143818281184663
:10A3480070470E207047000013B5034680880C46FE
:10A35800B8B91A88242A00F09B8014D8112A74D01E
:10A36800232A00F0A680102A3ED0A37A4BB1E188B8
:10A378000020FFF78FFF002840F0A1804FF4807382
:10A38800638102B010BD3A2A67D0552AEDD1DB8827
:10A39800C988A072172B38BF17238B4228BF0B46DA
:10A3A8002381FFF779FF60B1FDF700FF4D4B4E4960
:10A3B80002464E481B1ADB081B0443F00100FCF759
:10A3C80037FBE27A002AD0D12369002BCDD040F6A2
:10A3D8007721ADF802202289ADF80010ADF80420ED
:10A3E800694620469847C0E7DB7B0A790A73012B48
:10A3F80013D0022B14D0E18823898B4205D2002088
:10A40800FFF748FF70B90123E372217B637B8B421E
:10A41800ABD20020FFF742FFA7E70B88E380EAE70B
:10A428004B88FBE7112802D10123A372EDE7FDF762
:10A43800BDFE2C4B2E4902462C481B1ADB081B0478
:10A4480043F00100FCF7F4FADFE71723CB800B8118
:10A4580041F61B3348818B8187E75B89CA88934221
:10A4680028BF1346172B0A6938BF17230B8162B11F
:10A47800C97A51B140F67721ADF80010ADF8020065
:10A48800ADF80430694620469047002363816CE7A5
:10A498001A7A0B694A73002B3FF467AF4DF67A219D
:10A4A8008DF80500ADF80010ADF802008DF8042015
:10A4B80096E7197A237B994228BF1946AAE71128FB
:10A4C8003FF45FAFFDF772FE064B094902460748A5
:10A4D8001B1ADB081B0443F0010002B0BDE8104062
:10A4E800FCF7A6BAA0B5020032C0020040B50200CF
:10A4F80001C002009BDF70479DDF70479EDF7047F9
:10A50800A1DF7047A3DF7047AEDF704730B504881E
:10A5180000239AB2944206D9456835F813508D4203
:10A5280003F10103F5D1104630BD8B6910B50C4617
:10A538001988102913D8023189B2FDF786FC6060AA
:10A5480078B1A16900230222FDF7C0FCA269606806
:10A558001288E1690223FDF7B9FC002010BD09202B
:10A56800FCE70420FAE710B50C46C98A10290AD876
:10A57800FDF76BFC606040B1E28AA1690023FDF73A
:10A58800A5FC002010BD0920FCE70420FAE7000024
:10A59800F0B58BB004460022C068124E0DF10601DA
:10A5A800FDF75CFD142508B10BB0F0BDBDF8063011
:10A5B800A76805FB0377002202A93846FDF74EFD80
:10A5C80030B1E06800220DF10601FDF747FDEAE72A
:10A5D8009DF8083056F82330002BECD00398FDF78F
:10A5E8001EFCE8E7E0C00200F7B505460C4C0D4834
:10A5F8000092241AE40824040B460F4616460A491A
:10A608002A7844F00100FCF726FAAB6833B1E96810
:10A618003A46304603B0BDE8F040184703B0F0BDF5
:10A62800A8B5020040B502006EC00200F0B58FB0B8
:10A638000D46012206A90646FDF710FD044690B90D
:10A648009DF81830052B65D8DFE803F0030F1C24AC
:10A65800292EBDF82A20BDF828102846FFF750FFFC
:10A668000446112C40D10FB0F0BD02A90798BDF8DF
:10A678002E200C910023FDF733FC0AA92846FFF78A
:10A6880041FFEDE7BDF828100DF12A022846FFF733
:10A6980031FFE5E70AA92846FFF72EFFE0E70AA9F8
:10A6A8002846FFF72BFFDBE70DF1060402AB214636
:10A6B80007980D9302220023FDF712FCBDF806202F
:10A6C8000D9907980C940223FDF70AFC0AA928465D
:10A6D800BDF80670FFF718FF04460028C1D1BDF881
:10A6E8000630BB4218BF0C249DF818200F4B53F8B6
:10A6F800223013B10798FDF792FB002206A93046D5
:10A70800FDF7ACFC002CAED02246294606A8FFF780
:10A718006BFFA8E70648074B07491B1ADB081B0411
:10A7280043F00200FCF780F9DEE700BFE0C002005A
:10A7380040B50200A8B50200B8C002002DE9F843F0
:10A748000F461446054620B94FF00E084046BDE8AE
:10A75800F8830029F8D0FFF71BFF3B78052B6AD850
:10A7680021462846FFF7D2FE2B88834263D0142661
:10A778004643A8683044FDF76AFC002860D03B785F
:10A78800052B3BD8DFE803F00311171E242A7A8A29
:10A79800398A2046FFF7B4FE112851D058B3024633
:10A7A80021463846FFF720FF25E007F11001204633
:10A7B800FFF7A8FEF0E7398A07F112022046FFF7F3
:10A7C80099FEE9E707F110012046FFF795FEE3E758
:10A7D80007F110012046FFF791FEDDE7BB6907F19D
:10A7E80010012046B3F80080FFF78EFE30BBBB692E
:10A7F8001B8843450DD14FF00008A7E71B4B1C48A9
:10A808001C49C01AC008000440F00200FCF70CF90B
:10A81800F1E70C20C3E72869002895D03946984706
:10A828008046A0B192E73B7859F82330BBB17868ED
:10A83800FDF7F5FA13E04FF0070887E71128AED1C6
:10A84800DFF834903B7859F82330002BE3D1A8681F
:10A8580039463044FDF7A6FB80460028E3D1A868B6
:10A8680021463044FFF7E2FE70E700BF40B5020022
:10A87800A8B50200B8C00200E0C00200F8B50D4655
:10A88800044678B3FFF784FE29462046FFF73EFECC
:10A898002288824211D00020F8BD616831F8131077
:10A8A800814203F101030BD0208800234FF6FF7685
:10A8B8009AB282420BD30420EEE700234FF6FF70D2
:10A8C80099B28A42E9D82069FDF7A7FAECE76168EE
:10A8D8005A0001EB43078A5AB24203F10103E7D158
:10A8E8003D80D8E70E20D7E737B50C4608B301B34B
:10A8F8000588112D15D181882046FFF707FE23888A
:10A90800ADF80600834214D0112D14D163684FF6B8
:10A91800FF7223F810200DF10601E068FDF742FBF5
:10A9280007E0A5F130031F2BE5D9A5F150031F2B34
:10A93800E1D903B030BDA368142202FB0030FFF751
:10A9480075FEF6E78ADF70478BDF70478CDF70474C
:10A9580030B590F8233089B004460D46D3B190F84D
:10A968002C300193FFF7F0FF1422002103A800F018
:10A9780034FD019B04F1240204F12E01A81CFFF709
:10A98800E5FF05238DF80C30049018B1E36B0BB18B
:10A9980003A8984709B030BD70B515460446E8B11C
:10A9A800E2B1E9B9104600F072FD0138C0B21F28C3
:10A9B80018D894F82060BEB92946204600F040FD1A
:10A9C80058B1012384F82030284600F060FD29465C
:10A9D8000246204600F0D8FC304670BD0E20FCE749
:10A9E8000720FAE70C20F8E70420F6E768B1CB0661
:10A9F8000DD011F0010116BF012380F8211080F855
:10AA0800213080F82220002070470E207047072050
:10AA1800704790F82E00C0F3C000704738B50D4657
:10AA28000446002843D0C2630021232200F0D5FC4D
:10AA380065B32B7984F823302B7B84F82C302B6872
:10AA4800D3B104F12E0203F10C0153F8040B42F8C0
:10AA5800040B8B42F9D11B881380AA680AB31068CB
:10AA6800516804F1240303C304F1400323661F2340
:10AA7800A4F86430002038BDE28DA38602F0E3021A
:10AA880042F48272E2850B4A2263E6E7E38DA586EB
:10AA980003F0E30343F48273E385064B236384F8EE
:10AAA8002350054A4FF0C873C4E90923DCE70E2098
:10AAB800E1E700BFA00050000600180010B50446EA
:10AAC80086B048B31422002101A800F086FCFFF7E5
:10AAD8003BFF2046FFF79DFF30B1E36B23B1012216
:10AAE8008DF8042001A8984704F1600104F12E00B4
:10AAF800FFF728FF044630F008000BD00748084B42
:10AB080008491B1ADB081B0443F001002246FBF727
:10AB18008FFF204606B010BD0E20FBE740B50200AF
:10AB280090B50200F8C002002DE9F04F054687B045
:10AB380035F8082B1B2A06460C4677D01D2A13D059
:10AB4800102A2ED1002101A800F047FC06238DF819
:10AB58000430B388ADF80C3004F12E030593E36B91
:10AB68000295F3B101A875E01022002101A800F0B8
:10AB780034FC04F12E0320460593FFF74AFF04F145
:10AB8800600888B102238DF8043001A8E36B0295B0
:10AB9800984741460020FFF7D5FE29462046FFF793
:10ABA800D7FE07B0BDE8F08F94F8210094F8229002
:10ABB80088B394F820A0B6F824B0274604EB4A1AC4
:10ABC800574518D10020034601220295B9F1000F1C
:10ABD80024D09A4226D100238DF8043029462046F5
:10ABE800FFF7B6FEE36B0BB101A89847414600207A
:10ABF800FFF7A8FED5E73A46306A5946FEF71AFF2E
:10AC080020370028DCD09DF80C3043F001038DF884
:10AC18000C300123D8E703460246D6E710B18DF879
:10AC28000490DBE703238DF80430DBE714220021CE
:10AC380001A800F0D2FB327A012AB2D1E36B002BD3
:10AC4800AFD004212E348DF8041005948DF8082017
:10AC58000DEB01009847A4E762DF7047CB6803B1AA
:10AC6800184770472DE9F0430A7885B00346002A53
:10AC780039D18C8841F22350844234D18C79187CA4
:10AC8800844230D101208DF8040091F808E048880A
:10AC9800BDF80C60BDF80A50BDF80840ADF80600D4
:10ACA8001746104641F2245841F2255986451DD8C9
:10ACB8000FB1ADF80C601AB1ADF80A50ADF8084004
:10ACC80019884FF6FF72914209D05A683AB95A88E2
:10ACD8002AB90298BDF80C20C3F80200DA809A68F5
:10ACE80001A91846904705B0BDE8F083B1F80EC039
:10ACF800C44506D0CC4501D1CE8A01270130123196
:10AD0800D4E7CD8A0C8B0122F8E70000F0B5194A88
:10AD180087B002AD04460B4602F1100C2F461068AE
:10AD280051682E4603C6083262453546F7D1FCB154
:10AD3800F3B11968E1B15A68D2B100209B68A160EB
:10AD48004FF6FF75C4E900506261E36004F1100139
:10AD58003846FFF781FF48B9237C8DF8063001A8F3
:10AD680041F22353ADF80430FFF7DAF807B0F0BD2D
:10AD78000E20FBE72FC102001FB503460846D9B1D4
:10AD8800D3B11A88112A19D0392A15D109889A8875
:10AD98008A4211D15C8981888C420DD1D9890129D7
:10ADA8000AD11B7C8DF8083002218DF804108368C5
:10ADB800ADF8062001A9984704B010BD9A880B8801
:10ADC8009A4202BF4FF6FF720023C1E90023F3E75E
:10ADD80000B58BB000B302884FF6FF739A421DD0BE
:10ADE80000218DF805100E49CDE904104188ADF811
:10ADF8001A104FF40031079101A901230891406905
:10AE08008DF8043002A98DF808308DF81830FFF756
:10AE180095FC0BB05DF804FB0E20FAE70820F8E774
:10AE280065AC020030B58BB004468DF8071008B346
:10AE380005884FF6FF739D421ED02022002102A8EC
:10AE480000F0CBFA0D4A60690123CDE904248DF89E
:10AE58000830E288ADF81E300DF10703ADF81A206E
:10AE680008932A46022302A98DF81830FFF766FCDA
:10AE78000BB030BD0E20FBE70820F9E765AC0200F7
:10AE880048B1018022B11368C0F802309388C380AA
:10AE98004069FFF7F3BC0E20704710DF70470000D1
:10AEA80013B5044609496846FDF726F9019808B91B
:10AEB80002B010BDD0E900212046904718B168467D
:10AEC800FDF724F9F2E71120F2E700BF4CC10200B8
:10AED80013B5044607496846FDF70EF9019B0BB9FF
:10AEE80002B010BD2046D3E9002190476846FDF71F
:10AEF8000DF9F3E764C102000B4991F816335A09BA
:10AF0800EC231341DB0706D5084B9A683AB94FF48E
:10AF180080030B60704742F20200FCF775B81A68AC
:10AF280042F480021A60704700E100E0842A0020A1
:10AF3800F7B5194F3C7864BB184E0125204635708B
:10AF4800FFF7AEFF112821D02046FFF7C1FF144BB1
:10AF58008DF80340186801900DF10300FCF788FA9A
:10AF6800104901A8FFF799FF0446B0FA80F040099C
:10AF780038709DF80300FCF79FFA3CB90A4B34700F
:10AF88001C70FFF7B9FF2846FFF7A2FF204603B061
:10AF9800F0BD0824FAE700BF612E0020602E0020D3
:10AFA80047C102002D700200622E0020014B187864
:10AFB800704700BF612E002007B508496846FDF7B5
:10AFC8009BF8019B13B903B05DF804FBD3E900209B
:10AFD80090476846FDF79AF8F3E700BF58C10200AA
:10AFE800FFF7EABF60DF704769DF704761DF7047CE
:10AFF80030B5134B1B7891B0FBB1124D34240DF1D1
:10B00800020103A8ADF80240FFF7F0FF70B9294626
:10B0180001A8FDF771F8029B002BF0D003A8D3E933
:10B028000021904701A8FDF771F8F4E7052804D03E
:10B0380011B0BDE83040FBF7E7BF11B030BD00BF2D
:10B04800632E0020A8C3020030B50C4685B0002945
:10B0580000F089800023CDE90133444A039301239A
:10B068000A608DF804008DF8063001A90623202017
:10B07800ADF80830FFF7B8FF60B1FDF797F83C4B23
:10B088003C4902463C481B1ADB081B0443F00100FC
:10B09800FBF7CEFC0023CDE901330393226840F28D
:10B0A800011301A94020ADF80630FFF79DFF60B1FC
:10B0B800FDF77CF82E4B314902462F481B1ADB0856
:10B0C8001B0443F00100FBF7B3FC0023CDE9013377
:10B0D800039322680A2301A901208DF80430FFF7A1
:10B0E80083FF60B1FDF762F8214B254902462248EB
:10B0F8001B1ADB081B0443F00100FBF799FC002333
:10B10800CDE902332268F82301A9A1200193FFF7B2
:10B118006BFF60B1FDF74AF8154B1A49024616480D
:10B128001B1ADB081B0443F00100FBF781FC002518
:10B138002268039501A9A020CDE90155FFF754FF26
:10B14800034668B1FDF732F8094B0F4902460A4831
:10B158001B1ADB081B0443F00100FBF769FC2B46B4
:10B16800184605B030BD0E23FAE700BFB81D002011
:10B17800B8B5020070C1020040B50200B6C10200B5
:10B1880002C202004EC202009FC2020073B5054609
:10B198000668FFF727FF2B68B34204461DD91A48F3
:10B1A8001A4B1B491B1ADB081B0443F002000190D1
:10B1B800FBF73AFC2B68174901983246FBF741FC2C
:10B1C8004FF080532A68D3F80C31134901989B0239
:10B1D80003F100539A1AFBF72BFC2CB90F4B0122F1
:10B1E8001A70204602B070BD2046FCF7DFFF074BFF
:10B1F8000B49024604481B1ADB081B0443F00100F4
:10B20800FBF716FCEDE700BF40B50200B8B5020039
:10B21800F2C2020021C3020052C30200632E0020C2
:10B228007CC302004BDF70471FB50E4C01A8FFF727
:10B23800F9FF70B9214602A8FCF75EFF039B002BBB
:10B24800F4D00198D3E90021904702A8FCF75EFFEB
:10B25800F4E7052804D004B0BDE81040FBF7D4BEDD
:10B2680004B010BDC0C302007F2805D8034A044BB0
:10B27800105C5B5C1840704700207047D8C3020020
:10B2880058C40200A0F16103192B98BF20387047F9
:10B29800A0F14103192B98BF203070477F299ABF2E
:10B2A800017001206FF02E00704700BF5AB10A7874
:10B2B8007F2A0AD800B102600021501AC3E90011A0
:10B2C80018BF01207047104670476FF02E00704776
:10B2D800A0F16103192B98BF20387047A0F14103F2
:10B2E800192B98BF203070477F2805D8034A044B94
:10B2F800105C5B5C1840704700207047D8C30200A0
:10B3080058C40200024B5B689B6809211B681847F8
:10B31800F42300206AB30F2A70B511D8013A2FD050
:10B32800034600EB020C01E09C4524D08E461C46E7
:10B3380011F8012B13F8010B9042F5D0801A70BD5B
:10B3480040EA010C1CF0030F04460B4606D0013AF4
:10B35800E6E7043A042A20461946DFD9194620466A
:10B368000E680568B54203F1040304F10404F0D043
:10B37800D4E71046704760789EF80120801A70BDA7
:10B3880000780A78DAE700BF844640EA010313F040
:10B39800030F18D18446202A0BD32DE9F007B1E812
:10B3A800F807A0E8F807A2F12002202AF7D2BDE8A2
:10B3B800F007042A07D351F8043B40F8043BA2F1F4
:10B3C8000402042AF7D2002A05D011F8013B00F83C
:10B3D800013B013AF9D1604670478446002A2DD0D6
:10B3E80010F0030F04D000F8011B013A26D0F7E74C
:10B3F800C9B241EA012141EA0141202A12D3A2F14E
:10B4080020022DE9F0030B460C460D460E460F466A
:10B4180088468946A0E8FA03203AFBD2BDE8F00343
:10B4280020320BD0042A05D340F8041B043A05D077
:10B43800042AF9D200F8011B013AFBD16046704793
:10B4480010F0030F19D111F0030F16D12DE9700078
:10B458004FF001364FF0803350F8044B51F8045B3D
:10B46800AC4205D1A4EB060525EA04051D40F3D03E
:10B47800A0F10400A1F1040170BC10F8012B11F82F
:10B48800013BD21A01D1002BF7D11046704700F1C9
:10B49800010110F0030F11D010F8012B002A23D05E
:10B4A80010F0030F0AD010F8012B002A1CD010F05E
:10B4B800030F03D010F8012B002A15D02DE97000D6
:10B4C8004FF001324FF0803350F8044BA4EB0205E3
:10B4D80025EA04051D4000D1F6E7A0F1040070BC80
:10B4E80010F8012B002AFBD1A0EB010070470000E7
:08B4F800818502000000000044
:10B50000BD9A020000000000199602000000000031
:10B51000F1A802000C1E002011A00200241E002031
:10B5200051A30200402D002031AB0200542D002019
:10B5300081AD0200282D0020699702000000000064
:10B540002ABD02000000000030BD02000000000023
:10B5500037BD0200000000003BBD020000000000FB
:10B5600040BD0200000000008AB602000000030394
:10B5700060B702000000000089B702000000000070
:10B5800016BF02000000030325C1020000000303F0
:10B590001CC102000000030324BD020000000000E3
:10B5A00061C0020000000303D3C0020000000303D7
:10B5B0003FC102000000030399C30200000003031F
:10B5C000B4C3020000000303F6B70200000000004D
:08B5D0000CB8020000000000AD
:10B5D8004C240020142500201C2500205424002081
:10B5E800180000009C2B0020642C00206C2C0020EC
:08B5F800A42B00201800000044
:10B60000702C00206C2C00200100000002000000C3
:04B610000100000035
:08B614001D8602000000000089
:10B61C00F9AF02000000000031B20200000000008F
:10B62C005CB602000000000068B60200CC1D0020D1
:10B63C00FFFFFFFFFFFFFFFFFFFFFFFFFFFFFFFF0E
:10B64C0000000000000000000000D6010601000010
:10B65C00D96402003D650200896402007561727450
:10B66C005F6C6F675F6261636B656E640042616300
:10B67C006B656E647320666C7573686564006170CD
:10B68C00700000003C2900207F000000BC29002035
:10B69C001B5B313B33316D0025734C6F677320643A
:10B6AC00726F70706564202825642925730D0A005B
:10B6BC001B5B306D002573003C25733E2025733ACF
:10B6CC002000202530327800202020007C002563CB
:10B6DC00001B5B313B33306D001B5B313B33326DF8
:10B6EC00001B5B313B33336D001B5B313B33346DE3
:10B6FC00001B5B313B33356D001B5B313B33366DCF
:10B70C00001B5B313B33376D007761726E696E677E
:10B71C0000696E666F00646562756700BCB60200F6
:10B72C00DDB602009CB60200E5B60200EDB60200E2
:10B73C00F5B60200FDB6020005B702000DB7020017
:10B74C000000000076B7020015B702001DB702001A
:10B75C0022B702006170705F627574746F6E0000C6
:10B76C00D81D0020466174616C206572726F720086
:10B77C0053797374656D20726573657400617070B4
:10B78C005F74696D65720000010006000000000026
:10B79C00FC2900209970020052544320696E737486
:10B7AC00616E636520616C726561647920696E6994
:10B7BC007469616C697A65642E005254433A20694D
:10B7CC006E697469616C697A65642E000000000012
:10B7DC00000000000338FDD8704730313233343567
:10B7EC00363738394142434445467077725F6D674E
:10B7FC006D74000040B5020040B50200040000006A
:10B80C00736F72746C697374004E52465F53554378
:10B81C0043455353004E52465F4552524F525F536D
:10B82C0056435F48414E444C45525F4D4953534932
:10B83C004E47004E52465F4552524F525F534F4651
:10B84C00544445564943455F4E4F545F454E414223
:10B85C004C4544004E52465F4552524F525F494E42
:10B86C005445524E414C004E52465F4552524F5237
:10B87C005F4E4F5F4D454D004E52465F4552524F05
:10B88C00525F4E4F545F464F554E44004E52465FEA
:10B89C004552524F525F4E4F545F535550504F527A
:10B8AC00544544004E52465F4552524F525F494EEA
:10B8BC0056414C49445F504152414D004E52465FF7
:10B8CC004552524F525F494E56414C49445F535476
:10B8DC00415445004E52465F4552524F525F494EBD
:10B8EC0056414C49445F4C454E475448004E5246D5
:10B8FC005F4552524F525F494E56414C49445F4648
:10B90C004C414753004E52465F4552524F525F498D
:10B91C004E56414C49445F44415441004E52465F9F
:10B92C004552524F525F444154415F53495A45006E
:10B93C004E52465F4552524F525F54494D454F55FA
:10B94C0054004E52465F4552524F525F4E554C4C2E
:10B95C00004E52465F4552524F525F464F5242493B
:10B96C004444454E004E52465F4552524F525F4939
:10B97C004E56414C49445F41444452004E52465F3E
:10B98C004552524F525F42555359004E52465F45F5
:10B99C0052524F525F434F4E4E5F434F554E5400E1
:10B9AC004E52465F4552524F525F5245534F55527D
:10B9BC00434553004E52465F4552524F525F4D4FD6
:10B9CC0044554C455F4E4F545F494E495449414C88
:10B9DC00495A4544004E52465F4552524F525F4DB4
:10B9EC00555445585F494E49545F4641494C45446E
:10B9FC00004E52465F4552524F525F4D555445587A
:10BA0C005F4C4F434B5F4641494C4544004E5246B8
:10BA1C005F4552524F525F4D555445585F554E4CF1
:10BA2C004F434B5F4641494C4544004E52465F459F
:10BA3C0052524F525F4D555445585F434F4E445FE1
:10BA4C00494E49545F4641494C4544004E52465F6D
:10BA5C004552524F525F4D4F44554C455F414C52ED
:10BA6C00454144595F494E495449414C495A454412
:10BA7C00004E52465F4552524F525F53544F524103
:10BA8C0047455F46554C4C004E52465F4552524F0F
:10BA9C00525F4150495F4E4F545F494D504C454D9C
:10BAAC00454E544544004E52465F4552524F525FEC
:10BABC00464541545552455F4E4F545F454E4142A9
