:020000022000DC
:1070000000000420B5720200DD720200DF7202008F
:10701000E1720200E3720200E5720200000000006B
:10702000000000000000000000000000E772020005
:10703000E972020000000000EB720200ED72020033
:10704000299C0200EF72020095A10200EF7202007B
:10705000EF720200EF720200959C0200EF720200D4
:10706000EF720200EF720200EF720200EF72020094
:10707000EF720200EF720200EF720200EF72020084
:10708000EF72020005890200EF720200EF72020047
:10709000EF720200EF7202000DC30200EF720200F5
:1070A000EF720200EF720200EF720200EF72020054
:1070B000EF720200EF72020000000000000000000A
:1070C000EF720200EF720200EF720200EF72020034
:1070D000EF720200EF720200EF720200EF72020024
:1070E000EF720200EF720200EF7202000000000077
:1070F00000000000EF72020000000000EF720200CA
:10710000000000000000000000000000000000007F
:10711000000000000000000000000000000000006F
:10712000000000000000000000000000000000005F
:10713000000000000000000000000000000000004F
:10714000000000000000000000000000000000003F
:10715000000000000000000000000000000000002F
:10716000000000000000000000000000000000001F
:10717000000000000000000000000000000000000F
:1071800000000000000000000000000000000000FF
:1071900000000000000000000000000000000000EF
:1071A00000000000000000000000000000000000DF
:1071B00000000000000000000000000000000000CF
:1071C00000000000000000000000000000000000BF
:1071D00000000000000000000000000000000000AF
:1071E000000000000000000000000000000000009F
:1071F000000000000000000000000000000000008F
:1072000010B5054C237833B9044B13B10448AFF3E0
:1072100000800123237010BDA8230020000000007F
:10722000BCD3020008B5034B1BB103490348AFF3BD
:10723000008008BD00000000AC230020BCD3020089
:10724000154B002B08BF134B9D46A3F5803A002138
:107250008B460F461348144A121A05F01DFA0F4BBD
:10726000002B00D098470E4B002B00D098470020F1
:10727000002104000D000D48002802D00C48AFF397
:10728000008005F0D7F92000290003F033FE05F057
:10729000BDF900BF0000080000000420000000004D
:1072A00000000000A8230020982C0020000000000F
:1072B000000000000649074A074B9B1A03DD043B08
:1072C000C858D050FBDC02F0E7F9FFF7B9FF000027
:1072D000B4D4020000230020A8230020FEE7FEE72C
:1072E000FEE7FEE7FEE7FEE7FEE7FEE7FEE7FEE776
:1072F000F0B595B000241D460E460846174602F02C
:1073000079F8304623460822099505A91A9D089761
:107310000D950A948DF82C400C9402F0CFF89DF84E
:1073200014308DF81140DDE9061003F00302012A44
:10733000CDE9020128D0022A04D0304602F05EF8DE
:1073400015B0F0BDBDF81650C3F3C2038DF8103070
:10735000C5F389150827082D2C4628BF08243B466D
:1073600022460EA9304602F0A9F82D1B214608AB93
:1073700002AA0EA8274400F0C9FD002DEBD130462B
:1073800002F03CF815B0F0BDBDF81470059DC7F3D0
:107390008312C3F3C2040EA93046920008238DF86D
:1073A0001040C7F3831702F089F8C5F3952508ABA1
:1073B0003A4628460EA9009302AB00F02FFD304656
:1073C00002F01CF815B0F0BD014B01221A70704795
:1073D00008240020704700BF00B583B0044B009321
:1073E000044A4023FFF784FF03B05DF804FB00BFAD
:1073F000F9730200C823002038B50E480E4D0378FB
:107400000E4CEB5C00252570D2B253B1043003F072
:1074100043FC58B90A4B1B7813B12378002BFCD0DE
:1074200038BD0C3003F050F90028F3D000F0ECFD2B
:10743000F0E700BF00230020942C00200824002047
:10744000C42300202DE9704319481A4A0378D35CFD
:1074500088B02BB3043003F067FB174D0FCD6C469B
:107460000FC495E80F004FF0EB7684E80F004FF063
:1074700006084FF0FF394FF0FF344FF0FF350C484E
:10748000069600226946CDE90089CDE9024502F061
:107490004DFB48B9094B00221A7008B0BDE8708353
:1074A0000C3003F08BF8D8E700F0AEFDF2E700BF38
:1074B00000230020942C0020D4C60200C423002006
:1074C000F0B5154D0FCD89B06C460FC495E80F008F
:1074D0004FF0EB7C84E80F0006264FF0FF374FF0AB
:1074E000FF344FF0FF350D4A0D48CDF818C06946FE
:1074F000CDE90067CDE9024502F018FB20B9094B40
:1075000001221A7009B0F0BD00F07EFD054B01228A
:107510001A7009B0F0BD00BFD4C60200C9730200E2
:1075200000230020C423002008B5FFF7C9FF04484A
:10753000042100F0F1FB034B01225A7108BD00BF8A
:107540009CD4020014230020064B074810B50022EB
:107550001A7001F003FF044610B9044802F024F841
:10756000204610BDDC24002010D402002CC70200ED
:1075700099B10E4B0E495B1ADB0815D030B40022CE
:107580000C4D02E0013293420BD035F82240844288
:10759000F8D151F8320030BC7047054951F830003D
:1075A0007047002030BC7047184670479CD40200DA
:1075B00024D40200A4230020094B013903EBC000AE
:1075C00003290BD8DFE801F0040208060420704705
:1075D000022070474079704700797047002070475B
:1075E00024D40200704700BF2DE9F0438C4CD4E94D
:1075F00001239A4285B060D00023C4F81834BFF349
:107600004F8FA568EAB2D31C04EB830114F8233032
:10761000580718D566680B7803F00303012B42D096
:10762000022B03D14B88023505EB9315EAB2D4F84F
:107630001804D31C04EB830128B9AE4239D914F8DD
:1076400023305B07E7D404EB82026B1CD268019203
:10765000DBB204EB830302F00302DB680293022A2D
:1076600005F102062DD0012A00F08D80D4F81054C7
:107670003DB12B6828469B689847EB681D68002D34
:10768000F7D16848684B6949C01AC008000440F047
:10769000020000F0D1F8D4E90130C01A18BF01206F
:1076A00005B0BDE8F0830B880235C3F383131D4496
:1076B000BCE7A66005B0BDE8F083002005B0BDE8DA
:1076C000F083BDF806305A48C3F389184546502D5B
:1076D00028BF502565F38F1305F10801ADF806307A
:1076E00001F03EFE07460028C0D001F083FE0023D3
:1076F00001A90822384601F0ADFEF343DBB20133A5
:10770000B5EB830F4FEA8309F1B277D9A5EB0905F1
:10771000033104EB810108234A463846EDB201F0FB
:1077200099FE44492A4609F10803384601F092FEC1
:1077300008F1030806EB9806D4F81834002B6AD138
:10774000D4F8105465B1EB685A7928463946002AB6
:107750005DD02B681B689847EB681D68002DF2D13F
:10776000384601F04BFE00230DF103008DF8033085
:1077700000F034FFD4F8183403B9A6609DF8030074
:1077800000F052FF87E7BDF804302948C3F38312A5
:10779000062A28BF0622911C62F389138900ADF8DE
:1077A000043001F0DDFD074600283FF45FAF01F033
:1077B00021FE0023082201A9384601F04BFEBDF846
:1077C000043013F4707FB7D06FF00108A8EB050800
:1077D0000825F1B203312B46042204EB810138461F
:1077E00001F038FEBDF80420013608EB0603C2F3B1
:1077F00083129A4205F10405EBD89DE703312A462E
:1078000004EB81010823384601F024FE90E71D684F
:10781000002D98D1A4E7384601F0F0FD3BE700BF0A
:10782000DC2400204CD4020024D4020014C702003F
:1078300010D40200E82400202DE9F04F5F4C87B0FF
:10784000002306460DF10B008DF80B300F4600F0BB
:10785000C5FED4E9015303F580735B1B012B7DD872
:1078600004F21C4804F5836A04F214491AE0BDF8D6
:107870000E30C3F389130333090C0BEB930B48460B
:10788000019101F053F90199002839D04046C4F81C
:1078900008B001F01FF9D4E9013202F58072D21A62
:1078A000012A5CD80121404601F014F9504601F04C
:1078B0002DF9484601F02AF9A368DAB2D11C04EB8D
:1078C000810014F8211001F0040C490728D404EBBE
:1078D0008202591CD2680392C9B204EB810102F002
:1078E0000302012AC96803F1020B30D0022ABED07C
:1078F00000214846019101F019F901990028C5D1EC
:107900004046C6E743880EEB9313DAB2D11C04EB72
:10791000810014F8211001F0040CBCF1000FD6D046
:10792000017801F0030101290BD0022903F1020EB5
:1079300002F10301E6D004EB8100BCF1000FEFD1AE
:10794000C5E702880233C2F383121344DDE7BDF8B2
:107950000C30C3F38313090C9B4490E72B46DAB237
:107960000332023305219DF80B0044F822106360B6
:1079700000F05AFE0021124801F082F880F3100056
:10798000F1006B1C01F03801DBB2EDB204EB8303B4
:1079900041F001010004033540EA164641EA872719
:1079A000DE6044F8257023781BB1FFF71DFE002828
:1079B000FBD1FFF717FE07B0BDE8F08FDC240020F5
:1079C000F82800202DE9F04F644C87B000230646CC
:1079D0000DF10B008DF80B300F46904600F0FEFDC8
:1079E000D4E9015303F580735B1B022B7FD804F2AB
:1079F0001C4904F5836B04F2144A1BE0BDF80E2009
:107A0000C2F389120332090C03EB92035046CDE90D
:107A1000003101F08BF8019900283AD0009BA36057
:107A2000484601F057F8D4E9013202F58072D21AC3
:107A3000022A5DD80121484601F04CF8584601F071
:107A400065F8504601F062F8A368DAB2D11C04EB85
:107A5000810014F8211001F0040C490729D404EB2B
:107A60008202591CD2680392C9B204EB810102F070
:107A70000302012AC96803F1020331D0022ABDD0F2
:107A800000215046CDE9003101F050F8019900285D
:107A9000C4D14846C5E743880EEB9313DAB2D11C34
:107AA00004EB810014F8211001F0040CBCF1000F6C
:107AB000D5D0017801F0030101290BD0022903F18F
:107AC000020E02F10301E6D004EB8100BCF1000FCD
:107AD000EFD1C4E702880233C2F383121344DDE717
:107AE000BDF80C20C2F38312090C13448EE72B4619
:107AF000DAB20332033345219DF80B0044F822101B
:107B0000636000F091FDAB1CDBB204EB830300214A
:107B10001348C3F80C8000F0B3FF80F31000F100AD
:107B20006B1C01F03801DBB2EDB204EB830341F0D2
:107B300041010004033540EA164641EA8727DE602A
:107B400044F8257023781BB1FFF74EFD0028FBD1C8
:107B5000FFF748FD07B0BDE8F08F00BFDC24002030
:107B6000F82800202DE9F04F694C89B00025064621
:107B70000DF113001F468DF813508846039200F054
:107B80002DFDD4E9015303F580735B1B032B00F239
:107B9000828004F21C4904F5836B04F2144A1BE052
:107BA000BDF81620C2F389120332090C03EB9203CD
:107BB0005046CDE9013100F0B9FF029900283BD0D1
:107BC000019BA360484600F085FFD4E9013202F52D
:107BD0008072D21A032A5FD80121484600F07AFF4A
:107BE000584600F093FF504600F090FFA368DAB2C9
:107BF000D11C04EB810014F821C01CF0040F0CF020
:107C0000040128D104EB8202591CD2680592C9B242
:107C100004EB810102F00302012AC96803F10203A7
:107C200032D0022ABCD000215046CDE9013100F00B
:107C30007DFF02990028C3D14846C4E743880EEB74
:107C40009313DAB2D11C04EB810014F8211001F077
:107C500004010029D6D090F800C00CF0030CBCF150
:107C6000010F0BD0BCF1020F03F1020E02F1030C65
:107C7000E4D004EB8C000029EDD1C3E70288023385
:107C8000C2F383121344DCE7BDF81420C2F383125D
:107C9000090C13448CE72B46DAB2033204338521F6
:107CA0009DF8130044F82210636000F0BDFCAA1C8C
:107CB000EB1CDBB2D2B204EB830C04EB8202039B1D
:107CC0001448D3600021CCF80C7000F0D9FE80F38A
:107CD0001000F1006B1C01F03801DBB2EDB204EBD7
:107CE000830341F081010004033540EA164641EA6E
:107CF0008821DE6044F8251023781BB1FFF774FC5F
:107D00000028FBD1FFF76EFC09B0BDE8F08F00BF83
:107D1000DC240020F828002030B4154DD5F81014CC
:107D20000446002071B10B4601E01B6853B1DB68CB
:107D30001A798242F9D101300A28F3D14FF0FF308D
:107D400030BC7047E3681871D5F810344BB1DA686D
:107D5000E36812681A60D5F81034DB681C6030BC28
:107D60007047C5F81044E268136030BC704700BF2C
:107D7000DC24002038B5084BD3F8104401251D70D1
:107D80004CB1E3685D71236820465B689847E368FF
:107D90001C68002CF5D138BDDC24002030B5C38828
:107DA00085B004460D461BBB217A05291ED0627A98
:107DB00082B9134AA08852F8212003920021FFF7CC
:107DC000D7FB039A0F490346284605B0BDE830406B
:107DD00000F028BFA088FFF7EFFB0B4B0B4953F8CF
:107DE0002020284600F01EFF217AE2E705B030BDD2
:107DF000074A00920749084A284600F013FFD3E7D4
:107E000004C8020064C70200E0C7020060C70200A5
:107E100058C7020040C7020038C702002DE9F043EE
:107E200085B04FF0000C0C9C814694F80C8084F8CF
:107E30000CC00E461746184621461D46FFF7AEFFFA
:107E4000062F09D8DFE807F0042E343B444F1F000B
:107E50004946204600F0E6FE2B7A052B05D06B7ACA
:107E60005BB92749204600F0DDFE204600F0CEFE3B
:107E700084F80C8005B0BDE8F083224A22492046F0
:107E800000F0D0FEEDE7D6E90413F2680393B3687F
:107E90000291CDE900324946D6E90023204600F0A0
:107EA000C1FED9E732684946204600F0BBFED3E761
:107EB000D6E900234946204600F0B4FECCE7B3687B
:107EC0000093D6E900234946204600F0ABFEC3E705
:107ED000D6E9023201920093D6E9002349462046B2
:107EE00000F0A0FEB8E7D6E90321B3680291CDE91E
:107EF00000324946D6E90023204600F093FEABE766
:107F000070C7020058C7020060C70200082900D9E4
:107F100070472DE9F04F9B4683B000241B7B8BF804
:107F20000C400D4606465946104690460193DFF830
:107F3000D0902C4FFFF732FF05E0325D013400F0A6
:107F400071FE082C09D0A54239465846F5D8494655
:107F5000013400F067FE082CF5D12349DFF8A49026
:107F6000224C234F584600F05DFE4FF0000A0DE012
:107F7000D15D11F0970F08BF2E22214658460AF115
:107F8000010A00F04FFEBAF1080F10D0554505D98F
:107F900016F80A207E2AEBD92E22EEE749465846EB
:107FA0000AF1010A00F03EFEBAF1080FEED198F88E
:107FB0000830052B02D098F8093063B90D495846AE
:107FC00000F030FE584600F021FE019B8BF80C308B
:107FD00003B0BDE8F08F084A0849584600F022FE79
:107FE000ECE700BF74C7020080C7020084C702002C
:107FF000B5D2020070C7020058C7020060C7020075
:108000007CC702006CC7020000B585B003460021A2
:1080100001AA44F20100CDE90111039300F004F834
:1080200005B05DF804FB00BF10B572B6FFF7A2FE05
:10803000FFF7DAFA0028FBD1104B114C1149E41A72
:10804000E408240444F00100FFF7F6FB0E4B1B6824
:10805000DB0700D500BE0D4944F00200FFF7ECFB42
:10806000BFF34F8F0A490B4BCA6802F4E062134317
:10807000CB60BFF34F8F00BFFDE700BF24D40200E9
:108080004CD4020024C80200F0ED00E030C8020029
:1080900000ED00E00400FA05D0E90223D1E9020175
:1080A000994208BF90422CBF01200020704700BFBA
:1080B00010B5044682B000230DF107008DF807309B
:1080C00000F08CFA23692BB94FF0FF324FF0FF33E9
:1080D000C4E902239DF8070000F0A6FAD4E90530B0
:1080E000984700230DF107008DF8073000F076FA6D
:1080F0002369B3B1D4E902014A1C08BFB0F1FF3FC4
:108100000FD0C01841F10001C4E902019DF8070039
:1081100000F08AFA0648214601F06AFA012002B00E
:1081200010BD9DF8070000F07FFA002002B010BDDE
:1081300050C802002DE9F04F87B0064600F0A0FBC2
:1081400040B1AA4AD2E9003113F1807341F1000134
:10815000C2E900310021304600F0AEFBA44C60B310
:10816000236853B3A34B25681B7823B31DB3A248E0
:1081700000F0B2FB9D4BA149D3E90023D1E900896E
:10818000121843F100034B4508BF424503D212F1D8
:10819000807243F10003D5E902018B4208BF82429D
:1081A00080F02081013108BFB0F1FF3F03D0944837
:1081B000294601F01DFA002323600121304600F01A
:1081C0007BFB002840F0F2808E4805A900F0FAFB06
:1081D00078B38C4D4FF0FF384FF0FF390BE0002B98
:1081E00000F0958005A9284600F01CFC05A928464A
:1081F00000F0E8FBE8B10378012B11D0022BEED19F
:108200007F4F384601F008FA30B1C0E9028938469C
:1082100001F002FA0028F8D1764B01221A70E1E74A
:1082200041682368994200F0B680754801F0FEF974
:10823000D8E7DFF8CC81704FDFF8B091404601F00D
:10824000F1F9002859D0D0E90223591C08BFB2F136
:10825000FF3F58D0216891B12168D1E902018B42DA
:1082600008BF82424CD22368D3E90223013308BFFE
:10827000B2F1FF3F03D02168404601F0B9F9404612
:1082800001F0CAF905463846AA68EB6803920293E2
:1082900000F022FBD9E900AB584BD3E900231AEBDD
:1082A000000A4BF1000B9B4508BF9245DDE9023205
:1082B00003D21AF1807A4BF1000BB2EB0A0163EBA7
:1082C0000B0301930091DDE90001012871F1000326
:1082D0002ADBB0F5350F58D24FF49603002138460B
:1082E00000F048FA00284AD00D2821D0002340464B
:1082F000236001F097F90028A5D12368002B6DD0E9
:1083000007B0BDE8F08F404601F086F996E7416876
:10831000D1E90223013308BFB2F1FF3F3FF462AF5E
:10832000374801F065F95DE70021384600F0B8FAFA
:10833000304B1B78002BD9D0384600F0CDFAD9E964
:1083400000232E49D1E900AB121843F100035B452D
:1083500008BF524503D212F1807243F10003D5E900
:1083600002018B4208BF82421CD2013108BFB0F12A
:10837000FF3FBBD02946404601F03AF9B6E72368F3
:1083800063B1256007B0BDE8F08F384600F0A4FA6D
:108390001D4A0244A0E70023236023E7304600F093
:1083A000BBF9EEE72846FFF783FE9FE71248134D1F
:1083B00000F092FA0D4BD3E90089D5E9002318EBC0
:1083C000000849F10009994508BF904503D218F10A
:1083D000807849F10009C5E90089F5E6304600F0EA
:1083E0009FF98DE72846FFF763FEE4E69829002011
:1083F000182A0020A02900201C230020102A002079
:1084000050C80200FC290020FFFFB40010B5134B38
:1084100013491B68134882B058220193082300F0C7
:108420007BFA044610B1204602B010BD0E4A0F4838
:1084300001A900F011F904460028F4D10B480121EC
:1084400000F014FA01231946094A084800F06CF9B3
:10845000084B012220461A7002B010BD4CC8020021
:10846000A4290020FC290020358102001C230020C3
:10847000FFFF7F00A02900208AB130B4A1F10101E3
:108480000368B1FA81F14FF0FF344FF0FF3549092D
:10849000C3E90412C3E90245002030BC704707203D
:1084A000704700BF2DE9F04383B00546002401A8C2
:1084B00017460E468DF8044000F090F8D5E90223E7
:1084C000013308BFB2F1FF3F07D09DF8040000F070
:1084D000ABF8204603B0BDE8F0831D4800F0FCF97E
:1084E0001C4B1D49D3E90023D1E90089121843F13F
:1084F00000034B4508BF424525D3921943F10003C1
:10850000C5E902239DF8040000F08EF82B69AF61E5
:1085100003B12E61114801A900F016FA78B10024C8
:108520004560047001A90D4800F03CFA0028D1D044
:10853000074800F0D5F9204603B0BDE8F0830420D9
:1085400003B0BDE8F08312F180726341D5E700BF4C
:108550001C23002098290020102A0020FC2900203C
:1085600030B583B00446002501A88DF8045000F012
:1085700035F8D4E90223013308BFB2F1FF3F1BD025
:108580004FF0FF324FF0FF339DF80400C4E902239F
:1085900000F04AF80F4801A900F0D6F948B10123CC
:1085A0004460037001A90B4800F0FCF958B903B00E
:1085B00030BD042003B030BD9DF8040000F034F855
:1085C000284603B030BD044800F08AF9284603B0BD
:1085D00030BD00BFFC2900201C23002070B4EFF345
:1085E000108472B60D4B9A68AAB90D490D4E01253B
:1085F0009D60D1F8805035401D60C1F88060D1F891
:1086000084505D604FF0FF33C1F88430027004B9CC
:1086100062B670BC704701230370F8E7882C002015
:1086200000E100E0FC06FFBD094B9A687AB170B921
:1086300010B4EFF3108172B6064A1C6814605C68CF
:108640005460986001B962B65DF8044B704770479A
:10865000882C002000E100E070B5274C4379274EBC
:1086600004EBC30546F823202D79002D37D103688C
:108670000A88C3F8082590F904308A78002B26DB95
:1086800003F1604303F561435201D2B283F8002342
:1086900090F90430002B07DB194903F01F05012274
:1086A0005B09AA4041F823204279164B164D44F845
:1086B0003200581B04EBC204C00801230004134914
:1086C000237140F00300FFF7B7F8002070BD104998
:1086D00003F00F0352011944D2B20A76D8E70A4BCD
:1086E00008480C49C01AC008000440F00200FFF717
:1086F000A3F8082070BD00BF1C2A0020242A0020F7
:1087000000E100E05CD4020024D4020080C8020032
:10871000FCEC00E05CC80200036801221A607047AC
:10872000036801225A607047F0B404684FF4803542
:108730008D40C4F80853066801F15004C6F8485348
:10874000A4000668A4B20027375182B036590468E5
:10875000019601F5A87122F07F42019E44F8212084
:108760000268C2F8445313B10368C3F8045302B05B
:10877000F0BC70472DE9F04704464FF4803600689E
:108780008E40C0F848632068C0F80863206800EB9A
:1087900081058A46D0F80415D5F84005C5F840157E
:1087A0000AF15005AD002768ADB24FF0000847F858
:1087B000058082B0401A7F59009720F07F40012841
:1087C00022F07F479946009A41D02268D2F804559A
:1087D000C2F844637A1B22F07F42012A0AF5A8718D
:1087E00025D0226842F821702068D0F804557A1B01
:1087F000C9F1FF13013A03F57F4322F07F42934210
:1088000011D342B1C0F8446323680020C3F8046365
:1088100002B0BDE8F087013740F821702068D0F839
:1088200004359D42EED00D2002B0BDE8F0872068EF
:108830000D4B013740F8217043F001034FF4806085
:1088400098472068D0F804359D42DBD0EBE7064A14
:108850004FF4806042F001029047226842F80580A0
:1088600052590192019AB0E7A0C80200026802239F
:10887000C2F8443311B10268C2F80433704700BF34
:108880000368D3F8040100B97047002282B0C3F82E
:108890000421D3F804310193019B012002B07047F9
:1088A00002684FF4803303FA01F1C2F848130368F9
:1088B000C3F80813704700BF50318900036889B2BC
:1088C000585800B9704700225A5082B05B58019343
:1088D000019B012002B070470368D3F8040570477C
:1088E00090F90430002B09DB5A090548403203F0A7
:1088F0001F03012101FA03F340F82230704700BF43
:1089000000E100E0024A034B10681B68184700BFF3
:108910001C2A0020242A002099B110B4B2FBF3F4E1
:1089200003FB1424A4B244B9C0E90014846082811A
:10893000C38120465DF8044B704709205DF8044B65
:1089400070470E20704700BF30B482B050E8013F3E
:108950009DB2C48925448489A54228BF2D1B048962
:10896000A54202BFBFF32F8F002207E0C5EA03052F
:1089700040E80154002CE9D14FF001028DF80320AA
:108980000193019B9DF803200B602AB10B880068BE
:10899000184402B030BC704702F0FF03184602B022
:1089A00030BC70470A884B889A4201D0002070473B
:1089B00050E8012FC2EA024240E80123002BF7D120
:1089C0000120704730B482B050E8023F1FFAA3F58F
:1089D000C488A54202BFBFF32F8F00220DE0C489D7
:1089E00025448489A54228BF2D1BC3EA054540E8DC
:1089F0000254002CE8D14FF001028DF803200193BE
:108A0000019B9DF803200B602AB14B880068184435
:108A100002B030BC704702F0FF03184602B030BC11
:108A2000704700BF0A884B889A4201D000207047E7
:108A300050E8022FC2EA224240E80223002BF7D17D
:108A4000012070474A09012301F01F0100EB820059
:108A500003FA01F100F022B801F01F0201234909D5
:108A6000934000EB8100D94300F026B84B0901F098
:108A70001F0150F82300C84000F00100704700BFFC
:108A800010B4034653E8000F0A4643E8002494F06C
:108A9000000FF7D15DF8044B704700BF10B40346D8
:108AA00053E8002F42EA010043E8000494F0000F6D
:108AB000F6D15DF8044B704710B4034653E8002F1D
:108AC00002EA010043E8000494F0000FF6D15DF8DB
:108AD000044B704710B4034653E8002F02EB01002B
:108AE00043E8000494F0000FF6D15DF8044B7047A2
:108AF00010B4034653E8002FA2EB010043E8000442
:108B000094F0000FF6D15DF8044B704710B40346A3
:108B1000012253E8001F41EA020043E8000494F0F8
:108B2000000FF6D15DF8044B704700BF10B4034648
:108B3000002253E8000F00EA020143E8001494F019
:108B4000000FF6D15DF8044B704700BFB8B130B4E8
:108B5000D0E90112521A0468D2B2531E2160DBB26E
:108B600042B101680A685C1E551C0D601370E3B2C7
:108B7000FF2BF6D103680020187130BC70470E201F
:108B8000704700BFF0B583B0044600250DF1070023
:108B90008DF80750FFF722FDD4E900311A688A42A8
:108BA00010D9511E19602168A3680F6812F8015C82
:108BB0000A79268AE068DB1BDBB29A4206FB0505D0
:108BC00038BF0B719DF80700FFF72EFD284603B054
:108BD000F0BD00BF30B5054683B000230DF107009E
:108BE0000C468DF80730FFF7F9FC2A681368591C0A
:108BF0001160E9682A8A641AB4FBF2F41C709DF8CB
:108C00000700FFF711FD03B030BD00BF826842B11D
:108C100010B5044643690168006998470023A360C2
:108C200010BD70470EB400B582B0039921B104ABFA
:108C300001AA019300F0ACF802B05DF804EB03B0B8
:108C4000704700BF2DE9F04F164683B0B142DDE911
:108C50000C920F4605469A46C0F095800B464FF0A1
:108C60000108B3FBF6F39E4208F10108F9D9D0459B
:108C700038BFD04612F00103019302D1B9F1000FC1
:108C80005ED1AA68012403E00AF1FF3A06FB04F46E
:108C9000BAF1010FF8D8B7FBF4F39E42F6D9DFF82A
:108CA000ECA007E0B442B4FBF6F31AD3AA681C4662
:108CB000B7FBF3F31AF803B0BBF10A0F04FB137709
:108CC00028D02B68511CA96003F802B0D5E9013205
:108CD0009A42E7D32846FFF799FFB4FBF6F3B44274
:108CE000E4D2019B9BB1B9F1000F10D02024C845FC
:108CF00009F1FF390BD2AB682A68591CA960D4541A
:108D0000D5E901329A4214D2B9F1000FEFD103B084
:108D1000BDE8F08F511C2B68A9604FF00D019954EC
:108D2000D5E901329A42CCD32846FFF76FFFAA68F3
:108D3000C7E72846FFF76AFFB9F1000FD7D1E6E78A
:108D400093071AD42024AA68C84502F1010199D2D8
:108D50002B68A9609C54D5E901329A4209F1FF3988
:108D600003D2B9F1000FEFD18CE72846FFF74EFF91
:108D7000AA68B9F1000FE7D184E7BAF1000F0CBF80
:108D800030242024DFE74FF0010870E7A8C8020074
:108D9000002900F054822DE9F04FDFF8B8950C78E7
:108DA00085B0064690460D464FF00D0A10E00A2C9D
:108DB000B36800F0AD803268591CB160D454D6E974
:108DC00001329A4280F0A0802C78002C00F087803D
:108DD0000135002C00F08380252CE8D1294600279E
:108DE0000D4611F8012B2D2A00F08880302A00F062
:108DF00088802B2A7AD02A2A00F09980A2F13003A9
:108E0000092B4FF000040BD804EB840402EB44045C
:108E100015F8012FA2F13003092BA4F13004F3D986
:108E20002E2A00F09080002301E015F8012F02F0B7
:108E3000FB016829F9D0252A00F07781583AD1B290
:108E4000202947D8202A45D8DFE812F03501440010
:108E500044004400440044004400440044004400F2
:108E60004400430113014400440044004400130142
:108E7000440044004400440044004400D200440044
:108E80004400A20044009400440044003501012045
:108E90009842024638BF1A460292002C40F0508198
:108EA000B80740F16E81002B40F04E821C46BBF1AA
:108EB000000FC0F20A827A0700F11A8207F003025B
:108EC000022A00F0EA81CDE9004759460A223046DD
:108ED000FFF7B8FE01352C78002C7FF479AF337B97
:108EE000002B40F01C8105B0BDE8F08F0D4611F855
:108EF000012B2D2A47F004077FF478AF47F00107D4
:108F00006EE747F002076BE73046FFF77FFE5BE74F
:108F10003268591CB16002F803A0D6E901239342DC
:108F2000FFF449AF3046FFF771FEB36843E7D8F866
:108F300000301A1DC8F800206A781C682E2A05F136
:108F400001057FF470AF6A78A2F13003092B05F1B7
:108F500001054FF000033FF66AAF03EB830302EB1A
:108F6000430315F8012FA2F130010929A3F13003C1
:108F7000F3D95CE7D8F80020111DC8F8001011687B
:108F80003046CDE900470A22FFF75CFE0135A2E733
:108F9000D8F800301A1DC8F8002017F00107D3F8E0
:108FA00000B040F0F080BBF1000F03D0584603F052
:108FB0007BFB0746BC4240F24381002C00F040811D
:108FC000202205E0BC4200F03B81002C00F03881FB
:108FD000B1683368481CB0605A54D6E901309842F1
:108FE00004F1FF34EED33046FFF710FE2022E9E70C
:108FF000D8F80020131DC8F80030B368316817682E
:10900000581C3022B060CA54D6E90123934280F044
:10901000EF803268581C7821B060D154D6E9013213
:109020009A4280F0E0800F2F03D93B461B090F2B9B
:10903000FCD84FF0805406E00F2C4FEA14137FF653
:1090400049AFB2681C46B7FBF4F319F803B0BBF1A3
:109050000A0F04FB137754D03368511CB16003F836
:1090600002B0D6E901329A42E6D33046FFF7CEFD90
:10907000E2E7D8F80020111DC8F80010D2F800B0BF
:109080008BEAEB72A2EBEB72092A7FF700AFDFF8F5
:10909000C8C2012011466329ACFB02E200F10100C5
:1090A0004FEAD202F6DC9842024638BF1A460292D4
:1090B000002C45D1F4E6D8F80020111DC8F80010A6
:1090C00011683046CDE900471022FFF7BBFD01359E
:1090D00001E7D8F800301A1DC8F800201C78B368E2
:1090E0000A2C00F011813268591CB160D454D6E9C1
:1090F00001329A42FFF4EEAE3046FFF787FD0135AC
:10910000E9E63368511CB16003F802A0D6E90132E8
:109110009A42A1D33046FFF779FDB2689CE730460A
:1091200005B0BDE8F04FFFF771BDB3683168581C5A
:10913000B060CA54D6E901329A42DDD20135CAE69E
:10914000BBF1000F59DB7A0757D4B80702D5002BC3
:109150003FF4ADAEF9073FF5AAAE94B120220299D3
:10916000A142BFF4A4AEB168481CB060306842545C
:10917000D6E90101814204F1FF3480F0D480002C53
:10918000EDD1002493E69BF80030002B00F0E08046
:10919000B0685F46CBF101020A2B02EB070B3CD013
:1091A000411CB16031680B54D6E90130984226D297
:1091B00017F8013F002BEFD15C457FF68BAE2027DF
:1091C00002E05C453FF486AEB2683368511CB16082
:1091D0009F54D6E901329A4204F1FF34F1D330466C
:1091E000FFF714FDEDE73046FFF710FDB2681AE710
:1091F0003046FFF70BFDB3680BE7013CA5E73046AF
:109200000292FFF703FD17F8013F002BD4D0029A1A
:10921000B0680A2B02EB070BC2D1411CB160316868
:1092200001F800A0D6E901108842B9D33046CDE953
:109230000232FFF7EBFCDDE90232B068B0E77047BD
:109240009BF80040002C3FF445AE0A2CB0680ED0CD
:109250003368421CB2601C54D6E90130984214D2E3
:109260001BF8014F002C3FF435AE0A2CF0D13368C7
:10927000421CB26003F800A0D6E901309842E7D35F
:109280003046FFF7C3FCB068E2E73046FFF7BEFCAC
:109290001BF8014F002CD8D11CE6002B7FF413AE35
:1092A0008CB130220299A142BFF40DAEB168481CC6
:1092B000B06030684254D6E90101814204F1FF34C4
:1092C0003BD2002CEED10024FDE5B1684A1CB2600F
:1092D00032682D205054D6E901219142CBF1000B88
:1092E000FFF4ECAD30460393FFF790FC039BE5E5FC
:1092F000B1684A1CB26032682B205054D6E9012173
:109300009142FFF4DBADEDE73268591CB16002F821
:1093100003A0D6E901239342FFF4E5AE3046FFF700
:1093200075FCB368DFE630460393FFF76FFC039BE1
:109330002022002C7FF413AF23E730460393FFF77E
:1093400065FC039B3022BCE7F9073FF5B0AD18E799
:109350009B4631E7A8C80200CDCCCCCCFFF7F6BBCA
:109360002DE9F041058A0331043D4E198046B6FBD4
:10937000F5F6FFF707FCA0B3F6B24FF48073013E99
:109380000446C580C0F8008083802BD003460025AA
:1093900008E06279AE4202F1010262713860C0F801
:1093A00000801FD040461F46FFF7ECFB0135034607
:1093B0000028EED16779791E17D0224601339942F1
:1093C0001268FBD1D2F800805FB12668002501E069
:1093D00034463668214601354046FFF7FBFBAF4275
:1093E000F6D800242046BDE8F08120682146FFF72A
:1093F000F1FBF6E704300121FFF76CBB2DE9F041EA
:10940000012104460430FFF773FB10F0FF0301D085
:10941000BDE8F0816779791E16D022460133994262
:109420001268FBD1D2F80080002FF1D02668002509
:1094300001E034463668214601354046FFF7CAFB55
:10944000AF42F6D8BDE8F08120682146BDE8F04182
:10945000FFF7C0BB2DE9F8430546C688407914469E
:1094600006FB00F2043A04EB030C1F1D624538BFF3
:10947000D41ABE428846B7FBF6F106FB117002D83B
:1094800001392D68FCD1371AA74228BF27469CB165
:109490004FF000090430E41B28443A4608EB090168
:1094A00003F0ECF8A642B9442D6837464FF00000AF
:1094B00028BF2746002CEDD1BDE8F8832DE9F843FD
:1094C0000546C6884079144606FB00F2043A04EBD0
:1094D000030C1F1D624538BFD41ABE428846B7FB35
:1094E000F6F106FB117002D801392D68FCD1371A4C
:1094F000A74228BF27469CB14FF000090430291825
:10950000E41B3A4608EB090003F0B8F8A642B94458
:109510002D6837464FF0000028BF2746002CEDD1BC
:10952000BDE8F88341DF7047064A074B10B50024B9
:1095300014701C60BFF35F8F0449054800F042F8C7
:10954000204610BD302A0020342A0020C4C8020062
:10955000282A002000B583B000230DF107008DF804
:109560000730FFF73BF8F1EE103A23F09F03E1EEEE
:10957000103ABFF35F8F0B4B4022C3F884219DF854
:109580000700FFF751F802F0BBFE28B920BF40BF2B
:1095900020BF03B05DF804FBFFF7C4FF03B05DF824
:1095A00004FB00BF00E100E0826800239360826852
:1095B0001361826853618268D360826853608268F5
:1095C0001360704701600B6843604A68934204BFB0
:1095D00000234360704700BF436843B1026891684D
:1095E0000B4443605268934204BF002343607047BA
:1095F00070B54468064620680D4618B908E024682E
:10960000206828B1B368294698470028F7D1206818
:109610002860256070BD00BF4368186808B1026803
:109620001A60704743681868704700BF436818683D
:1096300018B908E00346006828B18142FAD10A68E7
:109640001A60012070477047114910B4A1F5947257
:1096500005E052F83330984238BF21460CD28C1ABC
:10966000E30F03EBE4035B10914202EBC304F0D879
:1096700008485DF8044B704702D904F10802EEE790
:109680006068044B5DF8044B002808BF184670471B
:1096900004CE0200C8CC020010B4814B1B68082B1A
:1096A00021D0804AD2F8883043F47003C2F8883061
:1096B000BFF34F8FBFF36F8F794B1B68082B00F000
:1096C000AA804FF01023D3F80022002AC0F2B680FF
:1096D000D3F80432002BC0F2B180734B734A1A6086
:1096E0005DF8044B70474FF080414FF080520020EE
:1096F000C1F80C016E4BC1F81001C1F83805D2F861
:109700000414C3F82015D2F80814C3F82415D2F8AD
:109710000C14C3F82815D2F81014C3F82C15D2F87D
:109720001414C3F83015D2F81814C3F83415D2F84D
:109730001C14C3F84015D2F82014C3F84415D2F80D
:109740002414C3F84815D2F82814C3F84C15D2F8DD
:109750002C14C3F85015D2F83014C3F85415D2F8AD
:109760003414C3F86015D2F83814C3F86415D2F86D
:109770003C04C3F868054F49D2F84004C3F86C05AF
:109780000968D2F84424C3F87025052937D84A4B14
:109790005B5C13B1494B4A4A1A604A4B5B5C63B14C
:1097A0003F4B49491B68434AFB20C1F81805082B69
:1097B00011687FF476AF052921D8444B5B5C93B1E7
:1097C0004348444B364C02681B682468394922F0F0
:1097D0000F0203F00F031343082C096803607FF4A2
:1097E00060AF05290BD83C4B5B5C43B12C4B3B4A2B
:1097F0001B684FF40071082B11607FF452AF4FF0DB
:109800008043D3F80024D2077FF54BAF6FF00102FD
:10981000C3F8002445E7274B1B68052B08D94FF0F8
:1098200010224FF08043D2F80822C3F8582548E7A9
:109830002B4AD35C002B3FF444AFF0E7294A0123C5
:10984000C2F80435D2F80034002BFBD04FF01023BF
:109850001221244AC3F80012D2F80034002BFBD0A6
:109860004FF0102312211F4AC3F80412D2F800341B
:10987000002BFBD000231B49C2F80435D1F800347B
:10988000002BFBD0BFF34F8F0649174BCA6802F479
:10989000E0621343CB60BFF34F8F00BFFDE700BF13
:1098A0003001001000ED00E0242300200090D003E0
:1098B00000C00040340100100CCE02008C56004065
:1098C000488103000CCE020000F000400CCE0200E4
:1098D000E40E0040580200100CCE020040960240F8
:1098E00004CE020000E001400400FA05064B1A5CB9
:1098F0001F2A86BF054902F01F024FF0A041012335
:109900009340C1F80C35704714CE0200000300509C
:10991000064B1A5C1F2A86BF054902F01F024FF052
:10992000A04101239340C1F80835704714CE0200CE
:1099300000030050C20730B40ED483070AD54FF09D
:10994000A0430C22C3F82C27C3F83027C3F86027A4
:10995000C3F8642730BC70474FF0A0430322C3F81C
:1099600034274FF40055C3F838274FF48044C3F828
:109970003C274FF40041C3F840274FF48032C3F82E
:109980000855C3F80845C3F80815C3F80825D4E7F7
:1099900010B568B90E4CA368012262703BB1D3E9DF
:1099A00000230020A2609847A368002BF7D110BDC8
:1099B0000128FCD1064C2369A070002BF7D0D3E915
:1099C00000230120226198472369002BF7D110BDA5
:1099D000382A002070B910B5074CA36801226270C4
:1099E0003BB1D3E900230020A2609847A368002B75
:1099F000F7D110BD704700BF382A002030B50128CC
:109A000083B004D0032821D0B0B103B030BD294CBD
:109A100000230DF107008DF80730FEF7DFFD2378F6
:109A20006BB3E3689DF8070001330122E360A27085
:109A3000FEF7FAFD03B030BD1F4B0122C3F88020B2
:109A4000BFF34F8FBFF36F8F03B030BD194C00F0E1
:109A5000BDF800230DF107008DF80730FEF7BEFDBD
:109A6000E368013BE360E3681BB9144BD3F800548F
:109A7000C5B19DF80700FEF7D7FD03B030BD104813
:109A80006360A3602361E36000F094F802F038FCA7
:109A900060B10A4A01232370D2F80024002AC0D002
:109AA000A370BEE700F0A4F8A570E2E700F08EF81E
:109AB000EFE700BF382A002000E100E0000001408D
:109AC0009199020030B585B0047845688DF8004062
:109AD000D0E90240064A074B039053F82130019524
:109AE00052F821108DF808406846984705B030BDFF
:109AF0004C2A0020542A002030B585B004784568EF
:109B00008DF80040D0E90240064A074B039053F815
:109B10002130019552F821108DF808406846984789
:109B200005B030BD4C2A0020542A00202DE9F04712
:109B3000DFF8748090F800E04B7F08F80E300D4697
:109B4000074616460FCD88B06C460FC495E80F0047
:109B50003D78DFF85890DFF858C018F8055049F8FC
:109B60002E6084E80F004CF82E00CDF810E05DB1B7
:109B7000002E0B4A694607F1040008BF324600F088
:109B8000BFFE08B0BDE8F087002E064A694607F11F
:109B90000C0008BF324600F019FC08B0BDE8F087A1
:109BA000C59A0200F99A0200942C0020542A002041
:109BB0004C2A0020044A137923B9012110609180B6
:109BC00018467047852070475C2A0020074B1A68AA
:109BD000D20704D4C02283F8002301221A604FF078
:109BE00080430122C3F81825704700BF00E100E060
:109BF00010B40B4B0B494FF0804200200224C2F8F6
:109C0000084383B018601B680193012301980B601F
:109C1000D2F81834DB03FBD403B05DF8044B704773
:109C2000040100400C00004010B5174B1A6882B0C8
:109C300062B10021154A19601B68507900934FF0FA
:109C400080410123009CC1F8083398B1104B1A6879
:109C5000BAB100221A601B6801934FF080420221C2
:109C60000A4B0198C2F808131B68012002B0BDE836
:109C700010401847116853718847054B1A68002A2D
:109C8000E7D102B010BD00BF000100405C2A0020F7
:109C9000040100402DE9F047002384B0CDE90233F0
:109CA000D54A1168012900F040821E46D34B1A683C
:109CB000012A00F02C82D24B1A68012A00F0198286
:109CC000D04B1A68012A00F00682CF4B1A68012A8D
:109CD00000F0F381CD4B1A68012A00F0E081CC4BF3
:109CE0001A68012A00F0CD81CA4B1A68012A00F0D7
:109CF000A181C94B1A68012A20D0E6B1C74F0024C0
:109D00000125A30003F18043354203F5C0434FEA28
:109D100045050BD0D3F8100557F82420D3F81015BB
:109D2000C0F30520C1F3014102B190470134082C72
:109D3000E7D1002E17DB04B0BDE8F08700221A60DF
:109D40001B6801934FF0A042019BD2F82015B44B41
:109D50000291C2F82015D3F820250392C3F82025DC
:109D6000002E40F08B81AD4CAD4E01254FF0A04749
:109D700094F96000431C46D0C0F3C20204AB1A44FD
:109D800000F0070312F8082C05FA03F31A42C1B2D7
:109D900000F03F0037D01F2800F2258102464FF027
:109DA000A04909EB820304EB000ED3F800C7D3F8F7
:109DB000008728F44038C3F80087CCF3014C9EF9A3
:109DC0003080D3F800E754F82880BCF1020F0CBFB4
:109DD0004FF4403A4FF4003A05FA02F24EEA0A0E06
:109DE000C3F800E7C9F82025B8F1000F0BD08909A6
:109DF000032900F0B381BCF1020F00F0BE81BCF179
:109E0000030F00F0A88194F96100411C46D0C0F313
:109E1000C20204AB1A4400F0070312F8082C05FA3A
:109E200003F31A42C1B200F03F0037D01F2800F2FE
:109E3000DE8002464FF0A04909EB820304EB000EDE
:109E4000D3F800C7D3F8008728F44038C3F8008758
:109E5000CCF3014C9EF93080D3F800E754F8288009
:109E6000BCF1020F0CBF4FF4403A4FF4003A05FA30
:109E700002F24EEA0A0EC3F800E7C9F82025B8F14D
:109E8000000F0BD08909032900F06D81BCF1020F8E
:109E900000F06B81BCF1030F00F0628194F9620065
:109EA000421C46D0C0F3C20204AB1A4400F00703C0
:109EB00012F8082C05FA03F31A42C1B200F03F0071
:109EC00037D01F2800F2AE8002464FF0A04909EBC0
:109ED000820304EB000ED3F800C7D3F800879EF985
:109EE00030E028F44038C3F80087CCF3014CD3F8B5
:109EF00000A754F82E80BCF1020F0CBF4FF4403E77
:109F00004FF4003E05FA02F24EEA0A0EC3F800E7EB
:109F1000C9F82025B8F1000F0BD08909032900F0FA
:109F20001381BCF1020F00F02481BCF1030F00F09B
:109F3000088194F96300431C45D0C0F3C20204AB0E
:109F40001A4400F0070312F8082C05FA03F31A422A
:109F5000C1B200F03F0036D01F2867D802464FF04C
:109F6000A04909EB820304EB000ED3F800C7D3F835
:109F700000879EF930E028F44038C3F80087CCF31E
:109F8000014CD3F800A754F82E80BCF1020F0CBF8F
:109F90004FF4403E4FF4003E05FA02F24EEA0A0E3C
:109FA000C3F800E7C9F82025B8F1000F0BD08909E4
:109FB000032900F0CE80BCF1020F00F0E280BCF17A
:109FC000030F00F0C380D7F820250292C7F82025A0
:109FD000D6F820350393C6F8203513437FF4C8AE76
:109FE00004B0BDE8F08701F01F02B146D9E601F0E8
:109FF0001F02B14620E700BF00610040046100403D
:10A00000086100400C610040106100401461004094
:10A01000186100401C6100407C610040682A0020FB
:10A020000003005001F01F02B14650E701F01F028B
:10A03000B14696E7554AD2F8042312067FF559AE89
:10A0400000221A6019680091196E0098012903F125
:10A05000600346F080067FF450AE1A601B680193DF
:10A060004FF0A042019BD2F82015494B0291C2F853
:10A070002015D3F820250392C3F8202546F000468A
:10A080003CE6424AD2F8042351067FF52DAE002269
:10A090001A601B680093009B46F0400624E63B4A8A
:10A0A000D2F8042390067FF51AAE00221A601B68CE
:10A0B0000093009B46F0200611E6344AD2F80423B0
:10A0C000D4067FF507AE00221A601B680093009B40
:10A0D00046F01006FEE52D4AD2F8042315077FF559
:10A0E000F4AD00221A601B680093009B46F008063E
:10A0F000EBE5264AD2F8042357077FF5E1AD0022AD
:10A100001A601B680093009B46F00406D8E51F4ABE
:10A11000D2F8042392077FF5CEAD00221A601B68A7
:10A120000093009B46F00206C5E51849D1F8046388
:10A1300016F001063FF4BAAD136013680093009B5C
:10A14000B4E502297FF4F5AEC047F2E602297FF4B8
:10A150003AAFC04737E702297FF455AEC04752E611
:10A1600002297FF49BAEC04798E601297FF496AEA2
:10A17000F9E701297FF4DDAEE6E701297FF443AE7C
:10A18000ECE701297FF41FAFE3E700BF0060004068
:10A1900000030050014B1B68184700BFD42A002061
:10A1A000114B98421DD130B583B000230DF107004B
:10A1B0008DF807300D46FEF711FA0C4B1C794CB99F
:10A1C0009DF807001D6001221A71FEF72DFA204646
:10A1D00003B030BD9DF80700FEF726FA112003B04A
:10A1E00030BD0020704700BF00200040D42A00206E
:10A1F000034B984203D1034B00221A601A71704737
:10A2000000200040D42A002030B56E4AD2F8043332
:10A2100099058BB068D5D2F82431002B64D0002387
:10A22000C2F82431D2F8243101934FF40171664B06
:10A230000198C2F8081393F8291009B90121516057
:10A24000604902228DF81820D1F88024C1F88024BA
:10A250009869D968099200240025CDE90710C3E95F
:10A260000645D3E9001206A89047564AD2F81C3199
:10A27000C3B1554B5869196A88426AD993F82810B6
:10A2800001F0FF00002964D1C2F81C01D2F81C11B2
:10A29000039103999C68186A196A205C013119625C
:10A2A000C2F81C05474AD2F84431DBB10021464BC5
:10A2B000C2F84411D2F8440193F829100090009894
:10A2C00009B1012111609A6962B1586AD968002206
:10A2D0009A610122CDE907108DF8182006A8D3E96C
:10A2E000001290470BB030BD364AD2F804335B07FA
:10A2F000BBD5D2F80831002BB7D0334B9969002970
:10A300003ED00021C2F80811D2F808110491049936
:10A31000D868596AD2F8182542545A6A99690132A4
:10A320005A625A6A8A42A0D1DA69002A31D0DD68BD
:10A330005C6A18699A6101210022D860DA615A6268
:10A340008DF81810CDE90754D3E9001206A89047FC
:10A350008BE71C4A0021C2F81C11D2F81C21029282
:10A36000029A5A69002A9DD058699A688DF8181087
:10A3700008905961079206A8D3E90012904791E727
:10A38000C2F80811D2F8080105900598D2F81825EE
:10A39000C7E793F8292012B90A4A01215160094AF6
:10A3A0004FF40171C2F80813596ADA680891002461
:10A3B000012007928DF81800D3E900129C6106A8CD
:10A3C000904752E700200040E02A00202DE9F041AC
:10A3D000DFF8E48106792C2303FB068382B093F82F
:10A3E0002A30002B40F09E8005460C4600686D49DF
:10A3F0001746FFF7D5FE002840F090802368591CCF
:10A4000019D01F2B4FF001028ABF67494FF0A041BE
:10A4100003F01F0302FA03F3C1F8083523681F2B6A
:10A4200086BF03F01F03604A4FF0A04203F5E073BC
:10A43000032142F8231063685A1C0BD01F2B86BFE0
:10A4400003F01F03584A4FF0A04203F5E0730021C8
:10A4500042F823102B68A269C3F82425217D637D6F
:10A460002A680B43C2F86C35D4E900122B68C3F894
:10A470001425C3F80C15237D012B5FD02C2303FB7F
:10A4800006F308EB03025760226948F803202A68A4
:10A4900097B30021237FC2F81C11D2F81C2100922F
:10A4A0002A68009FC2F84411D2F844112A68019129
:10A4B0003E4C0199C2F804432A6842F3073100294F
:10A4C0004FEA123232DB01F1604101F561415B017B
:10A4D000DBB281F800332A6842F30733002B4FEADE
:10A4E000123109DB324C01225B0901F01F0102FA33
:10A4F00001F144F823102A682C2303FB068601246B
:10A5000000230421C2F80015C6E9063386F82A4064
:10A5100086F82930736102B0BDE8F081112002B0E5
:10A52000BDE8F081082002B0BDE8F081214902F0C9
:10A530000F025B011144DBB20B76CCE7A368591C18
:10A540000BD01F2B86BF03F01F0317494FF0A0410C
:10A5500003F5E073002241F82320E3685A1C1AD067
:10A560001F2B8ABF10494FF0A04103F01F030122A7
:10A5700002FA03F3C1F80835E3681F2B88BF03F024
:10A580001F0303F5E0738CBF07494FF0A04103227E
:10A5900041F82320E3682A68A168C2F80835C2F8A8
:10A5A00010156BE709A202000003005080000200B2
:10A5B00000E100E0FCEC00E0E02A0020F8B53E4FAE
:10A5C000047902682C2303FB047300215B68C2F842
:10A5D0000015C3B10368394AC3F80823036843F37D
:10A5E0000732002A4FEA13310EDB5209344D203274
:10A5F000012301F01F0103FA01F145F82210BFF316
:10A600004F8FBFF36F8F0368D3F80C65D3F81455E1
:10A61000D3F80825D3F810154FF0FF3CC3F814C544
:10A62000C3F80CC503686645C3F808C5C3F810C570
:10A630000CD01F2E86BF06F01F06224B4FF0A04302
:10A6400006F5E0764FF0020C43F826C06E1C0BD0E6
:10A650001F2D86BF05F01F051A4B4FF0A04305F5CF
:10A66000E075022643F825604D1C0BD01F2986BFDC
:10A6700001F01F01134B4FF0A04301F5E0710225DB
:10A6800043F82150531C0BD01F2A86BF02F01F0233
:10A690000C4B4FF0A04302F5E072022143F8221068
:10A6A0000068FFF7A5FD2C2303FB0474002384F846
:10A6B0002A306360F8BD00BFE02A00208402020057
:10A6C00000E100E0000300502DE9F041314E057932
:10A6D0002C2303FB05630446586984B000284CD141
:10A6E0005A619960186283F828002268C2F81C0138
:10A6F000D2F81C11226802910121029F9160226808
:10A70000D3F808C0C2F81C01D2F81C1101910199BC
:10A710001F6A196A1CF8077001311962C2F81C75AA
:10A720005A6812B104B0BDE8F0815F691A6A216805
:10A7300097421BD9864602E093F828200ABBD1F83D
:10A740001C21002AF8D0C1F81CE1D1F81C21039289
:10A75000039AD3F820801A6A1CF8088001321A6222
:10A76000C1F81C851A6A9742E9D82168D1F81C31D2
:10A77000002BFBD00123CB6004E0112004B0BDE826
:10A78000F0810F202C2303FB056500236B6104B0CF
:10A79000BDE8F081E02A002030B5574BD3F82421E2
:10A7A0008BB0002A75D00022C3F82421D3F82421CD
:10A7B000049202228DF81820049AD3F880144F4A8C
:10A7C000C3F880140991D3F83C15D368089100248C
:10A7D00000250793C2E906451168536806A8984703
:10A7E000454BD3F8442152B10021444AC3F84411E7
:10A7F000D3F84401916903900398002938D13E4B66
:10A80000D3F820215AB10021C3F82011D3F8202118
:10A8100002920120394A029CD8605069D8B9364B5F
:10A82000D3F85821AAB10021C3F85811D3F8580120
:10A83000324A01900198506958B1D3F84C05936899
:10A8400008908DF818105161079306A8D2E90013FB
:10A8500098470BB030BDD3F84C05936808908DF83D
:10A8600018105161079306A8D2E900139847D6E75C
:10A87000D3F83C35D16808930024002501230791C3
:10A880008DF81830C2E90645D2E9001306A89847AA
:10A89000B5E7D3F810110029A2D0C3F81021D3F8DE
:10A8A00010111648059105998469D3F83C15A14209
:10A8B00096D1C469A4B1D3F80052846125F0200573
:10A8C000C3F80052D0E90343C26101220891C3607A
:10A8D0000168436807948DF8182006A898477FE719
:10A8E000C26884610123CDE907218DF81830D0E9D1
:10A8F000001306A8984773E700200040102B0020A3
:10A900002DE9F0430779824E07EBC70306EB83037B
:10A9100087B093F82030002B40F0B98004460D46F4
:10A9200000687C499046FFF73BFC002840F0AB8074
:10A930002B68591C4FEAC70919D01F2B4FF0010291
:10A940008ABF75494FF0A04103F01F0302FA03F3D9
:10A95000C1F808352B681F2B86BF03F01F036E4A12
:10A960004FF0A04203F5E073032142F823106B6817
:10A970005A1C0BD01F2B86BF03F01F03664A4FF0F3
:10A98000A04203F5E073002142F823102368AA696E
:10A99000C3F82425297D6A7D23680A43C3F86C2502
:10A9A000D5E900312268C2F80C35C2F814152B7DA8
:10A9B000012B78D009EB070206EB8203C3F8048071
:10A9C0002B6946F82230B8F1000F4BD021682B7F5D
:10A9D000524D0022C1F81021D1F8101101912168C7
:10A9E000DDF804C0C1F82021D1F8201102912168BE
:10A9F000DDF808C0C1F82421D1F8241103912168A1
:10AA0000DDF80CC0C1F84421D1F84411049121684B
:10AA1000DDF810C0C1F85821D1F85811226805910D
:10AA20000599C2F80453226842F3073100294FEA1E
:10AA3000123230DB01F1604101F561415B01DBB2B3
:10AA400081F80033226842F30733002B4FEA1231BA
:10AA500009DB334D01225B0901F01F0102FA01F10C
:10AA600045F8231022684F4406EB87060023012493
:10AA70000821C2F80015C6E9063386F82040736144
:10AA800007B0BDE8F083112007B0BDE8F0830820CF
:10AA900007B0BDE8F083234902F00F025B011144C7
:10AAA000DBB20B76CEE7AB68591C0BD01F2B86BFF1
:10AAB00003F01F0318494FF0A04103F5E073002293
:10AAC00041F82320EB685A1C1AD01F2B8ABF124969
:10AAD0004FF0A04103F01F03012202FA03F3C1F873
:10AAE0000835EB681F2B88BF03F01F0303F5E073E5
:10AAF0008CBF09494FF0A041032241F82320EB68A5
:10AB00002268A968C2F80835C2F8101552E700BFDC
:10AB1000102B002099A702000003005010034200F0
:10AB200000E100E0FCEC00E02DE9F0410579564C35
:10AB300005EBC50304EB830301465B68006882B044
:10AB4000EE00C3B1514BC0F808330B6843F3073232
:10AB5000002A4FEA13330EDB5209DFF838C12032E6
:10AB6000012703F01F0307FA03F34CF82230BFF369
:10AB70004F8FBFF36F8F721904EB8202D0F800324F
:10AB8000926923F02003C0F8003242B10023C0F8DC
:10AB90004431D0F8443100930123009A43600023EC
:10ABA000C0F85831D0F8583101937319012204EBE1
:10ABB0008303019FC2609A69D0F85831002BFBD003
:10ABC0001AB1D0F84431002BF6D00023C0F800357C
:10ABD0000B684FF0FF38D3F80CE5D3F814C5D3F861
:10ABE0000825D3F81075C3F80C85C3F814850B68D5
:10ABF000C645C3F80885C3F810850CD0BEF11F0FF9
:10AC000086BF0EF01F0E22494FF0A0410EF5E07EE8
:10AC1000022341F82E30BCF1FF3F0CD0BCF11F0FD6
:10AC200086BF0CF01F0C1A494FF0A0410CF5E07CD8
:10AC3000022341F82C30791C0BD01F2F86BF07F060
:10AC40001F0713494FF0A04107F5E077022341F8B1
:10AC50002730531C0BD01F2A86BF02F01F020C495D
:10AC60004FF0A04102F5E072022341F82230FFF7D5
:10AC7000BFFA354404EB8504002384F82030636078
:10AC800002B0BDE8F08100BF102B0020100342008D
:10AC90000003005000E100E0F0B401F06044B4F1C2
:10ACA000005F82B02CD10579274E05EBC50406EB79
:10ACB000840403466069EF0000283ED16261A16010
:10ACC0001A68C2F82001D2F820C11A68CDF804C071
:10ACD000DDF804C0C2F85801D2F8582100921A6871
:10ACE000DDF800C0D4F814C0C2F84415C2F848C555
:10ACF0001A6801219160626832B102B0F0BC7047FD
:10AD0000102002B0F0BC70471A6800E0C8B9D2F851
:10AD10002011D2F858010029F8D090B90121D16052
:10AD20001B68D3F85821002AFBD07B1906EB83035C
:10AD300000225A6102B0F0BC7047112002B0F0BC92
:10AD400070470F20F1E700BF102B002072DF704723
:10AD500073DF704776DF70477ADF70477CDF7047BC
:10AD60007FDF70478FDF7047B1DF7047FDF74CB969
:10AD700008B5037803B108BD054B3B211888FFF7E0
:10AD8000E9FF0028F7D0BDE80840FDF73DB900BF56
:10AD90003A23002008B502206AB1FEF7A7FD094852
:10ADA000094B0A49C01AC0080004BDE8084040F039
:10ADB0000300FCF741BDFEF7ABFD0248024B04491E
:10ADC000F0E700BF4CD4020024D4020044CE0200BD
:10ADD00058CE0200FDF718B910B50388212B82B0B8
:10ADE00004462CD80F2B28D9103B112B25D8DFE88F
:10ADF00003F04209245B242424242424242424242E
:10AE000024242438344B35483549C01AC00800047E
:10AE100040F00300FCF710FD0120FEF779FD314AF8
:10AE2000314B107801214FF6FF721A80FFF790FF27
:10AE300000284DD10020FEF759FD02B010BD522B65
:10AE40003CD0562B09D1A0881321FFF783FF00289F
:10AE5000F3D0FDF7D9F802B010BD3B2BF3D002B010
:10AE600010BD00238088ADF8043001A9FFF77AFFF8
:10AE70000028E2D0EDE7184B18481C49C01AC0085A
:10AE8000000440F00300FCF7D7FC0120FEF72EFD84
:10AE90000020FEF73DFD144BA1881548198001F0F4
:10AEA00097F80028C9D0D4E70F4A002310888521DD
:10AEB0001A46FFF755FF0028BFD0CAE70A4A002309
:10AEC000108819461A46FFF74FFF0028B5D0C0E793
:10AED000FDF79AF8AEE700BF24D402004CD402007C
:10AEE00078CE0200382300203A2300206CCE0200E6
:10AEF000A02B002000B54FF48041A7B00020FCF744
:10AF000023FB002840F0D980FCF70EFB0120FEF760
:10AF100011FDFDF77BFA002840F0FC80FEF704FBF2
:10AF2000002840F0F48001F05FF9002840F0EC8048
:10AF3000002317A90120179301F032FA002840F0EE
:10AF4000E08017A801F0EAFA002840F0D78011232A
:10AF500072488DF8203001F0A7FB704982B208A832
:10AF6000FFF7FCFE002840F0C6800822002117A849
:10AF700001F092FB6A4B179317A84FF0C873189310
:10AF8000FFF7EAFE002840F0B3806648002100F099
:10AF900011FF002840F0A980634B644817930022FA
:10AFA00017A9089201F002F8002840F09B80604B3E
:10AFB0006048089308A901F0ADF8002840F08F80A0
:10AFC0005C4B5D4C9B7C8DF806303C2241F2235358
:10AFD000002108A8ADF8043001F05EFB022040F229
:10AFE00001633C2200218DF8200017A8ADF8223023
:10AFF00001F052FB2246012501AB52F8041BADF8CB
:10B000006C5008A81C9300F027F9002864D1A168AF
:10B010004A4A17A800F020F900285AD11822002126
:10B0200002A801F039FB012000234FF48075402471
:10B030008DF8080040494248ADF8143002AA039345
:10B04000ADF81C500494FFF781FE00283ED11C226D
:10B05000002117A801F020FB00233A4A1793ADF80E
:10B060006A308DF86C30384B4FF4A0254FF4A03483
:10B07000032117A8CDE91854CDE91C238DF86810D9
:10B0800000F01EFCF8B9314B31483249C01AC008F3
:10B09000000440F00300FCF7CFFB294B0121187896
:10B0A000FFF756FE60B90020FEF720FCFCF79CFA83
:10B0B0000028FBD1FEF74EFAF8E7FCF7A5FF23E7DF
:10B0C000FCF7A2FFEFE7FCF79FFFDCE7FCF79CFF34
:10B0D000BDE7FCF799FFA1E7FCF796FF97E7FCF7C0
:10B0E00093FF6DE7FCF790FF61E7FCF78DFF53E7F7
:10B0F000FCF78AFF49E7FCF787FF36E7FCF784FF98
:10B1000025E7FCF781FF1CE7FCF77EFF10E7FCF763
:10B110007BFF08E7FCF778FF00E700BF88CE02005E
:10B120005000A000742B00206DAD0200A02B002069
:10B1300095AD0200882B0020282300203423002016
:10B140003823002071AD0200D5AD020024D40200E6
:10B150004CD402009CCE02006DDF704779DF70474F
:10B160007DDF704764DF70472DE9F04F87B00746F9
:10B17000119D00882C880394BDF84840DDF840A05C
:10B18000CDE90142002858D04FF0000988461E46FC
:10B19000CB4604E03A880BF1010B93452CDAD8F842
:10B1A000002052F82B00059000220DF1130105A894
:10B1B000FFF7D8FF044658BB9DF81320B242E9D1EF
:10B1C000B9F1000F28D02A88019B9119994239DCE6
:10B1D00052440DF1130105A84FF00109FFF7C2FF1A
:10B1E000002834D129889DF813200A442A803A88FF
:10B1F0000BF1010B9345D2DBB9F1000F1DD02B8869
:10B20000039A013B9B1A9BB2FF2B1BD80AF8023012
:10B21000204607B0BDE8F08F2A88019B511C3244BC
:10B2200002329A4289B20DDC029B29800AF8013071
:10B230002A88013292B22A80CAE70024204607B049
:10B24000BDE8F08F0C24204607B0BDE8F08F04461F
:10B25000204607B0BDE8F08F2DE9F047002317889E
:10B26000138090F82D3088B0144605460E46002B0A
:10B2700040F00081AA78002A40F0F580E978A1B179
:10B28000DA1CBA4200F2F2800222F254238801331F
:10B290009BB201222380F254238813449BB2238063
:10B2A000F154238813449BB223806A68AAB1D91C45
:10B2B000B94200F2DB80022192F90020F154238888
:10B2C00001339BB20A212380F154238801339BB2BE
:10B2D0002380F2542388013323802B89002B40F0F4
:10B2E000F3802B8A002B40F02B812B8B002B40F01E
:10B2F00046812B6A002B44D02088821DBA4200F27E
:10B30000B5801A88052A40F299816FF4486802EBEB
:10B31000080189B24FF27D3C614540F28F81598826
:10B32000052940F28B816FF4486E8E441FFA8EFE21
:10B33000E64540F283814FF6FF7C624504D06145CB
:10B3400002D08A4200F27A810522325422880132E8
:10B3500092B212212280B1542288013292B222800C
:10B360001988B1543244090A51702288023292B2CB
:10B3700022805B88B35432441B0A53702388023303
:10B3800023806B6A002B2FD09988B4F800C0881CEA
:10B390000CF102020244BA4268D8FE2866D8033192
:10B3A00006F80C102288013292B2FF212280B1549B
:10B3B0002288013292B222801988B1543244090A9B
:10B3C00051702088023080B220809A8862B19968DA
:10B3D0000593002900F03281304401F04FF9059BBC
:10B3E0009A8823881344238095F82C30002B40F052
:10B3F000E380287800283AD02B88012B00F01E81AA
:10B4000023889A1CBA4231D8012804D169780231C4
:10B4100019448F422AD3023FFF1ABFB2B01806A9BF
:10B42000ADF81870FFF79CFE08BB2B78022B00F0DC
:10B430000D816978BDF818209142C0F003819742D0
:10B44000C0F0008117460922FE2F0FD82388791CEF
:10B45000F154238801339BB22380F25423880133B3
:10B460001F44278003E00433BB424CD90C2008B0B2
:10B47000BDE8F087082FF9D906A8FFF76DFE002870
:10B48000F5D123880822F254238801339BB21B2272
:10B490002380F2542088013080B22080062230447C
:10B4A0000DF1190101F0EAF823889DF81820063300
:10B4B0009BB212F0FE0218BF01222380F2542388AF
:10B4C00001339BB22380D5E605F10808022305F17C
:10B4D0000C01CDE90147009640461A460591FFF759
:10B4E00043FE0028C3D1CDE90147059900964046A7
:10B4F00010230622FFF738FE0028B8D12B8A002B34
:10B500003FF4F3AE1CE006A8FFF728FE0028AED1FA
:10B510002388BDF818200321F154238801339BB2FE
:10B5200019212380F154238801339BB2F118238021
:10B53000F254130A4B70238802339BB223809DE69A
:10B5400005F1100805F11401CDE9014700964046C8
:10B55000022303220591FFF707FE002887D1CDE9DA
:10B56000014705990096404610230722FFF7FCFD8E
:10B5700000287FF47CAF2B8B002B3FF4BAAE05F193
:10B58000180805F11C01CDE9014700964046022349
:10B5900014220591FFF7E8FD00287FF468AFCDE99C
:10B5A000014705990096404610231522FFF7DCFD60
:10B5B00000283FF49EAE5AE7A96A00293ED04FF01A
:10B5C00000094B464FF0160A2BE02388F0542388DD
:10B5D00001339BB2238006F803A0238801339BB27A
:10B5E000238031F82220F2543344120A5A70208802
:10B5F000023080B22080B8F8042030444AB1D8F834
:10B600000810D9B101F03AF8B8F80420238813449F
:10B61000238095F82C205FFA89F39A427FF6E9AEF1
:10B62000A96A03EB430201EB820809F10109B8F8AA
:10B630000430D81C0233FE2BC7D917E7072008B007
:10B64000BDE8F087012B08D00822FDE6BDF81830D0
:10B650009F42F9D31F460922F6E68F42F4D30F46E4
:10B660000822F1E675DF704776DF70477ADF7047B2
:10B670007BDF704770B51B4D2B8884B2A34282B02C
:10B6800011D1194E297A327B91420ED3337C00229C
:10B690002A72DBB9736933B10022ADF806408DF828
:10B6A000042001A8984702B070BD184605F10A01B0
:10B6B000FFF7D8FF28B11128F5D0B369002BF1D1DD
:10B6C000F1E72B7A01332B7202B070BD3B2120468B
:10B6D000FFF7CAFF30F00803DCD0B369002BD9D0E4
:10B6E0009847D7E7C82B0020AC2B0020F0B5028884
:10B6F000122A83B003463ED015D8102A73D0112ADF
:10B700000FD16C4C828823889A420AD16068FCF77A
:10B7100027FF18B1684B9B6903B198474FF6FF7339
:10B72000238003B0F0BD502AFBD1634DC188EA8964
:10B730009142F6D1028A022AF3D15E4C8288268891
:10B740009642EED1123000F0A9F9002800F09C805A
:10B75000637A002B40F09F80D5E90113277A606857
:10B760003246002F18BF1946FCF79CFE0028D8D09F
:10B77000AB693BBBD5E74F4C828821889142D0D141
:10B780004089658985421FD8A58985421CD3E089F7
:10B790009D8940F2F313984294BF031AC31AAB4237
:10B7A00012D800F2F310A8420ED3434B5B694FF45A
:10B7B00080722281002BB4D00122ADF806108DF8E2
:10B7C000042001A89847ACE73B4D267A6068D5E98C
:10B7D0000113002E18BF194600236372FCF762FEA6
:10B7E0000028C5D19DE7C67B012E9AD1314C218816
:10B7F0004FF6FF7291423FD1304D8288228003CDB7
:10B80000C4F80A00C4F80E10598A608900258842DD
:10B81000257222D8A08988421FD3E189988A40F2F4
:10B82000F313994294BF4B1ACB1A834215D801F2F5
:10B83000F311814211D3204D6672EB89002B7FF406
:10B8400070AF6B69002B3FF46CAF0121ADF806209F
:10B850008DF8041001A8984763E7174DEB89002184
:10B860006172002B7FF45DAF60686968FCF71AFEB7
:10B8700000283FF456AF7BE70F4B9B69002B3FF44A
:10B8800050AF042098474CE76068FCF769FE002839
:10B890003FF447AF6CE76B6900222272002B3FF444
:10B8A00040AF0122ADF806608DF8042001A898474A
:10B8B00037E700BFC82B0020AC2B0020DC2B00207A
:10B8C00070B3F8B5054606460FCD164F3C460FC47B
:10B8D000844695E80700144D3D6084E80700BCF1FC
:10B8E000000F17D06046FFF7C1FE90B933681868A3
:10B8F000596803C50D4B0E490E4A18464FF6FF74A2
:10B9000040F8041F1C800021FCF7B6FD002818BF7A
:10B910000320F8BD2846FFF7ABFE0028EAD0F8BDAB
:10B920000E207047AC2B0020DC2B0020C82B002001
:10B93000E82B002075B602002DE9F04703888788C0
:10B94000103B98B004460A2B1CD8DFE803F03029DE
:10B950001B1B1B1B1B1B1B1E0600037A46483F2B91
:10B960004FEA1314394667D8FDF776F8032C65D0F3
:10B9700042483946FDF770F8022C63D040483946FA
:10B98000FDF76AF818B0BDE8F087037A002BF9D10B
:10B99000437A39481B0739466BD5FDF753F8F1E771
:10B9A00038483946FDF758F818B0BDE8F087364AF0
:10B9B0009368DB43009351686846FDF77DF8009B70
:10B9C0000193019B83B300263546294601A8FDF764
:10B9D0004DF828B118AB03EB4603013623F8285C79
:10B9E0000135142DF1D10D960DF1340CBCE80F008A
:10B9F00002AD0FC5BCE80F000FC59CE8070085E845
:10BA000007008EB10DF10A08DFF888A008EB4606A2
:10BA100038F8029F1D4D284649460435FDF71CF8AD
:10BA2000AA45F8D1B045F3D1132F12D90420FCF761
:10BA3000EBFA18B0BDE8F087FDF704F80F48394677
:10BA4000FDF700F80E483946FCF7FCFF18B0BDE8DA
:10BA5000F0870C483946FCF7F5FF0C483946FCF7EF
:10BA6000F1FFE37B022B8DD109483946FCF7EAFF51
:10BA700088E7FCF7F1FF85E7202C00201C2C002034
:10BA8000182C0020102C0020082C00200C2C00204A
:10BA9000142C0020842C0020AADF7047007800F0CE
:10BAA00001007047F0B58B7891B0012B0C460988E6
:10BAB000ADF80C1038BF0123054616466846032230
:10BAC00000218DF80E3000F0E7FD637C0022013B81
:10BAD0008DF80020042B09D8DFE813F0CF00D30045
:10BAE000D700DB00050022238DF80030A37C002264
:10BAF000013B8DF80120042B09D8DFE813F0CE00BC
:10BB0000D200D600DA00050022238DF80130E77B51
:10BB1000237B207C217D9DF8022043EAC70343EA72
:10BB2000001322F01902002903F0190343EA02036B
:10BB300014BF0222012262F3420309A81C22002141
:10BB40008DF8023000F0A8FD637B13F0300F73D145
:10BB5000627BA37B8DF824200021142204A88DF899
:10BB6000253000F099FDA368A288CDF814D003A970
:10BB70000491ADF81C201BB1E2880893ADF81820A1
:10BB8000A369002B36D001AF03220021384600F014
:10BB900083FDA2691388ADF82C305388ADF82E30A0
:10BBA00051680D97137B0A91013B00218DF8041019
:10BBB000042B2DD8DFE803F095999D8929002223D5
:10BBC0008DF80530977A137AD07A917B9DF806200C
:10BBD00043EAC70343EA001322F01902002903F0E5
:10BBE000190343EA020314BF0222012262F3420353
:10BBF0008DF80630E36903B10C93334604AA09A912
:10BC00002846FFF749FF11B0F0BD22238DF804301C
:10BC1000537B0021013B8DF80510042BD2D801A1E4
:10BC200051F823F0D3BC0200DBBC0200BBBC020015
:10BC3000C3BC0200BFBB020002AF03223846002192
:10BC400000F02AFDE37C0022013B8DF80920042B43
:10BC500007D8DFE803F0525E5A56030022238DF81E
:10BC600009309DF80A300E97012262F34203112237
:10BC70008DF80A308DF808206AE711238DF800301E
:10BC800034E721238DF8003030E731238DF8003080
:10BC90002CE712238DF8003028E711238DF80130AE
:10BCA00035E721238DF8013031E731238DF801305C
:10BCB0002DE712238DF8013029E731238DF8053067
:10BCC00080E712238DF805307CE712238DF80430CD
:10BCD0009EE711238DF8053074E721238DF8053098
:10BCE00070E711238DF8043092E721238DF804309A
:10BCF0008EE731238DF804308AE711238DF809305F
:10BD0000AFE712238DF80930ABE731238DF8093006
:10BD1000A7E721238DF80930A3E700BF90DF704724
:10BD2000A5DF7047B5DF704770B5002384B00024ED
:10BD300060F30F0360F31F436A46204602A9CDE972
:10BD400002340094ADF80440FFF7E8FF054610B94F
:10BD5000284604B070BD124B124EF61AF608FDF7D5
:10BD600073FC360446F0010603460F49224630466E
:10BD7000FBF7F8FEBDF80020BDF8023052EA0301DF
:10BD800003D00A493046FBF7EDFEBDF80420002A37
:10BD9000DED030460649FBF715FE284604B070BDDC
:10BDA00024D402006CD40200B4CE020000CF020002
:10BDB00040CF020008B90E20704730B403464FF060
:10BDC00017121B25002041F61B3419611A60C3F8B5
:10BDD00006201D7158819C8130BC70478288002AE2
:10BDE00059D110B50388242B82B00C4611D80F2BE3
:10BDF0004FD9103B142B4CD8DFE803F060744B4B49
:10BE00004B4B4B4B4B4B4B4B4B4B4B4B4B4B4B4489
:10BE10004E003A2B70D0552B3BD1C388C988A272F3
:10BE2000172B38BF17238B4228BF0B4610462381A0
:10BE3000FFF778FF00287ED1E37A53BB236943B331
:10BE40002289ADF8042040F677210091204669460A
:10BE50009847A37AA3B1E1880020FFF761FF00288B
:10BE600062D011280CD0FDF7EFFB4A4B4A4902463D
:10BE70004A481B1ADB081B0443F00100FBF7A2FD34
:10BE800002B010BD007A0B7B984228BF1846FFF71E
:10BE90004BFFA37ADEE770470B69027A4A73002BE7
:10BEA000F7D000204DF67A218DF8050000918DF82D
:10BEB0000420694620469847A37ACBE70B790B7399
:10BEC000C27B012A45D0022A33D14988E1802289E8
:10BED0008A4241D3627B9A42DBD21846FFF724FFA5
:10BEE000A37AB7E74FF01711002241F61B33C4F8CD
:10BEF00006106281A381C3E74389C98822698B4206
:10BF000028BF0B46172B38BF172323814AB1E17A8C
:10BF100039B140F677210091ADF8043069462046EA
:10BF2000904700236381ABE74FF48073638102B0D5
:10BF300010BDC988CBE7FDF787FB164B18490246B1
:10BF400016481B1ADB081B0443F00100FBF73AFDFF
:10BF500072E70988E180BAE70020FFF7E1FE18B92F
:10BF60000123E372237BB5E7112803D10123A372D8
:10BF7000237BAFE7FDF768FB064B074902460748FE
:10BF80001B1ADB081B0443F00100FBF71BFD237B9E
:10BF9000A0E700BF6CD4020098CF020024D40200B6
:10BFA000CCCF0200B0DF704766DF704760B159B197
:10BFB0000378DE2B0AD00B684360DE224FF6FF7356
:10BFC00002704380002070470E20704708207047A1
:10BFD00038B10378DE2B02D1418000207047082061
:10BFE00070470E20704700BF19B330B5054685B0C5
:10BFF00018B10B78DE2B0C4601D005B030BD80881F
:10C000004B889842F9D10B7A002B32D12B88112B17
:10C010004BD0512B12D0012BEFD12B7A012BECD12D
:10C02000012525720021FFF7BFFF002851D12072A2
:10C03000E3E77047A88863888342DED1AB79022B9F
:10C04000DBD1AA7B02F0FD01042935D0052AD4D129
:10C0500000226946C1E902224A600092ADF804203C
:10C060008DF80030FFF79EFF0028C6D06368984720
:10C07000C3E70021FFF798FF0346D8B1112818D075
:10C08000636898472B88112B0BD0512BD2D0012BF2
:10C09000B3D12B7AAA88012BAFD160889042ACD162
:10C0A000BEE7AA8863889A42A7D14FF6FF736380E0
:10C0B000A3E701232372E5E7694600224FF4C07528
:10C0C0004A600092C1E902228DF80030ADF80450B8
:10C0D000C8E71128CAD125728FE700BFA8DF7047D3
:10C0E00062DF70470288502A00D0704710B44A8837
:10C0F000C488944202D05DF8044B7047028A012A3A
:10C10000F9D14B69002BF6D0827C5DF8044B808816
:10C11000184700BFF0B5324B04460D460FCB2D68D3
:10C1200065618FB002AD85E80F00284604F1120169
:10C13000FFF7D6FF08B10FB0F0BDA37C8DF8063035
:10C14000224641F2235301A90120ADF80430FFF744
:10C15000C5FF0028EFD10146202206A800F09CFA76
:10C160009DF82530A17C8DF81A10224623F0120389
:10C17000012543F0120341F224574FF0011632F823
:10C180000A0B8DF8253006A9ADF8187007968DF8C2
:10C1900029508DF82B50FFF785FC0028CBD10146A4
:10C1A000202206A800F078FA9DF82530A77C079693
:10C1B000224623F00A0343F00A0332F8020B8DF8FB
:10C1C000295006A941F225548DF82A508DF82530C2
:10C1D0008DF81A70ADF81840FFF764FC0FB0F0BD91
:10C1E0000CD0020010DF704770B53C4D2B7884B046
:10C1F000002B66D13A4E3B49012302A83370FDF76C
:10C20000E1F9039B23B90EE0FDF7E6F9039B53B177
:10C21000D3E9002100209047044602A8002CF3D166
:10C22000204604B070BD304902A8FDF7CBF9039B4E
:10C230004BB1D3E900210020904702A8FDF7CCF9CB
:10C24000039B002BF5D1294A002312688DF8083092
:10C2500002A80192FCF7C2F9254901A8FFF7C2FF25
:10C26000B0FA80F304465B099DF808002B70FCF7D8
:10C27000DBF9002CD4D11F4B1F491C70347091F88E
:10C280001623EC2352091341DB071ED51B4B9A687A
:10C2900002B31A6842F480021A60134902A8FDF73B
:10C2A00091F9039B002BBBD0D3E9002101209047DB
:10C2B00002A8FDF791F9039B002BF5D1204604B0AD
:10C2C00070BD0824204604B070BD42F20200FBF7A6
:10C2D0009BFEE2E74FF480030B60DEE7852C002035
:10C2E000842C002028D0020040D0020024D002007C
:10C2F00029800200862C002000E100E0882C00202C
:10C30000014B1878704700BF852C002000B583B022
:10C3100008496846FDF756F9019B43B1D3E900206F
:10C3200090476846FDF758F9019B002BF6D103B002
:10C330005DF804FB34D0020060DF704769DF7047AE
:10C3400061DF7047144B1B782BB330B5134D91B0A0
:10C3500034240DF1020103A8ADF80240FFF7F0FF0D
:10C3600088B9294601A8FDF72DF9029B002BF0D0D2
:10C37000D3E9002103A8904701A8FDF72DF9029BFE
:10C38000002BF5D1E5E7052801D111B030BDFBF751
:10C390003BFE11B030BD7047872C002090D20200C8
:10C3A000002900F0A78070B5544B0B6084B00C4698
:10C3B00005460C22002101A800F06EF90126062393
:10C3C00022688DF8045001A920208DF80660ADF890
:10C3D0000830FFF7B3FF002843D10C22002101A849
:10C3E00000F05AF9012100238DF805102268ADF8FC
:10C3F000063001A94020FFF7A1FF00286CD10C22D4
:10C40000002101A800F048F90A2322688DF80430C1
:10C4100001A90120FFF792FF00284FD10C22002133
:10C4200001A800F039F94FF4B0632268019301A923
:10C43000A120FFF783FF98BB0C22002101A800F088
:10C440002BF99DF8043022686FF3000301A9A020A6
:10C450008DF80430FFF772FF034680B9184604B028
:10C4600070BDFDF7F1F8264B2649024626481B1AF7
:10C47000DB081B0443EA0600FBF7A4FAADE7FDF76F
:10C48000E3F81F4B214902461F481B1ADB081B0417
:10C4900043F00100FBF796FA0023184604B070BD84
:10C4A000FDF7D2F8164B1A49024617481B1ADB084B
:10C4B0001B0443F00100FBF785FABDE7FDF7C4F864
:10C4C0000F4B1449024610481B1ADB081B0443F0AB
:10C4D0000100FBF777FAA1E7FDF7B6F8084B0E4924
:10C4E000024609481B1ADB081B0443F00100FBF756
:10C4F00069FA84E70E231846704700BF0023002026
:10C500007CD402004CD0020024D4020080D102006E
:10C510002CD10200E0D0020094D0020070B5044695
:10C5200082B00668FFF708FF2368B342054606D8C5
:10C530002DBB1B4B012228461A7002B070BD194B4F
:10C5400019481A49C01AC008000440F002000190BE
:10C55000FBF772F90198236815493246FBF702FB95
:10C560004FF080532268D3F80C31124901989B0296
:10C5700003F100539A1AFBF725FA002DD9D028466B
:10C58000FDF762F8084B0C49024606481B1ADB0807
:10C590001B0443F00100FBF715FA284602B070BDFA
:10C5A000872C002024D402007CD40200D4D10200C5
:10C5B00004D2020038D2020064D202004BDF70477E
:10C5C00010B5114C84B001A8FFF7F8FFA8B92146B7
:10C5D00002A8FCF7F7FF039B002BF4D0D3E900215E
:10C5E0000198904702A8FCF7F7FF039B002BF5D1B9
:10C5F00001A8FFF7E3FF0028E9D0052801D0FBF7E9
:10C6000003FD04B010BD00BFA8D2020008B5074B5F
:10C61000044613B10021AFF30080054B1868836A0C
:10C6200003B19847204600F047F800BF0000000023
:10C63000B8D3020070B50D4D0D4C641BA41000263C
:10C64000A64209D10B4D0C4C00F038F8641BA41025
:10C650000026A64205D170BD55F8043B9847013627
:10C66000EEE755F8043B98470136F2E79C2300209B
:10C670009C2300209C230020A02300200A449142F8
:10C6800000F1FF3300D1704710B511F8014B03F8EA
:10C69000014F9142F9D110BD02440346934200D1AB
:10C6A000704703F8011BF9E7034613F8012B002A32
:10C6B000FBD1181A01387047FEE700BFF8B500BF7C
:10C6C000F8BC08BC9E467047F8B500BFF8BC08BC73
:10C6D0009E467047FFFFFFFFFFFFFFFFFFFFFFFFCB
:10C6E000FFFFFFFF00000000000000000000D60177
:10C6F00006010000D973020045740200D5730200E0
:10C70000756172745F6C6F675F6261636B656E64A5
:10C71000000000004261636B656E647320666C7597
:10C72000736865640000000061707000FC280020E0
:10C730007F0000007C2900201B5B313B33316D0002
:10C7400025734C6F67732064726F70706564202866
:10C7500025642925730D0A001B5B306D0000000065
:10C76000257300003C25733E2025733A200000000D
:10C770000D0A000020253032780000002020200023
:10C780007C000000256300001B5B313B33306D00F3
:10C790001B5B313B33326D001B5B313B33336D0030
:10C7A0001B5B313B33346D001B5B313B33356D001C
:10C7B0001B5B313B33366D001B5B313B33376D0008
:10C7C0006572726F720000007761726E696E670049
:10C7D000696E666F000000006465627567000000A6
:10C7E00058C7020088C7020038C7020090C702007D
:10C7F00098C70200A0C70200A8C70200B0C7020085
:10C80000B8C7020000000000C0C70200C8C702008D
:10C81000D0C70200D8C702006170705F627574747F
:10C820006F6E0000466174616C206572726F7200F9
:10C8300053797374656D2072657365740000000030
:10C840006170705F74696D65720000000100060020
:10C8500000000000942900209980020052544320D7
:10C86000696E7374616E636520616C726561647971
:10C8700020696E697469616C697A65642E000000D4
:10C880005254433A20696E697469616C697A6564CF
:10C890002E0000000000000000000000000000006A
:10C8A0000338FDD870470000303132333435363725
:10C8B00038394142434445467077725F6D676D7405
:10C8C00000000000C8D30200C8D30200040000002A
:10C8D000736F72746C697374000000004E52465F8F
:10C8E00053554343455353004E52465F4552524FB2
:10C8F000525F5356435F48414E444C45525F4D4949
:10C900005353494E470000004E52465F4552524F26
:10C91000525F534F46544445564943455F4E4F542A
:10C920005F454E41424C4544000000004E52465F78
:10C930004552524F525F494E5445524E414C0000B1
:10C940004E52465F4552524F525F4E4F5F4D454DDE
:10C95000000000004E52465F4552524F525F4E4F0C
:10C96000545F464F554E44004E52465F4552524F1B
:10C97000525F4E4F545F535550504F5254454400F0
:10C980004E52465F4552524F525F494E56414C49B6
:10C99000445F504152414D004E52465F4552524F06
:10C9A000525F494E56414C49445F535441544500EF
:10C9B0004E52465F4552524F525F494E56414C4986
:10C9C000445F4C454E475448000000004E52465FBD
:10C9D0004552524F525F494E56414C49445F464C76
:10C9E000414753004E52465F4552524F525F494EA7
:10C9F00056414C49445F4441544100004E52465F09
:10CA00004552524F525F444154415F53495A450089
:10CA10004E52465F4552524F525F54494D454F5515
:10CA2000540000004E52465F4552524F525F4E55E1
:10CA30004C4C00004E52465F4552524F525F464F9B
:10CA40005242494444454E004E52465F4552524F71
:10CA5000525F494E56414C49445F414444520000A4
:10CA60004E52465F4552524F525F42555359000055
:10CA70004E52465F4552524F525F434F4E4E5F43B8
:10CA80004F554E54000000004E52465F4552524FE3
:10CA9000525F5245534F5552434553004E52465FE5
:10CAA0004552524F525F4D4F44554C455F4E4F5487
:10CAB0005F494E495449414C495A454400000000E1
:10CAC0004E52465F4552524F525F4D555445585F46
:10CAD000494E49545F4641494C4544004E52465FD9
