:020000022000DC
:1060000000000120B5620200DD620200DF620200D2
:10601000E1620200E3620200E562020000000000AB
:10602000000000000000000000000000E762020025
:10603000E962020000000000EB620200ED62020073
:1060400089910200EF620200E9990200EF6202000A
:10605000EF620200EF620200A5950200EF6202000B
:10606000EF620200EF620200EF620200EF620200E4
:10607000EF620200EF620200EF620200EF620200D4
:10608000EF620200257D0200EF620200EF62020073
:10609000EF620200EF62020041BB0200EF62020009
:1060A000EF620200EF620200EF620200EF620200A4
:1060B000EF620200EF62020000000000000000003A
:1060C000EF620200EF620200EF620200EF62020084
:1060D000EF620200EF620200EF62020000000000C7
:1060E00000000000000000000000000000000000B0
:1060F00000000000000000000000000000000000A0
:10610000000000000000000000000000000000008F
:10611000000000000000000000000000000000007F
:10612000000000000000000000000000000000006F
:10613000000000000000000000000000000000005F
:10614000000000000000000000000000000000004F
:10615000000000000000000000000000000000003F
:10616000000000000000000000000000000000002F
:10617000000000000000000000000000000000001F
:10618000000000000000000000000000000000000F
:1061900000000000000000000000000000000000FF
:1061A00000000000000000000000000000000000EF
:1061B00000000000000000000000000000000000DF
:1061C00000000000000000000000000000000000CF
:1061D00000000000000000000000000000000000BF
:1061E00000000000000000000000000000000000AF
:1061F000000000000000000000000000000000009F
:1062000010B5054C237833B9044B13B10448AFF3F0
:1062100000800123237010BDC02300200000000077
:1062200018CC020008B5034B1BB103490348AFF378
:10623000008008BD00000000C423002018CC02002C
:10624000154B002B08BF134B9D46A3F5803A002148
:106250008B460F461348144A121A05F037FE0F4BAF
:10626000002B00D098470E4B002B00D09847002001
:10627000002104000D000D48002802D00C48AFF3A7
:10628000008005F0F1FD2000290004F01DFA05F062
:10629000D7FD00BF00000800000001200000000042
:1062A00000000000C0230020C02C002000000000DF
:1062B000000000000649074A074B9B1A03DD043B18
:1062C000C858D050FBDC02F0F7FBFFF7B9FF000025
:1062D00010CD0200F0220020C0230020FEE7FEE7E0
:1062E000FEE7FEE7FEE7FEE7FEE7FEE7FEE7FEE786
:1062F000F0B595B000241D460E460846174602F03C
:1063000089FA304623460822099505A91A9D08975F
:106310000D950A948DF82C400C9402F0DFFA9DF84C
:1063200014308DF81140DDE9061003F00302012A54
:10633000CDE9020128D0022A04D0304602F06EFADC
:1063400015B0F0BDBDF81650C3F3C2038DF8103080
:10635000C5F389150827082D2C4628BF08243B467D
:1063600022460EA9304602F0B9FA2D1B214608AB91
:1063700002AA0EA8274400F0C9FD002DEBD130463B
:1063800002F04CFA15B0F0BDBDF81470059DC7F3CE
:106390008312C3F3C2040EA93046920008238DF87D
:1063A0001040C7F3831702F099FAC5F3952508AB9F
:1063B0003A4628460EA9009302AB00F02FFD304666
:1063C00002F02CFA15B0F0BD014B01221A70704793
:1063D00020240020704700BF00B583B0044B009319
:1063E000044A4023FFF784FF03B05DF804FB00BFBD
:1063F000F9630200E023002038B50E480E4D037803
:106400000E4CEB5C00252570D2B253B1043003F082
:10641000F1FF58B90A4B1B7813B12378002BFCD03D
:1064200038BD0C3003F03CFD0028F3D000F0FCFF39
:10643000F0E700BFF0220020BC2C00202024002028
:10644000DC2300202DE9704319481A4A0378D35CF5
:1064500088B02BB3043003F02DFF174D0FCD6C46E1
:106460000FC495E80F004FF0EB7684E80F004FF073
:1064700006084FF0FF394FF0FF344FF0FF350C485E
:10648000069600226946CDE90089CDE9024502F071
:1064900001FE48B9094B00221A7008B0BDE87083AC
:1064A0000C3003F08FFCD8E700F0BEFFF2E700BF2E
:1064B000F0220020BC2C002008BF0200DC230020BA
:1064C000F0B5154D0FCD89B06C460FC495E80F009F
:1064D0004FF0EB7C84E80F0006264FF0FF374FF0BB
:1064E000FF344FF0FF350D4A0D48CDF818C069460E
:1064F000CDE90067CDE9024502F0CCFD20B9094B9A
:1065000001221A7009B0F0BD00F08EFF054B012288
:106510001A7009B0F0BD00BF08BF0200C9630200D5
:10652000F0220020DC23002008B5FFF7C9FF044853
:10653000042100F0F1FB034B01225A7108BD00BF9A
:10654000F8CC020004230020064B074810B50022B7
:106550001A7002F013F9044610B9044802F034FA34
:10656000204610BDF42400206CCC020060BF020065
:1065700099B10E4B0E495B1ADB0815D030B40022DE
:106580000C4D02E0013293420BD035F82240844298
:10659000F8D151F8320030BC7047054951F830004D
:1065A0007047002030BC704718467047F8CC020096
:1065B00080CC0200C0230020094B013903EBC0004E
:1065C00003290BD8DFE801F0040208060420704715
:1065D000022070474079704700797047002070476B
:1065E00080CC0200704700BF2DE9F0438C4CD4E909
:1065F00001239A4285B060D00023C4F81834BFF359
:106600004F8FA568EAB2D31C04EB830114F8233042
:10661000580718D566680B7803F00303012B42D0A6
:10662000022B03D14B88023505EB9315EAB2D4F85F
:106630001804D31C04EB830128B9AE4239D914F8ED
:1066400023305B07E7D404EB82026B1CD268019213
:10665000DBB204EB830302F00302DB680293022A3D
:1066600005F102062DD0012A00F08D80D4F81054D7
:106670003DB12B6828469B689847EB681D68002D44
:10668000F7D16848684B6949C01AC008000440F057
:10669000020000F0D1F8D4E90130C01A18BF01207F
:1066A00005B0BDE8F0830B880235C3F383131D44A6
:1066B000BCE7A66005B0BDE8F083002005B0BDE8EA
:1066C000F083BDF806305A48C3F389184546502D6B
:1066D00028BF502565F38F1305F10801ADF806308A
:1066E00002F04EF807460028C0D002F093F80023CD
:1066F00001A90822384602F0BDF8F343DBB20133AA
:10670000B5EB830F4FEA8309F1B277D9A5EB090501
:10671000033104EB810108234A463846EDB202F00A
:10672000A9F844492A4609F10803384602F0A2F8BC
:1067300008F1030806EB9806D4F81834002B6AD148
:10674000D4F8105465B1EB685A7928463946002AC6
:106750005DD02B681B689847EB681D68002DF2D14F
:10676000384602F05BF800230DF103008DF803308A
:1067700001F044F9D4F8183403B9A6609DF8030079
:1067800001F062F987E7BDF804302948C3F38312AA
:10679000062A28BF0622911C62F389138900ADF8EE
:1067A000043001F0EDFF074600283FF45FAF02F030
:1067B00031F80023082201A9384602F05BF8BDF841
:1067C000043013F4707FB7D06FF00108A8EB050810
:1067D0000825F1B203312B46042204EB810138462F
:1067E00002F048F8BDF80420013608EB0603C2F3B6
:1067F00083129A4205F10405EBD89DE703312A463E
:1068000004EB81010823384602F034F890E71D6854
:10681000002D98D1A4E7384602F000F83BE700BF0E
:10682000F4240020A8CC020080CC020048BF020063
:106830006CCC0200002500202DE9F04F5F4C87B0A2
:10684000002306460DF10B008DF80B300F4601F0CA
:10685000D5F8D4E9015303F580735B1B012B7DD878
:1068600004F21C4804F5836A04F214491AE0BDF8E6
:106870000E30C3F389130333090C0BEB930B48461B
:10688000019101F063FB0199002839D04046C4F81A
:1068900008B001F02FFBD4E9013202F58072D21A60
:1068A000012A5CD80121404601F024FB504601F04A
:1068B0003DFB484601F03AFBA368DAB2D11C04EB79
:1068C000810014F8211001F0040C490728D404EBCE
:1068D0008202591CD2680392C9B204EB810102F012
:1068E0000302012AC96803F1020B30D0022ABED08C
:1068F00000214846019101F029FB01990028C5D1EA
:106900004046C6E743880EEB9313DAB2D11C04EB82
:10691000810014F8211001F0040CBCF1000FD6D056
:10692000017801F0030101290BD0022903F1020EC5
:1069300002F10301E6D004EB8100BCF1000FEFD1BE
:10694000C5E702880233C2F383121344DDE7BDF8C2
:106950000C30C3F38313090C9B4490E72B46DAB247
:106960000332023305219DF80B0044F822106360C6
:1069700001F06AF80021124801F092FA80F3100049
:10698000F1006B1C01F03801DBB2EDB204EB8303C4
:1069900041F001010004033540EA164641EA872729
:1069A000DE6044F8257023781BB1FFF71DFE002838
:1069B000FBD1FFF717FE07B0BDE8F08FF4240020ED
:1069C000102900202DE9F04F644C87B000230646C3
:1069D0000DF10B008DF80B300F46904601F00EF8CC
:1069E000D4E9015303F580735B1B022B7FD804F2BB
:1069F0001C4904F5836B04F2144A1BE0BDF80E2019
:106A0000C2F389120332090C03EB92035046CDE91D
:106A1000003101F09BFA019900283AD0009BA36055
:106A2000484601F067FAD4E9013202F58072D21AC1
:106A3000022A5DD80121484601F05CFA584601F06F
:106A400075FA504601F072FAA368DAB2D11C04EB71
:106A5000810014F8211001F0040C490729D404EB3B
:106A60008202591CD2680392C9B204EB810102F080
:106A70000302012AC96803F1020331D0022ABDD002
:106A800000215046CDE9003101F060FA019900285B
:106A9000C4D14846C5E743880EEB9313DAB2D11C44
:106AA00004EB810014F8211001F0040CBCF1000F7C
:106AB000D5D0017801F0030101290BD0022903F19F
:106AC000020E02F10301E6D004EB8100BCF1000FDD
:106AD000EFD1C4E702880233C2F383121344DDE727
:106AE000BDF80C20C2F38312090C13448EE72B4629
:106AF000DAB20332033345219DF80B0044F822102B
:106B0000636000F0A1FFAB1CDBB204EB8303002148
:106B10001348C3F80C8001F0C3F980F31000F100B2
:106B20006B1C01F03801DBB2EDB204EB830341F0E2
:106B300041010004033540EA164641EA8727DE603A
:106B400044F8257023781BB1FFF74EFD0028FBD1D8
:106B5000FFF748FD07B0BDE8F08F00BFF424002028
:106B6000102900202DE9F04F694C89B00025064618
:106B70000DF113001F468DF813508846039200F064
:106B80003DFFD4E9015303F580735B1B032B00F237
:106B9000828004F21C4904F5836B04F2144A1BE062
:106BA000BDF81620C2F389120332090C03EB9203DD
:106BB0005046CDE9013101F0C9F9029900283BD0D6
:106BC000019BA360484601F095F9D4E9013202F532
:106BD0008072D21A032A5FD80121484601F08AF94F
:106BE000584601F0A3F9504601F0A0F9A368DAB2C3
:106BF000D11C04EB810014F821C01CF0040F0CF030
:106C0000040128D104EB8202591CD2680592C9B252
:106C100004EB810102F00302012AC96803F10203B7
:106C200032D0022ABCD000215046CDE9013101F01A
:106C30008DF902990028C3D14846C4E743880EEB7A
:106C40009313DAB2D11C04EB810014F8211001F087
:106C500004010029D6D090F800C00CF0030CBCF160
:106C6000010F0BD0BCF1020F03F1020E02F1030C75
:106C7000E4D004EB8C000029EDD1C3E70288023395
:106C8000C2F383121344DCE7BDF81420C2F383126D
:106C9000090C13448CE72B46DAB203320433852106
:106CA0009DF8130044F82210636000F0CDFEAA1C8A
:106CB000EB1CDBB2D2B204EB830C04EB8202039B2D
:106CC0001448D3600021CCF80C7001F0E9F880F38F
:106CD0001000F1006B1C01F03801DBB2EDB204EBE7
:106CE000830341F081010004033540EA164641EA7E
:106CF0008821DE6044F8251023781BB1FFF774FC6F
:106D00000028FBD1FFF76EFC09B0BDE8F08F00BF93
:106D1000F42400201029002030B4154DD5F81014AB
:106D20000446002071B10B4601E01B6853B1DB68DB
:106D30001A798242F9D101300A28F3D14FF0FF309D
:106D400030BC7047E3681871D5F810344BB1DA687D
:106D5000E36812681A60D5F81034DB681C6030BC38
:106D60007047C5F81044E268136030BC704700BF3C
:106D7000F424002038B5084BD3F8104401251D70C9
:106D80004CB1E3685D71236820465B689847E3680F
:106D90001C68002CF5D138BDF424002030B5C38820
:106DA00085B004460D461BBB217A05291ED0627AA8
:106DB00082B9134AA08852F8212003920021FFF7DC
:106DC000D7FB039A0F490346284605B0BDE830407B
:106DD00001F038B9A088FFF7EFFB0B4B0B4953F8D4
:106DE0002020284601F02EF9217AE2E705B030BDD7
:106DF000074A00920749084A284601F023F9D3E7D9
:106E000038C0020098BF020014C0020094BF020004
:106E10008CBF020074BF02006CBF02002DE9F0437A
:106E200085B04FF0000C0C9C814694F80C8084F8DF
:106E30000CC00E461746184621461D46FFF7AEFF0A
:106E4000062F09D8DFE807F0042E343B444F1F001B
:106E50004946204601F0F6F82B7A052B05D06B7ACF
:106E60005BB92749204601F0EDF8204601F0DEF835
:106E700084F80C8005B0BDE8F083224A2249204600
:106E800001F0E0F8EDE7D6E90413F2680393B36884
:106E90000291CDE900324946D6E90023204601F0AF
:106EA000D1F8D9E732684946204601F0CBF8D3E75C
:106EB000D6E900234946204601F0C4F8CCE7B36880
:106EC0000093D6E900234946204601F0BBF8C3E70A
:106ED000D6E9023201920093D6E9002349462046C2
:106EE00001F0B0F8B8E7D6E90321B3680291CDE923
:106EF00000324946D6E90023204601F0A3F8ABE76B
:106F0000A4BF02008CBF020094BF0200082900D970
:106F100070472DE9F04F9B4683B000241B7B8BF814
:106F20000C400D4606465946104690460193DFF840
:106F3000D0902C4FFFF732FF05E0325D013401F0B5
:106F400081F8082C09D0A54239465846F5D849465B
:106F5000013401F077F8082CF5D12349DFF8A4902B
:106F6000224C234F584601F06DF84FF0000A0DE017
:106F7000D15D11F0970F08BF2E22214658460AF125
:106F8000010A01F05FF8BAF1080F10D0554505D994
:106F900016F80A207E2AEBD92E22EEE749465846FB
:106FA0000AF1010A01F04EF8BAF1080FEED198F893
:106FB0000830052B02D098F8093063B90D495846BE
:106FC00001F040F8584601F031F8019B8BF80C3085
:106FD00003B0BDE8F08F084A0849584601F032F87E
:106FE000ECE700BFA8BF0200B4BF0200B8BF0200B8
:106FF00011CB0200A4BF02008CBF020094BF0200AC
:10700000B0BF0200A0BF020038B5174B1D783DB3DA
:10701000164B1968C0B200230C4604E00133AB42A2
:1070200004F108041CD011F833209042F6D102F08C
:10703000AFFA6378A3F10103B3FA83F35B098342E8
:1070400000D038BD0A4BD3E900231343F9D1094BD3
:10705000094819680022BDE83840490800F032BCF0
:1070600000231B78FFDE00BFAC290020D0290020C0
:10707000B8290020B0290020102300202DE9F04F6E
:10708000DFF8548298F8003083B0002B00F01981AB
:10709000DFF848928C4F8D4E00254FF0010A3C6876
:1070A00014F8350002F074FA04EBC50314F8354007
:1070B0005B784FEA540C14F0010E16F80C10A3F193
:1070C0000103B3FA83F314BF0A0901F00F025B094D
:1070D000042A00F2A080DFE802F0725D3220030093
:1070E000834240F0AB80BEF1000F0CBFF0230F23B2
:1070F00003EA01030CBF03213021194306F80C10E9
:1071000098F8002001359542C9DBD9E900231343E3
:1071100040F0CD8003B0BDE8F08F83427BD0BEF15C
:10712000000F0CBFF0230F2303EA01030CBF04215F
:107130004021194306F80C1098F80020E2E783423A
:107140006CD1BEF1000F0CBFF0230F2303EA010343
:1071500098F800200CBF03213021194306F80C10C9
:10716000002AD2D0D7F800C00023614603E0934242
:1071700001F10801C6D01CF83300A04203F101035D
:10718000F5D14B68002BBDD020460121984798F8D7
:107190000020B7E7834219BF0020034602232020C6
:1071A000BEF1000F0CBFF0220F2201EA020118BF4E
:1071B00003460B4306F80C3098F80020A2E7834200
:1071C00029D1BEF1000F14BF0F23F02303EA0103FE
:1071D00014BF1021012119430DF107004FF00003E6
:1071E00006F80C108DF8073000F008FCD9E90032E1
:1071F000A4F12001C4F120000AFA01F12AFA00F0FA
:1072000001430AFA04F4114323439DF80700C9E936
:10721000003100F019FC98F8002073E7BEF1000F70
:107220000CBFF0230F2303EA01030CBF012110213F
:10723000194306F80C1098F8002063E7BEF1000F20
:1072400014BF0F23F02398F80000194006F80C1023
:1072500098B1D7F800C00023624603E0834202F1F0
:1072600008020AD01CF83310A14203F10103F5D142
:10727000536813B10021204698474FF000030DF1E9
:1072800007008DF8073000F0B9FBD9E90032A4F10E
:107290002001C4F120000AFA01F12AFA00F00143AA
:1072A0000AFA04F422EA010123EA0403ADE7084BD9
:1072B000084819680022490800F004FB03B0BDE843
:1072C000F08FDFF8189020E7D0290020C029002097
:1072D000B029002010230020AC290020B82900206C
:1072E000092A43D92DE9F04182B0144606460D46DD
:1072F00001F0D0FF002832D0214A2249224B1660EB
:107300000D7022481C600021102204F0DFFD204B8C
:10731000002000216C1EC3E90001E4B245B3DFF890
:107320007C8006EBC404032702E0A64220D01C4662
:107330009DF80630A57820788DF8047023F00703B7
:10734000424601A98DF806308DF8055001F0ACFFDA
:10735000A4F108030028E8D002B0BDE8F08101F0F4
:1073600049FF0028C8D002B0BDE8F081072070476F
:10737000084A0948002100F08FFA02B0BDE8F08108
:10738000D0290020AC290020B0290020C0290020ED
:10739000B82900207D70020058C002000970020068
:1073A00070B5084D2B785BB1074E0024336801217E
:1073B00013F8340002F05CF82B780134A342F5D8BE
:1073C000002070BDAC290020D029002070B5124DDE
:1073D0002B7882B053B1114E0024336813F8340077
:1073E00002F0A4F82B780134A342F6D800230DF163
:1073F00007008DF8073000F001FB094B9DF80700EE
:1074000000240025C3E9004500F01EFB054800F0FC
:10741000B7FA02B070BD00BFAC290020D02900200F
:10742000B82900201023002000B585B003460021B4
:1074300001AA44F20100CDE90111039300F004F820
:1074400005B05DF804FB00BF10B572B6FFF792FC03
:10745000FFF7CAF80028FBD1104B114C1149E41A70
:10746000E408240444F00100FFF7E6F90E4B1B6822
:10747000DB0700D500BE0D4944F00200FFF7DCF940
:10748000BFF34F8F0A490B4BCA6802F4E062134303
:10749000CB60BFF34F8F00BFFDE700BF80CC020081
:1074A000A8CC02005CC00200F0ED00E068C0020061
:1074B00000ED00E00400FA05D0E90223D1E9020161
:1074C000994208BF90422CBF01200020704700BFA6
:1074D00010B5044682B000230DF107008DF8073087
:1074E00000F08CFA23692BB94FF0FF324FF0FF33D5
:1074F000C4E902239DF8070000F0A6FAD4E905309C
:10750000984700230DF107008DF8073000F076FA58
:107510002369B3B1D4E902014A1C08BFB0F1FF3FAF
:107520000FD0C01841F10001C4E902019DF8070025
:1075300000F08AFA0648214601F06AFA012002B0FA
:1075400010BD9DF8070000F07FFA002002B010BDCA
:1075500088C002002DE9F04F87B0064600F0A0FB7E
:1075600040B1AA4AD2E9003113F1807341F1000120
:10757000C2E900310021304600F0AEFBA44C60B3FC
:10758000236853B3A34B25681B7823B31DB3A248CC
:1075900000F0B2FB9D4BA149D3E90023D1E900895A
:1075A000121843F100034B4508BF424503D212F1C4
:1075B000807243F10003D5E902018B4208BF824289
:1075C00080F02081013108BFB0F1FF3F03D0944823
:1075D000294601F01DFA002323600121304600F006
:1075E0007BFB002840F0F2808E4805A900F0FAFBF2
:1075F00078B38C4D4FF0FF384FF0FF390BE0002B84
:1076000000F0958005A9284600F01CFC05A9284635
:1076100000F0E8FBE8B10378012B11D0022BEED18A
:107620007F4F384601F008FA30B1C0E90289384688
:1076300001F002FA0028F8D1764B01221A70E1E736
:1076400041682368994200F0B680754801F0FEF960
:10765000D8E7DFF8CC81704FDFF8B091404601F0F9
:10766000F1F9002859D0D0E90223591C08BFB2F122
:10767000FF3F58D0216891B12168D1E902018B42C6
:1076800008BF82424CD22368D3E90223013308BFEA
:10769000B2F1FF3F03D02168404601F0B9F94046FE
:1076A00001F0CAF905463846AA68EB6803920293CE
:1076B00000F022FBD9E900AB584BD3E900231AEBC9
:1076C000000A4BF1000B9B4508BF9245DDE90232F1
:1076D00003D21AF1807A4BF1000BB2EB0A0163EB93
:1076E0000B0301930091DDE90001012871F1000312
:1076F0002ADBB0F5350F58D24FF4960300213846F7
:1077000000F048FA00284AD00D2821D00023404636
:10771000236001F097F90028A5D12368002B6DD0D4
:1077200007B0BDE8F08F404601F086F996E7416862
:10773000D1E90223013308BFB2F1FF3F3FF462AF4A
:10774000374801F065F95DE70021384600F0B8FAE6
:10775000304B1B78002BD9D0384600F0CDFAD9E950
:1077600000232E49D1E900AB121843F100035B4519
:1077700008BF524503D212F1807243F10003D5E9EC
:1077800002018B4208BF82421CD2013108BFB0F116
:10779000FF3FBBD02946404601F03AF9B6E72368DF
:1077A00063B1256007B0BDE8F08F384600F0A4FA59
:1077B0001D4A0244A0E70023236023E7304600F07F
:1077C000BBF9EEE72846FFF783FE9FE71248134D0B
:1077D00000F092FA0D4BD3E90089D5E9002318EBAC
:1077E000000849F10009994508BF904503D218F1F6
:1077F000807849F10009C5E90089F5E6304600F0D6
:107800009FF98DE72846FFF763FEE4E6D8290020BC
:10781000582A0020E029002030230020502A002090
:1078200088C002003C2A0020FFFFB40010B5134BB3
:1078300013491B68134882B058220193082300F0B3
:107840007BFA044610B1204602B010BD0E4A0F4824
:1078500001A900F011F904460028F4D10B480121D8
:1078600000F014FA01231946094A084800F06CF99F
:10787000084B012220461A7002B010BD84C00200DD
:10788000E42900203C2A0020557502003023002006
:10789000FFFF7F00E02900208AB130B4A1F101018F
:1078A0000368B1FA81F14FF0FF344FF0FF35490919
:1078B000C3E90412C3E90245002030BC7047072029
:1078C000704700BF2DE9F04383B00546002401A8AE
:1078D00017460E468DF8044000F090F8D5E90223D3
:1078E000013308BFB2F1FF3F07D09DF8040000F05C
:1078F000ABF8204603B0BDE8F0831D4800F0FCF96A
:107900001C4B1D49D3E90023D1E90089121843F12A
:1079100000034B4508BF424525D3921943F10003AC
:10792000C5E902239DF8040000F08EF82B69AF61D1
:1079300003B12E61114801A900F016FA78B10024B4
:107940004560047001A90D4800F03CFA0028D1D030
:10795000074800F0D5F9204603B0BDE8F0830420C5
:1079600003B0BDE8F08312F180726341D5E700BF38
:1079700030230020D8290020502A00203C2A002053
:1079800030B583B00446002501A88DF8045000F0FE
:1079900035F8D4E90223013308BFB2F1FF3F1BD011
:1079A0004FF0FF324FF0FF339DF80400C4E902238B
:1079B00000F04AF80F4801A900F0D6F948B10123B8
:1079C0004460037001A90B4800F0FCF958B903B0FA
:1079D00030BD042003B030BD9DF8040000F034F841
:1079E000284603B030BD044800F08AF9284603B0A9
:1079F00030BD00BF3C2A00203023002070B4EFF3DC
:107A0000108472B60D4B9A68AAB90D490D4E012526
:107A10009D60D1F8805035401D60C1F88060D1F87C
:107A200084505D604FF0FF33C1F88430027004B9B8
:107A300062B670BC704701230370F8E7B02C0020D9
:107A400000E100E0FC06FFBD094B9A687AB170B90D
:107A500010B4EFF3108172B6064A1C6814605C68BB
:107A60005460986001B962B65DF8044B7047704786
:107A7000B02C002000E100E070B5274C4379274E80
:107A800004EBC30546F823202D79002D37D1036878
:107A90000A88C3F8082590F904308A78002B26DB81
:107AA00003F1604303F561435201D2B283F800232E
:107AB00090F90430002B07DB194903F01F05012260
:107AC0005B09AA4041F823204279164B164D44F831
:107AD0003200581B04EBC204C00801230004134900
:107AE000237140F00300FEF7A7FE002070BD10498F
:107AF00003F00F0352011944D2B20A76D8E70A4BB9
:107B000008480C49C01AC008000440F00200FEF703
:107B100093FE082070BD00BF5C2A0020642A00206C
:107B200000E100E0B8CC020080CC0200B8C0020046
:107B3000FCEC00E094C00200036801221A60704768
:107B4000036801225A607047F0B404684FF480352E
:107B50008D40C4F80853066801F15004C6F8485334
:107B6000A4000668A4B20027375182B036590468D1
:107B7000019601F5A87122F07F42019E44F8212070
:107B80000268C2F8445313B10368C3F8045302B047
:107B9000F0BC70472DE9F04704464FF4803600688A
:107BA0008E40C0F848632068C0F80863206800EB86
:107BB00081058A46D0F80415D5F84005C5F840156A
:107BC0000AF15005AD002768ADB24FF0000847F844
:107BD000058082B0401A7F59009720F07F4001282D
:107BE00022F07F479946009A41D02268D2F8045586
:107BF000C2F844637A1B22F07F42012A0AF5A87179
:107C000025D0226842F821702068D0F804557A1BEC
:107C1000C9F1FF13013A03F57F4322F07F429342FB
:107C200011D342B1C0F8446323680020C3F8046351
:107C300002B0BDE8F087013740F821702068D0F825
:107C400004359D42EED00D2002B0BDE8F0872068DB
:107C50000D4B013740F8217043F001034FF4806071
:107C600098472068D0F804359D42DBD0EBE7064A00
:107C70004FF4806042F001029047226842F805808C
:107C800052590192019AB0E7D0C002000268022363
:107C9000C2F8443311B10268C2F80433704700BF20
:107CA0000368D3F8040100B97047002282B0C3F81A
:107CB0000421D3F804310193019B012002B07047E5
:107CC00002684FF4803303FA01F1C2F848130368E5
:107CD000C3F80813704700BF50318900036889B2A8
:107CE000585800B9704700225A5082B05B5801932F
:107CF000019B012002B070470368D3F80405704768
:107D000090F90430002B09DB5A090548403203F092
:107D10001F03012101FA03F340F82230704700BF2E
:107D200000E100E0024A034B10681B68184700BFDF
:107D30005C2A0020642A002099B110B4B2FBF3F44D
:107D400003FB1424A4B244B9C0E900148460828106
:107D5000C38120465DF8044B704709205DF8044B51
:107D600070470E20704700BF30B482B050E8013F2A
:107D70009DB2C48925448489A54228BF2D1B04894E
:107D8000A54202BFBFF32F8F002207E0C5EA03051B
:107D900040E80154002CE9D14FF001028DF8032096
:107DA0000193019B9DF803200B602AB10B880068AA
:107DB000184402B030BC704702F0FF03184602B00E
:107DC00030BC70470A884B889A4201D00020704727
:107DD00050E8012FC2EA024240E80123002BF7D10C
:107DE0000120704730B482B050E8023F1FFAA3F57B
:107DF000C488A54202BFBFF32F8F00220DE0C489C3
:107E000025448489A54228BF2D1BC3EA054540E8C7
:107E10000254002CE8D14FF001028DF803200193A9
:107E2000019B9DF803200B602AB14B880068184421
:107E300002B030BC704702F0FF03184602B030BCFD
:107E4000704700BF0A884B889A4201D000207047D3
:107E500050E8022FC2EA224240E80223002BF7D169
:107E6000012070474A09012301F01F0100EB820045
:107E700003FA01F100F022B801F01F0201234909C1
:107E8000934000EB8100D94300F026B84B0901F084
:107E90001F0150F82300C84000F00100704700BFE8
:107EA00010B4034653E8000F0A4643E8002494F058
:107EB000000FF7D15DF8044B704700BF10B40346C4
:107EC00053E8002F42EA010043E8000494F0000F59
:107ED000F6D15DF8044B704710B4034653E8002F09
:107EE00002EA010043E8000494F0000FF6D15DF8C7
:107EF000044B704710B4034653E8002F02EB010017
:107F000043E8000494F0000FF6D15DF8044B70478D
:107F100010B4034653E8002FA2EB010043E800042D
:107F200094F0000FF6D15DF8044B704710B403468F
:107F3000012253E8001F41EA020043E8000494F0E4
:107F4000000FF6D15DF8044B704700BF10B4034634
:107F5000002253E8000F00EA020143E8001494F005
:107F6000000FF6D15DF8044B704700BFB8B130B4D4
:107F7000D0E90112521A0468D2B2531E2160DBB25A
:107F800042B101680A685C1E551C0D601370E3B2B3
:107F9000FF2BF6D103680020187130BC70470E200B
:107FA000704700BFF0B583B0044600250DF107000F
:107FB0008DF80750FFF722FDD4E900311A688A4294
:107FC00010D9511E19602168A3680F6812F8015C6E
:107FD0000A79268AE068DB1BDBB29A4206FB0505BC
:107FE00038BF0B719DF80700FFF72EFD284603B040
:107FF000F0BD00BF30B5054683B000230DF107008A
:108000000C468DF80730FFF7F9FC2A681368591CF5
:108010001160E9682A8A641AB4FBF2F41C709DF8B6
:108020000700FFF711FD03B030BD00BF826842B109
:1080300010B5044643690168006998470023A360AE
:1080400010BD70470EB400B582B0039921B104ABE6
:1080500001AA019300F0ACF802B05DF804EB03B0A4
:10806000704700BF2DE9F04F164683B0B142DDE9FD
:108070000C920F4605469A46C0F095800B464FF08D
:108080000108B3FBF6F39E4208F10108F9D9D04587
:1080900038BFD04612F00103019302D1B9F1000FAD
:1080A0005ED1AA68012403E00AF1FF3A06FB04F45A
:1080B000BAF1010FF8D8B7FBF4F39E42F6D9DFF816
:1080C000ECA007E0B442B4FBF6F31AD3AA681C464E
:1080D000B7FBF3F31AF803B0BBF10A0F04FB1377F5
:1080E00028D02B68511CA96003F802B0D5E90132F1
:1080F0009A42E7D32846FFF799FFB4FBF6F3B44260
:10810000E4D2019B9BB1B9F1000F10D02024C845E7
:1081100009F1FF390BD2AB682A68591CA960D45405
:10812000D5E901329A4214D2B9F1000FEFD103B070
:10813000BDE8F08F511C2B68A9604FF00D019954D8
:10814000D5E901329A42CCD32846FFF76FFFAA68DF
:10815000C7E72846FFF76AFFB9F1000FD7D1E6E776
:1081600093071AD42024AA68C84502F1010199D2C4
:108170002B68A9609C54D5E901329A4209F1FF3974
:1081800003D2B9F1000FEFD18CE72846FFF74EFF7D
:10819000AA68B9F1000FE7D184E7BAF1000F0CBF6C
:1081A00030242024DFE74FF0010870E7D8C0020038
:1081B000002900F054822DE9F04FDFF8B8950C78D3
:1081C00085B0064690460D464FF00D0A10E00A2C89
:1081D000B36800F0AD803268591CB160D454D6E960
:1081E00001329A4280F0A0802C78002C00F0878029
:1081F0000135002C00F08380252CE8D1294600278A
:108200000D4611F8012B2D2A00F08880302A00F04D
:1082100088802B2A7AD02A2A00F09980A2F1300394
:10822000092B4FF000040BD804EB840402EB440448
:1082300015F8012FA2F13003092BA4F13004F3D972
:108240002E2A00F09080002301E015F8012F02F0A3
:10825000FB016829F9D0252A00F07781583AD1B27C
:10826000202947D8202A45D8DFE812F035014400FC
:1082700044004400440044004400440044004400DE
:10828000440043011301440044004400440013012E
:10829000440044004400440044004400D200440030
:1082A0004400A20044009400440044003501012031
:1082B0009842024638BF1A460292002C40F0508184
:1082C000B80740F16E81002B40F04E821C46BBF196
:1082D000000FC0F20A827A0700F11A8207F0030247
:1082E000022A00F0EA81CDE9004759460A223046C9
:1082F000FFF7B8FE01352C78002C7FF479AF337B83
:10830000002B40F01C8105B0BDE8F08F0D4611F840
:10831000012B2D2A47F004077FF478AF47F00107BF
:108320006EE747F002076BE73046FFF77FFE5BE73B
:108330003268591CB16002F803A0D6E901239342C8
:10834000FFF449AF3046FFF771FEB36843E7D8F852
:1083500000301A1DC8F800206A781C682E2A05F122
:1083600001057FF470AF6A78A2F13003092B05F1A3
:1083700001054FF000033FF66AAF03EB830302EB06
:10838000430315F8012FA2F130010929A3F13003AD
:10839000F3D95CE7D8F80020111DC8F80010116867
:1083A0003046CDE900470A22FFF75CFE0135A2E71F
:1083B000D8F800301A1DC8F8002017F00107D3F8CC
:1083C00000B040F0F080BBF1000F03D0584603F03E
:1083D00085FD0746BC4240F24381002C00F04081FD
:1083E000202205E0BC4200F03B81002C00F03881E7
:1083F000B1683368481CB0605A54D6E901309842DD
:1084000004F1FF34EED33046FFF710FE2022E9E7F7
:10841000D8F80020131DC8F80030B3683168176819
:10842000581C3022B060CA54D6E90123934280F030
:10843000EF803268581C7821B060D154D6E90132FF
:108440009A4280F0E0800F2F03D93B461B090F2B87
:10845000FCD84FF0805406E00F2C4FEA14137FF63F
:1084600049AFB2681C46B7FBF4F319F803B0BBF18F
:108470000A0F04FB137754D03368511CB16003F822
:1084800002B0D6E901329A42E6D33046FFF7CEFD7C
:10849000E2E7D8F80020111DC8F80010D2F800B0AB
:1084A0008BEAEB72A2EBEB72092A7FF700AFDFF8E1
:1084B000C8C2012011466329ACFB02E200F10100B1
:1084C0004FEAD202F6DC9842024638BF1A460292C0
:1084D000002C45D1F4E6D8F80020111DC8F8001092
:1084E00011683046CDE900471022FFF7BBFD01358A
:1084F00001E7D8F800301A1DC8F800201C78B368CE
:108500000A2C00F011813268591CB160D454D6E9AC
:1085100001329A42FFF4EEAE3046FFF787FD013597
:10852000E9E63368511CB16003F802A0D6E90132D4
:108530009A42A1D33046FFF779FDB2689CE73046F6
:1085400005B0BDE8F04FFFF771BDB3683168581C46
:10855000B060CA54D6E901329A42DDD20135CAE68A
:10856000BBF1000F59DB7A0757D4B80702D5002BAF
:108570003FF4ADAEF9073FF5AAAE94B120220299BF
:10858000A142BFF4A4AEB168481CB0603068425448
:10859000D6E90101814204F1FF3480F0D480002C3F
:1085A000EDD1002493E69BF80030002B00F0E08032
:1085B000B0685F46CBF101020A2B02EB070B3CD0FF
:1085C000411CB16031680B54D6E90130984226D283
:1085D00017F8013F002BEFD15C457FF68BAE2027CB
:1085E00002E05C453FF486AEB2683368511CB1606E
:1085F0009F54D6E901329A4204F1FF34F1D3304658
:10860000FFF714FDEDE73046FFF710FDB2681AE7FB
:108610003046FFF70BFDB3680BE7013CA5E730469A
:108620000292FFF703FD17F8013F002BD4D0029A06
:10863000B0680A2B02EB070BC2D1411CB160316854
:1086400001F800A0D6E901108842B9D33046CDE93F
:108650000232FFF7EBFCDDE90232B068B0E77047A9
:108660009BF80040002C3FF445AE0A2CB0680ED0B9
:108670003368421CB2601C54D6E90130984214D2CF
:108680001BF8014F002C3FF435AE0A2CF0D13368B3
:10869000421CB26003F800A0D6E901309842E7D34B
:1086A0003046FFF7C3FCB068E2E73046FFF7BEFC98
:1086B0001BF8014F002CD8D11CE6002B7FF413AE21
:1086C0008CB130220299A142BFF40DAEB168481CB2
:1086D000B06030684254D6E90101814204F1FF34B0
:1086E0003BD2002CEED10024FDE5B1684A1CB260FB
:1086F00032682D205054D6E901219142CBF1000B74
:10870000FFF4ECAD30460393FFF790FC039BE5E5E7
:10871000B1684A1CB26032682B205054D6E901215E
:108720009142FFF4DBADEDE73268591CB16002F80D
:1087300003A0D6E901239342FFF4E5AE3046FFF7EC
:1087400075FCB368DFE630460393FFF76FFC039BCD
:108750002022002C7FF413AF23E730460393FFF76A
:1087600065FC039B3022BCE7F9073FF5B0AD18E785
:108770009B4631E7D8C00200CDCCCCCCFFF7F6BB8E
:108780002DE9F041058A0331043D4E198046B6FBC0
:10879000F5F6FFF707FCA0B3F6B24FF48073013E85
:1087A0000446C580C0F8008083802BD00346002596
:1087B00008E06279AE4202F1010262713860C0F8ED
:1087C00000801FD040461F46FFF7ECFB01350346F3
:1087D0000028EED16779791E17D0224601339942DD
:1087E0001268FBD1D2F800805FB12668002501E055
:1087F00034463668214601354046FFF7FBFBAF4261
:10880000F6D800242046BDE8F08120682146FFF715
:10881000F1FBF6E704300121FFF76CBB2DE9F041D5
:10882000012104460430FFF773FB10F0FF0301D071
:10883000BDE8F0816779791E16D02246013399424E
:108840001268FBD1D2F80080002FF1D026680025F5
:1088500001E034463668214601354046FFF7CAFB41
:10886000AF42F6D8BDE8F08120682146BDE8F0416E
:10887000FFF7C0BB2DE9F8430546C688407914468A
:1088800006FB00F2043A04EB030C1F1D624538BFDF
:10889000D41ABE428846B7FBF6F106FB117002D827
:1088A00001392D68FCD1371AA74228BF27469CB151
:1088B0004FF000090430E41B28443A4608EB090154
:1088C00003F0F6FAA642B9442D6837464FF000008F
:1088D00028BF2746002CEDD1BDE8F8832DE9F843E9
:1088E0000546C6884079144606FB00F2043A04EBBC
:1088F000030C1F1D624538BFD41ABE428846B7FB21
:10890000F6F106FB117002D801392D68FCD1371A37
:10891000A74228BF27469CB14FF000090430291810
:10892000E41B3A4608EB090003F0C2FAA642B94438
:108930002D6837464FF0000028BF2746002CEDD1A8
:10894000BDE8F88341DF7047064A074B10B50024A5
:1089500014701C60BFF35F8F0449054800F042F8B3
:10896000204610BD702A0020742A0020F4C00200A6
:10897000682A002000B583B000230DF107008DF8B0
:108980000730FFF73BF8F1EE103A23F09F03E1EEDA
:10899000103ABFF35F8F0B4B4022C3F884219DF840
:1089A0000700FFF751F803F0C5F828B920BF40BF12
:1089B00020BF03B05DF804FBFFF7C4FF03B05DF810
:1089C00004FB00BF00E100E082680023936082683E
:1089D0001361826853618268D360826853608268E1
:1089E0001360704701600B6843604A68934204BF9C
:1089F00000234360704700BF436843B10268916839
:108A00000B4443605268934204BF002343607047A5
:108A100070B54468064620680D4618B908E0246819
:108A2000206828B1B368294698470028F7D1206804
:108A30002860256070BD00BF4368186808B10268EF
:108A40001A60704743681868704700BF4368186829
:108A500018B908E00346006828B18142FAD10A68D3
:108A60001A60012070477047114910B4A1F5947243
:108A700005E052F83330984238BF21460CD28C1AA8
:108A8000E30F03EBE4035B10914202EBC304F0D865
:108A900008485DF8044B704702D904F10802EEE77C
:108AA0006068044B5DF8044B002808BF1846704707
:108AB00034C60200F8C4020030B4B24B1B68591C23
:108AC00004BFB14B1B78062B05D1B04BB04A1B68D5
:108AD000C3F304231360AC4B1B78062B00F0FD801E
:108AE000A84B1B685A1C04BFA74B1B78062B05D14B
:108AF000A84BA94A1B68C3F342331360A24B1B78EF
:108B0000062B00F0D7809F4B1B685D1C04BF9E4B5B
:108B10001B78062B08D14FF080430022C3F80C21AC
:108B2000C3F81021C3F83825974B1B78062B00F0AB
:108B3000A180944B1A68541C24D0984B062A1B68B9
:108B400028D0974AD2F8883043F47003C2F88830AE
:108B5000BFF34F8FBFF36F8F8A4B1B68062B00F05C
:108B6000CD804FF01023D3F80022002AC0F24681B6
:108B7000D3F80432002BC0F241818A4B8A4A1A6032
:108B800030BC70478049894B09781B680629D8D1C9
:108B9000C3F30313033B042B40F2CA804FF080520F
:108BA000834BD2F80414C3F82015D2F80814C3F884
:108BB0002415D2F80C14C3F82815D2F81014C3F8F1
:108BC0002C15D2F81414C3F83015D2F81814C3F8C1
:108BD0003415D2F81C14C3F84015D2F82014C3F889
:108BE0004415D2F82414C3F84815D2F82814C3F851
:108BF0004C15D2F82C14C3F85015D2F83014C3F821
:108C00005415D2F83414C3F86015D2F83814C3F8E8
:108C10006415D2F83C14C3F86815D2F840145948CA
:108C2000C3F86C15D2F844140268C3F87015501CD0
:108C300000F0A280062A84D15E4B524A1B685E492E
:108C4000126803F04F030B60511C77D0062A7FF4A3
:108C500078AF4FF08043D3F80034DA077AD44F4B23
:108C60001B68033B042B5DD9544A136843F48063AB
:108C7000136066E74D4B1B68C3F30313033B042BE0
:108C80003FF657AF4E4AD25C12B14E4A03211160F3
:108C90004D4AD35C002B3FF44CAF4C4A4C4C4D49F1
:108CA0004D4B05201060012500203F222560086003
:108CB0001A603EE73D4B1B68C3F30313033B042BD1
:108CC0003FF621AF454AD35C002B3FF41CAF444A2A
:108CD000D36823F08073D36015E7344B1B68C3F36C
:108CE0000313033B042B3FF6FBAE3E4AD35C002B41
:108CF0003FF4F6AE3C4B3D4A1A60F1E6274B1B6849
:108D0000033B042B08D94FF010224FF08043D2F8D8
:108D10000822C3F8582524E7354AD35C002B3FF4DA
:108D200020AFF0E7334AD35C002B3FF40AAF9BE758
:108D30003149CB5C002B3FF47AAF2FE7124B1B7805
:108D4000062B7FF4FEAE4FF08043D3F80034DB07F0
:108D50007FF5F7AE0B4B1B684FF080426FF00101BF
:108D6000062BC2F800147FF4ECAE0C4B1B68033BDF
:108D7000042B3FF679AFD5E7034B1B78062B3FF466
:108D80005BAFDEE630010010E00F00F024030010BE
:108D900040350140440200103C0500403401001001
:108DA00000ED00E0382300200090D003E80F00F031
:108DB00000C0004058020010E40E00403C17004084
:108DC0004CC60200A00500404CC6020010560040F0
:108DD0008856004018560040145600404CC6020009
:108DE000F0ED00E04CC6020074C007400DF0ADBAD3
:108DF00044C602003CC6020034C60200184A0123E1
:108E0000C2F80435D2F80034002BFBD04FF0102309
:108E10001521134AC3F80012D2F80034002BFBD0FE
:108E20004FF0102315210E4AC3F80412D2F8003473
:108E3000002BFBD000230A49C2F80435D1F80034D6
:108E4000002BFBD0BFF34F8F0649074BCA6802F4D3
:108E5000E0621343CB60BFF34F8F00BFFDE700BF5D
:108E600000E0014000ED00E00400FA05044B195C4D
:108E70004FF0A04201238B40C2F80C35704700BF71
:108E800054C60200044B195C4FF0A04201238B40F2
:108E9000C2F80835704700BF54C60200C20730B49C
:108EA0001AD54FF0A0430322C3F844274FF40035EE
:108EB000C3F848274FF48024C3F84C274FF400210F
:108EC000C3F850274FF48012C3F80855C3F808457B
:108ED000C3F80815C3F8082583070AD54FF0A04347
:108EE0000C22C3F83427C3F83827C3F83C27C3F84B
:108EF000402730BC704700BF10B568B90E4CA3685E
:108F0000012262703BB1D3E900230020A2609847A0
:108F1000A368002BF7D110BD0128FCD1064C2369B2
:108F2000A070002BF7D0D3E90023012022619847DD
:108F30002369002BF7D110BD782A002070B910B535
:108F4000074CA368012262703BB1D3E900230020E3
:108F5000A2609847A368002BF7D110BD704700BFEF
:108F6000782A002030B5012883B004D0032821D00E
:108F7000B0B103B030BD294C00230DF107008DF8CE
:108F80000730FEF73BFD23786BB3E3689DF80700DD
:108F900001330122E360A270FEF756FD03B030BD3D
:108FA0001F4B0122C3F88020BFF34F8FBFF36F8F99
:108FB00003B030BD194C00F0B9F800230DF10700E3
:108FC0008DF80730FEF71AFDE368013BE360E368C4
:108FD0001BB9144BD3F80054C5B19DF80700FEF738
:108FE00033FD03B030BD10486360A3602361E360CC
:108FF00000F090F802F09EFD60B10A4A0123237050
:10900000D2F80024002AC0D0A370BEE700F0A0F878
:10901000A570E2E700F08AF8EFE700BF782A0020A9
:1090200000E100E000000140F98E020030B585B09B
:10903000047845688DF80040D0E90240064A074BA5
:10904000039053F82130019552F821108DF8084013
:109050006846984705B030BD8C2A0020902A002031
:1090600030B585B0047845688DF80040D0E90240FD
:10907000064A074B039053F82130019552F821100E
:109080008DF808406846984705B030BD8C2A00200E
:10909000902A0020F0B51A4B90F800C0194C1A4DD8
:1090A00091F81DE044F82C200746086945F82C008B
:1090B00003F80CE00C4616460FCC89B06D460FC580
:1090C00094E80F0085E80F00CDF810C0BEF1000F46
:1090D0000AD0002E0D4A694607F1040008BF324647
:1090E00000F0FAFF09B0F0BD002E094A694607F109
:1090F0000C0008BF324600F093FD09B0F0BD00BF80
:10910000BC2C0020902A00208C2A00202D900200E8
:1091100061900200044A137923B901211060918003
:109120001846704785207047942A0020074B1A681C
:10913000D20704D4C02283F8002301221A604FF022
:1091400080430122C3F81825704700BF00E100E00A
:1091500010B40B4B0B494FF0804200200224C2F8A0
:10916000084383B018601B680193012301980B60CA
:10917000D2F81834DB03FBD403B05DF8044B70471E
:10918000040100400C00004010B5174B1A6882B073
:1091900062B10021154A19601B68507900934FF0A5
:1091A00080410123009CC1F8083398B1104B1A6824
:1091B000BAB100221A601B6801934FF0804202216D
:1091C0000A4B0198C2F808131B68012002B0BDE8E1
:1091D00010401847116853718847054B1A68002AD8
:1091E000E7D102B010BD00BF00010040942A00206A
:1091F00004010040F0B5224C94F8583083B0002BA5
:109200003BD14FF0FF3121FA03F2D20748BFE218F9
:1092100003F1010348BF82F83010202BF3D14FF047
:10922000FF334FF0FF364FF0FF370422002115487F
:109230002365C4E90233C4E90433C4E90633C4E94D
:109240000833C4E90A33C4E9006702F03FFE0E4B5D
:10925000C02283F8062340221A600C4B0C4A0020DF
:1092600018601B680193019D01214FF0004384F8B1
:109270005810C2F8043303B0F0BD082003B0F0BDAD
:10928000A02A0020F42A002000E100E07C610040D8
:1092900000600040034B93F85800003818BF0120CD
:1092A000704700BFA02A0020F0B46F4B1D1895F93D
:1092B0003040002C61DA8C78A707C4F3400C53D4FB
:1092C0001C6A013400F0C8805C6A013400F0BD8083
:1092D0000C260A2453F82450013552D0651CB5429F
:1092E0003FD253F82570013700F0A780A51CB54286
:1092F00037D253F82570013700F09F80E71CB74242
:109300002FD253F8275001353AD0271DB74228D223
:1093100053F82750013533D0671DB74221D253F897
:10932000275001352CD0A71DB7421AD253F8275029
:10933000013525D0E71DB74213D253F82750013528
:109340001ED004F10807B7420BD253F8275001355D
:1093500016D00934B44204D2DC6A013408BF0B24AD
:109360000FD00420F0BC70471C68013467D05C68E3
:10937000013460D008260224ACE70820F0BC704716
:109380003C461E1865B243F8242086F83050BCF1E4
:10939000000F02D11C4484F848008A78540714D482
:1093A000D6073ED44C784FF0A04600F5E072A400FA
:1093B00046F822402D4EC40800F0070C375D01220C
:1093C00002FA0CF23A4332558A7812F002021CD0AB
:1093D000AB0003F1804303F5C0430978D3F810458F
:1093E00024F4473424F44074C3F8104502020904FD
:1093F000D3F8100501F4403102F4F8520A43024355
:10940000C3F810250020F0BC7047083D2B440878B5
:1094100093F8501041EA801183F850101046F0BCC8
:109420007047820002F1A042D2F8004724F0020403
:10943000C2F80047BEE70124A3E72C46A1E70024B9
:1094400085F830401A602546A7E7092685F8306080
:109450005A62344635469DE7082685F830601A6220
:109460003446354696E700BFA02A0020F42A0020A3
:1094700070B42C4C251883B095F93020072A1CDDD8
:10948000224492F848309B09032B40D0012B0CBF9B
:109490004FF400334FF44033800000F1A040D0F887
:1094A000002722F44032C0F80027D0F800271343E9
:1094B000C0F8003703B070BC7047D3B2072BF9D89F
:1094C000900000F1804000F5C04002F140039B0095
:1094D000D0F810659BB203F1804303F5C04346F01A
:1094E0000106C0F81065002018601B680193019BFD
:1094F0000029DFD095F9303054F82330002BD9D033
:109500000949012303FA02F2C1F80423D2E74FF01C
:10951000A043D3F81035C34003F0010302331B040A
:10952000BAE700BFA02A002000600040164B0344A9
:1095300093F93030072B0DDD800000F1A040D0F80A
:10954000003723F44033C0F80037D0F80037C0F8B4
:1095500000377047DAB2072A14D810B49A0002F123
:10956000804202F5C042094CD2F81005012120F0DA
:10957000010001FA03F3C2F81005C4F808335DF8DE
:10958000044B7047704700BFA02A002000600040D5
:109590004FF0A043D3F8103523FA00F000F001009B
:1095A000704700BFF0B585B0C84A00230193116829
:1095B000012900F0E7811E46C54B1A68012A00F018
:1095C000D381C44B1A68012A00F0C081C24B1A68CB
:1095D000012A00F0AD81C14B1A68012A00F09A817E
:1095E000BF4B1A68012A00F08781BE4B1A68012A16
:1095F00000F05D81BC4B1A68012A07D0BB4B1A688A
:10960000012A00F0CB81FEB905B0F0BDB84AD2F80E
:1096100004231206F2D500221A6019680291196E0D
:109620000298012903F1600346F080060CD11A600C
:109630001B6803934FF0A043039AD3F820250192AF
:10964000C3F8202546F00046AA4F00240125A300B8
:1096500003F180432E4203F5C0434FEA45050BD08A
:10966000D3F8100557F82420D3F81015C0F30420C0
:10967000C1F3014102B190470134082CE7D1002E1B
:10968000C2DA9C4C01254FF0A04694F95000471CCB
:109690003DD0C0F3C20204AB1A4400F0070312F835
:1096A0000C2C05FA03F31A42C1B200F03F002ED091
:1096B000830003F1A04305FA00FCD3F80027D3F898
:1096C000007727F44037C3F80077C2F30142D3F89C
:1096D0000077022A0CBF4FF4403E4FF4003E4EEAA2
:1096E000070E2718C3F800E7C6F820C597F93030F1
:1096F00054F823305BB18909032900F07181022AF3
:1097000000F06B81032A02D1022900F0698194F9EB
:109710005100411C3DD0C0F3C20204AB1A4400F01A
:10972000070312F80C2C05FA03F31A42C1B200F039
:109730003F002ED0830003F1A04305FA00FCD3F8CC
:109740000027D3F8007727F44037C3F80077C2F337
:109750000142D3F80077022A0CBF4FF4403E4FF489
:10976000003E4EEA070E2718C3F800E7C6F820C5EA
:1097700097F9303054F823305BB18909032900F0A0
:109780002581022A00F01F81032A02D1022900F05C
:109790001D8194F95200421C3DD0C0F3C20204ABBB
:1097A0001A4400F0070312F80C2C05FA03F31A42CE
:1097B000C1B200F03F002ED0830003F1A04305FAB0
:1097C00000FCD3F80027D3F8007727F44037C3F81C
:1097D0000077C2F30142D3F80077022A0CBF4FF49E
:1097E000403E4FF4003E4EEA070E2718C3F800E74C
:1097F000C6F820C597F9303054F823305BB1890999
:10980000032900F0DE80022A00F0D880032A02D16A
:10981000022900F0D68094F95300431C3DD0C0F3D8
:10982000C20204AB1A4400F0070312F80C2C05FA2C
:1098300003F31A42C1B200F03F002ED0830003F1BF
:10984000A04305FA00FCD3F80027D3F8007727F4EB
:109850004037C3F80077C2F30142D3F80077022AF9
:109860000CBF4FF4403E4FF4003E4EEA070E27185F
:10987000C3F800E7C6F820C597F9303054F8233014
:109880005BB18909032900F0A680022A00F0A080BC
:10989000032A02D1022900F09E80D6F820350193D8
:1098A000C6F82035002B7FF4F0AE05B0F0BD104AAD
:1098B000D2F8042351067FF59DAE00221A601B6882
:1098C0000293029B46F0400694E600BF0061004010
:1098D00004610040086100400C61004010610040DC
:1098E00014610040186100401C6100407C61004030
:1098F00000600040A02A00203A4AD2F804239006D3
:109900007FF573AE00221A601B680293029B46F03B
:1099100020066AE6334AD2F80423D4067FF560AE07
:1099200000221A601B680293029B46F0100657E65D
:109930002C4AD2F8042315077FF54DAE00221A6099
:109940001B680293029B46F0080644E6254AD2F8BB
:10995000042357077FF53AAE00221A601B68029372
:10996000029B46F0040631E61E4AD2F80423920711
:109970007FF527AE00221A601B680293029B46F017
:1099800002061EE61749D1F8046316F001063FF4FB
:1099900013AE136013680293029B0DE600221A6057
:1099A0001B6803934FF0A043039AD3F8202501923C
:1099B000C3F82025002E3FF464AE43E601297FF46E
:1099C0002AAF984727E701297FF4E3AE9847E0E6FE
:1099D00001297FF462AF98475FE701297FF497AED2
:1099E000984794E600600040014B1B68184700BF91
:1099F000FC2A0020114B98421DD130B583B00023C2
:109A00000DF107008DF807300D46FDF7F7FF0C4B01
:109A10001C794CB99DF807001D6001221A71FEF7F0
:109A200013F8204603B030BD9DF80700FEF70CF890
:109A3000112003B030BD0020704700BF002000405F
:109A4000FC2A0020034B984203D1034B00221A60EA
:109A50001A71704700200040FC2A002030B56E4A81
:109A6000D2F8043399058BB068D5D2F82431002B95
:109A700064D00023C2F82431D2F8243101934FF48A
:109A80000171664B0198C2F8081393F8291009B9BF
:109A900001215160604902228DF81820D1F88024FC
:109AA000C1F880249869D968099200240025CDE97D
:109AB0000710C3E90645D3E9001206A89047564AA5
:109AC000D2F81C31C3B1554B5869196A88426AD91A
:109AD00093F8281001F0FF00002964D1C2F81C019E
:109AE000D2F81C11039103999C68186A196A205CCA
:109AF00001311962C2F81C05474AD2F84431DBB182
:109B00000021464BC2F84411D2F8440193F82910C1
:109B10000090009809B1012111609A6962B1586AF8
:109B2000D96800229A610122CDE907108DF818202A
:109B300006A8D3E9001290470BB030BD364AD2F8E0
:109B400004335B07BBD5D2F80831002BB7D0334BB9
:109B5000996900293ED00021C2F80811D2F80811F5
:109B600004910499D868596AD2F8182542545A6A5F
:109B7000996901325A625A6A8A42A0D1DA69002A86
:109B800031D0DD685C6A18699A6101210022D860D1
:109B9000DA615A628DF81810CDE90754D3E9001242
:109BA00006A890478BE71C4A0021C2F81C11D2F886
:109BB0001C210292029A5A69002A9DD058699A681B
:109BC0008DF8181008905961079206A8D3E9001281
:109BD000904791E7C2F80811D2F80801059005985E
:109BE000D2F81825C7E793F8292012B90A4A0121AB
:109BF0005160094A4FF40171C2F80813596ADA68D2
:109C000008910024012007928DF81800D3E9001272
:109C10009C6106A8904752E700200040082B0020D6
:109C20002DE9F041624F06792C2303FB067382B0C5
:109C300093F82A30002B40F08D8005460C460068D2
:109C40005C499046FFF7D6FE00287FD12368591C57
:109C50000CD001224FF0A04102FA03F3C1F80835FD
:109C6000236803F5E073032241F8232063685A1C3C
:109C700006D003F5E0734FF0A042002142F8231014
:109C80002B68A269C3F82425217D637D2A680B43D4
:109C9000C2F86C35D4E900122B68C3F81425C3F858
:109CA0000C15237D012B61D02C2303FB06F3FA183E
:109CB000C2F804802269FA502A68B8F1000F33D044
:109CC0000021237FC2F81C11D2F81C2100922A68BF
:109CD000DDF800C0C2F84411D2F844112A6801919D
:109CE000354C0199C2F804432A6842F30731002930
:109CF0004FEA123232DB01F1604101F561415B0153
:109D0000DBB281F800332A6842F30733002B4FEAB5
:109D1000123109DB294C01225B0901F01F0102FA13
:109D200001F144F823102A682C2303FB0676012452
:109D300000230421C2F80015C6E9063386F82A403C
:109D400086F82930736102B0BDE8F081112002B0BD
:109D5000BDE8F081082002B0BDE8F081184902F0AA
:109D60000F025B011144DBB20B76CCE7A368591CF0
:109D700006D003F5E0734FF0A042002142F8231013
:109D8000E3685A1C0DD001224FF0A04102FA03F300
:109D9000C1F80835E36803F5E073032241F8232096
:109DA000E3682A68A168C2F80835C2F810157BE795
:109DB000082B00205D9A02008000020000E100E014
:109DC000FCEC00E0F8B5334E047902682C2303FB69
:109DD000046300215B68C2F80015C3B103682E4A12
:109DE000C3F80823036843F30732002A4FEA13310C
:109DF0000EDB5209294D2032012301F01F0103FA25
:109E000001F145F82210BFF34F8FBFF36F8F036846
:109E1000D3F80CC5D3F81475D3F80815D3F810553A
:109E20004FF0FF32C3F81425C3F80C25036894459E
:109E3000C3F80825C3F8102506D00CF5E07C4FF0D8
:109E4000A043022243F82C207B1C06D007F5E077C4
:109E50004FF0A043022243F827206A1C06D005F5E4
:109E6000E0754FF0A043022243F825204B1C06D09A
:109E700001F5E0714FF0A043022243F82120006871
:109E8000FFF7E0FD2C2303FB0464002384F82A3051
:109E90006360F8BD082B00208402020000E100E0AE
:109EA0002DE9F041314E05792C2303FB056304466F
:109EB000586984B000284CD15A619960186283F8BF
:109EC00028002268C2F81C01D2F81C1122680291F5
:109ED0000121029F91602268D3F808C0C2F81C01DA
:109EE000D2F81C11019101991F6A196A1CF80770B8
:109EF00001311962C2F81C755A6812B104B0BDE88C
:109F0000F0815F691A6A216897421BD9864602E090
:109F100093F828200ABBD1F81C21002AF8D0C1F8F8
:109F20001CE1D1F81C210392039AD3F820801A6A0D
:109F30001CF8088001321A62C1F81C851A6A97421F
:109F4000E9D82168D1F81C31002BFBD00123CB606C
:109F500004E0112004B0BDE8F0810F202C2303FBA6
:109F6000056500236B6104B0BDE8F081082B00207B
:109F700030B5574BD3F824218BB0002A75D000227E
:109F8000C3F82421D3F82421049202228DF818204A
:109F9000049AD3F880144F4AC3F880140991D3F877
:109FA0003C15D3680891002400250793C2E90645B3
:109FB0001168536806A89847454BD3F8442152B11D
:109FC0000021444AC3F84411D3F844019169039035
:109FD0000398002938D13E4BD3F820215AB10021F3
:109FE000C3F82011D3F8202102920120394A029CA3
:109FF000D8605069D8B9364BD3F85821AAB100219E
:10A00000C3F85811D3F85801324A019001985069A9
:10A0100058B1D3F84C05936808908DF81810516129
:10A02000079306A8D2E9001398470BB030BDD3F8C8
:10A030004C05936808908DF818105161079306A895
:10A04000D2E900139847D6E7D3F83C35D168089396
:10A0500000240025012307918DF81830C2E9064538
:10A06000D2E9001306A89847B5E7D3F810110029E4
:10A07000A2D0C3F81021D3F8101116480591059904
:10A080008469D3F83C15A14296D1C469A4B1D3F830
:10A090000052846125F02005C3F80052D0E9034343
:10A0A000C26101220891C3600168436807948DF87A
:10A0B000182006A898477FE7C26884610123CDE98C
:10A0C00007218DF81830D0E9001306A8984773E7E8
:10A0D00000200040382B00202DE9F0430779704E16
:10A0E00007EBC70306EB830387B093F82030002B00
:10A0F00040F0A78004460D4600686A499146FFF784
:10A1000079FC002840F099802B68591C4FEAC70859
:10A110000CD001224FF0A04102FA03F3C1F8083538
:10A120002B6803F5E073032241F823206B685A1C67
:10A1300006D003F5E0734FF0A042002142F823104F
:10A140002368A969C3F82415297D6A7D23680A4319
:10A15000C3F86C25D5E900312268C2F80C35C2F885
:10A1600014152B7D012B78D008EB070206EB820338
:10A17000C3F804902B6946F82230B9F1000F4BD098
:10A1800021682B7F484D0022C1F81021D1F8101111
:10A1900001912168DDF804C0C1F82021D1F8201117
:10A1A00002912168DDF808C0C1F82421D1F82411FA
:10A1B00003912168DDF80CC0C1F84421D1F84411A5
:10A1C00004912168DDF810C0C1F85821D1F8581168
:10A1D000226805910599C2F80453226842F30731B9
:10A1E00000294FEA123230DB01F1604101F5614193
:10A1F0005B01DBB281F80033226842F30733002BA6
:10A200004FEA123109DB294D01225B0901F01F01E0
:10A2100002FA01F145F823102268474406EB87064D
:10A22000002301240821C2F80015C6E9063386F888
:10A230002040736107B0BDE8F083112007B0BDE88E
:10A24000F083082007B0BDE8F083194902F00F023F
:10A250005B011144DBB20B76CEE7AB68591C06D02C
:10A2600003F5E0734FF0A042002142F82310EB68A1
:10A270005A1C0DD001224FF0A04102FA03F3C1F89D
:10A280000835EB6803F5E073032241F82320EB68FF
:10A290002268A968C2F80835C2F8101564E700BF43
:10A2A000382B0020719F02001003420000E100E003
:10A2B000FCEC00E02DE9F04105794B4C05EBC503C2
:10A2C00004EB830301465B68006882B0EE00C3B113
:10A2D000464BC0F808330B6843F30732002A4FEAB5
:10A2E00013330EDB5209DFF808C12032012703F0D7
:10A2F0001F0307FA03F34CF82230BFF34F8FBFF36D
:10A300006F8F721904EB8202D0F80032926923F049
:10A310002003C0F8003242B10023C0F84431D0F825
:10A32000443100930123009A43600023C0F8583160
:10A33000D0F8583101937319012204EB8303019F74
:10A34000C2609A69D0F85831002BFBD01AB1D0F80E
:10A350004431002BF6D00023C0F800350B684FF0D5
:10A36000FF32D3F80C85D3F814E5D3F80875D3F889
:10A3700010C5C3F80C25C3F814250B689045C3F825
:10A380000825C3F8102506D008F5E0784FF0A04363
:10A39000022243F82820BEF1FF3F06D00EF5E07EF2
:10A3A0004FF0A043022243F82E20BCF1FF3F06D01D
:10A3B0000CF5E07C4FF0A043022243F82C207B1CDC
:10A3C00006D007F5E0774FF0A043022243F827209C
:10A3D000FFF738FB354404EB8504002384F8203074
:10A3E000636002B0BDE8F081382B0020100342000A
:10A3F00000E100E0F0B401F06044B4F1005F82B02D
:10A400002CD10579274E05EBC50406EB84040346E1
:10A410006069EF0000283ED16261A1601A68C2F84D
:10A420002001D2F820C11A68CDF804C0DDF804C0BC
:10A43000C2F85801D2F8582100921A68DDF800C01D
:10A44000D4F814C0C2F84415C2F848C51A680121EE
:10A450009160626832B102B0F0BC7047102002B067
:10A46000F0BC70471A6800E0C8B9D2F82011D2F8E1
:10A4700058010029F8D090B90121D1601B68D3F8A8
:10A480005821002AFBD07B1906EB830300225A6176
:10A4900002B0F0BC7047112002B0F0BC70470F2032
:10A4A000F1E700BF382B002072DF704773DF704781
:10A4B00076DF70477ADF70477CDF70477FDF704759
:10A4C0008FDF7047B1DF7047FCF7AEBF08B5037888
:10A4D00003B108BD054B3B211888FFF7E9FF0028B1
:10A4E000F7D0BDE80840FCF79FBF00BF562300200F
:10A4F0000D2801D0FCF798BF104B1148C01AC008B6
:10A50000000410B540F003000C460E49FCF794F926
:10A510000D4B0E491888224601F05EFA30F0080211
:10A5200007D043F20202904203D043F2014290422C
:10A5300000D110BDBDE81040FCF776BF80CC020012
:10A54000A8CC020084C6020056230020B02B0020B5
:10A5500008B502206AB1FEF789FC0948094B0A498F
:10A56000C01AC0080004BDE8084040F00300FCF732
:10A5700063B9FEF787FC0248024B0449F0E700BFCD
:10A58000A8CC020080CC0200A0C60200B4C6020023
:10A59000FCF74ABF10B50388212B82B0044630D89F
:10A5A0000F2B2CD9103B112B29D8DFE803F04609DB
:10A5B0002862282828282828282828282828283CCD
:10A5C0003A4B3B483B49C01AC008000440F0030026
:10A5D000FCF732F90120FEF755FC374B4FF6FF72BE
:10A5E0001A80FCF7F3FE00285DD1344B0121187866
:10A5F000FFF75CFF002853D10020FEF737FC02B0C4
:10A6000010BD522B3FD0562B09D1A0881321FFF744
:10A610004FFF0028F3D0FCF707FF02B010BD3B2B23
:10A62000F3D002B010BD00238088ADF8043001A93A
:10A63000FFF746FF0028E2D0EDE71C4B1C482049FD
:10A64000C01AC008000440F00300FCF7F5F8012030
:10A65000FEF70CFC0020FEF715FC174BA1881948EB
:10A66000198001F0ADF8C0B9FCF79AFE0028C6D0F9
:10A67000D1E7114A0023108885211A46FFF71EFFF3
:10A680000028BCD0C7E70C4A0023108819461A4698
:10A69000FFF718FF0028B2D0BDE7FCF7C5FEE3E7DF
:10A6A000FCF7C2FEA8E7FCF7BFFE9EE780CC0200E5
:10A6B000A8CC0200D4C60200562300205423002058
:10A6C000C8C60200C82B002000B54FF48041A7B0D7
:10A6D0000020FBF739FF002840F0E280FBF724FF61
:10A6E0000120FEF7DBFBFDF7A1F8002840F0088110
:10A6F000854840F233320121FCF7F2FD002840F09A
:10A70000FC80FEF721F9002840F0F48001F086F982
:10A71000002840F0EC80002317A90120179301F0D6
:10A7200059FA002840F0E08017A801F011FB00283A
:10A7300040F0D780112375488DF8203001F0CEFB12
:10A74000724982B208A8FFF7B7FE002840F0C68021
:10A750000822002117A801F0B9FB6D4B179317A829
:10A760004FF0C8731893FFF7A5FE002840F0B380A0
:10A770006848002100F016FF002840F0A980664BD1
:10A7800066481793002217A9089201F007F80028DD
:10A7900040F09B80624B6348089308A901F0B4F82D
:10A7A000002840F08F805F4B5F4C9B7C8DF806301B
:10A7B0003C2241F22353002108A8ADF8043001F0F7
:10A7C00085FB022040F201633C2200218DF820002D
:10A7D00017A8ADF8223001F079FB2246012501AB24
:10A7E00052F8041BADF86C5008A81C9300F02CF92B
:10A7F000002864D1A1684D4A17A800F025F9002867
:10A800005AD11822002102A801F060FB0120002388
:10A810004FF4807540248DF8080043494448ADF852
:10A82000143002AA0393ADF81C500494FFF73CFEC9
:10A8300000283ED11C22002117A801F047FB00236D
:10A840003C4A1793ADF86A308DF86C303A4B4FF4B0
:10A85000A0254FF4A034032117A8CDE91854CDE961
:10A860001C238DF8681000F023FCF8B9334B3448F2
:10A870003449C01AC008000440F00300FBF7DCFFB5
:10A880002B4B01211878FFF711FE60B90020FEF76D
:10A89000EDFAFBF7A9FE0028FBD1FEF76BF8F8E70D
:10A8A000FCF7C2FD1AE7FCF7BFFDEFE7FCF7BCFDC4
:10A8B000DCE7FCF7B9FDBDE7FCF7B6FDA1E7FCF767
:10A8C000B3FD97E7FCF7B0FD6DE7FCF7ADFD61E781
:10A8D000FCF7AAFD53E7FCF7A7FD49E7FCF7A4FD49
:10A8E00036E7FCF7A1FD25E7FCF79EFD1CE7FCF72A
:10A8F0009BFD10E7FCF798FD08E7FCF795FD00E7E6
:10A90000FCF792FDF4E600BF3C230020E4C6020001
:10A910005000A0009C2B0020C9A40200C82B0020DE
:10A9200051A50200B02B002044230020502300201A
:10A9300054230020CDA4020091A5020080CC020087
:10A94000A8CC0200F8C602006DDF704779DF7047BF
:10A950007DDF704764DF70472DE9F04F87B0074611
:10A96000119D00882C880394BDF84840DDF840A074
:10A97000CDE90142002858D04FF0000988461E4614
:10A98000CB4604E03A880BF1010B93452CDAD8F85A
:10A99000002052F82B00059000220DF1130105A8AC
:10A9A000FFF7D8FF044658BB9DF81320B242E9D107
:10A9B000B9F1000F28D02A88019B9119994239DCFE
:10A9C00052440DF1130105A84FF00109FFF7C2FF32
:10A9D000002834D129889DF813200A442A803A8817
:10A9E0000BF1010B9345D2DBB9F1000F1DD02B8881
:10A9F000039A013B9B1A9BB2FF2B1BD80AF802302B
:10AA0000204607B0BDE8F08F2A88019B511C3244D4
:10AA100002329A4289B20DDC029B29800AF8013089
:10AA20002A88013292B22A80CAE70024204607B061
:10AA3000BDE8F08F0C24204607B0BDE8F08F044637
:10AA4000204607B0BDE8F08F2DE9F04700231788B6
:10AA5000138090F82D3088B0144605460E46002B22
:10AA600040F00081AA78002A40F0F580E978A1B191
:10AA7000DA1CBA4200F2F2800222F2542388013337
:10AA80009BB201222380F254238813449BB223807B
:10AA9000F154238813449BB223806A68AAB1D91C5D
:10AAA000B94200F2DB80022192F90020F1542388A0
:10AAB00001339BB20A212380F154238801339BB2D6
:10AAC0002380F2542388013323802B89002B40F00C
:10AAD000F3802B8A002B40F02B812B8B002B40F036
:10AAE00046812B6A002B44D02088821DBA4200F296
:10AAF000B5801A88052A40F299816FF4486802EB04
:10AB0000080189B24FF27D3C614540F28F8159883E
:10AB1000052940F28B816FF4486E8E441FFA8EFE39
:10AB2000E64540F283814FF6FF7C624504D06145E3
:10AB300002D08A4200F27A81052232542288013200
:10AB400092B212212280B1542288013292B2228024
:10AB50001988B1543244090A51702288023292B2E3
:10AB600022805B88B35432441B0A5370238802331B
:10AB700023806B6A002B2FD09988B4F800C0881C02
:10AB80000CF102020244BA4268D8FE2866D80331AA
:10AB900006F80C102288013292B2FF212280B154B3
:10ABA0002288013292B222801988B1543244090AB3
:10ABB00051702088023080B220809A8862B19968F2
:10ABC0000593002900F03281304401F071F9059BB2
:10ABD0009A8823881344238095F82C30002B40F06A
:10ABE000E380287800283AD02B88012B00F01E81C2
:10ABF00023889A1CBA4231D8012804D169780231DD
:10AC000019448F422AD3023FFF1ABFB2B01806A9D7
:10AC1000ADF81870FFF79CFE08BB2B78022B00F0F4
:10AC20000D816978BDF818209142C0F003819742E8
:10AC3000C0F0008117460922FE2F0FD82388791C07
:10AC4000F154238801339BB22380F25423880133CB
:10AC50001F44278003E00433BB424CD90C2008B0CA
:10AC6000BDE8F087082FF9D906A8FFF76DFE002888
:10AC7000F5D123880822F254238801339BB21B228A
:10AC80002380F2542088013080B220800622304494
:10AC90000DF1190101F00CF923889DF818200633F5
:10ACA0009BB212F0FE0218BF01222380F2542388C7
:10ACB00001339BB22380D5E605F10808022305F194
:10ACC0000C01CDE90147009640461A460591FFF771
:10ACD00043FE0028C3D1CDE90147059900964046BF
:10ACE00010230622FFF738FE0028B8D12B8A002B4C
:10ACF0003FF4F3AE1CE006A8FFF728FE0028AED113
:10AD00002388BDF818200321F154238801339BB216
:10AD100019212380F154238801339BB2F118238039
:10AD2000F254130A4B70238802339BB223809DE6B2
:10AD300005F1100805F11401CDE9014700964046E0
:10AD4000022303220591FFF707FE002887D1CDE9F2
:10AD5000014705990096404610230722FFF7FCFDA6
:10AD600000287FF47CAF2B8B002B3FF4BAAE05F1AB
:10AD7000180805F11C01CDE9014700964046022361
:10AD800014220591FFF7E8FD00287FF468AFCDE9B4
:10AD9000014705990096404610231522FFF7DCFD78
:10ADA00000283FF49EAE5AE7A96A00293ED04FF032
:10ADB00000094B464FF0160A2BE02388F0542388F5
:10ADC00001339BB2238006F803A0238801339BB292
:10ADD000238031F82220F2543344120A5A7020881A
:10ADE000023080B22080B8F8042030444AB1D8F84C
:10ADF0000810D9B101F05CF8B8F804202388134496
:10AE0000238095F82C205FFA89F39A427FF6E9AE09
:10AE1000A96A03EB430201EB820809F10109B8F8C2
:10AE20000430D81C0233FE2BC7D917E7072008B01F
:10AE3000BDE8F087012B08D00822FDE6BDF81830E8
:10AE40009F42F9D31F460922F6E68F42F4D30F46FC
:10AE50000822F1E675DF704776DF70477ADF7047CA
:10AE60007BDF704770B51B4D2B8884B2A34282B044
:10AE700011D1194E297A327B91420ED3337C0022B4
:10AE80002A72DBB9736933B10022ADF806408DF840
:10AE9000042001A8984702B070BD184605F10A01C8
:10AEA000FFF7D8FF28B11128F5D0B369002BF1D1F5
:10AEB000F1E72B7A01332B7202B070BD3B212046A3
:10AEC000FFF7CAFF30F00803DCD0B369002BD9D0FC
:10AED0009847D7E7F02B0020D42B0020F0B502884C
:10AEE000122A83B003463ED015D8102A73D0112AF7
:10AEF0000FD16C4C828823889A420AD16068FCF793
:10AF00003FFD18B1684B9B6903B198474FF6FF733B
:10AF1000238003B0F0BD502AFBD1634DC188EA897C
:10AF20009142F6D1028A022AF3D15E4C82882688A9
:10AF30009642EED1123000F0A9F9002800F09C8072
:10AF4000637A002B40F09F80D5E90113277A60686F
:10AF50003246002F18BF1946FCF7B4FC0028D8D0A1
:10AF6000AB693BBBD5E74F4C828821889142D0D159
:10AF70004089658985421FD8A58985421CD3E0890F
:10AF80009D8940F2F313984294BF031AC31AAB424F
:10AF900012D800F2F310A8420ED3434B5B694FF472
:10AFA00080722281002BB4D00122ADF806108DF8FA
:10AFB000042001A89847ACE73B4D267A6068D5E9A4
:10AFC0000113002E18BF194600236372FCF77AFCA8
:10AFD0000028C5D19DE7C67B012E9AD1314C21882E
:10AFE0004FF6FF7291423FD1304D8288228003CDCF
:10AFF000C4F80A00C4F80E10598A608900258842F6
:10B00000257222D8A08988421FD3E189988A40F20C
:10B01000F313994294BF4B1ACB1A834215D801F20D
:10B02000F311814211D3204D6672EB89002B7FF41E
:10B0300070AF6B69002B3FF46CAF0121ADF80620B7
:10B040008DF8041001A8984763E7174DEB8900219C
:10B050006172002B7FF45DAF60686968FCF732FCB9
:10B0600000283FF456AF7BE70F4B9B69002B3FF462
:10B0700050AF042098474CE76068FCF781FC00283B
:10B080003FF447AF6CE76B6900222272002B3FF45C
:10B0900040AF0122ADF806608DF8042001A8984762
:10B0A00037E700BFF02B0020D42B0020042C002019
:10B0B00070B3F8B5054606460FCD164F3C460FC493
:10B0C000844695E80700144D3D6084E80700BCF114
:10B0D000000F17D06046FFF7C1FE90B933681868BB
:10B0E000596803C50D4B0E490E4A18464FF6FF74BA
:10B0F00040F8041F1C800021FCF7CEFB002818BF7D
:10B100000320F8BD2846FFF7ABFE0028EAD0F8BDC3
:10B110000E207047D42B0020042C0020F02B0020A0
:10B12000102C002065AE02002DE9F04703888788C7
:10B13000103B98B004460A2B1CD8DFE803F03029F6
:10B140001B1B1B1B1B1B1B1E0600037A46483F2BA9
:10B150004FEA1314394667D8FCF78EFE032C65D0EE
:10B1600042483946FCF788FE022C63D040483946F5
:10B17000FCF782FE18B0BDE8F087037A002BF9D106
:10B18000437A39481B0739466BD5FCF76BFEF1E76C
:10B1900038483946FCF770FE18B0BDE8F087364AEB
:10B1A0009368DB43009351686846FCF795FE009B6B
:10B1B0000193019B83B300263546294601A8FCF77D
:10B1C00065FE28B118AB03EB4603013623F8285C73
:10B1D0000135142DF1D10D960DF1340CBCE80F00A2
:10B1E00002AD0FC5BCE80F000FC59CE8070085E85D
:10B1F00007008EB10DF10A08DFF888A008EB4606BB
:10B2000038F8029F1D4D284649460435FCF734FEA8
:10B21000AA45F8D1B045F3D1132F12D90420FCF779
:10B2200003F918B0BDE8F087FCF71CFE0F4839465B
:10B23000FCF718FE0E483946FCF714FE18B0BDE8BE
:10B24000F0870C483946FCF70DFE0C483946FCF7F0
:10B2500009FEE37B022B8DD109483946FCF702FE3B
:10B2600088E7FCF709FE85E7482C0020442C0020E5
:10B27000402C0020382C0020302C0020342C0020C2
:10B280003C2C0020AC2C0020AADF7047007800F096
:10B2900001007047F0B58B7891B0012B0C460988FE
:10B2A000ADF80C1038BF0123054616466846032248
:10B2B00000218DF80E3000F009FE637C0022013B76
:10B2C0008DF80020042B09D8DFE813F0CF00D3005D
:10B2D000D700DB00050022238DF80030A37C00227C
:10B2E000013B8DF80120042B09D8DFE813F0CE00D4
:10B2F000D200D600DA00050022238DF80130E77B6A
:10B30000237B207C217D9DF8022043EAC70343EA8A
:10B31000001322F01902002903F0190343EA020383
:10B3200014BF0222012262F3420309A81C22002159
:10B330008DF8023000F0CAFD637B13F0300F73D13B
:10B34000627BA37B8DF824200021142204A88DF8B1
:10B35000253000F0BBFDA368A288CDF814D003A966
:10B360000491ADF81C201BB1E2880893ADF81820B9
:10B37000A369002B36D001AF03220021384600F02C
:10B38000A5FDA2691388ADF82C305388ADF82E3096
:10B3900051680D97137B0A91013B00218DF8041031
:10B3A000042B2DD8DFE803F095999D8929002223ED
:10B3B0008DF80530977A137AD07A917B9DF8062024
:10B3C00043EAC70343EA001322F01902002903F0FD
:10B3D000190343EA020314BF0222012262F342036B
:10B3E0008DF80630E36903B10C93334604AA09A92A
:10B3F0002846FFF749FF11B0F0BD22238DF8043035
:10B40000537B0021013B8DF80510042BD2D801A1FC
:10B4100051F823F0C3B40200CBB40200ABB4020075
:10B42000B3B40200AFB3020002AF032238460021DA
:10B4300000F04CFDE37C0022013B8DF80920042B39
:10B4400007D8DFE803F0525E5A56030022238DF836
:10B4500009309DF80A300E97012262F3420311224F
:10B460008DF80A308DF808206AE711238DF8003036
:10B4700034E721238DF8003030E731238DF8003098
:10B480002CE712238DF8003028E711238DF80130C6
:10B4900035E721238DF8013031E731238DF8013074
:10B4A0002DE712238DF8013029E731238DF805307F
:10B4B00080E712238DF805307CE712238DF80430E5
:10B4C0009EE711238DF8053074E721238DF80530B0
:10B4D00070E711238DF8043092E721238DF80430B2
:10B4E0008EE731238DF804308AE711238DF8093077
:10B4F000AFE712238DF80930ABE731238DF809301F
:10B50000A7E721238DF80930A3E700BF90DF70473C
:10B51000A5DF7047B5DF704770B5002384B0002405
:10B5200060F30F0360F31F436A46204602A9CDE98A
:10B5300002340094ADF80440FFF7E8FF054610B967
:10B54000284604B070BD124B124EF61AF608FDF7ED
:10B550008BFA360446F0010603460F492246304670
:10B56000FBF700FBBDF80020BDF8023052EA0301F2
:10B5700003D00A493046FBF7F5FABDF80420002A4B
:10B58000DED030460649FBF71DFA284604B070BDF0
:10B5900080CC0200C8CC020010C702005CC70200C9
:10B5A0009CC7020008B90E20704730B403464FF024
:10B5B00017121B25002041F61B3419611A60C3F8CD
:10B5C00006201D7158819C8130BC70478288002AFA
:10B5D00059D110B50388242B82B00C4611D80F2BFB
:10B5E0004FD9103B142B4CD8DFE803F060744B4B61
:10B5F0004B4B4B4B4B4B4B4B4B4B4B4B4B4B4B44A2
:10B600004E003A2B70D0552B3BD1C388C988A2720B
:10B61000172B38BF17238B4228BF0B4610462381B8
:10B62000FFF778FF00287ED1E37A53BB236943B349
:10B630002289ADF8042040F6772100912046694622
:10B640009847A37AA3B1E1880020FFF761FF0028A3
:10B6500062D011280CD0FDF707FA4A4B4A4902463E
:10B660004A481B1ADB081B0443F00100FBF7AAF948
:10B6700002B010BD007A0B7B984228BF1846FFF736
:10B680004BFFA37ADEE770470B69027A4A73002BFF
:10B69000F7D000204DF67A218DF8050000918DF845
:10B6A0000420694620469847A37ACBE70B790B73B1
:10B6B000C27B012A45D0022A33D14988E180228900
:10B6C0008A4241D3627B9A42DBD21846FFF724FFBD
:10B6D000A37AB7E74FF01711002241F61B33C4F8E5
:10B6E00006106281A381C3E74389C98822698B421E
:10B6F00028BF0B46172B38BF172323814AB1E17AA5
:10B7000039B140F677210091ADF804306946204602
:10B71000904700236381ABE74FF48073638102B0ED
:10B7200010BDC988CBE7FDF79FF9164B18490246B3
:10B7300016481B1ADB081B0443F00100FBF742F913
:10B7400072E70988E180BAE70020FFF7E1FE18B947
:10B750000123E372237BB5E7112803D10123A372F0
:10B76000237BAFE7FDF780F9064B07490246074800
:10B770001B1ADB081B0443F00100FBF723F9237BB2
:10B78000A0E700BFC8CC0200F4C7020080CC0200D2
:10B7900028C80200B0DF704766DF704760B159B15A
:10B7A0000378DE2B0AD00B684360DE224FF6FF736E
:10B7B00002704380002070470E20704708207047B9
:10B7C00038B10378DE2B02D1418000207047082079
:10B7D00070470E20704700BF19B330B5054685B0DD
:10B7E00018B10B78DE2B0C4601D005B030BD808837
:10B7F0004B889842F9D10B7A002B32D12B88112B30
:10B800004BD0512B12D0012BEFD12B7A012BECD145
:10B81000012525720021FFF7BFFF002851D12072BA
:10B82000E3E77047A88863888342DED1AB79022BB7
:10B83000DBD1AA7B02F0FD01042935D0052AD4D141
:10B8400000226946C1E902224A600092ADF8042054
:10B850008DF80030FFF79EFF0028C6D06368984738
:10B86000C3E70021FFF798FF0346D8B1112818D08D
:10B87000636898472B88112B0BD0512BD2D0012B0A
:10B88000B3D12B7AAA88012BAFD160889042ACD17A
:10B89000BEE7AA8863889A42A7D14FF6FF736380F8
:10B8A000A3E701232372E5E7694600224FF4C07540
:10B8B0004A600092C1E902228DF80030ADF80450D0
:10B8C000C8E71128CAD125728FE700BFA8DF7047EB
:10B8D000AEDF704762DF70470288502A00D07047A1
:10B8E00010B44A88C488944202D05DF8044B704773
:10B8F000028A012AF9D14B69002BF6D0827C5DF8CF
:10B90000044B8088184700BFF0B5324B04460D4603
:10B910000FCB2D6865618FB002AD85E80F0028461A
:10B9200004F11201FFF7D6FF08B10FB0F0BDA37C00
:10B930008DF80630224641F2235301A90120ADF8CB
:10B940000430FFF7C3FF0028EFD10146202206A8EC
:10B9500000F0BCFA9DF82530A17C8DF81A10224623
:10B9600023F01203012543F0120341F224574FF054
:10B97000011632F80A0B8DF8253006A9ADF81870BB
:10B9800007968DF829508DF82B50FFF783FC00287F
:10B99000CBD10146202206A800F098FA9DF8253068
:10B9A000A77C0796224623F00A0343F00A0332F8E5
:10B9B000020B8DF8295006A941F225548DF82A5022
:10B9C0008DF825308DF81A70ADF81840FFF762FC3D
:10B9D0000FB0F0BD68C8020070B50D4688B01346C0
:10B9E0000446012604A8102200218DF80730ADF886
:10B9F0000E6000F06BFA6B89ADF810300DF10702A4
:10BA00000DF10E03204604A9CDE906328DF812602F
:10BA1000FFF75EFF08B070BD10DF704770B53C4D9A
:10BA20002B7884B0002B66D13A4E3B49012302A803
:10BA30003370FCF7D7FF039B23B90EE0FCF7DCFF64
:10BA4000039B53B1D3E9002100209047044602A88C
:10BA5000002CF3D1204604B070BD304902A8FCF799
:10BA6000C1FF039B4BB1D3E900210020904702A8FE
:10BA7000FCF7C2FF039B002BF5D1294A0023126873
:10BA80008DF8083002A80192FBF7B8FF254901A8FC
:10BA9000FFF7C2FFB0FA80F304465B099DF8080087
:10BAA0002B70FBF7D1FF002CD4D11F4B1F491C700A
:10BAB000347091F81623EC2352091341DB071ED58D
:10BAC0001B4B9A6802B31A6842F480021A60134949
:10BAD00002A8FCF787FF039B002BBBD0D3E9002112
