:020000022000DC
:1070000000000420B5720200DD720200DF7202008F
:10701000E1720200E3720200E5720200000000006B
:10702000000000000000000000000000E772020005
:10703000E972020000000000EB720200ED72020033
:107040003DA30200EF72020049AC0200EF720200A1
:10705000EF720200EF72020049A70200EF72020015
:10706000EF720200EF720200EF720200EF72020094
:10707000EF720200EF720200EF720200EF72020084
:10708000EF7202000D8E0200EF720200EF7202003A
:10709000EF720200EF72020059DD0200EF7202008F
:1070A000EF720200EF720200EF720200EF72020054
:1070B000EF720200EF72020000000000000000000A
:1070C000EF720200EF720200EF720200EF72020034
:1070D000EF720200EF720200EF720200EF72020024
:1070E000EF720200EF720200EF7202000000000077
:1070F00000000000EF72020000000000EF720200CA
:10710000000000000000000000000000000000007F
:10711000000000000000000000000000000000006F
:10712000000000000000000000000000000000005F
:10713000000000000000000000000000000000004F
:10714000000000000000000000000000000000003F
:10715000000000000000000000000000000000002F
:10716000000000000000000000000000000000001F
:10717000000000000000000000000000000000000F
:1071800000000000000000000000000000000000FF
:1071900000000000000000000000000000000000EF
:1071A00000000000000000000000000000000000DF
:1071B00000000000000000000000000000000000CF
:1071C00000000000000000000000000000000000BF
:1071D00000000000000000000000000000000000AF
:1071E000000000000000000000000000000000009F
:1071F000000000000000000000000000000000008F
:1072000010B5054C237833B9044B13B10448AFF3E0
:1072100000800123237010BD7024002000000000B6
:1072200080F0020008B5034B1BB103490348AFF3DC
:10723000008008BD000000007424002080F00200DF
:10724000154B002B08BF134B9D46A3F5803A002138
:107250008B460F461348144A121A06F051FF0F4B83
:10726000002B00D098470E4B002B00D098470020F1
:10727000002104000D000D48002802D00C48AFF397
:10728000008006F0FDFE2000290004F045FC06F019
:10729000E3FE00BF00000800000004200000000022
:1072A0000000000070240020202F002000000000BB
:1072B000000000000649074A074B9B1A03DD043B08
:1072C000C858D050FBDC02F071FDFFF7B9FF000099
:1072D000D0F10200C81D002070240020FEE7FEE768
:1072E000FEE7FEE7FEE7FEE7FEE7FEE7FEE7FEE776
:1072F000F0B595B000241D460E460846174602F02C
:107300001BFB304623460822099505A91A9D0897BC
:107310000D950A948DF82C400C9402F071FB9DF8A9
:1073200014308DF81140DDE9061003F00302012A44
:10733000CDE9020128D0022A04D0304602F000FB39
:1073400015B0F0BDBDF81650C3F3C2038DF8103070
:10735000C5F389150827082D2C4628BF08243B466D
:1073600022460EA9304602F04BFB2D1B214608ABEE
:1073700002AA0EA8274400F0A9FE002DEBD130464A
:1073800002F0DEFA15B0F0BDBDF81470059DC7F32C
:107390008312C3F3C2040EA93046920008238DF86D
:1073A0001040C7F3831702F02BFBC5F3952508ABFC
:1073B0003A4628460EA9009302AB00F00FFE304675
:1073C00002F0BEFA15B0F0BD014B01221A707047F1
:1073D000D0240020704700BF00B583B0044B009359
:1073E000044A4023FFF784FF03B05DF804FB00BFAD
:1073F000F97302009024002038B50E480E4D037832
:107400000E4CEB5C00252570D2B253B1043004F071
:107410009DF958B90A4B1B7813B12378002BFCD087
:1074200038BD0C3003F0AAFE0028F3D001F0AEF80E
:10743000F0E700BFC81D00201C2F0020D024002032
:107440008C2400202DE9704319481A4A0378D35C34
:1074500088B02BB3043004F0C1F8174D0FCD6C4643
:107460000FC495E80F004FF0EB7684E80F004FF063
:1074700006084FF0FF394FF0FF344FF0FF350C484E
:10748000069600226946CDE90089CDE9024502F061
:10749000D7FE48B9094B00221A7008B0BDE87083C6
:1074A0000C3003F0E5FDD8E701F070F8F2E700BF1B
:1074B000C81D00201C2F002050E102008C24002059
:1074C000F0B5154D0FCD89B06C460FC495E80F008F
:1074D0004FF0EB7C84E80F0006264FF0FF374FF0AB
:1074E000FF344FF0FF350D4A0D48CDF818C06946FE
:1074F000CDE90067CDE9024502F0A2FE20B9094BB3
:1075000001221A7009B0F0BD01F040F8054B0122CC
:107510001A7009B0F0BD00BF50E10200C97302004B
:10752000C81D00208C24002008B5FFF7C9FF0448BF
:10753000042100F0D1FC034B01225A7108BD00BFA9
:10754000B8F10200DC1D0020064B074810B50022F0
:107550001A7002F087F9044610B9044802F0AEFB35
:10756000204610BDA425002064F10200A8E102001D
:1075700099B10E4B0E495B1ADB0815D030B40022CE
:107580000C4D02E0013293420BD035F82240844288
:10759000F8D151F8320030BC7047054951F830003D
:1075A0007047002030BC70471846704764F10200F5
:1075B000CCF002006C240020094B013903EBC00021
:1075C00003290BD8DFE801F0040208060420704705
:1075D000022070474079704700797047002070475B
:1075E000CCF00200704700BF2DE9F0438C4CD4E989
:1075F00001239A4285B060D00023C4F81834BFF349
:107600004F8FA568EAB2D31C04EB830114F8233032
:10761000580718D566680B7803F00303012B42D096
:10762000022B03D14B88023505EB9315EAB2D4F84F
:107630001804D31C04EB830128B9AE4239D914F8DD
:1076400023305B07E7D404EB82026B1CD268019203
:10765000DBB204EB830302F00302DB680293022A2D
:1076600005F102062DD0012A00F08D80D4F81054C7
:107670003DB12B6828469B689847EB681D68002D34
:10768000F7D16848684B6949C01AC008000440F047
:10769000020000F0D1F8D4E90130C01A18BF01206F
:1076A00005B0BDE8F0830B880235C3F383131D4496
:1076B000BCE7A66005B0BDE8F083002005B0BDE8DA
:1076C000F083BDF806305A48C3F389184546502D5B
:1076D00028BF502565F38F1305F10801ADF806307A
:1076E00002F0C2F807460028C0D002F025F90023B6
:1076F00001A90822384602F04FF9F343DBB2013307
:10770000B5EB830F4FEA8309F1B277D9A5EB0905F1
:10771000033104EB810108234A463846EDB202F0FA
:107720003BF944492A4609F10803384602F034F986
:1077300008F1030806EB9806D4F81834002B6AD138
:10774000D4F8105465B1EB685A7928463946002AB6
:107750005DD02B681B689847EB681D68002DF2D13F
:10776000384602F0EDF800230DF103008DF80330E8
:1077700001F0B8F9D4F8183403B9A6609DF80300F5
:1077800001F0D6F987E7BDF804302948C3F3831226
:10779000062A28BF0622911C62F389138900ADF8DE
:1077A000043002F061F8074600283FF45FAF02F0B2
:1077B000C3F80023082201A9384602F0EDF8BDF80D
:1077C000043013F4707FB7D06FF00108A8EB050800
:1077D0000825F1B203312B46042204EB810138461F
:1077E00002F0DAF8BDF80420013608EB0603C2F314
:1077F00083129A4205F10405EBD89DE703312A462E
:1078000004EB81010823384602F0C6F890E71D68B2
:10781000002D98D1A4E7384602F092F83BE700BF6C
:10782000A4250020F4F00200CCF0020090E1020058
:1078300064F10200B02500202DE9F04F5F4C87B0C5
:10784000002306460DF10B008DF80B300F4601F0BA
:1078500049F9D4E9015303F580735B1B012B7DD8F3
:1078600004F21C4804F5836A04F214491AE0BDF8D6
:107870000E30C3F389130333090C0BEB930B48460B
:10788000019101F0D7FB0199002839D04046C4F896
:1078900008B001F0A3FBD4E9013202F58072D21ADC
:1078A000012A5CD80121404601F098FB504601F0C6
:1078B000B1FB484601F0AEFBA368DAB2D11C04EB81
:1078C000810014F8211001F0040C490728D404EBBE
:1078D0008202591CD2680392C9B204EB810102F002
:1078E0000302012AC96803F1020B30D0022ABED07C
:1078F00000214846019101F09DFB01990028C5D166
:107900004046C6E743880EEB9313DAB2D11C04EB72
:10791000810014F8211001F0040CBCF1000FD6D046
:10792000017801F0030101290BD0022903F1020EB5
:1079300002F10301E6D004EB8100BCF1000FEFD1AE
:10794000C5E702880233C2F383121344DDE7BDF8B2
:107950000C30C3F38313090C9B4490E72B46DAB237
:107960000332023305219DF80B0044F822106360B6
:1079700001F0DEF80021124801F006FB80F3100050
:10798000F1006B1C01F03801DBB2EDB204EB8303B4
:1079900041F001010004033540EA164641EA872719
:1079A000DE6044F8257023781BB1FFF71DFE002828
:1079B000FBD1FFF717FE07B0BDE8F08FA42500202C
:1079C000C02900202DE9F04F644C87B00023064603
:1079D0000DF10B008DF80B300F46904601F082F848
:1079E000D4E9015303F580735B1B022B7FD804F2AB
:1079F0001C4904F5836B04F2144A1BE0BDF80E2009
:107A0000C2F389120332090C03EB92035046CDE90D
:107A1000003101F00FFB019900283AD0009BA360D0
:107A2000484601F0DBFAD4E9013202F58072D21A3D
:107A3000022A5DD80121484601F0D0FA584601F0EB
:107A4000E9FA504601F0E6FAA368DAB2D11C04EB79
:107A5000810014F8211001F0040C490729D404EB2B
:107A60008202591CD2680392C9B204EB810102F070
:107A70000302012AC96803F1020331D0022ABDD0F2
:107A800000215046CDE9003101F0D4FA01990028D7
:107A9000C4D14846C5E743880EEB9313DAB2D11C34
:107AA00004EB810014F8211001F0040CBCF1000F6C
:107AB000D5D0017801F0030101290BD0022903F18F
:107AC000020E02F10301E6D004EB8100BCF1000FCD
:107AD000EFD1C4E702880233C2F383121344DDE717
:107AE000BDF80C20C2F38312090C13448EE72B4619
:107AF000DAB20332033345219DF80B0044F822101B
:107B0000636001F015F8AB1CDBB204EB83030021CA
:107B10001348C3F80C8001F037FA80F31000F1002D
:107B20006B1C01F03801DBB2EDB204EB830341F0D2
:107B300041010004033540EA164641EA8727DE602A
:107B400044F8257023781BB1FFF74EFD0028FBD1C8
:107B5000FFF748FD07B0BDE8F08F00BFA425002067
:107B6000C02900202DE9F04F694C89B00025064658
:107B70000DF113001F468DF813508846039200F054
:107B8000B1FFD4E9015303F580735B1B032B00F2B3
:107B9000828004F21C4904F5836B04F2144A1BE052
:107BA000BDF81620C2F389120332090C03EB9203CD
:107BB0005046CDE9013101F03DFA029900283BD051
:107BC000019BA360484601F009FAD4E9013202F5AD
:107BD0008072D21A032A5FD80121484601F0FEF9CB
:107BE000584601F017FA504601F014FAA368DAB2C9
:107BF000D11C04EB810014F821C01CF0040F0CF020
:107C0000040128D104EB8202591CD2680592C9B242
:107C100004EB810102F00302012AC96803F10203A7
:107C200032D0022ABCD000215046CDE9013101F00A
:107C300001FA02990028C3D14846C4E743880EEBF5
:107C40009313DAB2D11C04EB810014F8211001F077
:107C500004010029D6D090F800C00CF0030CBCF150
:107C6000010F0BD0BCF1020F03F1020E02F1030C65
:107C7000E4D004EB8C000029EDD1C3E70288023385
:107C8000C2F383121344DCE7BDF81420C2F383125D
:107C9000090C13448CE72B46DAB2033204338521F6
:107CA0009DF8130044F82210636000F041FFAA1C05
:107CB000EB1CDBB2D2B204EB830C04EB8202039B1D
:107CC0001448D3600021CCF80C7001F05DF980F30A
:107CD0001000F1006B1C01F03801DBB2EDB204EBD7
:107CE000830341F081010004033540EA164641EA6E
:107CF0008821DE6044F8251023781BB1FFF774FC5F
:107D00000028FBD1FFF76EFC09B0BDE8F08F00BF83
:107D1000A4250020C02900202DE9F04F6C4C89B02B
:107D2000002506460DF113001F468DF813508846B6
:107D3000039200F0D7FED4E9015303F580735B1B77
:107D4000042B00F2828004F21C4904F5836B04F2D8
:107D5000144A1BE0BDF81620C2F389120332090C45
:107D600003EB92035046CDE9013101F063F902992A
:107D700000283BD0019BA360484601F02FF9D4E9CD
:107D8000013202F58072D21A042A5FD801214846D6
:107D900001F024F9584601F03DF9504601F03AF956
:107DA000A368DAB2D11C04EB810014F821C01CF0E6
:107DB000040F0CF0040128D104EB8202591CD26894
:107DC0000592C9B204EB810102F00302012AC968DD
:107DD00003F1020332D0022ABCD000215046CDE983
:107DE000013101F027F902990028C3D14846C4E7C0
:107DF00043880EEB9313DAB2D11C04EB810014F824
:107E0000211001F004010029D6D090F800C00CF038
:107E1000030CBCF1010F0BD0BCF1020F03F1020EF9
:107E200002F1030CE4D004EB8C000029EDD1C3E790
:107E300002880233C2F383121344DCE7BDF8142036
:107E4000C2F38312090C13448CE72B46DAB20332D7
:107E50000533C5219DF8130044F82210636000F03B
:107E600067FEA81CEA1C2B1DC0B2DBB204EB80002D
:107E7000D2B204EB830C04EB8202039BC3600021AB
:107E8000129B1448D760CCF80C3001F07DF880F3D9
:107E90001000F1006B1C01F03801DBB2EDB204EB15
:107EA000830341F0C1010004033540EA164641EA6C
:107EB0008821DE6044F8251023781BB1FFF794FB7E
:107EC0000028FBD1FFF78EFB09B0BDE8F08F00BFA3
:107ED000A4250020C029002030B4154DD5F8101479
:107EE0000446002071B10B4601E01B6853B1DB680A
:107EF0001A798242F9D101300A28F3D14FF0FF30CC
:107F000030BC7047E3681871D5F810344BB1DA68AB
:107F1000E36812681A60D5F81034DB681C6030BC66
:107F20007047C5F81044E268136030BC704700BF6A
:107F3000A425002038B5084BD3F8104401251D7046
:107F40004CB1E3685D71236820465B689847E3683D
:107F50001C68002CF5D138BDA425002030B5C3889D
:107F600085B004460D461BBB217A05291ED0627AD6
:107F700082B9134AA08852F8212003920021FFF70A
:107F8000F7FA039A0F490346284605B0BDE830408A
:107F900001F0CCB8A088FFF70FFB0B4B0B4953F84F
:107FA0002020284601F0C2F8217AE2E705B030BD72
:107FB000074A00920749084A284601F0B7F8D3E774
:107FC00080E20200E0E102005CE20200DCE102008B
:107FD000D4E10200BCE10200B4E102002DE9F0436B
:107FE00085B04FF0000C0C9C814694F80C8084F80E
:107FF0000CC00E461746184621461D46FFF7AEFF39
:10800000062F09D8DFE807F0042E343B444F1F0049
:108010004946204601F08AF82B7A052B05D06B7A69
:108020005BB92749204601F081F8204601F072F83B
:1080300084F80C8005B0BDE8F083224A224920462E
:1080400001F074F8EDE7D6E90413F2680393B3681E
:108050000291CDE900324946D6E90023204601F0DD
:1080600065F8D9E732684946204601F05FF8D3E762
:10807000D6E900234946204601F058F8CCE7B3681A
:108080000093D6E900234946204601F04FF8C3E7A4
:10809000D6E9023201920093D6E9002349462046F0
:1080A00001F044F8B8E7D6E90321B3680291CDE9BD
:1080B00000324946D6E90023204601F037F8ABE705
:1080C000ECE10200D4E10200DCE10200082900D961
:1080D00070472DE9F04F9B4683B000241B7B8BF843
:1080E0000C400D4606465946104690460193DFF86F
:1080F000D0902C4FFFF732FF05E0325D013401F0E4
:1081000015F8082C09D0A54239465846F5D84946F5
:10811000013401F00BF8082CF5D12349DFF8A490C5
:10812000224C234F584601F001F84FF0000A0DE0B1
:10813000D15D11F0970F08BF2E22214658460AF153
:10814000010A00F0F3FFBAF1080F10D0554505D928
:1081500016F80A207E2AEBD92E22EEE74946584629
:108160000AF1010A00F0E2FFBAF1080FEED198F827
:108170000830052B02D098F8093063B90D495846EC
:1081800000F0D4FF584600F0C5FF019B8BF80C307F
:1081900003B0BDE8F08F084A0849584600F0C6FF12
:1081A000ECE700BFF0E10200FCE1020000E20200A7
:1081B00079EF0200ECE10200D4E10200DCE1020010
:1081C000F8E10200E8E1020038B5174B1D783DB335
:1081D000164B1968C0B200230C4604E00133AB42D1
:1081E00004F108041CD011F833209042F6D102F0BB
:1081F0009BFA6378A3F10103B3FA83F35B0983422B
:1082000000D038BD0A4BD3E900231343F9D1094B01
:10821000094819680022BDE83840490800F004BC4C
:1082200000231B78FFDE00BF5C2A0020902A00207C
:10823000682A0020602A0020E81D00202DE9F04F68
:10824000DFF8548298F8003083B0002B00F01981D9
:10825000DFF848928C4F8D4E00254FF0010A3C68A4
:1082600014F8350002F060FA04EBC50314F8354049
:108270005B784FEA540C14F0010E16F80C10A3F1C1
:108280000103B3FA83F314BF0A0901F00F025B097B
:10829000042A00F2A080DFE802F0725D32200300C1
:1082A000834240F0AB80BEF1000F0CBFF0230F23E0
:1082B00003EA01030CBF03213021194306F80C1017
:1082C00098F8002001359542C9DBD9E90023134312
:1082D00040F0CD8003B0BDE8F08F83427BD0BEF18B
:1082E000000F0CBFF0230F2303EA01030CBF04218E
:1082F0004021194306F80C1098F80020E2E7834269
:108300006CD1BEF1000F0CBFF0230F2303EA010371
:1083100098F800200CBF03213021194306F80C10F7
:10832000002AD2D0D7F800C00023614603E0934270
:1083300001F10801C6D01CF83300A04203F101038B
:10834000F5D14B68002BBDD020460121984798F805
:108350000020B7E7834219BF0020034602232020F4
:10836000BEF1000F0CBFF0220F2201EA020118BF7C
:1083700003460B4306F80C3098F80020A2E783422E
:1083800029D1BEF1000F14BF0F23F02303EA01032C
:1083900014BF1021012119430DF107004FF0000314
:1083A00006F80C108DF8073000F09CFBD9E900327C
:1083B000A4F12001C4F120000AFA01F12AFA00F028
:1083C00001430AFA04F4114323439DF80700C9E965
:1083D000003100F0ADFB98F8002073E7BEF1000F0C
:1083E0000CBFF0230F2303EA01030CBF012110216E
:1083F000194306F80C1098F8002063E7BEF1000F4F
:1084000014BF0F23F02398F80000194006F80C1051
:1084100098B1D7F800C00023624603E0834202F11E
:1084200008020AD01CF83310A14203F10103F5D170
:10843000536813B10021204698474FF000030DF117
:1084400007008DF8073000F04DFBD9E90032A4F1A8
:108450002001C4F120000AFA01F12AFA00F00143D8
:108460000AFA04F422EA010123EA0403ADE7084B07
:10847000084819680022490800F0D6FA03B0BDE8A0
:10848000F08FDFF8189020E7902A0020702A002053
:10849000602A0020E81D00205C2A0020682A0020B5
:1084A000092A43D92DE9F04182B0144606460D460B
:1084B00001F0D2FF002832D0214A2249224B166017
:1084C0000D7022481C600021202205F019FE204B6F
:1084D000002000216C1EC3E90001E4B245B3DFF8BF
:1084E0007C8006EBC404032702E0A64220D01C4691
:1084F0009DF80630A57820788DF8047023F00703E6
:10850000424601A98DF806308DF8055001F0AEFF06
:10851000A4F108030028E8D002B0BDE8F08101F022
:1085200043FF0028C8D002B0BDE8F08107207047A3
:10853000084A0948002100F061FA02B0BDE8F08164
:10854000902A00205C2A0020602A0020702A002047
:10855000682A00203D820200A0E20200C9810200D8
:1085600070B5084D2B785BB1074E002433680121AC
:1085700013F8340002F06CF82B780134A342F5D8DC
:10858000002070BD5C2A0020902A002000B585B034
:108590000346002101AA44F20100CDE90111039331
:1085A00000F004F805B05DF804FB00BF10B572B62A
:1085B000FFF7C0FCFFF718F80028FBD1104B114C57
:1085C0001149E41AE408240444F00100FFF734F9E7
:1085D0000E4B1B68DB0700D500BE0D4944F00200BE
:1085E000FFF72AF9BFF34F8F0A490B4BCA6802F411
:1085F000E0621343CB60BFF34F8F00BFFDE700BFC6
:10860000CCF00200F4F00200A4E20200F0ED00E081
:10861000B0E2020000ED00E00400FA05D0E9022318
:10862000D1E90201994208BF90422CBF01200020ED
:10863000704700BF10B5044682B000230DF107005B
:108640008DF8073000F04EFA23692BB94FF0FF3256
:108650004FF0FF33C4E902239DF8070000F068FAE9
:10866000D4E90530984700230DF107008DF8073055
:1086700000F038FA2369B3B1D4E902014A1C08BFFB
:10868000B0F1FF3F0FD0C01841F10001C4E9020171
:108690009DF8070000F04CFA0648214601F032FB35
:1086A000012002B010BD9DF8070000F041FA002043
:1086B00002B010BDD0E202002DE9F04F87B00646AF
:1086C00000F062FB40B1AA4AD2E9003113F1807395
:1086D00041F10001C2E900310021304600F070FB99
:1086E000A44C60B3236853B3A34B25681B7823B312
:1086F0001DB3A24800F074FB9D4BA149D3E90023B0
:10870000D1E90089121843F100034B4508BF4245E7
:1087100003D212F1807243F10003D5E902018B42CA
:1087200008BF824280F02081013108BFB0F1FF3FD5
:1087300003D09448294601F0E5FA00232360012183
:10874000304600F03DFB002840F0F2808E4805A93D
:1087500000F0BCFB78B38C4D4FF0FF384FF0FF3981
:108760000BE0002B00F0958005A9284600F0DEFB09
:1087700005A9284600F0AAFBE8B10378012B11D027
:10878000022BEED17F4F384601F0D0FA30B1C0E96C
:108790000289384601F0CAFA0028F8D1764B012246
:1087A0001A70E1E741682368994200F0B680754885
:1087B00001F0C6FAD8E7DFF8CC81704FDFF8B0914E
:1087C000404601F0B9FA002859D0D0E90223591CDB
:1087D00008BFB2F1FF3F58D0216891B12168D1E9BB
:1087E00002018B4208BF82424CD22368D3E90223A4
:1087F000013308BFB2F1FF3F03D02168404601F0CA
:1088000081FA404601F092FA05463846AA68EB68BC
:108810000392029300F0E4FAD9E900AB584BD3E994
:1088200000231AEB000A4BF1000B9B4508BF924551
:10883000DDE9023203D21AF1807A4BF1000BB2EB80
:108840000A0163EB0B0301930091DDE900010128AC
:1088500071F100032ADBB0F5350F58D24FF49603BF
:108860000021384600F00AFA00284AD00D2821D00D
:1088700000234046236001F05FFA0028A5D1236859
:10888000002B6DD007B0BDE8F08F404601F04EFAE6
:1088900096E74168D1E90223013308BFB2F1FF3FF7
:1088A0003FF462AF374801F02DFA5DE7002138460A
:1088B00000F07AFA304B1B78002BD9D0384600F004
:1088C0008FFAD9E900232E49D1E900AB121843F100
:1088D00000035B4508BF524503D212F1807243F199
:1088E0000003D5E902018B4208BF82421CD201314C
:1088F00008BFB0F1FF3FBBD02946404601F002FA65
:10890000B6E7236863B1256007B0BDE8F08F38464D
:1089100000F066FA1D4A0244A0E70023236023E723
:10892000304600F07DF9EEE72846FFF783FE9FE72B
:108930001248134D00F054FA0D4BD3E90089D5E9E4
:10894000002318EB000849F10009994508BF90453C
:1089500003D218F1807849F10009C5E90089F5E6EC
:10896000304600F061F98DE72846FFF763FEE4E644
:10897000982A0020182B0020A02A0020081E002082
:10898000102B0020D0E20200FC2A0020FFFFB400E0
:1089900010B5134B13491B68134882B0582201933A
:1089A000082300F03DFA044610B1204602B010BD85
:1089B0000E4A0F4801A900F0D3F804460028F4D16C
:1089C0000B48012100F0D6F901231946094A08484D
:1089D00000F02EF9084B012220461A7002B010BD9B
:1089E000CCE20200A42A0020FC2A0020B986020062
:1089F000081E0020FFFF7F00A02A00208AB130B4AB
:108A0000A1F101010368B1FA81F14FF0FF344FF099
:108A1000FF354909C3E90412C3E90245002030BC0F
:108A200070470720704700BF2DE9F04383B005462B
:108A3000002401A817460E468DF8044000F052F8B5
:108A4000D5E90223013308BFB2F1FF3F07D09DF8FB
:108A5000040000F06DF8204603B0BDE8F0831D4827
:108A600000F0BEF91C4B1D49D3E90023D1E9008970
:108A7000121843F100034B4508BF424525D3921914
:108A800043F10003C5E902239DF8040000F050F80B
:108A90002B69AF6103B12E61114801A900F0D8F92B
:108AA00078B100244560047001A90D4800F0FEF97A
:108AB0000028D1D0074800F097F9204603B0BDE860
:108AC000F083042003B0BDE8F08312F180726341AB
:108AD000D5E700BF081E0020982A0020102B002098
:108AE000FC2A002070B4EFF3108472B60D4B9A6824
:108AF000AAB90D490D4E01259D60D1F88050354031
:108B00001D60C1F88060D1F884505D604FF0FF3384
:108B1000C1F88430027004B962B670BC704701239A
:108B20000370F8E7102F002000E100E0FC06FFBD15
:108B3000094B9A687AB170B910B4EFF3108172B62C
:108B4000064A1C6814605C685460986001B962B69B
:108B50005DF8044B70477047102F002000E100E0E3
:108B600070B5274C4379274E04EBC30546F8232004
:108B70002D79002D37D103680A88C3F8082590F9AC
:108B800004308A78002B26DB03F1604303F5614350
:108B90005201D2B283F8002390F90430002B07DB96
:108BA000194903F01F0501225B09AA4041F823205F
:108BB0004279164B164D44F83200581B04EBC204A0
:108BC000C008012300041349237140F00300FEF79D
:108BD00033FE002070BD104903F00F035201194409
:108BE000D2B20A76D8E70A4B08480C49C01AC00826
:108BF000000440F00200FEF71FFE082070BD00BF19
:108C00001C2B0020242B002000E100E004F10200D6
:108C1000CCF0020000E30200FCEC00E0DCE2020029
:108C2000036801221A607047036801225A60704786
:108C3000F0B404684FF480358D40C4F808530668DA
:108C400001F15004C6F84853A4000668A4B20027F6
:108C5000375182B036590468019601F5A87122F0A7
:108C60007F42019E44F821200268C2F8445313B1A8
:108C70000368C3F8045302B0F0BC70472DE9F04715
:108C800004464FF4803600688E40C0F84863206880
:108C9000C0F80863206800EB81058A46D0F8041507
:108CA000D5F84005C5F840150AF15005AD00276814
:108CB000ADB24FF0000847F8058082B0401A7F59E6
:108CC000009720F07F40012822F07F479946009AC4
:108CD00041D02268D2F80455C2F844637A1B22F0CE
:108CE0007F42012A0AF5A87125D0226842F8217036
:108CF0002068D0F804557A1BC9F1FF13013A03F537
:108D00007F4322F07F42934211D342B1C0F84463C3
:108D100023680020C3F8046302B0BDE8F087013780
:108D200040F821702068D0F804359D42EED00D2027
:108D300002B0BDE8F08720680D4B013740F8217084
:108D400043F001034FF4806098472068D0F8043561
:108D50009D42DBD0EBE7064A4FF4806042F001020F
:108D60009047226842F8058052590192019AB0E773
:108D700020E3020002680223C2F8443311B1026802
:108D8000C2F80433704700BF0368D3F8040100B988
:108D90007047002282B0C3F80421D3F80431019354
:108DA000019B012002B0704702684FF4803303FA40
:108DB00001F1C2F848130368C3F80813704700BFF5
:108DC00050318900036889B2585800B970470022B1
:108DD0005A5082B05B580193019B012002B070474A
:108DE0000368D3F80405704790F90430002B09DBC1
:108DF0005A090548403203F01F03012101FA03F329
:108E000040F82230704700BF00E100E0024A034B07
:108E100010681B68184700BF1C2B0020242B002063
:108E200099B110B4B2FBF3F403FB1424A4B244B917
:108E3000C0E9001484608281C38120465DF8044B40
:108E4000704709205DF8044B70470E20704700BF43
:108E500030B482B050E8013F9DB2C4892544848972
:108E6000A54228BF2D1B0489A54202BFBFF32F8F47
:108E7000002207E0C5EA030540E80154002CE9D1CF
:108E80004FF001028DF803200193019B9DF8032010
:108E90000B602AB10B880068184402B030BC7047E0
:108EA00002F0FF03184602B030BC70470A884B88B6
:108EB0009A4201D00020704750E8012FC2EA0242D6
:108EC00040E80123002BF7D10120704730B482B075
:108ED00050E8023F1FFAA3F5C488A54202BFBFF3C2
:108EE0002F8F00220DE0C48925448489A54228BF24
:108EF0002D1BC3EA054540E80254002CE8D14FF091
:108F000001028DF803200193019B9DF803200B6063
:108F10002AB14B880068184402B030BC704702F098
:108F2000FF03184602B030BC704700BF0A884B8868
:108F30009A4201D00020704750E8022FC2EA224234
:108F400040E80223002BF7D1012070474A09012392
:108F500001F01F0100EB820003FA01F100F022B8DA
:108F600001F01F0201234909934000EB8100D9431E
:108F700000F026B84B0901F01F0150F82300C8404B
:108F800000F00100704700BF10B4034653E8000F23
:108F90000A4643E8002494F0000FF7D15DF8044B33
:108FA000704700BF10B4034653E8002F42EA0100A7
:108FB00043E8000494F0000FF6D15DF8044B7047CD
:108FC00010B4034653E8002F02EA010043E800040E
:108FD00094F0000FF6D15DF8044B704710B40346CF
:108FE00053E8002F02EB010043E8000494F0000F67
:108FF000F6D15DF8044B704710B4034653E8002FD8
:10900000A2EB010043E8000494F0000FF6D15DF8F4
:10901000044B704710B40346012253E8001F41EA95
:10902000020043E8000494F0000FF6D15DF8044B11
:10903000704700BF10B40346002253E8000F00EA57
:10904000020143E8001494F0000FF6D15DF8044BE0
:10905000704700BFB8B130B4D0E90112521A0468A9
:10906000D2B2531E2160DBB242B101680A685C1EB5
:10907000551C0D601370E3B2FF2BF6D1036800207E
:10908000187130BC70470E20704700BFF0B583B038
:10909000044600250DF107008DF80750FFF722FD6B
:1090A000D4E900311A688A4210D9511E196021682A
:1090B000A3680F6812F8015C0A79268AE068DB1B56
:1090C000DBB29A4206FB050538BF0B719DF807001D
:1090D000FFF72EFD284603B0F0BD00BF30B50546B2
:1090E00083B000230DF107000C468DF80730FFF721
:1090F000F9FC2A681368591C1160E9682A8A641A05
:10910000B4FBF2F41C709DF80700FFF711FD03B0EB
:1091100030BD00BF826842B110B5044643690168A2
:10912000006998470023A36010BD70470EB400B5D6
:1091300082B0039921B104AB01AA019300F0ACF80D
:1091400002B05DF804EB03B0704700BF2DE9F04FAB
:10915000164683B0B142DDE90C920F4605469A46A9
:10916000C0F095800B464FF00108B3FBF6F39E422A
:1091700008F10108F9D9D04538BFD04612F00103F3
:10918000019302D1B9F1000F5ED1AA68012403E076
:109190000AF1FF3A06FB04F4BAF1010FF8D8B7FB65
:1091A000F4F39E42F6D9DFF8ECA007E0B442B4FB3A
:1091B000F6F31AD3AA681C46B7FBF3F31AF803B008
:1091C000BBF10A0F04FB137728D02B68511CA96050
:1091D00003F802B0D5E901329A42E7D32846FFF7F7
:1091E00099FFB4FBF6F3B442E4D2019B9BB1B9F111
:1091F000000F10D02024C84509F1FF390BD2AB680D
:109200002A68591CA960D454D5E901329A4214D273
:10921000B9F1000FEFD103B0BDE8F08F511C2B68FE
:10922000A9604FF00D019954D5E901329A42CCD38F
:109230002846FFF76FFFAA68C7E72846FFF76AFFCF
:10924000B9F1000FD7D1E6E793071AD42024AA6812
:10925000C84502F1010199D22B68A9609C54D5E957
:1092600001329A4209F1FF3903D2B9F1000FEFD16F
:109270008CE72846FFF74EFFAA68B9F1000FE7D147
:1092800084E7BAF1000F0CBF30242024DFE74FF051
:10929000010870E728E30200002900F054822DE95C
:1092A000F04FDFF8B8950C7885B0064690460D462D
:1092B0004FF00D0A10E00A2CB36800F0AD80326860
:1092C000591CB160D454D6E901329A4280F0A08092
:1092D0002C78002C00F087800135002C00F0838072
:1092E000252CE8D1294600270D4611F8012B2D2AFF
:1092F00000F08880302A00F088802B2A7AD02A2A31
:1093000000F09980A2F13003092B4FF000040BD834
:1093100004EB840402EB440415F8012FA2F130039E
:10932000092BA4F13004F3D92E2A00F090800023F9
:1093300001E015F8012F02F0FB016829F9D0252A78
:1093400000F07781583AD1B2202947D8202A45D851
:10935000DFE812F0350144004400440044004400BA
:10936000440044004400440044004301130144000D
:1093700044004400440013014400440044004400FD
:1093800044004400D20044004400A2004400940081
:1093900044004400350101209842024638BF1A4675
:1093A0000292002C40F05081B80740F16E81002BF2
:1093B00040F04E821C46BBF1000FC0F20A827A07D1
:1093C00000F11A8207F00302022A00F0EA81CDE9D7
:1093D000004759460A223046FFF7B8FE01352C787F
:1093E000002C7FF479AF337B002B40F01C8105B05B
:1093F000BDE8F08F0D4611F8012B2D2A47F0040728
:109400007FF478AF47F001076EE747F002076BE79C
:109410003046FFF77FFE5BE73268591CB16002F807
:1094200003A0D6E901239342FFF449AF3046FFF78A
:1094300071FEB36843E7D8F800301A1DC8F8002061
:109440006A781C682E2A05F101057FF470AF6A78EE
:10945000A2F13003092B05F101054FF000033FF69F
:109460006AAF03EB830302EB430315F8012FA2F16C
:1094700030010929A3F13003F3D95CE7D8F80020C3
:10948000111DC8F8001011683046CDE900470A22C6
:10949000FFF75CFE0135A2E7D8F800301A1DC8F8C6
:1094A000002017F00107D3F800B040F0F080BBF1C6
:1094B000000F03D0584604F035FE0746BC4240F288
:1094C0004381002C00F04081202205E0BC4200F0E6
:1094D0003B81002C00F03881B1683368481CB060D3
:1094E0005A54D6E90130984204F1FF34EED33046A5
:1094F000FFF710FE2022E9E7D8F80020131DC8F876
:109500000030B36831681768581C3022B060CA5404
:10951000D6E90123934280F0EF803268581C78210D
:10952000B060D154D6E901329A4280F0E0800F2F2A
:1095300003D93B461B090F2BFCD84FF0805406E0A3
:109540000F2C4FEA14137FF649AFB2681C46B7FBE5
:10955000F4F319F803B0BBF10A0F04FB137754D0EE
:109560003368511CB16003F802B0D6E901329A4267
:10957000E6D33046FFF7CEFDE2E7D8F80020111D14
:10958000C8F80010D2F800B08BEAEB72A2EBEB72D5
:10959000092A7FF700AFDFF8C8C20120114663290E
:1095A000ACFB02E200F101004FEAD202F6DC984285
:1095B000024638BF1A460292002C45D1F4E6D8F88C
:1095C0000020111DC8F8001011683046CDE9004791
:1095D0001022FFF7BBFD013501E7D8F800301A1D56
:1095E000C8F800201C78B3680A2C00F0118132689A
:1095F000591CB160D454D6E901329A42FFF4EEAE60
:109600003046FFF787FD0135E9E63368511CB1604C
:1096100003F802A0D6E901329A42A1D33046FFF7FF
:1096200079FDB2689CE7304605B0BDE8F04FFFF722
:1096300071BDB3683168581CB060CA54D6E90132B4
:109640009A42DDD20135CAE6BBF1000F59DB7A0739
:1096500057D4B80702D5002B3FF4ADAEF9073FF55C
:10966000AAAE94B120220299A142BFF4A4AEB1687F
:10967000481CB06030684254D6E90101814204F1CF
:10968000FF3480F0D480002CEDD1002493E69BF8C9
:109690000030002B00F0E080B0685F46CBF10102A3
:1096A0000A2B02EB070B3CD0411CB16031680B5414
:1096B000D6E90130984226D217F8013F002BEFD1AE
:1096C0005C457FF68BAE202702E05C453FF486AE1A
:1096D000B2683368511CB1609F54D6E901329A4296
:1096E00004F1FF34F1D33046FFF714FDEDE73046C7
:1096F000FFF710FDB2681AE73046FFF70BFDB368BD
:109700000BE7013CA5E730460292FFF703FD17F88F
:10971000013F002BD4D0029AB0680A2B02EB070B52
:10972000C2D1411CB160316801F800A0D6E9011036
:109730008842B9D33046CDE90232FFF7EBFCDDE9D0
:109740000232B068B0E770479BF80040002C3FF44D
:1097500045AE0A2CB0680ED03368421CB2601C546F
:10976000D6E90130984214D21BF8014F002C3FF487
:1097700035AE0A2CF0D13368421CB26003F800A069
:10978000D6E901309842E7D33046FFF7C3FCB06812
:10979000E2E73046FFF7BEFC1BF8014F002CD8D1A2
:1097A0001CE6002B7FF413AE8CB130220299A1424B
:1097B000BFF40DAEB168481CB06030684254D6E9C1
:1097C0000101814204F1FF343BD2002CEED1002490
:1097D000FDE5B1684A1CB26032682D205054D6E9CC
:1097E00001219142CBF1000BFFF4ECAD3046039325
:1097F000FFF790FC039BE5E5B1684A1CB260326854
:109800002B205054D6E901219142FFF4DBADEDE766
:109810003268591CB16002F803A0D6E901239342D3
:10982000FFF4E5AE3046FFF775FCB368DFE630467F
:109830000393FFF76FFC039B2022002C7FF413AFF0
:1098400023E730460393FFF765FC039B3022BCE718
:10985000F9073FF5B0AD18E79B4631E728E3020072
:10986000CDCCCCCCFFF7F6BB2DE9F041058A033116
:10987000043D4E198046B6FBF5F6FFF707FCA0B392
:10988000F6B24FF48073013E0446C580C0F80080F4
:1098900083802BD00346002508E06279AE4202F1B6
:1098A000010262713860C0F800801FD040461F4638
:1098B000FFF7ECFB013503460028EED16779791EEE
:1098C00017D02246013399421268FBD1D2F80080AA
:1098D0005FB12668002501E034463668214601352F
:1098E0004046FFF7FBFBAF42F6D800242046BDE818
:1098F000F08120682146FFF7F1FBF6E7F8B54679DD
:109900000146701E13D00A460023013398421268A4
:10991000FBD1176856B10D68002401E029462D6877
:1099200001343846FFF7DAFBA642F7D8F8BDBDE8A8
:10993000F8400868FFF7D2BB04300121FFF74EBBA7
:109940002DE9F041012104460430FFF755FB10F0EA
:10995000FF0301D0BDE8F0816779791E16D0224659
:10996000013399421268FBD1D2F80080002FF1D068
:109970002668002501E03446366821460135404618
:10998000FFF7ACFBAF42F6D8BDE8F0812068214676
:10999000BDE8F041FFF7A2BB2DE9F8430546C688B4
:1099A0004079144606FB00F2043A04EB030C1F1D39
:1099B000624538BFD41ABE428846B7FBF6F106FBB3
:1099C000117002D801392D68FCD1371AA74228BF7F
:1099D00027469CB14FF000090430E41B28443A4666
:1099E00008EB090104F07EFBA642B9442D68374616
:1099F0004FF0000028BF2746002CEDD1BDE8F883CA
:109A00002DE9F8430546C6884079144606FB00F266
:109A1000043A04EB030C1F1D624538BFD41ABE4242
:109A20008846B7FBF6F106FB117002D801392D68A4
:109A3000FCD1371AA74228BF27469CB14FF0000936
:109A400004302918E41B3A4608EB090004F04AFBED
:109A5000A642B9442D6837464FF0000028BF27467C
:109A6000002CEDD1BDE8F88341DF7047064A074B73
:109A700010B5002414701C60BFF35F8F04490548C3
:109A800000F02AF9204610BD302B0020342B002096
:109A900044E30200282B002000B583B000230DF121
:109AA00007008DF80730FFF71DF8F1EE103A23F0AC
:109AB0009F03E1EE103ABFF35F8F0B4B4022C3F8D8
:109AC00084219DF80700FFF733F804F03FF928B927
:109AD00020BF40BF20BF03B05DF804FBFFF7C4FF09
:109AE00003B05DF804FB00BF00E100E0F0B5044600
:109AF00083B000250DF107000E468DF80750FEF7E4
:109B0000F1FF2368A26818685968914238BF4D1C5C
:109B1000A84212D0586859688A420BD800225A606D
:109B2000E268531E072B19D8DFE803F04540183BC5
:109B30001818183301315960F2E7217C002941D10E
:109B400058685D68AA423AD859602268A1681368CB
:109B50008B4234BF013300231360E1E76368314671
:109B600000FB023004F0BEFA2268136851688B4291
:109B700082BFA06801300918CB1A91689DF80700D0
:109B8000994238BF9360FEF7D3FF0024204603B00C
:109B9000F0BD6368D6E9006703EBC000C0E9006769
:109BA000E2E76368326843F82020DDE763683288C3
:109BB00023F81020D8E7636832781A54D4E70135C7
:109BC0005D60C2E79DF80700FEF7B2FF042420465F
:109BD00003B0F0BD70B5044682B000230DF107005C
:109BE0000D468DF807301646FEF77CFF236818688F
:109BF0005968884211D019682EB91A68A068824243
:109C000038BF561C1E60E268531E072B0DD8DFE8D4
:109C100003F0411A0C260C0C0C329DF80700FEF7DD
:109C200087FF0524204602B070BD6368284601FB0B
:109C3000023104F057FA9DF80700FEF779FF00247F
:109C4000204602B070BD63689DF8070033F81130FC
:109C50002B80FEF76DFF0024204602B070BD6368C4
:109C60009DF8070053F821302B60FEF761FF0024B8
:109C7000204602B070BD63689DF8070003EBC10188
:109C8000D1E90023C5E90023FEF752FF0024204656
:109C900002B070BD63689DF807005B5C2B70FEF737
:109CA00047FF0024204602B070BD00BF036818685B
:109CB0005B68C01AB0FA80F04009704782680023E0
:109CC000936082681361826853618268D36082689E
:109CD000536082681360704701600B6843604A6894
:109CE000934204BF00234360704700BF436843B101
:109CF000026891680B4443605268934204BF00239A
:109D00004360704770B54468064620680D4618B930
:109D100008E02468206828B1B368294698470028DD
:109D2000F7D120682860256070BD00BF43681868BF
:109D300008B102681A60704743681868704700BF2E
:109D40004368186818B908E00346006828B18142E2
:109D5000FAD10A681A60012070477047114910B49F
:109D6000A1F5947205E052F83330984238BF21468D
:109D70000CD28C1AE30F03EBE4035B10914202EB6D
:109D8000C304F0D808485DF8044B704702D904F1C9
:109D90000802EEE76068044B5DF8044B002808BF3A
:109DA0001846704784E8020048E7020010B4814B6F
:109DB0001B68082B21D0804AD2F8883043F4700306
:109DC000C2F88830BFF34F8FBFF36F8F794B1B689A
:109DD000082B00F0AA804FF01023D3F80022002AAD
:109DE000C0F2B680D3F80432002BC0F2B180734BBE
:109DF000734A1A605DF8044B70474FF080414FF092
:109E000080520020C1F80C016E4BC1F81001C1F85E
:109E10003805D2F80414C3F82015D2F80814C3F892
:109E20002415D2F80C14C3F82815D2F81014C3F86E
:109E30002C15D2F81414C3F83015D2F81814C3F83E
:109E40003415D2F81C14C3F84015D2F82014C3F806
:109E50004415D2F82414C3F84815D2F82814C3F8CE
:109E60004C15D2F82C14C3F85015D2F83014C3F89E
:109E70005415D2F83414C3F86015D2F83814C3F866
:109E80006415D2F83C04C3F868054F49D2F8400481
:109E9000C3F86C050968D2F84424C3F87025052975
:109EA00037D84A4B5B5C13B1494B4A4A1A604A4B5C
:109EB0005B5C63B13F4B49491B68434AFB20C1F8D7
:109EC0001805082B11687FF476AF052921D8444B7B
:109ED0005B5C93B14348444B364C02681B68246872
:109EE000394922F00F0203F00F031343082C0968CD
:109EF00003607FF460AF05290BD83C4B5B5C43B13A
:109F00002C4B3B4A1B684FF40071082B11607FF407
:109F100052AF4FF08043D3F80024D2077FF54BAF08
:109F20006FF00102C3F8002445E7274B1B68052B9F
:109F300008D94FF010224FF08043D2F80822C3F81E
:109F4000582548E72B4AD35C002B3FF444AFF0E799
:109F5000294A0123C2F80435D2F80034002BFBD083
:109F60004FF010231221244AC3F80012D2F8003413
:109F7000002BFBD04FF0102312211F4AC3F804120C
:109F8000D2F80034002BFBD000231B49C2F8043563
:109F9000D1F80034002BFBD0BFF34F8F0649174B8D
:109FA000CA6802F4E0621343CB60BFF34F8F00BF77
:109FB000FDE700BF3001001000ED00E0101E0020A2
:109FC0000090D00300C00040340100108CE8020073
:109FD0008C560040488103008CE8020000F00040ED
:109FE0008CE80200E40E0040580200108CE80200E9
:109FF0004096024084E8020000E001400400FA05B7
:10A00000064B1A5C1F2A86BF054902F01F024FF05B
:10A01000A04101239340C1F80C35704794E8020039
:10A0200000030050064B1A5C1F2A86BF054902F048
:10A030001F024FF0A04101239340C1F8083570473B
:10A0400094E8020000030050C20730B40ED4830726
:10A050000AD54FF0A0430C22C3F82C27C3F83027B1
:10A06000C3F86027C3F8642730BC70474FF0A043A3
:10A070000322C3F834274FF40055C3F838274FF4B0
:10A080008044C3F83C274FF40041C3F840274FF405
:10A090008032C3F80855C3F80845C3F80815C3F85B
:10A0A0000825D4E710B568B90E4CA3680122627088
:10A0B0003BB1D3E900230020A2609847A368002B9E
:10A0C000F7D110BD0128FCD1064C2369A070002BEC
:10A0D000F7D0D3E900230120226198472369002BA0
:10A0E000F7D110BD382B002070B910B5074CA3680C
:10A0F000012262703BB1D3E900230020A26098479F
:10A10000A368002BF7D110BD704700BF382B00208B
:10A1100030B5012883B004D0032821D0B0B103B0FA
:10A1200030BD294C00230DF107008DF80730FEF7F4
:10A13000D9FC23786BB3E3689DF807000133012253
:10A14000E360A270FEF7F4FC03B030BD1F4B0122A8
:10A15000C3F88020BFF34F8FBFF36F8F03B030BDC4
:10A16000194C00F0BDF800230DF107008DF8073001
:10A17000FEF7B8FCE368013BE360E3681BB9144BEE
:10A18000D3F80054C5B19DF80700FEF7D1FC03B029
:10A1900030BD10486360A3602361E36000F094F871
:10A1A00003F0D4FD60B10A4A01232370D2F80024E1
:10A1B000002AC0D0A370BEE700F0A4F8A570E2E7C3
:10A1C00000F08EF8EFE700BF382B002000E100E040
:10A1D00000000140A5A0020030B585B004784568B4
:10A1E0008DF80040D0E90240064A074B039053F82F
:10A1F0002130019552F821108DF8084068469847A3
:10A2000005B030BD4C2B0020542B002030B585B05C
:10A21000047845688DF80040D0E90240064A074BB3
:10A22000039053F82130019552F821108DF8084021
:10A230006846984705B030BD4C2B0020542B0020B9
:10A240002DE9F047DFF8748090F800E04B7F08F8C4
:10A250000E300D46074616460FCD88B06C460FC42B
:10A2600095E80F003D78DFF85890DFF858C018F8EF
:10A27000055049F82E6084E80F004CF82E00CDF808
:10A2800010E05DB1002E0B4A694607F1040008BFDB
:10A29000324601F08FF808B0BDE8F087002E064A7C
:10A2A000694607F10C0008BF324600F0E9FD08B02E
:10A2B000BDE8F087D9A102000DA202001C2F0020EA
:10A2C000542B00204C2B0020044A137923B9012180
:10A2D0001060918018467047852070475C2B0020E5
:10A2E000074B1A68D20704D4C02283F80023012246
:10A2F0001A604FF080430122C3F81825704700BF51
:10A3000000E100E010B40B4B0B494FF080420020FD
:10A310000224C2F8084383B018601B68019301232C
:10A3200001980B60D2F81834DB03FBD403B05DF85E
:10A33000044B7047040100400C00004010B5174B5F
:10A340001A6882B062B10021154A19601B68507901
:10A3500000934FF080410123009CC1F8083398B16D
:10A36000104B1A68BAB100221A601B6801934FF0B3
:10A37000804202210A4B0198C2F808131B68012091
:10A3800002B0BDE810401847116853718847054B6B
:10A390001A68002AE7D102B010BD00BF00010040DA
:10A3A0005C2B002004010040F0B5264C94F86A3084
:10A3B00083B0002B42D14FF6FF70FF255A09012AC6
:10A3C0000CBF02464FF0FF3203F01F01CA40D20714
:10A3D00048BFE21803F1010348BF82F83050302B28
:10A3E000ECD14FF0FF334FF0FF364FF0FF3706222E
:10A3F000002115482366C4E90233C4E90433C4E9E3
:10A400000633C4E90833C4E90A33C4E9006703F03A
:10A4100077FE0E4BC02283F8062340221A600C4BB5
:10A420000C4A002018601B68019301214FF0004383
:10A43000019D84F86A10C2F8043300E0082003B0DC
:10A44000F0BD00BF682B0020CC2B002000E100E015
:10A450007C61004000600040034B93F86A000038C4
:10A4600018BF0120704700BF682B0020F0B4754B67
:10A470001D1895F93040002C61DA8C78A707C4F3D9
:10A48000400C53D41C6A013400F0D5805C6A01345E
:10A4900000F0CA800C260A2453F82450013552D00B
:10A4A000651CB5423FD253F82570013700F0B480E7
:10A4B000A51CB54237D253F82570013700F0AC80A7
:10A4C000E71CB7422FD253F8275001353AD0271D49
:10A4D000B74228D253F82750013533D0671DB74211
:10A4E00021D253F8275001352CD0A71DB7421AD2DC
:10A4F00053F82750013525D0E71DB74213D253F842
:10A50000275001351ED004F10807B7420BD253F88B
:10A510002750013516D00934B44204D2DC6A013424
:10A5200008BF0B240FD00420F0BC70471C68013416
:10A5300074D05C6801346DD008260224ACE7082092
:10A54000F0BC70473C461E1865B243F8242086F8DC
:10A550003050BCF1000F02D11C4484F858008A78B6
:10A5600054071AD4D60744D41F284C7887BF364ED8
:10A5700000F01F0202464FF0A04602F5E072A40070
:10A5800046F82240314EC40800F0070C375D012226
:10A5900002FA0CF23A4332558A7812F002021CD0C9
:10A5A000AB0003F1804303F5C0430978D3F81045AD
:10A5B00024F44F3424F44074C3F810450202090413
:10A5C000D3F8100501F4403102F47C520A430243EF
:10A5D000C3F810250020F0BC7047083D2B440878D4
:10A5E00093F8601041EA801183F860101046F0BCC7
:10A5F00070471F2887BF144A00F01F0404464FF01D
:10A60000A04202EB8402D2F8004724F00204C2F810
:10A610000047B7E7012496E72C4694E7002485F825
:10A6200030401A6025469AE7092685F830605A625C
:10A630003446354690E7082685F830601A6234467D
:10A64000354689E7682B002000030050CC2B002002
:10A6500070B4324C251883B095F93030072B22DDC9
:10A66000234493F858309B09032B46D0012B0CBF91
:10A670004FF400324FF440321F288ABF284B4FF06E
:10A68000A04300F01F0003EB8000D0F8003723F454
:10A690004033C0F80037D0F800371A43C0F800271D
:10A6A00003B070BC7047DAB2072AF9D8980000F1FD
:10A6B000804000F5C04003F140029200D0F81065E0
:10A6C00092B202F1804202F5C04246F00106C0F8A3
:10A6D00010650020106012680192019A0029DFD0F5
:10A6E00095F9302054F82220002AD9D00D490122B2
:10A6F00002FA03F3C1F80433D2E71F288ABF084ADD
:10A700004FF0A04200F01F03D2F8102598BF034677
:10A71000DA4002F0010202321204ADE7682B002099
:10A7200000030050006000401F288ABF054B4FF017
:10A73000A04300F01F00D3F8103523FA00F000F01A
:10A7400001007047000300502DE9F047002384B05A
:10A75000CDE90233D54A1168012900F040821E4636
:10A76000D34B1A68012A00F02C82D24B1A68012AB6
:10A7700000F01982D04B1A68012A00F00682CF4BF4
:10A780001A68012A00F0F381CD4B1A68012A00F003
:10A79000E081CC4B1A68012A00F0CD81CA4B1A68BF
:10A7A000012A00F0A181C94B1A68012A20D0E6B124
:10A7B000C74F00240125A30003F18043354203F570
:10A7C000C0434FEA45050BD0D3F8100557F82420B5
:10A7D000D3F81015C0F30520C1F3014102B1904731
:10A7E0000134082CE7D1002E17DB04B0BDE8F08758
:10A7F00000221A601B6801934FF0A042019BD2F81F
:10A800002015B44B0291C2F82015D3F820250392ED
:10A81000C3F82025002E40F08B81AD4CAD4E0125B4
:10A820004FF0A04794F96000431C46D0C0F3C20229
:10A8300004AB1A4400F0070312F8082C05FA03F3DE
:10A840001A42C1B200F03F0037D01F2800F2258124
:10A8500002464FF0A04909EB820304EB000ED3F847
:10A8600000C7D3F8008728F44038C3F80087CCF33A
:10A87000014C9EF93080D3F800E754F82880BCF1F1
:10A88000020F0CBF4FF4403A4FF4003A05FA02F2BF
:10A890004EEA0A0EC3F800E7C9F82025B8F1000F08
:10A8A0000BD08909032900F0B381BCF1020F00F03D
:10A8B000BE81BCF1030F00F0A88194F96100411C36
:10A8C00046D0C0F3C20204AB1A4400F0070312F8EA
:10A8D000082C05FA03F31A42C1B200F03F0037D04A
:10A8E0001F2800F2DE8002464FF0A04909EB8203E8
:10A8F00004EB000ED3F800C7D3F8008728F44038E3
:10A90000C3F80087CCF3014C9EF93080D3F800E700
:10A9100054F82880BCF1020F0CBF4FF4403A4FF4BA
:10A92000003A05FA02F24EEA0A0EC3F800E7C9F847
:10A930002025B8F1000F0BD08909032900F06D81A3
:10A94000BCF1020F00F06B81BCF1030F00F06281DB
:10A9500094F96200421C46D0C0F3C20204AB1A4410
:10A9600000F0070312F8082C05FA03F31A42C1B2EB
:10A9700000F03F0037D01F2800F2AE8002464FF0B3
:10A98000A04909EB820304EB000ED3F800C7D3F80B
:10A9900000879EF930E028F44038C3F80087CCF3F4
:10A9A000014CD3F800A754F82E80BCF1020F0CBF65
:10A9B0004FF4403E4FF4003E05FA02F24EEA0A0E12
:10A9C000C3F800E7C9F82025B8F1000F0BD08909BA
:10A9D000032900F01381BCF1020F00F02481BCF1C7
:10A9E000030F00F0088194F96300431C45D0C0F3C5
:10A9F000C20204AB1A4400F0070312F8082C05FA4F
:10AA000003F31A42C1B200F03F0036D01F2867D8C6
:10AA100002464FF0A04909EB820304EB000ED3F885
:10AA200000C7D3F800879EF930E028F44038C3F817
:10AA30000087CCF3014CD3F800A754F82E80BCF16A
:10AA4000020F0CBF4FF4403E4FF4003E05FA02F2F5
:10AA50004EEA0A0EC3F800E7C9F82025B8F1000F46
:10AA60000BD08909032900F0CE80BCF1020F00F061
:10AA7000E280BCF1030F00F0C380D7F820250292DA
:10AA8000C7F82025D6F820350393C6F820351343A0
:10AA90007FF4C8AE04B0BDE8F08701F01F02B146F4
:10AAA000D9E601F01F02B14620E700BF0061004077
:10AAB00004610040086100400C61004010610040EA
:10AAC00014610040186100401C6100407C6100403E
:10AAD000682B00200003005001F01F02B14650E730
:10AAE00001F01F02B14696E7554AD2F80423120638
:10AAF0007FF559AE00221A6019680091196E00980E
:10AB0000012903F1600346F080067FF450AE1A601D
:10AB10001B6801934FF0A042019BD2F82015494BCE
:10AB20000291C2F82015D3F820250392C3F82025FE
:10AB300046F000463CE6424AD2F8042351067FF52F
:10AB40002DAE00221A601B680093009B46F0400661
:10AB500024E63B4AD2F8042390067FF51AAE002281
:10AB60001A601B680093009B46F0200611E6344AE9
:10AB7000D2F80423D4067FF507AE00221A601B68C2
:10AB80000093009B46F01006FEE52D4AD2F8042300
:10AB900015077FF5F4AD00221A601B680093009B37
:10ABA00046F00806EBE5264AD2F8042357077FF55E
:10ABB000E1AD00221A601B680093009B46F004067A
:10ABC000D8E51F4AD2F8042392077FF5CEAD0022C4
:10ABD0001A601B680093009B46F00206C5E5184901
:10ABE000D1F8046316F001063FF4BAAD13601368A0
:10ABF0000093009BB4E502297FF4F5AEC047F2E66E
:10AC000002297FF43AAFC04737E702297FF455AEF7
:10AC1000C04752E602297FF49BAEC04798E601295F
:10AC20007FF496AEF9E701297FF4DDAEE6E701296E
:10AC30007FF443AEECE701297FF41FAFE3E700BFE9
:10AC40000060004000030050014B1B68184700BF24
:10AC5000D42B0020114B98421DD130B583B0002376
:10AC60000DF107008DF807300D46FDF73BFF0C4B4B
:10AC70001C794CB99DF807001D6001221A71FDF77F
:10AC800057FF204603B030BD9DF80700FDF750FF89
:10AC9000112003B030BD0020704700BF00200040ED
:10ACA000D42B0020034B984203D1034B00221A609F
:10ACB0001A71704700200040D42B002030B56E4A36
:10ACC000D2F8043399058BB068D5D2F82431002B23
:10ACD00064D00023C2F82431D2F8243101934FF418
:10ACE0000171664B0198C2F8081393F8291009B94D
:10ACF00001215160604902228DF81820D1F880248A
:10AD0000C1F880249869D968099200240025CDE90A
:10AD10000710C3E90645D3E9001206A89047564A32
:10AD2000D2F81C31C3B1554B5869196A88426AD9A7
:10AD300093F8281001F0FF00002964D1C2F81C012B
:10AD4000D2F81C11039103999C68186A196A205C57
:10AD500001311962C2F81C05474AD2F84431DBB10F
:10AD60000021464BC2F84411D2F8440193F829104F
:10AD70000090009809B1012111609A6962B1586A86
:10AD8000D96800229A610122CDE907108DF81820B8
:10AD900006A8D3E9001290470BB030BD364AD2F86E
:10ADA00004335B07BBD5D2F80831002BB7D0334B47
:10ADB000996900293ED00021C2F80811D2F8081183
:10ADC00004910499D868596AD2F8182542545A6AED
:10ADD000996901325A625A6A8A42A0D1DA69002A14
:10ADE00031D0DD685C6A18699A6101210022D8605F
:10ADF000DA615A628DF81810CDE90754D3E90012D0
:10AE000006A890478BE71C4A0021C2F81C11D2F813
:10AE10001C210292029A5A69002A9DD058699A68A8
:10AE20008DF8181008905961079206A8D3E900120E
:10AE3000904791E7C2F80811D2F8080105900598EB
:10AE4000D2F81825C7E793F8292012B90A4A012138
:10AE50005160094A4FF40171C2F80813596ADA685F
:10AE600008910024012007928DF81800D3E9001200
:10AE70009C6106A8904752E700200040E02B00208C
:10AE80002DE9F041DFF8E48106792C2303FB0683EA
:10AE900082B093F82A30002B40F09E8005460C4685
:10AEA00000686D491746FFF7D5FE002840F09080F6
:10AEB0002368591C19D01F2B4FF001028ABF674924
:10AEC0004FF0A04103F01F0302FA03F3C1F8083565
:10AED00023681F2B86BF03F01F03604A4FF0A04278
:10AEE00003F5E073032142F8231063685A1C0BD06A
:10AEF0001F2B86BF03F01F03584A4FF0A04203F5F3
:10AF0000E073002142F823102B68A269C3F82425BE
:10AF1000217D637D2A680B43C2F86C35D4E90012A9
:10AF20002B68C3F81425C3F80C15237D012B5FD0C3
:10AF30002C2303FB06F308EB03025760226948F851
:10AF400003202A6897B30021237FC2F81C11D2F88E
:10AF50001C2100922A68009FC2F84411D2F84411C3
:10AF60002A6801913E4C0199C2F804432A6842F3D1
:10AF7000073100294FEA123232DB01F1604101F55D
:10AF800061415B01DBB281F800332A6842F3073389
:10AF9000002B4FEA123109DB324C01225B0901F030
:10AFA0001F0102FA01F144F823102A682C2303FB45
:10AFB0000686012400230421C2F80015C6E90633E1
:10AFC00086F82A4086F82930736102B0BDE8F08126
:10AFD000112002B0BDE8F081082002B0BDE8F08188
:10AFE000214902F00F025B011144DBB20B76CCE782
:10AFF000A368591C0BD01F2B86BF03F01F031749F2
:10B000004FF0A04103F5E073002241F82320E368EC
:10B010005A1C1AD01F2B8ABF10494FF0A04103F0D1
:10B020001F03012202FA03F3C1F80835E3681F2B5E
:10B0300088BF03F01F0303F5E0738CBF07494FF08F
:10B04000A041032241F82320E3682A68A168C2F8DE
:10B050000835C2F810156BE7BDAC020000030050C4
:10B060008000020000E100E0FCEC00E0E02B0020AA
:10B07000F8B53E4F047902682C2303FB04730021CA
:10B080005B68C2F80015C3B10368394AC3F80823E6
:10B09000036843F30732002A4FEA13310EDB5209EB
:10B0A000344D2032012301F01F0103FA01F145F86C
:10B0B0002210BFF34F8FBFF36F8F0368D3F80C6577
:10B0C000D3F81455D3F80825D3F810154FF0FF3CEA
:10B0D000C3F814C5C3F80CC503686645C3F808C5B2
:10B0E000C3F810C50CD01F2E86BF06F01F06224BDA
:10B0F0004FF0A04306F5E0764FF0020C43F826C06F
:10B100006E1C0BD01F2D86BF05F01F051A4B4FF08C
:10B11000A04305F5E075022643F825604D1C0BD0D1
:10B120001F2986BF01F01F01134B4FF0A04301F50B
:10B13000E071022543F82150531C0BD01F2A86BF13
:10B1400002F01F020C4B4FF0A04302F5E072022107
:10B1500043F822100068FFF7A5FD2C2303FB0474BD
:10B16000002384F82A306360F8BD00BFE02B002084
:10B170008402020000E100E0000300502DE9F041EC
:10B18000314E05792C2303FB05630446586984B0CE
:10B1900000284CD15A619960186283F8280022680F
:10B1A000C2F81C01D2F81C11226802910121029FF1
:10B1B00091602268D3F808C0C2F81C01D2F81C11B3
:10B1C000019101991F6A196A1CF80770013119620F
:10B1D000C2F81C755A6812B104B0BDE8F0815F690D
:10B1E0001A6A216897421BD9864602E093F8282004
:10B1F0000ABBD1F81C21002AF8D0C1F81CE1D1F813
:10B200001C210392039AD3F820801A6A1CF8088044
:10B2100001321A62C1F81C851A6A9742E9D821687E
:10B22000D1F81C31002BFBD00123CB6004E01120AE
:10B2300004B0BDE8F0810F202C2303FB056500233B
:10B240006B6104B0BDE8F081E02B002030B5574BB6
:10B25000D3F824218BB0002A75D00022C3F8242112
:10B26000D3F82421049202228DF81820049AD3F8EE
:10B2700080144F4AC3F880140991D3F83C15D36861
:10B280000891002400250793C2E906451168536818
:10B2900006A89847454BD3F8442152B10021444AAF
:10B2A000C3F84411D3F8440191690390039800292D
:10B2B00038D13E4BD3F820215AB10021C3F82011D8
:10B2C000D3F8202102920120394A029CD8605069AB
:10B2D000D8B9364BD3F85821AAB10021C3F8581178
:10B2E000D3F85801324A01900198506958B1D3F807
:10B2F0004C05936808908DF818105161079306A8C3
:10B30000D2E9001398470BB030BDD3F84C059368D1
:10B3100008908DF818105161079306A8D2E9001320
:10B320009847D6E7D3F83C35D16808930024002528
:10B33000012307918DF81830C2E90645D2E90013C0
:10B3400006A89847B5E7D3F810110029A2D0C3F892
:10B350001021D3F810111648059105998469D3F886
:10B360003C15A14296D1C469A4B1D3F800528461BE
:10B3700025F02005C3F80052D0E90343C261012241
:10B380000891C3600168436807948DF8182006A8E7
:10B3900098477FE7C26884610123CDE907218DF8D2
:10B3A0001830D0E9001306A8984773E70020004042
:10B3B000102C00202DE9F0430779824E07EBC703DC
:10B3C00006EB830387B093F82030002B40F0B98060
:10B3D00004460D4600687C499046FFF73BFC002878
:10B3E00040F0AB802B68591C4FEAC70919D01F2BBE
:10B3F0004FF001028ABF75494FF0A04103F01F03CF
:10B4000002FA03F3C1F808352B681F2B86BF03F03F
:10B410001F036E4A4FF0A04203F5E073032142F888
:10B4200023106B685A1C0BD01F2B86BF03F01F0321
:10B43000664A4FF0A04203F5E073002142F8231062
:10B440002368AA69C3F82425297D6A7D23680A43F5
:10B45000C3F86C25D5E900312268C2F80C35C2F872
:10B4600014152B7D012B78D009EB070206EB820324
:10B47000C3F804802B6946F82230B8F1000F4BD096
:10B4800021682B7F524D0022C1F81021D1F81011F4
:10B4900001912168DDF804C0C1F82021D1F8201104
:10B4A00002912168DDF808C0C1F82421D1F82411E7
:10B4B00003912168DDF80CC0C1F84421D1F8441192
:10B4C00004912168DDF810C0C1F85821D1F8581155
:10B4D000226805910599C2F80453226842F30731A6
:10B4E00000294FEA123230DB01F1604101F5614180
:10B4F0005B01DBB281F80033226842F30733002B93
:10B500004FEA123109DB334D01225B0901F01F01C3
:10B5100002FA01F145F8231022684F4406EB870632
:10B52000002301240821C2F80015C6E9063386F875
:10B530002040736107B0BDE8F083112007B0BDE87B
:10B54000F083082007B0BDE8F083234902F00F0222
:10B550005B011144DBB20B76CEE7AB68591C0BD014
:10B560001F2B86BF03F01F0318494FF0A04103F5BE
:10B57000E073002241F82320EB685A1C1AD01F2BDD
:10B580008ABF12494FF0A04103F01F03012202FAC3
:10B5900003F3C1F80835EB681F2B88BF03F01F03C6
:10B5A00003F5E0738CBF09494FF0A041032241F835
:10B5B0002320EB682268A968C2F80835C2F8101584
:10B5C00052E700BF102C00204DB2020000030050D3
:10B5D0001003420000E100E0FCEC00E02DE9F04146
:10B5E0000579564C05EBC50304EB830301465B6804
:10B5F000006882B0EE00C3B1514BC0F808330B684D
:10B6000043F30732002A4FEA13330EDB5209DFF807
:10B6100038C12032012703F01F0307FA03F34CF867
:10B620002230BFF34F8FBFF36F8F721904EB82028A
:10B63000D0F80032926923F02003C0F8003242B102
:10B640000023C0F84431D0F8443100930123009A1C
:10B6500043600023C0F85831D0F858310193731972
:10B66000012204EB8303019FC2609A69D0F858312C
:10B67000002BFBD01AB1D0F84431002BF6D00023B8
:10B68000C0F800350B684FF0FF38D3F80CE5D3F85D
:10B6900014C5D3F80825D3F81075C3F80C85C3F882
:10B6A00014850B68C645C3F80885C3F810850CD00F
:10B6B000BEF11F0F86BF0EF01F0E22494FF0A041B2
:10B6C0000EF5E07E022341F82E30BCF1FF3F0CD096
:10B6D000BCF11F0F86BF0CF01F0C1A494FF0A041A0
:10B6E0000CF5E07C022341F82C30791C0BD01F2F85
:10B6F00086BF07F01F0713494FF0A04107F5E07719
:10B70000022341F82730531C0BD01F2A86BF02F0BA
:10B710001F020C494FF0A04102F5E072022341F8EC
:10B720002230FFF7BFFA354404EB8504002384F888
:10B730002030636002B0BDE8F08100BF102C002013
:10B74000100342000003005000E100E0F0B401F0FB
:10B750006044B4F1005F82B02CD10579274E05EB2F
:10B76000C50406EB840403466069EF0000283ED15F
:10B770006261A1601A68C2F82001D2F820C11A687B
:10B78000CDF804C0DDF804C0C2F85801D2F8582141
:10B7900000921A68DDF800C0D4F814C0C2F844154D
:10B7A000C2F848C51A6801219160626832B102B0DE
:10B7B000F0BC7047102002B0F0BC70471A6800E07F
:10B7C000C8B9D2F82011D2F858010029F8D090B9A0
:10B7D0000121D1601B68D3F85821002AFBD07B19C6
:10B7E00006EB830300225A6102B0F0BC70471120BF
:10B7F00002B0F0BC70470F20F1E700BF102C002012
:10B80000032806D8012A06D001291BD0022908D016
:10B8100071B107207047012911D002294FF00002B1
:10B82000F6D10B4B00EB4000034400205A707047E8
:10B83000074B00EB4000034408469A70704700F144
:10B840000E02D2B200EB400301490020CA547047F7
:10B85000342C002010B50388102B07D0112B04D1F5
:10B86000254B18680138186030B110BD224C216892
:10B8700011B30131216010BD01220221FFF7C0FF89
:10B8800040B1072806D01D4B1B68002BEDD0BDE84A
:10B8900010401847072202210120FFF7B1FF08B12D
:10B8A0000728F0D1002108460A22FFF7A9FF002847
:10B8B000DBD00728E7D1D8E701220846FFF7A0FF31
:10B8C00038B1072805D00D4B1B6803B19847216894
:10B8D000CFE7072202210120FFF792FF08B10728D6
:10B8E000F1D1042202210020FFF78AFF0028EED0C8
:10B8F0000728E8D1EBE700BF442C0020402C0020B3
:10B9000075DF704776DF70478FDF7047FCF73EBE0C
:10B910000146014801F0C6BFD42D00200378052B55
:10B9200000D0704740680028FBD0FCF72FBE00BF56
:10B930000B2801D0FCF72ABE10B50E480C4602F0C9
:10B9400037F948B143F20202904212D0082810D0D1
:10B95000BDE81040FCF71ABE0748084B0849C01A5A
:10B96000C0080004224640F00300BDE81040FCF788
:10B9700029B810BDD42D0020F4F00200CCF0020054
:10B98000C4E8020070B50E78012E0C4613D0022ECA
:10B9900029D11B4B1B480A791B49C01AC008000457
:10B9A00040F00300FCF70EF823793046E3B1BDE820
:10B9B0007040FEF725BB0A1D05464988134802F072
:10B9C00029F90F4B0F4862881149C01AC0080004BA
:10B9D00040F00300FBF7F6FFFCF7C2FD60B9284614
:10B9E00002F0BEF820B970BDBDE87040FEF71ABB8A
:10B9F000BDE87040FCF7CABDFCF7C8FDEFE700BF2B
:10BA0000CCF00200F4F0020010E90200D42D002076
:10BA1000DCE8020010B50388212B82B004462ED842
:10BA20000F2B2AD9103B112B27D8DFE803F0094848
:10BA3000262626262626262626262626264026367C
:10BA40002E4B2F482F49C01AC008000440F00300B5
:10BA5000FBF7F2FEA1882C48002202F0DBF8002858
:10BA600043D1A188294800F03BFD002843D10120A3
:10BA7000FEF7C6FA0020FEF7D5FA02B010BD3B2B48
:10BA800001D0562BF9D1A0881321FFF73BFF0028E6
:10BA9000F3D0FCF77BFD02B010BD00238088ADF829
:10BAA000043001A9FFF730FF0028E6D0F1E700F1EC
:10BAB00008018088FFF724FF0028DED0E9E70F4B5C
:10BAC0000F481349C01AC008000440F00300FBF7F8
:10BAD000B3FE104801F0C0FD50B90120FEF7A2FAF4
:10BAE0000020FEF78DFA02B010BDFCF74FFDB8E75D
:10BAF000FCF74CFDF1E7FCF749FDB8E7CCF002009C
:10BB0000F4F0020038E90200D42D0020341E002099
:10BB100044E90200002E002000B54FF4804185B0BA
:10BB20000020FBF711FD002840F08480FBF7FCFCAF
:10BB3000FCF72EFF002840F0A4800120FEF784FAD5
:10BB4000514840F233320121FCF7AAFC002840F0B2
:10BB50009580FDF78BFF002840F08D8002F06AF899
:10BB6000002840F08580002369460120009302F000
:10BB70003DF9002879D1684602F0F6F9002871D124
:10BB800010220021684602F0BBFA01233F4A4048D8
:10BB90008DF8043069468DF80C3001F007FD00285F
:10BBA0005DD13B480022012101F0ECFC002853D17B
:10BBB000384A3748002101F0B3FC002849D1364803
:10BBC000002101F003F9002840D108220021684635
:10BBD00002F096FA314C324B00936846019400F023
:10BBE000FDFB80BB2F4A304B304802936946CDE9BC
:10BBF000002401F053FF18BB2D4B2E482E49C01ACC
:10BC0000C008000440F00300FBF716FE204801F0D6
:10BC100023FD90B90120FEF705FA0020FEF7F0F9A8
:10BC20000020FEF7EDF9FBF7DFFC0028FBD1FDF764
:10BC300033FFF8E7FCF7AAFC78E7FCF7A7FCE9E795
:10BC4000FCF7A4FCD8E7FCF7A1FCCBE7FCF79EFCD3
:10BC5000BBE7FCF79BFCB2E7FCF798FCA8E7FCF716
:10BC600095FC9EE7FCF792FC8AE7FCF78FFC82E7E5
:10BC7000FCF78CFC77E7FCF789FC6FE7FCF786FCA8
:10BC800067E7FCF783FC58E7141E00201DB902008B
:10BC9000002E002088E90200EC2D00201C1E002050
:10BCA00011B9020085B902000DB90200D42D00209F
:10BCB000CCF00200F4F0020054E9020032B3F8B50F
:10BCC000054608B3012916464FF000030ADDEA18BD
:10BCD0005278092A06D0EA5C013213449BB25A1CFE
:10BCE0008A42F4DB8B420FD2EA5C6AB1013A97B226
:10BCF00057B102339CB2E3198B4205DC24B13046C4
:10BD000002F010FAB84203D00020F8BD00207047BE
:10BD100002462919304602F0D7F9B0FA80F04009FE
:10BD2000F8BD00BF2DE9F04703888788103B98B025
:10BD300004460A2B1CD8DFE803F030291B1B1B1B11
:10BD40001B1B1B1E0600037A46483F2B4FEA1314A9
:10BD5000394667D8FDF704F9032C65D042483946C7
:10BD6000FDF7FEF8022C63D040483946FDF7F8F89D
:10BD700018B0BDE8F087037A002BF9D1437A39482F
:10BD80001B0739466BD5FDF7E1F8F1E7384839462E
:10BD9000FDF7E6F818B0BDE8F087364A9368DB4354
:10BDA000009351686846FDF70BF9009B0193019BD6
:10BDB00083B300263546294601A8FDF7DBF828B1F4
:10BDC00018AB03EB4603013623F8285C0135142D2C
:10BDD000F1D10D960DF1340CBCE80F0002AD0FC58A
:10BDE000BCE80F000FC59CE8070085E807008EB18E
:10BDF0000DF10A08DFF888A008EB460638F8029F24
:10BE00001D4D284649460435FDF7AAF8AA45F8D144
:10BE1000B045F3D1132F12D90420FCF7B7FB18B0AB
:10BE2000BDE8F087FDF792F80F483946FDF78EF828
:10BE30000E483946FDF78AF818B0BDE8F0870C487F
:10BE40003946FDF783F80C483946FDF77FF8E37B68
:10BE5000022B8DD109483946FDF778F888E7FDF7C0
:10BE60007FF885E7802E00207C2E0020782E002091
:10BE7000702E0020682E00206C2E0020742E0020D2
:10BE8000E42E00202DE9F84F684F90F8C6623D6817
:10BE9000C6EB0613C6EB8303044600EB430045B331
:10BEA00088465900624B807893F802C0844500F0C0
:10BEB000A580012D1DD993F806C0844500F0A68009
:10BEC000022D16D093F80AC0844500F0A780032DF8
:10BED0000FD093F80EC084450DD0042D09D093F8EF
:10BEE00012C084457CD0052D03D093F816C084453C
:10BEF0007ED0BDE8F88FB3F80CE034F801C0E64519
:10BF0000EBD14C4BD3F800B0BBF1000FF1D0D4F81B
:10BF1000CC92B9F1050FECD804EBC91A7623AAF834
:10BF2000D22203FB06411A460AF5357002F0DAF810
:10BF3000B8F1000F09F1010314BF00220222AB4245
:10BF4000CAF84CB38AF8D022C4F8CC32D1D1D4F894
:10BF50004C3304F5347098473B68012B3BD9D4F837
:10BF6000CC3304F5547098473B68022B33D9D4F88E
:10BF70004C3404F5747098473B68032B2BD9D4F8E4
:10BF8000CC3404F58A6098473B68042B23D9D4F855
:10BF90004C3504F59A6098473B68052B1BD9D4F8BB
:10BFA000CC3504F5AA6098473B68062B13D9D4F822
:10BFB0004C3604F5BA6098473B68072B0BD904F55B
:10BFC000CA650726EB6F284698473B6801369E42B4
:10BFD00005F18005F6D30023C4F8CC32BDE8F88F14
:10BFE000B3F810E034F801C0E6457FF47CAF88E791
:10BFF000988A635A984284D0BDE8F88FB3F800E07D
:10C0000034F801C0E6457FF454AF7AE7B3F804E0B2
:10C0100034F801C0E6457FF453AF72E7B3F808E0A7
:10C0200034F801C0E6457FF452AF6AE7EC2E0020F9
:10C03000F02E0020E42E00202DE9F043064689B0C2
:10C040000C46154600212022684602F059F896F861
:10C05000C68296F8C522C8EB0813C8EB830806EB26
:10C06000480E02EBC2039EF804005B0003EB48039A
:10C07000511C0A338142334448D082423ED24FEAB7
:10C080004807122111FB027106F11C083144B84423
:10C0900000F1FF3C62451B891BD04F8C0133BB4232
:10C0A0001ED0013FBFB29BB21B48ADF81030002339
:10C0B00023702A46194B0068ADF8127069460424B3
:10C0C00003968DF80040029301F0ACF809B0BDE88A
:10C0D000F083BEF80870BB4216D001339BB2E3E791
:10C0E00002EBC20308EB4303571C5FFA87F948458C
:10C0F0003A4686F8C57201F11201CBD8012300201F
:10C10000237009B0BDE8F0830023EDE71B89BEF87A
:10C110000870BB42E1D1F1E7082F002021C10200E5
:10C120002DE9F0430C463F4994F8C6320D68C3EB45
:10C130000316C3EB860300211646A1B05A0084F80B
:10C14000C81204EB4303F5B137499B78074688785A
:10C15000984254D0012D16D98879984255D0022D95
:10C1600011D0887A984256D0032D0CD0887B984203
:10C170001FD0042D07D0887C984235D0052D02D0E1
:10C18000887D984236D0DFF8A48001AD7C22002162
:10C19000284601F0B5FFD8F80030ADF8066003225C
:10C1A00002948DF804200BB12846984721B0BDE8D1
:10C1B000F083B1F80CC0A05A8445DAD1DFF86C8066
:10C1C000D8F8009001ADB9F1000FDFD028467C22ED
:10C1D000002101F095FF0123ADF806600297284683
:10C1E0008DF80430C847D1E7B1F810C0A05A844593
:10C1F000C4D1E3E7898AA35A9942C4D1DEE7B1F8F2
:10C2000000C0A05A8445A5D1D8E7B1F804C0A05A0F
:10C210008445A4D1D2E7B1F808C0A05A8445A3D17F
:10C22000CCE700BFEC2E0020F02E0020E42E0020F2
:10C230002DE9F0430446A9B020220D4601A80021B3
:10C2400001F05EFF604E94F8C73232680133DBB212
:10C25000934284F8C73231D294F8C6325B4F0494CB
:10C260000133DBB2C3EB0312C3EB820257F82300A6
:10C2700084F8C6324FF0000984F8C59204EB4201FD
:10C2800044F81200762202FB034381F804901A68F6
:10C290004F48CDF8162002224E4B8DF804204FF067
:10C2A000010C0068ADF814C001A92A46039300F000
:10C2B000B9FF8046C0B929B0BDE8F08300217C22D7
:10C2C00084F8C81209A801F01BFF434BADF82650B3
:10C2D0001B680A9403228DF82420002BEBD009A8B8
:10C2E000984729B0BDE8F08394F8C632326884F8E4
:10C2F000C892C3EB0311C3EB8103590004EB430362
:10C30000E2B19B78B87898424AD0012A16D9B87918
:10C3100098424AD0022A11D0B87A98424AD0032AC9
:10C320000CD0B87B98424AD0042A07D0B87C9842F7
:10C3300017D0052A02D0BA7D9A422CD0264F09AEDA
:10C340007C220021304601F0DBFE3B68ADF8265030
:10C3500003220A948DF82420002BACD03046984755
:10C36000A9E73E8A605A8642E3D11B4FD7F8009076
:10C3700009AEB9F1000FE3D030467C22002101F074
:10C38000BFFE0123ADF82650CDF8288030468DF849
:10C390002430C847D4E7BA8A635A9A42CED1E4E738
:10C3A0003E88605A8642B0D1DFE7BE88605A864236
:10C3B000B0D1DAE73E89605A8642B0D1D5E7BE896E
:10C3C000605A8642B0D1D0E7EC2E0020F02E00203B
:10C3D000082F002021C10200E42E002080B1036854
:10C3E00073B1426862B130B406480749074D084C42
:10C3F00003600A60002001232860237030BC70476E
:10C400000E207047E42E0020082F0020EC2E002084
:10C41000E82E0020002857D02D4B1B782BB370B48A
:10C420002C4C2D4B2268002A50D081789D788D426B
:10C430001DD0012A34D99D798D4222D0022A31D0D3
:10C440009D7A8D4222D0032A2CD09D7B8D4222D012
:10C45000042A27D09D7C8D422CD0052A22D09D7D98
:10C460008D422CD0042070BC70470820704706888D
:10C470001D88AE42DDD11949096889B1002070BC20
:10C4800070479E880588AE42D8D1F4E71E8905889A
:10C49000AE42D8D1EFE79E890588AE42D8D1EAE70F
:10C4A000052ADFD8511C006843F8220021600020D3
:10C4B00070BC70471E8A0588AE42CED1DBE79D8AEC
:10C4C00001888D42CED1D6E70E2070470121EAE7E0
:10C4D000E82E0020EC2E0020F02E0020E42E00207C
:10C4E000002843D0224B1B78DBB1224B1B68C3B121
:10C4F000F0B590F8C86289B00446A6B90D464FF46D
:10C50000BA6231461C4F01F0FBFD314668462022DD
:10C5100001F0F6FD3868294600F064FF30B109B03B
:10C52000F0BD08207047112009B0F0BD134BA4F8EE
:10C53000CA521B68C4F8CC0284F8C502A4F8C6022B
:10C540002A46236002260125CDF8123038680C4BAC
:10C55000039469468DF80060ADF81050029300F026
:10C5600061FE0028DBD184F8C852D8E70E2070475E
:10C57000E82E0020EC2E0020082F0020F02E0020B6
:10C5800021C10200002800F0E2802DE9F04F0D46A5
:10C59000A3B0002900F0AB80744B1B78002B00F097
:10C5A000A6800388322B044600F0EC8000F2A280C3
:10C5B000112B00F0CD80302B40F099808388B1F8AA
:10C5C000CA229A4240F09380C388002B40F0158223
:10C5D00091F8C6320269762101FB0353C3F80620A5
:10C5E00095F8C432827A1344062B00F3D08285F882
:10C5F000C43203AE202200213046A78801F080FD1E
:10C600000422002102A801F07BFD95F8C53295F8BF
:10C61000C622002B00F0EC81013BDBB2762103EB5C
:10C62000C30301FB02F101EB43032B445B8A01339B
:10C630009BB2ADF80830762303FB02534C481B89AC
:10C64000ADF80A3002994B4B00680593CDE90651CD
:10C6500003213A468DF80C10314600F0E3FD074601
:10C66000002844D095F8C632434AB4F804801168D3
:10C67000C3EB0312C3EB82030024580005EB430213
:10C6800085F8C84219B33D4B92789C78944200F0EB
:10C69000DE8201291BD99C79944200F0DF820229B5
:10C6A00015D09C7A944200F0EC8203290FD09C7B39
:10C6B000944200F0ED82042909D09C7C944200F061
:10C6C000F282052903D0997D914200F0F3822C4C2F
:10C6D0007C220021304601F013FD2368ADF80E8066
:10C6E000032204958DF80C200BB13046984723B0F7
:10C6F000BDE8F08F332BFAD18288B1F8CA329A4262
:10C70000F5D1C18895F8C67295F8C562002940F048
:10C7100051814389002B00F04D81762000FB07F00A
:10C7200006EBC60300EB430028442246D389A3F559
:10C730002453082B00F22F81DFE813F02B01500166
:10C7400054012D012D012D012D012D014A017047AC
:10C750008288B1F8CA329A42C9D100224FF6FF73DB
:10C7600081F8C822A1F8CA32C1E700BFE82E002034
:10C77000082F002021C10200EC2E0020F02E002006
:10C78000E42E00208288B1F8CA329A42AFD1C38821
:10C79000002B40F0E48091F8C672827AC7EB071351
:10C7A000C7EB830301EB43085E0098F804904A440A
:10C7B000062A00F3FF81D2B288F80420384691455A
:10C7C0004B4680F01382A446762202FB07F709EB62
:10C7D000C90107EB41015CF80C9F98F80420DCF8D4
:10C7E000048005EB010E1031CEF80A90CEF80E80D1
:10C7F000BCF808C0AEF812C0294403F1010E4FF096
:10C80000000C9645C1F804C0C1F808C04FEAC30146
:10C8100080F09980A0460EEBCE0158F816AF07EBDA
:10C82000410105EB0109D8F804B0C9F80EB0C9F808
:10C830000AA0B8F80880A9F812801031294403F141
:10C8400002084245C1F804C0C1F808C04FEACE0151
:10C8500040F2C881A64608EBC8015EF820AF07EB9E
:10C86000410105EB0109DEF804B0C9F80EB0C9F8C2
:10C870000AA0BEF808E0A9F812E01031294403F13B
:10C88000030E7245C1F804C0C1F808C04FEAC801E0
:10C8900040F2AA81A0460EEBCE0158F82AAF07EB72
:10C8A000410105EB0109D8F804B0C9F80EB0C9F888
:10C8B0000AA0B8F80880A9F812801031294403F1C1
:10C8C00004084245C1F804C0C1F808C04FEACE01CF
:10C8D00040F28881A14608EBC80159F834EF07EB14
:10C8E000410105EB010AD9F804B0CAF80EB01031C5
:10C8F000CAF80AE0053305EB010E9A42B9F80810B0
:10C90000AAF812104FEAC801CEF804C0CEF808C049
:10C9100040F26A81214603EBC30E51F83E8F07EBCC
:10C920004E0705EB070ED1F80490CEF80E901037A5
:10C93000CEF80A802F440989AEF81210D900C7F842
:10C9400004C0C7F808C00B4405EB43037627334403
:10C9500007FB0050598A03899942C0F0868000265F
:10C9600085F8C562A28802A92846FFF765FB07463D
:10C97000002844D19DF80830002B3FF4B8AEA288BF
:10C9800001212846FFF77EFAA1882846FFF750FCD0
:10C99000ADE69389C382838A2BB1C38A1BB1038B13
:10C9A0000BB1438B33B963890131994202F106021D
:10C9B000FFF4BCAE762202FB0752731C12790026EC
:10C9C00093428DF8086010D101238DF80830D6E726
:10C9D000B2F80CC0838AA0F81AC0DDE793890383FC
:10C9E000838AD9E793898382D6E785F8C532B9E788
:10C9F000762303FB0253DB881BE60021C1E795F891
:10CA0000C632C14AB4F80480116885F8C862C3EB25
:10CA10000312C3EB8203580005EB430219B3BB4B6F
:10CA200092789C78944200F0E58001291BD99C798A
:10CA3000944200F0FA80022915D09C7A944200F0CA
:10CA4000FA8003290FD09C7B944200F0FA800429DD
:10CA500009D09C7C944200F00881052903D0997D7F
:10CA6000914200F0088103AE31E6062A3FF477AF29
:10CA700003AE85F8C522002120223046B4F8048098
:10CA800001F03EFB0422002102A801F039FB95F8D9
:10CA9000C53295F8C622002B00F00181013BDBB2C4
:10CAA00003EBC30307FB02F707EB43032B445B8A4B
:10CAB00001339BB24FF07609ADF8083009FB025301
:10CAC00093481B89ADF80A300299924B0068059390
:10CAD000CDE9065103218DF80C104246314600F095
