:020000022000DC
:1060000000000420B5620200DD620200DF620200CF
:10601000E1620200E3620200E562020000000000AB
:10602000000000000000000000000000E762020025
:10603000E962020000000000EB620200ED62020073
:10604000D1AE0200EF6202006DB80200EF62020002
:10605000EF620200EF620200CDB20200EF620200C6
:10606000EF620200EF620200EF620200EF620200E4
:10607000EF620200EF620200EF620200EF620200D4
:10608000EF62020001750200EF620200EF6202009F
:10609000A1750200EF62020055180300EF620200D2
:1060A000EF620200EF620200EF620200EF620200A4
:1060B000EF620200EF62020000000000000000003A
:1060C000EF620200EF620200EF620200EF62020084
:1060D000EF620200EF620200EF62020000000000C7
:1060E00000000000000000000000000000000000B0
:1060F00000000000000000000000000000000000A0
:10610000000000000000000000000000000000008F
:10611000000000000000000000000000000000007F
:10612000000000000000000000000000000000006F
:10613000000000000000000000000000000000005F
:10614000000000000000000000000000000000004F
:10615000000000000000000000000000000000003F
:10616000000000000000000000000000000000002F
:10617000000000000000000000000000000000001F
:10618000000000000000000000000000000000000F
:1061900000000000000000000000000000000000FF
:1061A00000000000000000000000000000000000EF
:1061B00000000000000000000000000000000000DF
:1061C00000000000000000000000000000000000CF
:1061D00000000000000000000000000000000000BF
:1061E00000000000000000000000000000000000AF
:1061F000000000000000000000000000000000009F
:1062000010B5054C237833B9044B13B10448AFF3F0
:1062100000800123237010BD4823002000000000EF
:106220009038030008B5034B1BB103490348AFF393
:10623000008008BD000000004C23002090380300BF
:10624000154B002B08BF134B9D46A3F5803A002148
:106250008B460F461348144A121A0BF0C5FC0F4B1D
:10626000002B00D098470E4B002B00D09847002001
:10627000002104000D000D48002802D00C48AFF3A7
:1062800000800BF071FC2000290006F039FD0BF0B6
:1062900057FC00BF000008000000042000000000C0
:1062A0000000000048230020083200200000000009
:1062B000000000000649074A074B9B1A03DD043B18
:1062C000C858D050FBDC04F023FAFFF7B9FF0000F8
:1062D000BC3903001022002048230020FEE7FEE71F
:1062E000FEE7FEE7FEE7FEE7FEE7FEE7FEE7FEE786
:1062F000F0B595B000241D460E460846174604F03A
:1063000097F8304623460822099505A91A9D089753
:106310000D950A948DF82C400C9404F0E5F89DF846
:1063200014308DF81140DDE9061003F00302012A54
:10633000CDE9020128D0022A04D0304604F07CF8CE
:1063400015B0F0BDBDF81650C3F3C2038DF8103080
:10635000C5F389150827082D2C4628BF08243B467D
:1063600022460EA9304604F0BFF82D1B214608AB8B
:1063700002AA0EA8274400F0BFFE002DEBD1304644
:1063800004F05AF815B0F0BDBDF81470059DC7F3C0
:106390008312C3F3C2040EA93046920008238DF87D
:1063A0001040C7F3831704F09FF8C5F3952508AB99
:1063B0003A4628460EA9009302AB00F025FE30466F
:1063C00004F03AF815B0F0BD014B01221A70704785
:1063D000A8230020704700BF00B583B0044B009392
:1063E000044A4023FFF784FF03B05DF804FB00BFBD
:1063F000F96302006823002038B50E480E4D03787B
:106400000E4CEB5C00252570D2B253B1043005F080
:1064100059FF58B90A4B1B7813B12378002BFCD0D5
:1064200038BD0C3005F0B4FC0028F3D001F022F8A0
:10643000F0E700BF10220020F4310020A823002044
:10644000642300202DE9704319481A4A0378D35C6D
:1064500088B02BB3043005F0B3FE174D0FCD6C465A
:106460000FC495E80F004FF0EB7684E80F004FF073
:1064700006084FF0FF394FF0FF344FF0FF350C485E
:10648000069600226946CDE90089CDE9024504F06F
:10649000AFFC48B9094B00221A7008B0BDE8708300
:1064A0000C3005F0F7FBD8E700F0E4FFF2E700BF9F
:1064B00010220020F4310020202803006423002053
:1064C000F0B5154D0FCD89B06C460FC495E80F009F
:1064D0004FF0EB7C84E80F0006264FF0FF374FF0BB
:1064E000FF344FF0FF350D4A0D48CDF818C069460E
:1064F000CDE90067CDE9024504F07AFC20B9094BEB
:1065000001221A7009B0F0BD00F0B4FF054B012262
:106510001A7009B0F0BD00BF20280300C963020053
:10652000102200206423002010B5054CFFF7C8FF9F
:106530002046042100F0ECFC0123637210BD00BF73
:106540002422002038B50F4B0F48002400250022DC
:10655000FF21C3E90045C3F81824996083F820247B
:10656000C3F8142403F018FF58B9084A084BD21A8C
:10657000D20806D00749034621F8233001339A4256
:10658000FAD138BD80240020743903007439030027
:10659000F4380300F022002099B10E4B0E495B1A2B
:1065A000DB0815D030B400220C4D02E001329342DA
:1065B0000BD035F822408442F8D151F8320030BC7B
:1065C0007047054951F830007047002030BC7047D3
:1065D0001846704774390300F4380300F222002093
:1065E000094B013903EBC00003290BD8DFE801F0A8
:1065F0000402080604207047022070474079704763
:106600000079704700207047F43803002DE9F04707
:106610008E4CD4E900239A4284B05FD00023C4F8A2
:106620001834BFF34F8FD4E90125236802EA050629
:10663000F11C04EB8101087887072ED010F00407C5
:106640003BD104EB8606511CF3680193294004EB0F
:10665000810103F00303C9680291022B02F10206D3
:1066600075D0012B3ED0D4F8105435B12B68284694
:106670009B6898476D68002DF8D1754B754918884F
:10668000000440F0020000F0EBF8D4E90030C01A3A
:1066900018BF012004B0BDE8F08746070DD4488834
:1066A0000988013202EB901202EB91129342BDD89D
:1066B0000020636004B0BDE8F08700F0030001280B
:1066C00006D00228F2D14988023202EB9112EDE79E
:1066D00009880232C1F383110A44E7E7002004B0BD
:1066E000BDE8F087BDF804305B48C3F38312062A87
:1066F00028BF0622911C62F389138900ADF804308B
:1067000003F04CFE80460028ADD003F091FE3B46DE
:10671000082201A9404603F0BBFEBDF8043013F483
:10672000707F56D031462940BB000331083304EB5B
:1067300081010422404603F0ABFEBDF8043001376E
:10674000C3F38313BB4206F10106EBD841E0BDF869
:1067500006304148C3F38919B9F1500FCA4628BF22
:106760004FF0500A6AF38F130AF10801ADF80630B2
:1067700003F014FE804600283FF475AF03F058FE86
:106780003B46082201A9404603F082FE25EA0603A3
:106790000133BAEB830F4FEA83074CD9002F43D064
:1067A00006EA05010331AAEB070A04EB810108237D
:1067B0003A4640465FFA8AFA03F06AFE2749524693
:1067C00007F10803404603F063FE09F1030906EBF5
:1067D0009906D4F818341BBBD4F810544DB16B7A19
:1067E00028464146C3B12B681B6898476D68002D49
:1067F000F5D1404603F020FE00230DF103008DF893
:10680000033001F0B5F9D4F8183403B966609DF887
:10681000030001F0D3F938E76D68002DDFD1E8E718
:10682000404603F009FE30E70C4952460823404633
:1068300003F02EFEC9E706EA0501033104EB8101EE
:1068400052460823404603F023FEBEE78024002082
:10685000042300204C280300743903008C240020FA
:106860002DE9F04F614C87B0002306460DF10B0077
:106870008DF80B30A568884601F07AF9D4E9012338
:1068800027681A440132D21B012A7FD804F21C491E
:1068900004F5836B04F2144A31E01EF0040C5DD160
:1068A00004EB800003F1010EC26803920EEA0101BD
:1068B00004EB810102F00302012AC96803F102031B
:1068C00045D0022A41D1BDF80E20C2F3891203320D
:1068D000090C03EB92035046CDE9001302F054FE7D
:1068E000009980B3019B6360484602F011FED4E931
:1068F0000113226819440131891A012947D801215D
:10690000484602F005FE584602F02EFE504602F0C0
:106910002BFED4E9013103EA0100C21C04EB820220
:1069200092F800E01EF0030FB7D11EF0040F03F140
:10693000010C13D1538812880CEB931303EB9213C1
:1069400003EA0100E9E74846CFE76146C3E7BDF83F
:106950000C20C2F38312090C1344BCE70EF0030EA3
:10696000BEF1010F0AD0BEF1020F03F1020CD4D127
:1069700053880CEB931303EA0100CEE7128802332D
:10698000C2F38312134403EA0100C6E73A461340F8
:106990000333023205219DF80B0044F823102260D6
:1069A00001F00CF90021124802F06CFD80F3100098
:1069B000F1007B1C2B4001F038013D4004EB8303C8
:1069C00041F001010004033540EA164641EA8821FE
:1069D000DE6044F8251094F820341BB1FFF716FE52
:1069E0000028FBD107B0BDE8F08F00BF8024002055
:1069F0009C2800202DE9F04FDFF8A4B189B00023D6
:106A000006460DF1130017468DF81330DBF80840E9
:106A1000039101F0ADF8DBE90123DBF800501A44E3
:106A20000132521B022A00F282800BF21C480BF545
:106A3000836A0BF2144933E01EF0040C5FD10BEBB8
:106A4000800003F1010EC26805920EEA01010BEB12
:106A5000810102F00302012AC96803F1020347D051
:106A6000022A43D1BDF81620C2F389120332090C61
:106A700003EB92034846CDE9013102F085FD02990E
:106A800090B3019BCBF80430404602F041FDDBE9B6
:106A90000113DBF8002019440131891A022947D873
:106AA0000121404602F034FD504602F05DFD4846AB
:106AB00002F05AFDDBE9013103EA0100C21C0BEBD5
:106AC000820292F800E01EF0030FB5D11EF0040F11
:106AD00003F1010C13D1538812880CEB931303EBD1
:106AE000921303EA0100E9E74046CEE76146C1E7B9
:106AF000BDF81420C2F38312090C1344BAE70EF058
:106B0000030EBEF1010F0AD0BEF1020F03F1020C19
:106B1000D4D153880CEB931303EA0100CEE712881B
:106B20000233C2F38312134403EA0100C6E72A4684
:106B300013400333033245219DF813004BF8231013
:106B4000CBF8002001F03AF8AB1C23400BEB830399
:106B500000211248DF6002F095FC80F31000F10084
:106B60006B1C2340039A01F038012C400BEB83038C
:106B700041F041010004033440EA164641EA822113
:106B8000DE604BF824109BF820341BB1FFF73EFD6C
:106B90000028FBD109B0BDE8F08F00BF9C28002081
:106BA000802400202DE9F04F684C89B0002607466C
:106BB0000DF11300CDE902238DF81360A568884616
:106BC00000F0D6FFD4E9012326681A440132921B53
:106BD000032A7FD804F21C4904F5836B04F2144A9B
:106BE00031E01EF0040C5DD104EB800003F1010ED6
:106BF000C26805920EEA010104EB810102F0030272
:106C0000012AC96803F1020345D0022A41D1BDF827
:106C10001620C2F389120332090C03EB920350468B
:106C2000CDE9001302F0B0FC009980B3019B6360D2
:106C3000484602F06DFCD4E9011322681944013181
:106C4000891A032947D80121484602F061FC5846B9
:106C500002F08AFC504602F087FCD4E9013103EAD5
:106C60000100C21C04EB820292F800E01EF0030F48
:106C7000B7D11EF0040F03F1010C13D15388128811
:106C80000CEB931303EB921303EA0100E9E7484688
:106C9000CFE76146C3E7BDF81420C2F38312090CA5
:106CA0001344BCE70EF0030EBEF1010F0AD0BEF193
:106CB000020F03F1020CD4D153880CEB931303EAB7
:106CC0000100CEE712880233C2F38312134403EAB1
:106CD0000100C6E7324613400333043285219DF894
:106CE000130044F82310226000F068FFB21C2A4011
:106CF000F31C2B4004EB820204EB830C029BD36059
:106D00000021039B1248CCF80C3002F0BBFB80F34F
:106D10001000F900731C2B4001F03801354004EBE2
:106D2000830341F081010004033540EA174741EA3B
:106D30008821DF6044F8251094F820341BB1FFF758
:106D400065FC0028FBD109B0BDE8F08F802400204D
:106D50009C2800202DE9F04F6B4C89B00026074697
:106D60000DF11300CDE902238DF81360A568884664
:106D700000F0FEFED4E9012326681A440132921B7A
:106D8000042A7FD804F21C4904F5836B04F2144AE8
:106D900031E01EF0040C5DD104EB800003F1010E24
:106DA000C26805920EEA010104EB810102F00302C0
:106DB000012AC96803F1020345D0022A41D1BDF876
:106DC0001620C2F389120332090C03EB92035046DA
:106DD000CDE9001302F0D8FB009980B3019B6360FA
:106DE000484602F095FBD4E90113226819440131A9
:106DF000891A042947D80121484602F089FB5846E0
:106E000002F0B2FB504602F0AFFBD4E9013103EAD5
:106E10000100C21C04EB820292F800E01EF0030F96
:106E2000B7D11EF0040F03F1010C13D1538812885F
:106E30000CEB931303EB921303EA0100E9E74846D6
:106E4000CFE76146C3E7BDF81420C2F38312090CF3
:106E50001344BCE70EF0030EBEF1010F0AD0BEF1E1
:106E6000020F03F1020CD4D153880CEB931303EA05
:106E70000100CEE712880233C2F38312134403EAFF
:106E80000100C6E73246134003330532C5219DF8A1
:106E9000130044F82310226000F090FEB01C28403C
:106EA000F21C331D2B402A4004EB800004EB830CC2
:106EB00004EB8202029BC360039BD3600021129B00
:106EC0001248CCF80C3002F0DDFA80F31000F90023
:106ED000731C2B4001F03801354004EB830341F073
:106EE000C1010004033540EA174741EA8821DF6009
:106EF00044F8251094F820341BB1FFF787FB0028D5
:106F0000FBD109B0BDE8F08F802400209C28002030
:106F100030B4124DD5F810140446002069B10B4668
:106F200001E05B684BB11A7A8242FAD101300A283B
:106F3000F4D14FF0FF3030BC70472072D5F81034D8
:106F400033B15B686360D5F810345C6030BC704767
:106F5000C5F81044636030BC704700BF8024002037
:106F600038B5084BD3F81044012583F820543CB1C0
:106F70002368657220465B6898476468002CF7D1E7
:106F800038BD00BF8024002030B5C38885B00446DA
:106F90000D461BBB217A05291ED0627A82B9134A9D
:106FA000A08852F8212003920021FFF7F5FA039AF6
:106FB0000F490346284605B0BDE8304002F060BBEB
:106FC000A088FFF70DFB0B4B0B4953F820202846F8
:106FD00002F056FB217AE2E705B030BD074A009285
:106FE0000749084A284602F04BFBD3E74029030033
:106FF000A42803001C290300A028030098280300EC
:1070000080280300782803002DE9F04385B04FF075
:10701000000C0C9C814694F80C8084F80CC00E4641
:107020001746184621461D46FFF7AEFF062F09D822
:10703000DFE807F0042E343B444F1F00494620464A
:1070400002F01EFB2B7A052B05D06B7A5BB9274922
:10705000204602F015FB204602F006FB84F80C8067
:1070600005B0BDE8F083224A2249204602F008FB21
:10707000EDE7D6E90413F2680393B3680291CDE912
:1070800000324946D6E90023204602F0F9FAD9E752
:1070900032684946204602F0F3FAD3E7D6E90023E6
:1070A0004946204602F0ECFACCE7B3680093D6E9F3
:1070B00000234946204602F0E3FAC3E7D6E902324C
:1070C00001920093D6E900234946204602F0D8FAFF
:1070D000B8E7D6E90321B3680291CDE90032494609
:1070E000D6E90023204602F0CBFAABE7B832030022
:1070F00098280300A0280300082900D970472DE92B
:10710000F04F9B4683B000241B7B8BF80C400D4650
:1071100006465946104690460193DFF8C8902A4F1C
:10712000FFF732FF05E0325D013402F0A9FA082CC6
:1071300009D0A54239465846F5D84946013402F0EF
:107140009FFA082CF5D12149DFF89C90204F214C63
:10715000584602F095FA4FF0000A0EE016F80A20A1
:1071600012F807C01CF0970F08BF2E220AF1010A7F
:1071700002F086FABAF1080F0BD055452146584661
:10718000ECD849460AF1010A02F07AFABAF1080F7E
:10719000F3D198F80830052B02D098F8093063B97C
:1071A0000D49584602F06CFA584602F05DFA019B10
:1071B0008BF80C3003B0BDE8F08F084A08495846F8
:1071C00002F05EFAECE700BFB0280300BC28030021
:1071D00055370300C0280300B83203009828030085
:1071E000A0280300B8280300AC2803002DE9F04FC5
:1071F0003D4B93F800E087B0BEF1000F5FD0002751
:10720000DFF8F08002973C46012506E0029B01333F
:1072100002939DF80840A64551D9344BD8F8001088
:107220001E68D8F8042016F83400A0F1200BC0F135
:10723000200305FA0BFB25FA03F34BEA030305FAD7
:1072400000FC01EA0C0902EA030A06EBC40759EA4A
:107250000A0B0397DAD021EA0C0122EA0303C8E9FA
:10726000001304F023F816F83430214AC3F1200C3F
:10727000D2E90067A3F1200E614600FA0EF405FA88
:107280000EF225FA01F105FA03FE20FA0CFC0A437E
:107290000EEA060144EA0C0404913A4000FA03F1B4
:1072A000009101940592DDE90412DDE900BC62451C
:1072B00008BF594506D00C4B93F800E0A6E707B08D
:1072C000BDE8F08F03994A68002AF4D04978A1F10B
:1072D0000101B1FA81F14909091AB1FA81F14909AB
:1072E00018469047E7E700BFA4280020E0280020C8
:1072F000D0280020D82800202DE9F84380462248D5
:1073000000F0FAFBE0B9214D4FF0010CD5E9002364
:10731000A8F12004C8F120012CFA01F10CFA04F4C0
:107320000C430CFA08F902EA090603EA040756EAD4
:10733000070107D022EA090223EA0404C5E9002470
:10734000BDE8F883404603F0B1FF114B1E68A8B9B1
:10735000586826EA090620EA0400D5E900211E60E3
:107360000C4E586042EA09020C432A6031686C6096
:107370000548BDE8F843002200F068BB586849EAB8
:1073800006062043E9E700BFAC280020D8280020EB
:10739000D0280020A8280020042A3BD92DE9F0415C
:1073A00082B0144605460E4603F018FE68B31E4927
:1073B0001E4A1F4B0D601F481F491C60167000239A
:1073C0000022741EC0E90023C1E90023E4B21EB309
:1073D000DFF8708005EBC4040027032602E0AC420E
:1073E0001AD01C46A37820788DF80530424601A9B2
:1073F0008DF806708DF8046003F0FAFDA4F108031F
:107400000028ECD002B0BDE8F08103F097FD002821
:10741000CDD0F7E707207047084A0948002100F05F
:1074200003FB02B0BDE8F081E0280020A428002082
:10743000A8280020D0280020D8280020ED710200C4
:1074400054290300F972020070B5084D2B785BB126
:10745000074E00243368012113F8340003F0BAFE0C
:107460002B780134A342F5D8002070BDA428002059
:10747000E028002000B585B00346002101AA44F2AF
:107480000100CDE90111039300F004F805B05DF8A7
:1074900004FB00BF10B572B6FFF762FDFFF7B6F848
:1074A0000028FBD1104C11492088000440F0010055
:1074B000FFF7D6F90E4B1B68DB0700D500BE20880E
:1074C0000C49000440F00200FFF7CAF9BFF34F8FE8
:1074D00009490A4BCA6802F4E0621343CB60BFF368
:1074E0004F8F00BFFDE700BF042300205829030091
:1074F000F0ED00E06429030000ED00E00400FA056F
:10750000F8B52049204B0024C1F84041C1F844415E
:10751000C1F84841C1F84C41C1F80041C1F80441EB
:107520001B6833B31948D1F8045501681A686D1AFD
:1075300025F07F45AA4227460DD8197CDE69AD1A91
:10754000144419B1D3E905201F7490471EB1334686
:107550001A68AA42F1D90E490E4A0B7812789A425B
:1075600008D00D490D4A41F823404FF48013C2F86A
:107570000031F8BD531CDBB2022B08BF00230B7097
:10758000EFE700BF00100140042A0020002A00207D
:10759000FD290020FC290020F429002000E100E062
:1075A0002DE9F04FB34AB44913780978994285B070
:1075B00000F088810133DBB2022B08BF0023AF4803
:1075C0001370AF4A0568DFF8D08252F82310D8F85C
:1075D00000606B1823F07F430360002E00F0C18130
:1075E00000200746044684463346AE4613E0D8687A
:1075F000DD69C3F800C0891A144438B10EEB0402E7
:1076000022F07F42C3E90120DF611F460120002DE7
:1076100000F05F812B461A688A42E8D9002800F002
:107620008B81C8F800309946521A1A6001230093E2
:10763000944B954EDFF864A243F0010301934D464D
:107640004FF0000B002F31D0D7E901303C46FF69E5
:107650008A4ADFF84CC21268991A21F07F416145CD
:1076600000F2DD800B18236000220121C4E9012211
:10767000E2612174002D00F0F3802A689A4280F0C4
:10768000E880294605E0D1F800E09E4580F0CF80F3
:1076900072460846C9699C469B1A0029F3D12360AB
:1076A000E161C4612C462546002FCDD17078337836
:1076B000984247D09C460CEB4C0CB27806EBCC0CB5
:1076C000591CCBB29A429CF80420337004BF0023AB
:1076D0003370022ADCF8084024D0032A18D0012A8B
:1076E000E6D1227C002AE3D1DCF80C306360DCF8C0
:1076F0001000A060DCF81410E1609AF800E0DCF8FB
:107700001810A161BEF1000FA2D0626013469FE77E
:10771000002DCDD000232B74ED69002DFBD1C8F8CE
:107720000050C3E755B1AC4200F0BC802A4601E0EE
:10773000944239D01146D269002AF9D1002222742C
:107740009842B7D1BBF1000F01D1A94541D0002D1E
:1077500044D04A4A4D4B1468D3F804654C4FD5F8D1
:1077600000803A78351B25F07F450335002A00F06C
:10777000B580464AA8452CBF4444641924F07F4490
:10778000C2F84045D2F804359B1BA41B23F07F436D
:1077900024F07F440333A34200F2B98000238AF827
:1077A000003005B0BDE8F08F8C427DD0E0692268E2
:1077B000C861002858D0AC46036813440360AC4548
:1077C00052D0002233787078227465464FF0010B56
:1077D000B6E7009B002BE1D0002DBAD12B4E2D4AED
:1077E000284C4FF400314FF480330127C2F8801049
:1077F0003C43C6F848334FF43C60C6F80833776022
:10780000A0471E4BB7604FF43C601D60A047204B63
:107810001D7000238AF8003005B0BDE8F08FD31A40
:1078200023F07F4383420BD2C31A23601CE77244C8
:10783000A2EB0C020A602360E161C4612C4632E7CE
:1078400000230122C4E90033A360E36122743DB147
:107850002A68C8F80040D31A2B60E561254623E763
:10786000C8F8004025461FE700223378707822745C
:1078700066E700BFFC290020FD290020002A002027
:10788000F429002080290300E42800200010014092
:10789000F129002000E100E0042A0020F029002066
:1078A000FEFF7F0029462A46D5F81CC0C8F800C054
:1078B000BCF1000F42D0D0691268C86100287FF483
:1078C0007BAF7CE7DFF8B4800027D8F80090009702
:1078D000AEE6A946C8F800500090A9E62349244A1C
:1078E0004FF48030C3F844034FF00109C3F8040398
:1078F0004FF40030C1F8800142F001020860C3F883
:1079000000904FF43C60904787F8009031E7184BA7
:10791000D2F80415C2F8401543F001034FF43C605F
:107920009847124B4FF40032C3F8002100238AF825
:10793000003005B0BDE8F08FB14675E6CDE9022113
:107940000C4A0D4801239360C0F800C08AF800304B
:107950004FF43C60019B9847DDE90221D8F800C054
:10796000A9E70123B1463746009361E600E100E054
:107970008029030000100140002A0020042A002072
:107980002DE9F8431F4D204E204FDFF898804FF42B
:1079900080334FF400324FF001090024C6F88020F4
:1079A00047EA0907C5F848334FF43C60C5F8083387
:1079B000C5F80490B847C5F808904FF43C60C8F883
:1079C0000040B847124A134B13491C601470134B04
:1079D000134A0C700B2114701C8099704FF48012A4
:1079E000E023C6F8802186F814333260C5F80845D4
:1079F00086F81133D5F80435C8F800302046BDE8C4
:107A0000F88300BF0010014000E100E0802903007E
:107A1000F1290020042A0020FC290020E42800206D
:107A2000FD290020002A0020074B9B783BB142B182
:107A300038B10368187C10B959745A61704708202E
:107A400070470720704700BFE42800202DE9F0436D
:107A5000264EB37883B0002B3AD00446002837D0A6
:107A600004290D4638D9436993B3437C0027012B81
:107A70000DF107000CBF8846B84691468DF8077097
:107A800000F076F87378B0783278591CC9B2884221
:107A900008BF39468A4223D003EB430306EBC303F6
:107AA0000120134A18719C60D2F804259DF8070044
:107AB0007170C3E90325C3E9058900F07FF80D4B18
:107AC0004FF480123846C3F8002103B0BDE8F083BC
:107AD000082003B0BDE8F083072003B0BDE8F083C1
:107AE0009DF8070000F06AF80420EEE7E428002083
:107AF0000010014000E100E070B51B4EB37882B089
:107B00004BB3044638B343692BB3002505740DF11C
:107B100007008DF8075000F02BF87378B0783178B3
:107B20005A1CD2B2904208BF2A46914216D003EBAB
:107B3000430306EBC30302219DF807009C60197103
:107B4000727000F03BF8094B4FF480122846C3F8DE
:107B5000002102B070BD082002B070BD9DF8070082
:107B600000F02CF80420F4E7E428002000E100E015
:107B700070B4EFF3108472B60D4B9A68AAB90D4930
:107B80000D4E01259D60D1F8805035401D60C1F833
:107B90008060D1F884505D604FF0FF33C1F88430CD
:107BA000027004B962B670BC704701230370F8E735
:107BB000E831002000E100E0FC06FFBD094B9A68B7
:107BC0007AB170B910B4EFF3108172B6064A1C682E
:107BD00014605C685460986001B962B65DF8044B4B
:107BE00070477047E831002000E100E00223F0B563
:107BF0000B8000F5805508308AB32A4F4FF6FF7688
:107C00004FF0010C036801331DD0B0F802E00EF113
:107C1000030400EB8404A54216D38388B34219D031
:107C20000388BBB183683C68A34202D93B60B0F8CB
:107C300002E00B88033373440B804388033300EB6B
:107C400083008542DED8F0BD012313704FF48063BA
:107C50000B80F0BD82F800C0B0F802E0E9E7114EF9
:107C60004FF6FF7403680133EDD04388DA1C00EB54
:107C700082029542EAD38288A24207D002882AB1C2
:107C800082683768BA4284BF326043880A88033208
:107C900013440B804388033300EB83008542E1D813
:107CA000F0BD00BF402A0020F0B543688C461BB1F0
:107CB000314AD468A3423AD20023304EACF80030A7
:107CC00073684FF0010E03F580544FF6FF770833C9
:107CD0009C420ED8BEF1020FACF800E006F114068B
:107CE00048D0736803F5805408339C424FF0020E6D
:107CF000F0D91A680132EDD05A88033203EB8202C0
:107D00009442E7D39D88BD4207D01D882DB10568F8
:107D10009968A94205D01346DAE79442DAD91346A6
:107D2000E7E7174A4360138903810120F0BD126918
:107D30009342C1D813F00305BED1114A04891289B8
:107D40009442B9D104689A689442B5D10B4842680C
:107D5000934203D902F58052934207D3826993423A
:107D600008D902F58052934204D20125ACF80050A4
:107D70000120F0BD0020F0BD30230020482A002063
:107D80002C2A00202DE9F04FAC4E89B004464FF666
:107D9000FF773568002D00F0C9802A78531E052B27
:107DA00000F23082DFE803F05B2222030340002C64
:107DB00040F0C3802B79012B00F08881022B00F06A
:107DC0000581002B00F0A8810DF10C08C8E90244E0
:107DD0000394C8F810400F2404942B78013B052B22
:107DE0004CD8DFE803F0746584789848B5F814A09F
:107DF000002C40F0B480DFF86C92A97D0AEB8A0376
:107E000009EB83034FEA8A081C895B6803EB84044F
:107E1000062900F27884DFE811F0D402E302F602CA
:107E200009038302B9026902002C40F08680DFF862
:107E300030C29CF80C30002B00F02D819CF80030F3
:107E40008CF80C40013B062B00F2DC81DFE813F0DC
:107E500007041102E401F901DA013802B701002C2C
:107E600076D12B79032B00F2DD80DFE813F00801D7
:107E70009E00FD00B80005238DF80C30704C04F115
:107E8000100554F8043B404603B19847A542F8D189
:107E90006C496D480024346001F07CFA6B48012184
:107EA00001F044FB00287FF474AF09B0BDE8F08F07
:107EB00001238DF80C302B89ADF81830AB88ADF864
:107EC0001A30EB68059300238DF81C30D6E70023A9
:107ED0008DF80C30D2E703238DF80C30EB88ADF829
:107EE00018302B89ADF81A30EB680593C6E70223EA
:107EF0008DF80C302B89ADF81830AB88ADF81A30FE
:107F0000EB680593AB7DA3F10603B3FA83F35B093A
:107F10008DF81C30B2E704238DF80C30EB88ADF8F7
:107F200018300023ADF81A300593A7E745494648B5
:107F300001F000FA054630602FE701240DF10C082E
:107F40000023C8E90033C8E90233C8F8103043E71A
:107F50003F4B00225A6001240DF10C08F0E7AB7D85
:107F6000DFF80091022B08D90AEB8A0209EB8202A2
:107F7000EB88118903330B4413814FEA8A08D044FC
:107F8000EB8809EB8809C3F57F43B9F80A200DF1A6
:107F90000C08FD3313440022C8E90322A9F80A3073
:107FA000C8F808200392012416E7DFF8B89099F882
:107FB0000030022B00F0728399F81430022B00F08D
:107FC0007D83234B0121002219705A600DF10C08AA
:107FD0000024C8E90344C8F808400394FCE61D4C9B
:107FE0001D4A21681D48DFF87C904FF0000885F895
:107FF00004800823CDF8008001F066FE184B256848
:108000005B88A18803EB830309EB830209F82380D3
:1080100053682360022355601181A38000283FF438
:1080200044AF35680A4A0DF10C080023C8E9023351
:1080300053600393C8F810300E24CDE6442A002084
:10804000142A00203C2A002030220020FC2A002094
:10805000242A0020002B00209C290300302300202C
:108060002C2A0020482A0020BE4ABF48116800235D
:1080700002242B719480012201F0BAFECEE7B94BA5
:10808000BA4A1968B84801232B71002300930823CA
:1080900001F01AFEC2E79CF80030072B09D8DFE890
:1080A00013F0100208000800F20144028E008E0056
:1080B0003E02013B062B00F2A580DFE813F0D00260
:1080C000DA00AD00C200A30001018000A84B1B78BC
:1080D000002B00F0B482DFF89CC2BCF80480B8F139
:1080E000010F12D8DFF8A09208EB8802204609EBB6
:1080F0008202137813B308F1010399B2012998465B
:10810000ACF8043002F11402F3D99A480822002195
:1081100009F06AFD356859E702232B71CDE9044463
:108120000DF10C08EB68039340460DF10A01FFF7CF
:10813000BBFD002840F08D810A2401E75368DCF87C
:10814000001003F5805E03F1080A002900F0708238
:108150004B88033301EB83018E4540F26D820B683F
:10816000013300F069824B88033301EB83039E45A2
:10817000C0F06282B1F804B0BB4518D00C88B4B12D
:10818000EB88CCF800105B45DFD1002300937A4ADE
:108190007548042301F098FD002840F0AC8208EBFC
:1081A000880809EB8809012389F810307DE69E458F
:1081B00040F2428219460B680133D4D13CE2694B4C
:1081C0006A4A1968684800230093CCF804300723F2
:1081D0008CF80030082301F077FD0446002C3FF4B2
:1081E00064AE35680DF10C0841F61D52002394422F
:1081F000C8E90333C8F80830039308BF1C463FF4AE
:10820000EBAD29E20DF10C080023C8E90333C8F8EF
:10821000083003930F24DFE5DCF80420514853882D
:1082200084880168504803339BB29B0001EB8401B2
:108230000024009403248CF8004001F045FD04461E
:10824000CCE7BCF80230DFF8409103EB830309EB85
:108250008309D9F80C30002B40F0CC8104228CF833
:108260000020D9F804104048012201F0C1FD044665
:10827000B4E7BCF80200DFF81091DCF8042000EB52
:10828000800309EB83038500596801F58054002AB7
:1082900040F0128101F10802A242C0F05E81284440
:1082A00009EB8009D9F80C30002B40F0A3810420A1
:1082B0008CF8000001222C4801F09AFD04468DE75D
:1082C000BCF80220DFF8C0909300134409EB830947
:1082D00006200023D9F80410284A00938CF80000E7
:1082E0000823214801F0F0FC044677E72A4641F6CE
:1082F0001D5408EB0A0109EB8101EB88088903335F
:1083000003440B81D044EB8809EB8809C3F57F4314
:10831000B9F80A10FD330B441546A9F80A3061E795
:108320001748AB69174903604FF0000BC0F804B061
:10833000FFF7BAFC002800F095810223AB750423F7
:108340000948CDF800B02146EA1801F0BDFC00282C
:108350003FF4ABADAB7D3268022B4FF00E04D1D9A8
:10836000C7E700BF002B002030230020A429030012
:10837000242A0020102B0020982903009C290300A8
:10838000082A00200C2B0020482A0020BC4BBD4AA4
:108390001C885168BC48BD4A00234FF0060C85F884
:1083A00016C00093042301F08FFC0028D2D104EB07
:1083B000840409EB8409012389F8103009B0BDE871
:1083C000F08F02230022AB7504230092AE482146B1
:1083D000EA1801F079FC0028BCD109B0BDE8F08FA3
:1083E000032A0CBF052306230022AB75A648009282
:1083F000211D042305F1080201F066FC0028A9D123
:1084000009B0BDE8F08F2B699F48002B14BF0323F0
:1084100001230022AB7504F108010092042305F149
:108420000C0201F051FC002894D13EE5EB882A694A
:1084300095484FF0010C04F10C01002485F816C09A
:108440009B00009401F040FC002883D109B0BDE8F6
:10845000F08F04998D4A8B88EB800B882B818A489A
:1084600000940423BDF80A4001F02EFC002840F0DF
:108470000381874B04EB840403EB840401232374FE
:1084800009B0BDE8F08FBCF80200824DDFF8009221
:10849000DCF80420AB88548800EB800109EB8101F3
:1084A0000333496823444FF0020EAB8001F580543A
:1084B00000FA0EF58CF800E05388033302EB8302D8
:1084C000EAE6DFF8CC91BCF8081099F8142099F886
:1084D0000030B2FA82F252090131B3FA83F35B0938
:1084E0008CF80B20ACF80810002201218CF80A301F
:1084F000ACF802208CF80C208CF80010002B4DD02A
:10850000DFF88C91D9F80C3000228CF80A20002B6F
:1085100044D199F81020002A40D018464EE001239B
:108520008CF800309CF80A30E8E7BCF80220DFF84D
:108530006091584902EB820309EB830308685D6888
:108540008C88586002201C810D60888002FA00F33C
:10855000BBE6A342BFF4A3AE1A46136801333FF44F
:108560009EAE5388033302EB8303A3423FF697AEDC
:10857000B2F804E0BE45ECD0B2F800E0BEF1000F66
:10858000E7D0CCF80420434C5388A58821683E48A6
:1085900003339BB29B0001EB850149E69CF80B304D
:1085A000B3B3DFF8EC90D9F8203000228CF80B2020
:1085B00073BB99F824305BB3012318469D00E9187A
:1085C00009EB8101DCF804204968ACF8020001F5F0
:1085D0008054002A00F094805088033002EB80021F
:1085E00094426DD82B4409EB8309D9F80C30002B49
:1085F0003FF45DAE274B2448196802229A80052279
:108600008CF800200023012201F0F2FB0446E5E58E
:108610000DF10C080023C8E90333C8F808308CF8C2
:108620000030ACF80230CCF804300393FFF7D4BB31
:1086300051468E453FF693ADCCF800005BE50DF159
:108640000C0821461448082209F0CEFAC8E9024471
:108650000394C8F8104002243568FFF7BDBB9CF8AE
:108660000A304BE70DF10C08C8E9020003900A2418
:10867000C8F81000FFF7B0BB35680E2460E400BFF7
:108680000C2B0020082A002030230020982903000A
:10869000482A0020002B0020102B002000239A00E5
:1086A0001A4409EB8203002059680090082309F856
:1086B0002200164A164801F007FBAFE40123EEE75B
:1086C000106801308ED05088033002EB8000844265
:1086D00088D3B2F804E0BE4505D0B2F800E0BEF1A0
:1086E000000F7FF44EAF84427FF67CAF02461068E5
:1086F0000130E8D176E735680E240DF10C081FE44F
:1087000001F108026CE72A460F24F2E59C290300D8
:10871000302300204068FFF735BB00BF084A1168CE
:1087200004290BD038B5074C1568034601211046C3
:1087300044F8253000F0ECFE002038BD0C207047D6
:10874000082B0020142A00202DE9F04F8B4D89B012
:108750002A780023CDE90333CDE90533079372B1BD
:10876000874C04F1100554F8043B03A803B1984763
:10877000A542F8D10024204609B0BDE8F08F281D9D
:1087800002F0FF0900F0E0FE0028F3D14FF01023C3
:108790004FF080525B6911695269DFF80882581CFA
:1087A00008BF02FB01F3C8F810307649A3F5405327
:1087B00040460022C8F80C3001F05CFA044600285C
:1087C000D9D171497148DFF8E0A11C238C2200F057
:1087D00039FD26464FF0030B2746D8F80C20B01879
:1087E0000346E8B1B2586A498A4219D142686949D8
:1087F0008A427AD001318A4212D1B9F1000F40F099
:108800008980654B6549186000220193FFF7EEF9F6
:10881000019B9B88022B0CBF042308231C4317E0F9
:1088200000F5805101E0994249D01A68013203F104
:108830000403F8D007EB87030AEB830203210BF153
:10884000FF3B01370AF823101FFA8BFBBFB25060C1
:1088500006F58056B6F5405FBFD1BBF1010F40F27F
:108860008580E4B2062C0ED1454C012200232A70EB
:1088700004F110066B6054F8043B03A803B1984759
:10888000B442F8D176E702D814F0FD0F6ED002A9F9
:108890003E4800F011FD1C220546002109F0A4F914
:1088A000002D5ED00123013C2B700A2C44D8DFE858
:1088B00004F04143414355435543525A5200364B0D
:1088C0001A68002A54D007EB87030AEB83010222BF
:1088D000DFF8D8C048600A810AF82320791CACF878
:1088E00002708FB244F00104B2E707EB8703002265
:1088F0000AF8232099000AEB830301F110020831E2
:108900005244514458600137FFF770F944F00204B3
:10891000BFB29DE707EB870E1F4B0AEB8E024FF0AD
:10892000020C19680AF82EC00137BFB25160A2F8D4
:1089300008C067E700232B7102A9144800F0EAFC85
:108940001748012100F0D6FD044600287FF412AF3D
:10895000FFF718FA0FE703232B71EDE701232B71C3
:10896000EAE7082407E702232B71E5E70B2402E777
:10897000022218609A804FF00109B3E7242A0020F0
:10898000142A0020C82B0300702A00203022002067
:10899000DEC0ADDEFE011EF1002B0020042B002006
:1089A000FC2A002030230020482A00202C2A002006
:1089B00020B370B50D4682B0E9B10DF10601044651
:1089C000FFF772F910B90A2002B070BDBDF80600B9
:1089D0000B4B666800EB800003EB800001210C303C
:1089E00000F096FD2E60636801220C3300206B605E
:1089F000A27202B070BD052002B070BD05207047A4
:108A0000482A002000B310B582B00DF106010446DB
:108A1000FFF74AF9A8B1BDF806300C4A03EB83030F
:108A200002EB8303DA684AB1A27A3AB1DA6800212C
:108A3000013A0846DA60A17202B010BD062002B009
:108A400010BD0A2002B010BD05207047482A002042
:108A50001E4B1B7803B328B3CB1C9BB240F2FD32F4
:108A600093421CD8F0B41A4A16783EB95589148935
:108A70002C441C44A4B2B4F5806F16D3147D3CB9C9
:108A8000D58B948B2C441C44A4B2B4F5806F19D3BD
:108A900007231846F0BC7047022318467047092385
:108AA000184670470523184670473746BC003C44BB
:108AB00002EB84022B445381068041800023184638
:108AC000F0BC704701263746F0E700BF242A00209B
:108AD000482A0020134B1A78D2B1034600B302880B
:108AE000022A1BD810B41048598802EB820200EB0E
:108AF00082028C1C508984420CDAC1F57F41FD3121
:108B00000024014451811C6020465DF8044B7047ED
:108B10000220704704205DF8044B70470420704722
:108B200005207047242A0020482A00202DE9F0471C
:108B30004E4B1B7882B073B30C46002941D00A8893
:108B40004FF6FF739A4221D04B88FBB14D6815F068
:108B5000030531D1B1F8089009F103039BB240F24B
:108B6000FD3293422FD8424A1178074639B95089CD
:108B700011890144194489B2B1F5806F25D3117D63
:108B800071B10725284602B0BDE8F08704252846C4
:108B900002B0BDE8F0870225284602B0BDE8F087A4
:108BA000D08B918B0144194489B2B1F5806FE8D222
:108BB0004FF0010841460AE00325284602B0BDE80F
:108BC000F0870525DEE70925DCE7A84629464FEAB8
:108BD000810A8A4402EB8A0A034401A92548AAF8BB
:108BE0000A3000F069FB1C220646002108F0FCFF59
:108BF000002E2FD002234FF0000AA6F81480337005
:108C000086F816A06368336101211B4800F080FCE0
:108C1000F0602388338163881648B38001A9A6F8E1
:108C20000AA0A6F8069000F075FB47B1C7F804A0AB
:108C3000F268124B3A601B8987F80AA03B81104802
:108C4000012100F057FC044600289BD1FFF79AF859
:108C5000254697E7BAF80A30C9F57F4909F1FD09B9
:108C60009944AAF80A9008258CE700BF242A00201E
:108C7000482A002030220020402A00202C2A0020F0
:108C8000FC2A00202DE9F04383B0002A4BD0384B5A
:108C90001B78002B55D00C46002944D009884FF68C
:108CA000FF73994248D06388002B45D0656815F062
:108CB00003054BD101A907462E48B2F80080B2F84F
:108CC000029000F0F9FA1C220646294608F08CFFB3
:108CD000002E3DD00223B575A6F81480337063686A
:108CE00033610121244800F013FCF06023883381B4
:108CF00063882048B38001A9A6F80690758100F02A
:108D000009FB37B17D60F2681C4B3A601B89BD726C
:108D10003B811B48012100F0EDFB044640B1284691
:108D200003B0BDE8F0830525284603B0BDE8F08315
:108D3000FFF728F82546F2E70425284603B0BDE8EA
:108D4000F0830225284603B0BDE8F0830325E6E75B
:108D50000C4B08EB880803EB8808C9F57F49B8F885
:108D60000A3009F1FD099944A8F80A900825D6E7C8
:108D7000242A002030220020402A00202C2A002013
:108D8000FC2A0020482A00202DE9F04782B060B379
:108D90004F4B1B78002B3ED00C4631B30A884FF660
:108DA000FF739A4232D04B8883B34E6816F00306A5
:108DB00036D1B1F808A00AF103039BB240F2FD32AC
:108DC00093422FD8434A1178054639B95189108901
:108DD0000844184480B2B0F5806F25D3117D49B1A5
:108DE0000726304602B0BDE8F0870526304602B0BF
:108DF000BDE8F087D18B908B0844184480B2B0F561
:108E0000806FEDD24FF0010948460FE0042630464E
:108E100002B0BDE8F0870226304602B0BDE8F08718
:108E20000326DEE70926DCE7B14630464FEA800834
:108E3000804402EB88080B442748A8F80A3001A9AF
:108E400000F03AFA1C220746002108F0CDFE002F60
:108E500032D04FF000080323A7F814903B7087F836
:108E6000168063683B6101211C4800F051FBF860EB
:108E700023883B816388BB800423A7F806A0BB75C9
:108E80002B68BB6101A91448A7F80A8000F042FAD8
:108E9000C5F80480FA68124B2A601B89114885F8CE
:108EA0000A802B81012100F025FB0446002898D17F
:108EB000FEF768FF264694E7B8F80A30CAF57F4AFD
:108EC0000AF1FD0A9A44A8F80AA0082689E700BF1B
:108ED000242A0020482A002030220020402A002096
:108EE0002C2A0020FC2A002070B51B4B1B7882B076
:108EF0000BB34FF6FF739842044624D001A91748DC
:108F000000F0DAF91C220546002108F06DFEB5B12B
:108F100005230126EC8001A92B7010482E7100F06A
:108F2000F9F90F48314600F0E5FA044678B100241B
:108F3000204602B070BD0224204602B070BD082455
:108F4000204602B070BD0424204602B070BDFEF77A
:108F500019FF204602B070BD242A002030220020D4
:108F6000FC2A002010B5184B1B7882B0F3B101A980
:108F7000164800F0A1F91C220446002108F034FE36
:108F8000ECB106232370114801A900F0C3F9104B7E
:108F90001A780AB101221A730E48012100F0AAFAC8
:108FA000044638B10024204602B010BD02242046F9
:108FB00002B010BDFEF7E6FE204602B010BD082448
:108FC000204602B010BD00BF242A0020302200201D
:108FD0002C2A0020FC2A00202DE9F043304C247874
:108FE000002C56D0002A57D0002B55D0B3F804E0FF
:108FF000BEF1010F14D82B4E0EEB8E0406EB840647
:109000004FF6FF774FF0000C34785CB10EF101049D
:10901000A4B2022C9C8006F114064FF0010EF3D18D
:109020000A2031E01C68756805F5805874B36588BE
:10903000033504EB8504444505D3C3F800C0E5E7D8
:10904000A845FAD92C4625680135F6D06588033540
:1090500004EB8505A845F0D3B4F80490B945EFD0EA
:10906000B4F80090B9F1000FEAD01C60A5888542E1
:10907000D9D125888D42D6D1A168116019680A4BD3
:1090800051601B8913810020BDE8F08305F10804BD
:10909000D1E70220BDE8F0830520BDE8F08300BFE2
:1090A000242A0020482A00202C2A00202D4B1B783F
:1090B000002B52D0002952D0002A50D02DE9F04187
:1090C0009688012E13D8284D06EB860305EB830501
:1090D0004FF6FF774FF0000C2B7853B1731C9BB207
:1090E000022B938005F114054FF00106F4D10A20FC
:1090F0002EE013686C6804F5805E5BB35C88033413
:1091000003EB8403734505D3C2F800C0E6E7A64528
:10911000FAD923461C680134F6D05C88033403EB8B
:109120008404A645F0D3B3F80480B845EFD0B3F873
:109130000080B8F1000FEAD013601C888442D9D1B6
:109140009B680B601268094B4A601B890B810020E9
:10915000BDE8F08104F10803D4E702207047052040
:10916000704700BF242A0020482A00202C2A002013
:109170002D4B1B78002B52D0002952D0002A50D002
:109180002DE9F0419688012E13D8284D06EB860371
:1091900005EB83054FF6FF774FF0000C2B7853B1AA
:1091A000731C9BB2022B938005F114054FF001064E
:1091B000F4D10A202EE013686C6804F5805E5BB37E
:1091C0005C88033403EB8403734505D3C2F800C005
:1091D000E6E7A645FAD923461C680134F6D05C8838
:1091E000033403EB8404A645F0D3B3F80480B845F8
:1091F000EFD0B3F80080B8F1000FEAD013609C887C
:109200008442D9D19B680B601268094B4A601B8964
:109210000B810020BDE8F08104F10803D4E70220AF
:1092200070470520704700BF242A0020482A0020EC
:109230002C2A002020B119B103680B600020704770
:109240000520704799B110B4B2FBF3F403FB14246A
:10925000A4B244B9C0E9001484608281C38120466D
:109260005DF8044B704709205DF8044B70470E20F1
:10927000704700BF82B050E8022FC188B2EB324F76
:109280004FF0000317BF92B241EA014142EA0141A7
:1092900004E04268B2EB324F08BF012340E80212FB
:1092A000002AE8D18DF807309DF80730002B0CBF5D
:1092B0001120002002B0704730B482B050E8013F66
:1092C0009DB2C48925448489A54228BF2D1B0489E9
:1092D000A54202BFBFF32F8F002207E0C5EA0305B6
:1092E00040E80154002CE9D14FF001028DF8032031
:1092F0000193019B9DF803200B602AB10B88006845
:10930000184402B030BC704702F0FF03184602B0A8
:1093100030BC70470A884B889A4201D000207047C1
:1093200050E8012FC2EA024240E80123002BF7D1A6
:109330000120704730B482B050E8023F1FFAA3F515
:10934000C488A54202BFBFF32F8F00220DE0C4895D
:1093500025448489A54228BF2D1BC3EA054540E862
:109360000254002CE8D14FF001028DF80320019344
:10937000019B9DF803200B602AB14B8800681844BC
:1093800002B030BC704702F0FF03184602B030BC98
:10939000704700BF0A884B889A4201D0002070476E
:1093A00050E8022FC2EA224240E80223002BF7D104
:1093B000012070474A09012301F01F0100EB8200E0
:1093C00003FA01F100F07AB801F01F020123490904
:1093D000934000EB8100D94300F07EB84B0901F0C7
:1093E0001F0150F82300C84000F00100704700BF83
:1093F0002DE9F04F01F1FF3A83B04FEA5A130D46C1
:10940000044601934FF000094FF0010854F8293049
:1094100004EB89066FEA030B9BFAABFBBBFA8BFBF1
:10942000BBF1200F25D00BEB491B5D454FEA4917D7
:109430000CD81EE03368DB4393FAA3F3B3FA83F34B
:10944000202B07EB030B14D05D4512D90BF01F0343
:109450004FEA5B1008FA03F104EB80009A4600F033
:109460001FF820FA0AF0C307E4D4584603B0BDE859
:10947000F08F019A4A4509F1010301D09946C5E7E9
:10948000AB46F2E710B4034653E8000F0A4643E840
:10949000002494F0000FF7D15DF8044B704700BF33
:1094A00010B4034653E8000F40EA010243E80024E9
:1094B00094F0000FF6D15DF8044B704710B40346EA
:1094C00053E8002F42EA010043E8000494F0000F43
:1094D000F6D15DF8044B704710B4034653E8002FF3
:1094E00002EA010043E8000494F0000FF6D15DF8B1
:1094F000044B704710B4034653E8000F00EB010221
:1095000043E8002494F0000FF6D15DF8044B704757
:1095100010B4034653E8002F02EB010043E80004B7
:1095200094F0000FF6D15DF8044B704710B4034679
:1095300053E8002FA2EB010043E8000494F0000F71
:10954000F6D15DF8044B704710B40346012253E88E
:10955000000F40EA020143E8001494F0000FF6D136
:109560005DF8044B704700BF10B40346012253E876
:10957000001F41EA020043E8000494F0000FF6D116
:109580005DF8044B704700BF10B40346002253E857
:10959000000F00EA020143E8001494F0000FF6D136
:1095A0005DF8044B704700BFB8B130B4D0E9011288
:1095B000521A0468D2B2531E2160DBB242B1016874
:1095C0000A685C1E551C0D601370E3B2FF2BF6D1C8
:1095D00003680020187130BC70470E20704700BF30
:1095E000F0B583B0044600250DF107008DF8075053
:1095F000FEF7BEFAD4E900311A688A4210D9511E2A
:1096000019602168A3680F6812F8015C0A79A68ABC
:10961000E068DB1BDBB29A4206FB050538BF0B7125
:109620009DF80700FEF7CAFA284603B0F0BD00BF58
:1096300030B5054683B000230DF107000C468DF8C8
:109640000730FEF795FA2A681368591C1160E9681B
:10965000AA8A641AB4FBF2F41C709DF80700FEF7A6
:10966000ADFA03B030BD00BF826842B110B5044608
:1096700043690168006998470023A36010BD7047E3
:109680000EB400B582B0039921B104AB01AA0193D5
:1096900000F092F802B05DF804EB03B0704700BF31
:1096A0002DE9F84F1646B142DDE90AB28846054673
:1096B0001F467BD30B464FF00109B3FBF6F39E42E6
:1096C00009F10109F9D9B94538BFB94612F0010AC3
:1096D00002D1BBF1000F47D1AA68012402E0013F8B
:1096E00006FB04F4012FFAD8B8FBF4F18E42F7D947
:1096F000304F07E0B442B4FBF6F315D3B8FBF3F1F7
:10970000AA681C46531CAB602B68785C9854D5E95A
:1097100001329A4204FB1188ECD32846FFF7A4FFDC
:10972000B4FBF6F3B442E9D2BAF1000F13D0BBF1A7
:10973000000F10D02024D9450BF1FF3B0BD2AB68B2
:109740002A68591CA960D454D5E901329A4204D23E
:10975000BBF1000FEFD1BDE8F88F2846FFF784FF7B
:10976000BBF1000FE7D1F6E793071AD42024AA68CB
:10977000D94502F10101B0D22B68A9609C54D5E90A
:1097800001329A420BF1FF3B03D2BBF1000FEFD144
:10979000A3E72846FFF768FFAA68BBF1000FE7D1EF
:1097A0009BE7002F0CBF30242024E0E74FF0010995
:1097B00089E700BFAC290300002900F0AD812DE945
:1097C000F04FDFF8A8940B7885B0064690460C461B
:1097D0004FF0300A01E0237893B1013483B1252B97
:1097E00015D0B2683168501CB0608B54D6E9013294
:1097F0009A42F0D33046FFF737FF2378002BECD1A5
:10980000337B002B40F09A8005B0BDE8F08F002735
:10981000214614F8012B2D2A69D0302A6AD02B2A30
:109820005ED02A2A69D0A2F13003092B4FF000053F
:109830000BD805EB850502EB450511F8012FA2F1C8
:109840003003092BA5F13005F3D92E2A0C465FD041
:10985000002301E014F8012F02F0FB016829F9D080
:10986000252A00F05681583AD1B2202936D8202A2C
:1098700034D8DFE812F077003300330033003300D0
:109880003300330033003300330033002100850000
:1098900033003300330033008500330033003300DE
:1098A000330033003300CE00330033000B013300AC
:1098B0006900330033007700D8F80020131DC8F882
:1098C0000030B36831681278581CB060CA54D6E9C9
:1098D00001329A4202D33046FFF7C6FE01347AE7DE
:1098E000214614F8012B2D2A47F0040795D147F0A3
:1098F00001078DE747F002078AE7D8F800301A1D04
:10990000C8F800204A781D682E2A01F101049FD171
:109910006278A2F13003092B04F101044FF0000337
:109920009AD803EB830302EB430314F8012FA2F14F
:1099300030010929A3F13003F3D98DE7304605B092
:10994000BDE8F04FFFF790BED8F80020111DC8F811
:10995000001011683046CDE900570A22FFF7A0FE3B
:10996000013438E7D8F80020111DC8F8001011683C
:109970003046CDE900571022FFF792FE01342AE766
:10998000D8F80020111DC8F80010D2F800B08BEAFA
:10999000EB72A2EBEB72092A40F36381DFF8D0C2CD
:1099A000012011466329ACFB02E200F101004FEAFD
:1099B000D202F6DC9842024638BF1A460292002DC7
:1099C00040F0AB80B80700F111810025BBF1000F1A
:1099D000C0F2FE807A070ED5B1684A1CB2603268C8
:1099E0002B205054D6E90121914204D330460393F1
:1099F000FFF73AFE039B07F00302022A00F00981F9
:109A0000CDE9005759460A223046FFF749FE013496
:109A1000E1E6D8F80020131DC8F80030B3683168BB
:109A200017685A1CB26001F803A0D6E901239342DB
:109A300080F00E813268581C7821B060D154D6E98C
:109A40000123934280F0FF800F2F03D93A46120979
:109A50000F2AFCD84FF0805506E00F2D4FEA151362
:109A60007FF63CAF1D46B3683268B7FBF5F1581C72
:109A7000B06019F80100D054D6E901329A4205FBD2
:109A80001177EAD33046FFF7EFFDE6E7D8F800306C
:109A90001A1DC8F8002017F00107D3F800B05DD0F8
:109AA0009BF80000002800F0DE80B3685F46CBF131
:109AB0000102591CB1603168C854D6E901138B42C8
:109AC00002EB070B1AD217F8010F0028F1D15D4500
:109AD0007FF604AF202702E05D453FF4FFAEB26899
:109AE0003368501CB0609F54D6E901329A4205F1A8
:109AF000FF35F1D33046FFF7B7FDEDE73046029270
:109B0000FFF7B2FD17F8010F0028E0D0B368029A02
:109B1000CFE7B3683168D7E67047BBF1000F01DBD0
:109B20007A0700D5013DB80766D4F9073FF54EAF77
:109B3000002D3FF44AAF20220299A942BFF446AF5C
:109B4000B168481CB06030684254D6E901018142D6
:109B500005F1FF3554D2002DEED136E7BBF1000FF1
:109B600003D0584608F068F80746BD4215D9A5B19C
:109B7000202102E0BD4210D07DB1B2683368501C94
:109B8000B0609954D6E90123934205F1FF35F1D332
:109B90003046FFF769FD2021ECE79BF80020002A02
:109BA0003FF49CAEB3683168581CB060CA54D6E923
:109BB0000123934204D21BF8012F002AF3D18DE632
:109BC0003046FFF751FD1BF8012F002AEAD185E648
:109BD000B1684A1CB26032682D205054D6E9012188
:109BE0009142CBF1000BFFF406AFFFE6002B36D01D
:109BF000F9073FF5EBAEE8E6002B3FF4E7AE94E75C
:109C000030460393FFF730FD039B2022002D93D1B4
:109C1000DBE6002B7FF4F4AEFDB1029AAA42BFF45A
:109C2000EFAEB1683268481CB06002F801A0D6E916
:109C30000121914205F1FF35EED330460393FFF742
:109C400013FD039BE8E73046FFF70EFDB368FBE624
:109C50003046FFF709FDB368ECE60025D0E61D4667
:109C6000B4E60120A6E6834631E700BFAC29030035
:109C7000CDCCCCCC10B582B040B10B46A9B10360BD
:109C80001B68114602B0BDE810401847094A0A4B4C
:109C900010880A4A0A490E24000440F0010000948A
:109CA000FDF758F80E2002B010BD024A024B108892
:109CB000044AEFE71C230020702B0300BC2903009B
:109CC000C4290300F02903002DE9F04182B00028E7
:109CD00054D0002A62D0D0F800E0BEF1000F62D06C
:109CE0001D4663B34768D7F80480B3FBF8F708FB59
:109CF0001737002F33D18F0736D112F0030F38D129
:109D0000C768B9420FD22F4A2F4B10882F4A3049CB
:109D10001024000440F001000094FDF71BF82046D9
:109D200002B0BDE8F08104694E1E3544A542EAD870
:109D3000DEF80C40A44602B0BDE8F0416047214A7D
:109D4000214B1088234A22490924000440F00100D5
:109D50000094FCF7FFFF204602B0BDE8F081194AED
:109D6000194B10881C4AEEE7164A174B10881B4AFD
:109D7000CDE7144A144B1088194AC8E7114A124B10
:109D80001088184A12490E24000440F00100009483
:109D9000FCF7E0FF204602B0BDE8F081094A0A4B1B
:109DA0001088114AEEE7074A074B108808490F4A06
:109DB0000824000440F001000094FCF7CBFF20468B
:109DC000AEE700BF1C230020842B0300C02A030041
:109DD000C42903000C2A0300582A0300842A030024
:109DE0009C2A0300BC290300502A0300F829030021
:109DF000F0B583B000283FD0D0F800C0BCF1000F10
:109E000048D02AB34768D7F800E00EF1FF370F4279
:109E10002DD1C768B9420ED2254A264B1088264A52
:109E200026491024000440F001000094FCF792FF42
:109E3000204603B0F0BD04694D1E0EFB0255A5423D
:109E4000EAD8DCF81040A44603B0BDE8F040604713
:109E5000174A184B10881949194A0924000440F080
:109E600001000094FCF776FF204603B0F0BD104AD5
:109E7000104B1088134AD3E70D4A0E4B10880F4938
:109E8000114A0E24000440F001000094FCF762FF28
:109E90002046CEE7064A074B108808490B4A08249B
:109EA000000440F001000094FCF754FF2046C0E796
:109EB0001C230020982B0300102B0300C42903004F
:109EC0000C2A0300E82A0300BC290300F829030038
:109ED00018B103680BB1DB69184770B50B4B0C4C1C
:109EE0000C4E1B1BA6FB0326132B4FEA161688BF2E
:109EF000002509D9236820460135143413B1DB69E4
:109F0000984710B9B542F5D3002070BD4423002016
:109F100030230020CDCCCCCC29DF704728DF704720
:109F20000846704700207047024B187A003818BF67
:109F300001207047A42B0020034B187A0122B0FAAD
:109F400080F05A7440097047A42B002008B51046D1
:109F50001A4607F03BFE002008BD00BF08B51422DA
:109F60000021044807F040FE0348FFF783F9002072
:109F700008BD00BFA42B00204422002038B50A4CA5
:109F80000A4B43602046FFF7DFFA08B1002038BDD6
:109F900007F05AFC064905461C238C220548257407
:109FA000FFF750F9002038BDA42B0020BC2B030084
:109FB000182B00204422002030B5394D2B7A87B071
:109FC000002B39D0374B1C6802232B722379002BCE
:109FD0003DD0012B24D022689368C3B10023CDE982
:109FE000033302930093A36805930323019323791A
:109FF000002B48D0012B07D1E368616904911B0352
:10A00000022102938DF80010936868469847002358
:10A01000254926482B726B60FFF7BCF907B030BDAD
:10A02000D4E903031844FFF779FF20B31128D2D1F4
:10A0300001232B7207B030BD1B491C48FFF77AF98A
:10A04000184B044618600028BED16860E6E7D4E9E2
:10A050000520121AB2F5805F28BF4FF48052D4E970
:10A0600003139208012A38BF012201441844FFF764
:10A0700053FF0028DAD12B7C002BCFD101460220E0
:10A0800000F016F8CAE72069E1680123CDE9020172
:10A090008DF8003063690493936868469847B6E783
:10A0A000A42B0020BC2B0020B82B00204422002031
:10A0B000831E012B3FD810B5334C237A86B0002B7A
:10A0C00037D0022B31D103283AD0304B00221B6805
:10A0D000E2601A79002A40D0012A26D1D3E904216E
:10A0E00001328A421A6120D10020207219688A68E0
:10A0F000BAB10022CDE90322029200929A6801903F
:10A1000005921A79002A35D0012A07D1DA685B69ED
:10A1100004931303022202938DF800208B68684693
:10A1200098471B491B48FFF735F9637C23B9FFF7B4
:10A1300043FF06B010BD704707F076FB06B010BDB8
:10A14000E3680133082B01D8E360EEE70F4B0022F0
:10A150001B68E26022720D20C8E7D3E90512881A55
:10A16000B0F5805F94BF121802F5805291429A6157
:10A17000DBD1B9E7012218698DF80020DA685B6944
:10A180000493CDE90202C9E7A42B0020BC2B0020D8
:10A19000B82B0020442200202DE9F04784B0074668
:10A1A0000E461A4803A915469A46FFF785F840B3AC
:10A1B000044600211C228846DFF8549007F014FD65
:10A1C0000C9B12482760C4E90356A360C4F814A08E
:10A1D00003A984F80480FFF79DF809F10400FFF754
:10A1E000B3F918B1404604B0BDE8F08799F81130D2
:10A1F000002BF8D10190FFF7DFFE019804B0BDE815
:10A20000F087042004B0BDE8F08700BF442200209E
:10A21000A42B00202DE9F04385B081460D46194856
:10A2200003A916461F46FFF747F830B304461C2221
:10A23000002107F0D9FCDFF850801248C4F80090E4
:10A2400001232D0BC4E90275666103A92371FFF791
:10A2500061F808F10400FFF777F918B1002005B0A4
:10A26000BDE8F08398F81130002BF8D10190FFF78A
:10A27000A3FE019805B0BDE8F083042005B0BDE859
:10A28000F08300BF44220020A42B002000F0FD0337
:10A29000012B00D0704730B53B4DA0F10100B0FA62
:10A2A00080F02B7A4009002287B028746A74002B52
:10A2B0004AD0364B1C6802232B722379002B4ED0D8
:10A2C000012B07D1D4E903031844FFF727FE48B355
:10A2D00011281BD0226893687BB10023CDE903339A
:10A2E00002930093A36805930323019323790BB38F
:10A2F000012B0ED0936868469847002324492548CF
:10A300002B726B60FFF746F807B030BD01232B724C
:10A31000FAE7E368616904911B03022102938DF857
:10A320000010E7E72B7C002BEED101460220FFF75F
:10A33000BFFEE9E72069E16801238DF80030636919
:10A340000493CDE90201D5E711491248FEF7F2FF67
:10A350000E4B044618600028ADD16860D4E7D4E9FC
:10A360000520121AB2F5805F28BF4FF48052D4E95D
:10A3700003139208012A38BF012201441844FFF751
:10A38000CBFD0028A4D1CDE7A42B0020BC2B0020BE
:10A39000B82B002044220020FFF706B92DE9F04138
:10A3A000858A0331043D4E198046B6FBF5F6FFF76A
:10A3B00017F9A0B3F6B24FF48073013E0446C5808E
:10A3C000C0F8008083802BD00346002508E0627926
:10A3D000AE4202F1010262713860C0F800801FD005
:10A3E00040461F46FFF7FCF8013503460028EED132
:10A3F0006779791E17D02246013399421268FBD142
:10A40000D2F800805FB12668002501E03446366846
:10A41000214601354046FFF70BF9AF42F6D800243C
:10A420002046BDE8F08120682146FFF701F9F6E7F4
:10A4300004300121FFF76CB82DE9F04101210446F9
:10A440000430FFF773F810F0FF0301D0BDE8F0818E
:10A450006779791E16D02246013399421268FBD1E2
:10A46000D2F80080002FF1D02668002501E03446A4
:10A470003668214601354046FFF7DAF8AF42F6D894
:10A48000BDE8F08120682146BDE8F041FFF7D0B873
:10A490002DE9F843C78804339F4204461546884691
:10A4A000B3FBF7F207FB123002D8013A2468FCD163
:10A4B0003E1AAE4228BF2E469DB14FF0000904302F
:10A4C000AD1B2044324608EB090107F07FFBAF4289
:10A4D000B14424683E464FF0000028BF2E46002DB0
:10A4E000EDD1BDE8F88300BF2DE9F843C7880433F8
:10A4F0009F4288461546B3FBF7F1044607FB11322D
:10A5000002D801392468FCD1BE1AAE4228BF2E46BB
:10A510009DB14FF000090432A118AD1B324608EB83
:10A52000090007F053FBAF42B14424683E464FF0A8
:10A53000000228BF2E46002DEDD1BDE8F88300BFF4
:10A5400041DF7047064A074B10B5002414701C60A9
:10A55000BFF35F8F0449054800F034F8204610BD72
:10A56000C82B0020CC2B0020F42B0300C02B002094
:10A5700000B583B000230DF107008DF80730FDF71B
:10A58000F7FAF1EE103A23F09F03E1EE103ABFF331
:10A590005F8F0B4B4022C3F884219DF80700FDF725
:10A5A0000DFB07F051F928B920BF40BF20BF03B011
:10A5B0005DF804FBFFF7C4FF03B05DF804FB00BFC8
:10A5C00000E100E001600B6843604A68934204BF09
:10A5D00000234360704700BF436843B1026891683D
:10A5E0000B4443605268934204BF002343607047AA
:10A5F00070B50146154800F035F8044608B120460C
:10A6000070BD134D134E2B78F35CA3B1281D01F0E0
:10A61000ABFE0028F3D110490C4800F03BF80028AD
:10A62000EDD12B780C49F35C01224BB1BDE87040B1
:10A630000A4801F047BE05F10C0001F011FCE8E703
:10A64000BDE87040064801F0A3BB00BFD02B00203E
:10A6500058220020F4310020E02B00205C22002052
:10A660006422002010B48468C26803468088121BEC
:10A67000904203D204205DF8044B7047DA681C68EE
:10A6800002400020A154DA680132DA605DF8044B20
:10A69000704700BF03468068DA6890420DD010B45E
:10A6A00098689A881C6802400020A25C0A709A6828
:10A6B00001329A605DF8044B70470520704700BF77
:10A6C000114910B4A1F5947205E052F83330984264
:10A6D00038BF21460CD28C1AE30F03EBE4035B1066
:10A6E000914202EBC304F0D808485DF8044B704770
:10A6F00002D904F10802EEE76068044B5DF8044BF0
:10A70000002808BF1846704728310300EC2F0300CB
:10A7100030B4B84B1B78062B20D0B74B1B68062BE8
:10A7200000F08180B54AD2F8883043F47003C2F853
:10A730008830BFF34F8FBFF36F8F4FF01023D3F8E4
:10A740000022002AC0F28681D3F80432002BC0F226
:10A750008181AB4BAB4A1A6030BC7047AA4B1B6877
:10A760001D07DAD1A94B1B6803F0F002302A00F074
:10A770009B8003F0E003402B00F09680A34B1B6806
:10A7800003F0F003302B00F0A080A04B1B6803F017
:10A79000F002302A77D003F0E003402B73D09B4BBC
:10A7A0001B6803F0F003302B00F01481974B1B68FB
:10A7B00003F0F002302A52D003F0E003402B4ED0D9
:10A7C000924B1B6803F0F003302B00F0F5808F4BA9
:10A7D0001B6803F0F003302B00F0D7808B4B1B6815
:10A7E00003F0F003502B7ED0884B1B6803F0F0027F
:10A7F000302A23D003F0E003402B1FD0834B1B688B
:10A8000003F0F002302A03D003F0E003402B84D1A0
:10A810004FF08043D3F80024D20744BF6FF0010209
:10A82000C3F8002479E77A4B1B68062B7FF47AAFD4
:10A83000784A136843F48063136073E7764B6D4A7C
:10A840001B681278754903F04F03062A0B607FF4EA
:10A8500064AF6D4B1B6819077FF45FAFCEE7654AA5
:10A8600011784FF0804300220629C3F80C21C3F869
:10A870001021C3F838257FF450AF634B1B681B07CA
:10A880007FF44BAF9CE7664B5A4A1B6812786549C8
:10A89000C3F34233062A0B607FF43FAF5A4B1B6869
:10A8A00019077FF43AAF7AE75F4B524A1B68127878
:10A8B0005E49C3F30423062A0B607FF42EAF524B8C
:10A8C0001B681C077FF429AF58E74A4B584A1B788E
:10A8D00058491160062B7FF420AF4B4B1B681807BB
:10A8E0007FF41BAF51E74FF08052534BD2F8041462
:10A8F000C3F82015D2F80814C3F82415D2F80C14A4
:10A90000C3F82815D2F81014C3F82C15D2F8141473
:10A91000C3F83015D2F81814C3F83415D2F81C1443
:10A92000C3F84015D2F82014C3F84415D2F8241403
:10A93000C3F84815D2F82814C3F84C15D2F82C14D3
:10A94000C3F85015D2F83014C3F85415D2F83414A3
:10A95000C3F86015D2F83814C3F86415D2F83C1463
:10A96000C3F86815D2F840142248C3F86C15D2F821
:10A9700044140278C3F87015062A7FF4CEAE224B39
:10A980001B6818077FF4C9AE2EE71A4B2B4C1B78B7
:10A990002B492C482C4A0525256001250D600024F3
:10A9A0003F21062B046011607FF4B7AE164B1B6885
:10A9B0001C077FF4B2AE11E70E4B244A1B7803212B
:10A9C000062B11607FF4A9AE0F4B1B681D077FF4A7
:10A9D000A4AEFCE61E4A0749D368097823F08073C9
:10A9E0000629D3607FF499AE074B1B681A077FF4E2
:10A9F00094AEDBE6E00F00F03001001000ED00E067
:10AA00006C2200200090D003E40F00F0E80F00F06B
:10AA1000340100103C17004058020010E40E0040C2
:10AA2000440200103C050040240300104035014062
:10AA300074C007400DF0ADBA00C000401056004091
:10AA4000885600401856004014560040A0050040AB
:10AA5000F0ED00E0184A0123C2F80435D2F80034C2
:10AA6000002BFBD04FF010231521134AC3F800121E
:10AA7000D2F80034002BFBD04FF0102315210E4AE2
:10AA8000C3F80412D2F80034002BFBD000230A498B
:10AA9000C2F80435D1F80034002BFBD0BFF34F8F40
:10AAA0000649074BCA6802F4E0621343CB60BFF368
:10AAB0004F8F00BFFDE700BF00E0014000ED00E068
:10AAC0000400FA05074B1B5C1F2B8ABF064A4FF098
:10AAD000A04203F01F03D2F80405D840C04300F0A1
:10AAE000010070472C31030000030050064B1A5C34
:10AAF0001F2A86BF054902F01F024FF0A041012323
:10AB00009340C1F80C3570472C310300000300500E
:10AB1000064B1A5C1F2A86BF054902F01F024FF040
:10AB2000A04101239340C1F8083570472C31030040
:10AB3000000300504FF0A04310B44FF480404FF496
:10AB400000544FF400414FF48032C3F80845C3F875
:10AB50000805C3F80815C3F808255DF8044B7047CD
:10AB60004FF0A04310B44FF480404FF400544FF422
:10AB700000414FF48032C3F80C45C3F80C05C3F80C
:10AB80000C15C3F80C255DF8044B70470A4B185C94
:10AB90001F288ABF09494FF0A04100F01F00D1F8DB
:10ABA00004350122824022EA03001340C1F808055F
:10ABB000C1F80C35704700BF2C3103000003005072
:10ABC000074B1B5C1F2B8ABF064A4FF0A04203F0C5
:10ABD0001F03D2F81005D840C04300F001007047B1
:10ABE00028310300000300500B2809D00C2809D09D
:10ABF000182809D019280CBF03204FF0FF307047E8
:10AC0000002070470120704702207047014B185CFC
:10AC1000704700BF28310300C20730B40ED4830749
:10AC20000AD54FF0A0430C22C3F82C27C3F83027D5
:10AC3000C3F86027C3F8642730BC70474FF0A043C7
:10AC40000322C3F834274FF40055C3F838274FF4D4
:10AC50008044C3F83C274FF40041C3F840274FF429
:10AC60008032C3F80855C3F80845C3F80815C3F87F
:10AC70000825D4E710B568B90E4CA36801226270AC
:10AC80003BB1D3E900230020A2609847A368002BC2
:10AC9000F7D110BD0128FCD1064C2369A070002B10
:10ACA000F7D0D3E900230120226198472369002BC4
:10ACB000F7D110BDE42B002070B910B5074CA36884
:10ACC000012262703BB1D3E900230020A2609847C3
:10ACD000A368002BF7D110BD704700BFE42B002004
:10ACE00030B5012883B004D003281DD0B0B103B023
:10ACF00030BD224C00230DF107008DF80730FCF722
:10AD000037FF23784BB3E3689DF807000133012236
:10AD1000E360A270FCF752FF03B030BD184B012274
:10AD2000C3F8802003B030BD144C00F0B1F800230C
:10AD30000DF107008DF80730FCF71AFFE368013BBF
:10AD4000E360E5682DB19DF80700FCF737FF03B01D
:10AD500030BD00F0B1F8A570F5E70A486360A36064
:10AD60002361E36000F088F806F06EFD10B1012366
:10AD70002370C8E700F08CF8F9E700BFE42B00204F
:10AD800000E100E075AC020030B585B00478094AF6
:10AD9000094B45688DF80040047AC06853F82130AB
:10ADA000039052F8211001958DF8084068469847A5
:10ADB00005B030BDF82B0020002C002030B585B048
:10ADC000047845688DF80040D0E90240064A074BF8
:10ADD000039053F82130019552F821108DF8084066
:10ADE0006846984705B030BDF82B0020002C0020A5
:10ADF0002DE9F047DFF8748090F800E04B7F08F809
:10AE00000E300D46074616460FCD88B06C460FC46F
:10AE100095E80F003D78DFF85890DFF858C018F833
:10AE2000055049F82E6084E80F004CF82E00CDF84C
:10AE300010E05DB1002E0B4A694607F1040008BF1F
:10AE4000324601F0B1F808B0BDE8F087002E064A9E
:10AE5000694607F10C0008BF324600F021FE08B039
:10AE6000BDE8F08789AD0200BDAD0200F4310020DD
:10AE7000002C0020F82B0020044A137923B901216B
:10AE8000106091801846704785207047082C00207C
:10AE9000084B1A68D20706D40122E02183F8001378
:10AEA000C3F880211A604FF080430122C3F81825AF
:10AEB000704700BF00E100E0044B01221A604FF030
:10AEC0008042D2F81834DB03FBD470470C000040FA
:10AED00010B5174B1A6882B062B10021154A19608B
:10AEE0001B68507900934FF080410123009CC1F80A
:10AEF000083398B1104B1A68BAB100221A601B6867
:10AF000001934FF0804202210A4B0198C2F80813C6
:10AF10001B68012002B0BDE810401847116853714A
:10AF20008847054B1A68002AE7D102B010BD00BF60
:10AF300000010040082C00200401004070B5234CA3
:10AF400094F86A5082B0002D3CD14FF0FF304FF0A2
:10AF5000FF314FF0FF33C4E90001C4E90C01C4E93B
:10AF60000E01C4E91001C4E91201C4E91401C4E9E5
:10AF700016010622294604F16400C4E90233C4E93B
:10AF80000433C4E90633C4E90833C4E90A33236649
:10AF900006F02AFE0E4B0F4A0F4E1560E02183F893
:10AFA00006134021C3F880111960136801930199B9
:10AFB0004FF000430122284684F86A20C6F8043383
:10AFC00002B070BD082002B070BD00BF102C002080
:10AFD00000E100E07C61004000600040034B93F81A
:10AFE0006A00003818BF0120704700BF102C0020F5
:10AFF000F0B4754B1D1895F93040002C61DA8C784F
:10B00000A707C4F3400C53D41C6A013400F0D58068
:10B010005C6A013400F0CA800C260A2453F82450DC
:10B02000013552D0651CB5423FD253F82570013727
:10B0300000F0B480A51CB54237D253F82570013713
:10B0400000F0AC80E71CB7422FD253F827500135EF
:10B050003AD0271DB74228D253F82750013533D0B4
:10B06000671DB74221D253F8275001352CD0A71DB8
:10B07000B7421AD253F82750013525D0E71DB74201
:10B0800013D253F8275001351ED004F10807B742F8
:10B090000BD253F82750013516D00934B44204D2EC
:10B0A000DC6A013408BF0B240FD00420F0BC7047C9
:10B0B0001C68013474D05C6801346DD00826022409
:10B0C000ACE70820F0BC70473C461E1865B243F858
:10B0D000242086F83050BCF1000F02D11C4484F8C3
:10B0E00058008A7854071AD4D60744D41F284C78BD
:10B0F00087BF364E00F01F0202464FF0A04602F511
:10B10000E072A40046F82240314EC40800F0070C5B
:10B11000375D012202FA0CF23A4332558A7812F076
:10B1200002021CD0AB0003F1804303F5C043097851
:10B13000D3F8104524F44F3424F44074C3F8104578
:10B1400002020904D3F8100501F4403102F47C52E4
:10B150000A430243C3F810250020F0BC7047083DA5
:10B160002B44087893F8601041EA801183F860104E
:10B170001046F0BC70471F2887BF144A00F01F0418
:10B1800004464FF0A04202EB8402D2F8004724F0BC
:10B190000204C2F80047B7E7012496E72C4694E77B
:10B1A000002485F830401A6025469AE7092685F87C
:10B1B00030605A623446354690E7082685F830609C
:10B1C0001A623446354689E7102C002000030050EF
:10B1D000742C002070B4324C251883B095F93030AF
:10B1E000072B22DD234493F858309B09032B46D0CC
:10B1F000012B0CBF4FF400324FF440321F288ABF9E
:10B20000284B4FF0A04300F01F0003EB8000D0F864
:10B21000003723F44033C0F80037D0F800371A4322
:10B22000C0F8002703B070BC7047DAB2072AF9D81B
:10B23000980000F1804000F5C04003F14002920008
:10B24000D0F8106592B202F1804202F5C04246F099
:10B250000106C0F810650020106012680192019A82
:10B260000029DFD095F9302054F82220002AD9D0C7
:10B270000D49012202FA03F3C1F80433D2E71F2873
:10B280008ABF084A4FF0A04200F01F03D2F81025F1
:10B2900098BF0346DA4002F0010202321204ADE721
:10B2A000102C002000030050006000401F288ABFBF
:10B2B000054B4FF0A04300F01F00D3F8103523FAE0
:10B2C00000F000F001007047000300502DE9F04746
:10B2D000002388B0CDE90233C94A1168012900F082
:10B2E0004B821E46C74B1A68012A00F03782C64BB4
:10B2F0001A68012A00F02482C44B1A68012A00F05F
:10B300001182C34B1A68012A00F0FE81C14B1A68F2
:10B31000012A00F0EB81C04B1A68012A00F0D881A5
:10B32000BE4B1A68012A08D0BD4B1A68012A00F0EA
:10B330002F8216BB08B0BDE8F087BA4AD2F80423C2
:10B340001706F1D500221A6019680091196E00984D
:10B35000012903F1600346F080060ED11A601B68D4
:10B3600001934FF0A042019BD2F81025AE4B029200
:10B37000D3F81035039346F00046AC4F0024012566
:10B38000A30003F180432E4203F5C0434FEA450575
:10B390000BD0D3F8100557F82420D3F81015C0F3BC
:10B3A0000520C1F3014102B190470134082CE7D1D7
:10B3B000002EBFDA9D4C9C4F4FF0FF304FF0FF3115
:10B3C000CDE9060194F960000DF110080023451C39
:10B3D000C8F8043004934FF0010600F0F780C0F382
:10B3E000C20908AB03EB090E00F007031EF8082C96
:10B3F00006FA03F312EA03055FFA80FC00F03F004F
:10B4000021D022184FEA9C1192F9302054F82220C2
:10B41000002A00F03781032900F036811F2800F24E
:10B42000EB8005464FF0A04C0CEB850C1EF8185C29
:10B43000DCF800E71D40CEF3014E40F0D180BEF1B4
:10B44000030F00F0B78194F96100411C33D0C0F3C1
:10B45000C20E08AB03EB0E0C00F007031CF8081C2F
:10B4600006FA03F31942C2B200F03F0023D004EB06
:10B470000009910999F9309054F82990B9F1000F19
:10B4800000F01281032900F012811F2800F2F680DB
:10B4900086464FF0A04202EB8E021CF818ECD2F860
:10B4A00000C71EEA030FCCF3014C40F0DA80BCF178
:10B4B000030F00F0918194F96200421C33D0C0F375
:10B4C000C20E08AB03EB0E0C00F007031CF8081CBF
:10B4D00006FA03F31942C2B200F03F0023D004EB96
:10B4E0000009910999F9309054F82990B9F1000FA9
:10B4F00000F0D080032900F0D0801F2800F2A58042
:10B5000086464FF0A04202EB8E021CF818ECD2F8EF
:10B5100000C71EEA030FCCF3014C40F08980BCF158
:10B52000030F00F06D8194F96300431C33D0C0F326
:10B53000C20E08AB03EB0E0C00F007031CF8081C4E
:10B5400006FA03F31942C2B200F03F0023D004EB25
:10B550000009910999F9309054F82990B9F1000F38
:10B5600000F0AC80032900F0AC801F288BBFBE46E2
:10B570004FF0A04E02F01F0202460EEB82021CF8B2
:10B5800018ECD2F800C71EEA030FCCF3014C60D1CF
:10B59000BCF1030F1CD0002D3FF4CCAE4FF0A04205
:10B5A000029BD2F81015D7F810058B4203D1039BEC
:10B5B00083423FF4BFAEDDE90423CDE9021094F9E4
:10B5C0006000451CCDE906237FF409AF00253AE76A
:10B5D000032900F02981B9F1000FDCD0C847DAE770
:10B5E000BEF1020FF2D1032900F039810025002AB3
:10B5F0003FF429AF904726E70CF01F05BC4613E740
:10B600000061004004610040086100400C6100409E
:10B610001061004014610040186100401C6100404E
:10B620007C6100400060004000030050102C0020AE
:10B63000BCF1020F7FF477AF032900F00D81B9F15F
:10B64000000F3FF470AFC8476DE702F01F0E3A4697
:10B6500059E7BCF1020F9ED10329BCD14FF4403C05
:10B66000E4E0BCF1020F7FF426AF032900F0F18083
:10B67000B9F1000F3FF41FAFC8471CE702F01F0EDF
:10B680003A4608E70329A1D118F809501D4308F8E4
:10B690000950C3E603297FF446AF18F80EA04AEA22
:10B6A000030A08F80EA028E703297FF404AF18F86E
:10B6B0000EA04AEA030A08F80EA0E6E603297FF482
:10B6C0006AAF18F80EA04AEA030A08F80EA04CE781
:10B6D000644AD2F8042352067FF522AE00221A6093
:10B6E0001B680093009B46F0400619E65D4AD2F8BD
:10B6F000042391067FF50FAE00221A601B680093A9
:10B70000009B46F0200606E6564AD2F80423D006EF
:10B710007FF5FCAD00221A601B680093009B46F089
:10B720001006F3E54F4AD2F8042314077FF5E9AD7C
:10B7300000221A601B680093009B46F00806E0E5B3
:10B74000484AD2F8042355077FF5D6AD00221A6087
:10B750001B680093009B46F00406CDE5414AD2F8F1
:10B76000042397077FF5C3AD00221A601B6800937E
:10B77000009B46F00206BAE53A49D1F8046316F098
:10B7800001063FF4AFAD136013680093009BA9E579
:10B7900000221A601B6801934FF0A042019BD2F86F
:10B7A0001025314B0292D3F810350393002E3FF44D
:10B7B00001AEE0E503297FF41AAF4FF40035DCF861
:10B7C000003723F44033CCF80037DCF800372B4344
:10B7D000CCF8003701250AE703297FF449AF4FF47D
:10B7E000003CD2F8003723F44033C2F80037D2F8D7
:10B7F000003701354CEA0303EDB2C2F8003737E7F2
:10B8000003297FF41CAF4FF4003CD2F8003723F437
:10B810004033C2F80037D2F8003701354CEA030351
:10B82000EDB2C2F800370AE74FF4003CD2F8003717
:10B8300023F44033C2F80037D2F80037013543EA29
:10B840000C03EDB2C2F80037B9F1000F7FF4C6AEB9
:10B85000A4E64FF4403CC4E74FF4403CD5E74FF436
:10B860004035ACE70060004000030050014B1B680E
:10B87000184700BF7C2C0020114B98421DD130B5D9
:10B8800083B000230DF107008DF807300D46FCF75B
:10B890006FF90C4B1C794CB99DF807001D60012213
:10B8A0001A71FCF78BF9204603B030BD9DF80700F4
:10B8B000FCF784F9112003B030BD0020704700BFB1
:10B8C000002000407C2C0020034B984203D1034B06
:10B8D00000221A601A717047002000407C2C002062
:10B8E00030B56D4AD2F8043399058BB068D5D2F8DB
:10B8F0002431002B64D00023C2F82431D2F8243143
:10B9000003934FF40171654B0398C2F8081393F841
:10B91000291009B9012151605F4902228DF81820D0
:10B92000D1F88024C1F880249869D968099200244C
:10B930000025CDE90710C3E90645D3E9001206A8A2
:10B940009047554AD2F81C31C3B1544B186A596913
:10B9500088426AD293F8280000F0FF04002864D1DE
:10B96000C2F81C41D2F81C11029102999C68186A15
:10B97000196A205C01311962C2F81C05464AD2F8E6
:10B980004431DBB10021454BC2F84411D2F84401E7
:10B9900093F829100090009809B1012111609A696B
:10B9A00062B1586AD96800229A610122CDE9071074
:10B9B0008DF8182006A8D3E9001290470BB030BDCF
:10B9C000354AD2F804335B07BBD5D2F80831002BD7
:10B9D000B7D0324B996900293CD00021C2F8081138
:10B9E000D2F8081104910499D868596AD2F8182538
:10B9F00042545A6A996901325A625A6A8A42A0D1FB
:10BA0000DA69002A2FD0DD685C6A18699A61012121
:10BA10000022D860DA615A628DF81810CDE9075417
:10BA2000D3E9001206A890478BE71B4A0020C2F812
:10BA30001C01D2F81C210192019A00299ED09A681B
:10BA40008DF8180008915861079206A8D3E90012F2
:10BA5000904793E7C2F80811D2F8080105900598BD
:10BA6000D2F81825C9E793F8292012B90A4A01210A
:10BA70005160094A4FF40171C2F80813596ADA6833
:10BA800008910024012007928DF81800D3E90012D4
:10BA90009C6106A8904754E700200040882C0020B5
:10BAA0002DE9F041DFF8E88106792C2303FB0683BA
:10BAB00082B093F82A30002B40F0A18005460C4656
:10BAC00000686F491746FFF7D7FE002840F09380C3
:10BAD0002368591C19D01F2B4FF001028ABF6949F6
