:020000022000DC
:1060000000000420B5620200DD620200DF620200CF
:10601000E1620200E3620200E562020000000000AB
:10602000000000000000000000000000E762020025
:10603000E962020000000000EB620200ED62020073
:10604000F5900200EF620200919A0200EF620200F6
:10605000EF620200EF620200F1940200EF620200C0
:10606000EF620200EF620200EF620200EF620200E4
:10607000EF620200EF620200EF620200EF620200D4
:10608000EF620200E1720200EF620200EF620200C2
:1060900081730200EF62020019CD0200EF6202007C
:1060A000EF620200EF620200EF620200EF620200A4
:1060B000EF620200EF62020000000000000000003A
:1060C000EF620200EF620200EF620200EF62020084
:1060D000EF620200EF620200EF620200EF62020074
:1060E000EF620200EF620200EF62020000000000B7
:1060F00000000000EF62020000000000EF620200FA
:10610000000000000000000000000000000000008F
:10611000000000000000000000000000000000007F
:10612000000000000000000000000000000000006F
:10613000000000000000000000000000000000005F
:10614000000000000000000000000000000000004F
:10615000000000000000000000000000000000003F
:10616000000000000000000000000000000000002F
:10617000000000000000000000000000000000001F
:10618000000000000000000000000000000000000F
:1061900000000000000000000000000000000000FF
:1061A00000000000000000000000000000000000EF
:1061B00000000000000000000000000000000000DF
:1061C00000000000000000000000000000000000CF
:1061D00000000000000000000000000000000000BF
:1061E00000000000000000000000000000000000AF
:1061F000000000000000000000000000000000009F
:1062000010B5054C237833B9044B13B10448AFF3F0
:1062100000800123237010BDA82B00200000000087
:10622000D4F1020008B5034B1BB103490348AFF397
:10623000008008BD00000000AC2B0020D4F102005B
:10624000154B002B08BF134B9D46A3F5803A002148
:106250008B460F461348144A121A06F03DFF0F4BA7
:10626000002B00D098470E4B002B00D09847002001
:10627000002104000D000D48002802D00C48AFF3A7
:10628000008006F0F7FE2000290004F0CFFE06F0A3
:10629000DDFE00BF00000800000004200000000038
:1062A00000000000A82B00209C3B00200000000004
:1062B000000000000649074A074B9B1A03DD043B18
:1062C000C858D050FBDC02F02DFCFFF7B9FF0000EE
:1062D000F8F20200982A0020A82B0020FEE7FEE733
:1062E000FEE7FEE7FEE7FEE7FEE7FEE7FEE7FEE786
:1062F000704700BF00B583B0044B0093044A4023AD
:1063000000F036F803B05DF804FB00BF156302002F
:10631000C82B002002B32DE9F843114B114E8846DB
:10632000144643F0010903270025224608EB050126
:10633000002004F0ABFF03461D444FF47A40E41AFA
:1063400023B9337833B1C847013F06D001233370F6
:10635000002CEAD1BDE8F88370473770BDE8F883B8
:10636000D0E30200C42B0020704700BF05F06CB8DA
:10637000F0B595B000241D460E460846174602F0BB
:10638000B1FA304623460822099505A91A9D0897B7
:106390000D950A948DF82C400C9402F0FFFA9DF8AC
:1063A00014308DF81140DDE9061003F00302012AD4
:1063B000CDE9020128D0022A04D0304602F096FA34
:1063C00015B0F0BDBDF81650C3F3C2038DF8103000
:1063D000C5F389150827082D2C4628BF08243B46FD
:1063E00022460EA9304602F0D9FA2D1B214608ABF1
:1063F00002AA0EA8274400F031FD002DEBD1304653
:1064000002F074FA15B0F0BDBDF81470059DC7F325
:106410008312C3F3C2040EA93046920008238DF8FC
:106420001040C7F3831702F0B9FAC5F3952508ABFE
:106430003A4628460EA9009302AB00F097FC30467E
:1064400002F054FA15B0F0BD10B5054CFFF78EFF01
:106450002046042100F00EFC0123637210BD00BF32
:10646000982A002038B50F4B0F4800240025002241
:10647000FF21C3E90045C3F81824996083F820245C
:10648000C3F8142402F0E2F958B9084A084BD21AAA
:10649000D20806D00749034621F8233001339A4237
:1064A000FAD138BDD82C0020B0F20200B0F20200C0
:1064B00030F20200682B002099B10E4B0E495B1A96
:1064C000DB0815D030B400220C4D02E001329342BB
:1064D0000BD035F822408442F8D151F8320030BC5C
:1064E0007047054951F830007047002030BC7047B4
:1064F00018467047B0F2020030F202006A2B00200A
:10650000094B013903EBC00003290BD8DFE801F088
:106510000402080604207047022070474079704743
:10652000007970470020704730F202002DE9F047F3
:106530008E4CD4E900239A4284B05FD00023C4F883
:106540001834BFF34F8FD4E90125236802EA05060A
:10655000F11C04EB8101087887072ED010F00407A6
:106560003BD104EB8606511CF3680193294004EBF0
:10657000810103F00303C9680291022B02F10206B4
:1065800075D0012B3ED0D4F8105435B12B68284675
:106590009B6898476D68002DF8D1754B7549188830
:1065A000000440F0020000F0EBF8D4E90030C01A1B
:1065B00018BF012004B0BDE8F08746070DD4488815
:1065C0000988013202EB901202EB91129342BDD87E
:1065D0000020636004B0BDE8F08700F003000128EC
:1065E00006D00228F2D14988023202EB9112EDE77F
:1065F00009880232C1F383110A44E7E7002004B09E
:10660000BDE8F087BDF804305B48C3F38312062A67
:1066100028BF0622911C62F389138900ADF804306B
:1066200002F016F980460028ADD002F05BF93B4637
:10663000082201A9404602F085F9BDF8043013F4A0
:10664000707F56D031462940BB000331083304EB3C
:1066500081010422404602F075F9BDF8043001378B
:10666000C3F38313BB4206F10106EBD841E0BDF84A
:1066700006304148C3F38919B9F1500FCA4628BF03
:106680004FF0500A6AF38F130AF10801ADF8063093
:1066900002F0DEF8804600283FF475AF02F022F9E0
:1066A0003B46082201A9404602F04CF925EA0603C0
:1066B0000133BAEB830F4FEA83074CD9002F43D045
:1066C00006EA05010331AAEB070A04EB810108235E
:1066D0003A4640465FFA8AFA02F034F927495246B0
:1066E00007F10803404602F02DF909F1030906EB12
:1066F0009906D4F818341BBBD4F810544DB16B7AFA
:1067000028464146C3B12B681B6898476D68002D29
:10671000F5D1404602F0EAF800230DF103008DF8B0
:10672000033001F083FAD4F8183403B966609DF899
:10673000030001F0A1FA38E76D68002DDFD1E8E72A
:10674000404602F0D3F830E70C4952460823404651
:1067500002F0F8F8C9E706EA0501033104EB81010C
:1067600052460823404602F0EDF8BEE7D82C002040
:106770007C2B0020E4E30200B0F20200E42C0020B5
:106780002DE9F04F614C87B0002306460DF10B0058
:106790008DF80B30A568884601F048FAD4E901234A
:1067A00027681A440132D21B012A7FD804F21C49FF
:1067B00004F5836B04F2144A31E01EF0040C5DD141
:1067C00004EB800003F1010EC26803920EEA01019E
:1067D00004EB810102F00302012AC96803F10203FC
:1067E00045D0022A41D1BDF80E20C2F389120332EE
:1067F000090C03EB92035046CDE9001301F008FBAE
:10680000009980B3019B6360484601F0D5FAD4E952
:106810000113226819440131891A012947D801213D
:10682000484601F0C9FA584601F0E2FA504601F034
:10683000DFFAD4E9013103EA0100C21C04EB820251
:1068400092F800E01EF0030FB7D11EF0040F03F121
:10685000010C13D1538812880CEB931303EB9213A2
:1068600003EA0100E9E74846CFE76146C3E7BDF820
:106870000C20C2F38312090C1344BCE70EF0030E84
:10688000BEF1010F0AD0BEF1020F03F1020CD4D108
:1068900053880CEB931303EA0100CEE7128802330E
:1068A000C2F38312134403EA0100C6E73A461340D9
:1068B0000333023205219DF80B0044F823102260B7
:1068C00001F0DAF90021124801F04CFA80F31000CF
:1068D000F1007B1C2B4001F038013D4004EB8303A9
:1068E00041F001010004033540EA164641EA8821DF
:1068F000DE6044F8251094F820341BB1FFF716FE33
:106900000028FBD107B0BDE8F08F00BFD82C0020D5
:10691000F43000202DE9F04FDFF8A4B189B0002356
:1069200006460DF1130017468DF81330DBF80840CA
:10693000039101F07BF9DBE90123DBF800501A44F5
:106940000132521B022A00F282800BF21C480BF526
:10695000836A0BF2144933E01EF0040C5FD10BEB99
:10696000800003F1010EC26805920EEA01010BEBF3
:10697000810102F00302012AC96803F1020347D032
:10698000022A43D1BDF81620C2F389120332090C42
:1069900003EB92034846CDE9013101F039FA02993F
:1069A00090B3019BCBF80430404601F005FADBE9D7
:1069B0000113DBF8002019440131891A022947D854
:1069C0000121404601F0F8F9504601F011FA48461D
:1069D00001F00EFADBE9013103EA0100C21C0BEB06
:1069E000820292F800E01EF0030FB5D11EF0040FF2
:1069F00003F1010C13D1538812880CEB931303EBB2
:106A0000921303EA0100E9E74046CEE76146C1E799
:106A1000BDF81420C2F38312090C1344BAE70EF038
:106A2000030EBEF1010F0AD0BEF1020F03F1020CFA
:106A3000D4D153880CEB931303EA0100CEE71288FC
:106A40000233C2F38312134403EA0100C6E72A4665
:106A500013400333033245219DF813004BF82310F4
:106A6000CBF8002001F008F9AB1C23400BEB8303AB
:106A700000211248DF6001F075F980F31000F10089
:106A80006B1C2340039A01F038012C400BEB83036D
:106A900041F041010004033440EA164641EA8221F4
:106AA000DE604BF824109BF820341BB1FFF73EFD4D
:106AB0000028FBD109B0BDE8F08F00BFF430002002
:106AC000D82C00202DE9F04F684C89B000260746ED
:106AD0000DF11300CDE902238DF81360A5688846F7
:106AE00001F0A4F8D4E9012326681A440132921B6C
:106AF000032A7FD804F21C4904F5836B04F2144A7C
:106B000031E01EF0040C5DD104EB800003F1010EB6
:106B1000C26805920EEA010104EB810102F0030252
:106B2000012AC96803F1020345D0022A41D1BDF808
:106B30001620C2F389120332090C03EB920350466C
:106B4000CDE9001301F064F9009980B3019B636003
:106B5000484601F031F9D4E90113226819440131A2
:106B6000891A032947D80121484601F025F95846DA
:106B700001F03EF9504601F03BF9D4E9013103EA56
:106B80000100C21C04EB820292F800E01EF0030F29
:106B9000B7D11EF0040F03F1010C13D153881288F2
:106BA0000CEB931303EB921303EA0100E9E7484669
:106BB000CFE76146C3E7BDF81420C2F38312090C86
:106BC0001344BCE70EF0030EBEF1010F0AD0BEF174
:106BD000020F03F1020CD4D153880CEB931303EA98
:106BE0000100CEE712880233C2F38312134403EA92
:106BF0000100C6E7324613400333043285219DF875
:106C0000130044F82310226001F036F8B21C2A4029
:106C1000F31C2B4004EB820204EB830C029BD36039
:106C20000021039B1248CCF80C3001F09BF880F354
:106C30001000F900731C2B4001F03801354004EBC3
:106C4000830341F081010004033540EA174741EA1C
:106C50008821DF6044F8251094F820341BB1FFF739
:106C600065FC0028FBD109B0BDE8F08FD82C0020CE
:106C7000F430002030B4124DD5F810140446002032
:106C800069B10B4601E05B684BB11A7A8242FAD1D6
:106C900001300A28F4D14FF0FF3030BC7047207229
:106CA000D5F8103433B15B686360D5F810345C609C
:106CB00030BC7047C5F81044636030BC704700BFFB
:106CC000D82C002038B5084BD3F81044012583F8A0
:106CD00020543CB12368657220465B68984764681D
:106CE000002CF7D138BD00BFD82C002030B5C388A8
:106CF00085B004460D461BBB217A05291ED0627A59
:106D000082B9134AA08852F8212003920021FFF78C
:106D1000D3FB039A0F490346284605B0BDE830402F
:106D200001F0F2B8A088FFF7EBFB0B4B0B4953F8CF
:106D30002020284601F0E8F8217AE2E705B030BDCE
:106D4000074A00920749084A284601F0DDF8D3E7D0
:106D5000DCE402003CE40200B8E4020038E4020093
:106D600030E4020018E4020010E402002DE9F043D0
:106D700085B04FF0000C0C9C814694F80C8084F890
:106D80000CC00E461746184621461D46FFF7AEFFBB
:106D9000062F09D8DFE807F0042E343B444F1F00CC
:106DA0004946204601F0B0F82B7A052B05D06B7AC6
:106DB0005BB92749204601F0A7F8204601F098F872
:106DC00084F80C8005B0BDE8F083224A22492046B1
:106DD00001F09AF8EDE7D6E90413F2680393B3687B
:106DE0000291CDE900324946D6E90023204601F060
:106DF0008BF8D9E732684946204601F085F8D3E799
:106E0000D6E900234946204601F07EF8CCE7B36876
:106E10000093D6E900234946204601F075F8C3E700
:106E2000D6E9023201920093D6E900234946204672
:106E300001F06AF8B8E7D6E90321B3680291CDE919
:106E400000324946D6E90023204601F05DF8ABE761
:106E500048E4020030E4020038E40200082900D9C6
:106E600070472DE9F04F9B4683B000241B7B8BF8C5
:106E70000C400D4606465946104690460193DFF8F1
:106E8000C8902A4FFFF732FF05E0325D013401F070
:106E90003BF8082C09D0A54239465846F5D8494652
:106EA000013401F031F8082CF5D12149DFF89C902C
:106EB000204F214C584601F027F84FF0000A0EE011
:106EC00016F80A2012F807C01CF0970F08BF2E22F0
:106ED0000AF1010A01F018F8BAF1080F0BD0554574
:106EE00021465846ECD849460AF1010A01F00CF84F
:106EF000BAF1080FF3D198F80830052B02D098F8B2
:106F0000093063B90D49584600F0FEFF584600F0BD
:106F1000EFFF019B8BF80C3003B0BDE8F08F084AFF
:106F20000849584600F0F0FFECE700BF4CE40200CF
:106F300058E4020039F002005CE4020048E4020078
:106F400030E4020038E4020054E4020044E40200A9
:106F50002DE9F04F3D4B93F800E087B0BEF1000FF4
:106F60005FD00027DFF8F08002973C46012506E05D
:106F7000029B013302939DF80840A64551D9344B3A
:106F8000D8F800101E68D8F8042016F83400A0F1D4
:106F9000200BC0F1200305FA0BFB25FA03F34BEAA3
:106FA000030305FA00FC01EA0C0902EA030A06EBF6
:106FB000C40759EA0A0B0397DAD021EA0C0122EA46
:106FC0000303C8E9001302F083FA16F83430214AAB
:106FD000C3F1200CD2E90067A3F1200E614600FA4C
:106FE0000EF405FA0EF225FA01F105FA03FE20FA75
:106FF0000CFC0A430EEA060144EA0C0404913A40F0
:1070000000FA03F1009101940592DDE90412DDE933
:1070100000BC624508BF594506D00C4B93F800E010
:10702000A6E707B0BDE8F08F03994A68002AF4D0BC
:107030004978A1F10101B1FA81F14909091AB1FABE
:1070400081F1490918469047E7E700BFFC3000206E
:107050003831002028310020303100202DE9F8435C
:107060008046224800F038FCE0B9214D4FF0010C79
:10707000D5E90023A8F12004C8F120012CFA01F180
:107080000CFA04F40C430CFA08F902EA090603EAC4
:10709000040756EA070107D022EA090223EA04049A
:1070A000C5E90024BDE8F883404602F011FA114B0F
:1070B0001E68A8B9586826EA090620EA0400D5E93E
:1070C00000211E600C4E586042EA09020C432A60FF
:1070D00031686C600548BDE8F843002200F0A6BBAB
:1070E000586849EA06062043E9E700BF043100205A
:1070F000303100202831002000310020042A3BD903
:107100002DE9F04182B0144605460E4602F078F8AB
:1071100068B31E491E4A1F4B0D601F481F491C6063
:10712000167000230022741EC0E90023C1E9002369
:10713000E4B21EB3DFF8708005EBC4040027032619
:1071400002E0AC421AD01C46A37820788DF80530B6
:10715000424601A98DF806708DF8046002F05AF8D5
:10716000A4F108030028ECD002B0BDE8F08101F0E2
:10717000F7FF0028CDD0F7E707207047084A0948F5
:10718000002100F041FB02B0BDE8F0813831002061
:10719000FC30002000310020283100203031002058
:1071A000516F0200F0E402005D70020070B5084DFE
:1071B0002B785BB1074E00243368012113F83400AB
:1071C00002F01AF92B780134A342F5D8002070BDE3
:1071D000FC3000203831002000B585B00346002186
:1071E00001AA44F20100CDE90111039300F004F873
:1071F00005B05DF804FB00BF10B572B6FFF762FD85
:10720000FFF794F90028FBD1104C114920880004A5
:1072100040F00100FFF7B4FA0E4B1B68DB0700D506
:1072200000BE20880C49000440F00200FFF7A8FAD5
:10723000BFF34F8F09490A4BCA6802F4E062134357
:10724000CB60BFF34F8F00BFFDE700BF7C2B00205A
:10725000F4E40200F0ED00E000E5020000ED00E0E3
:107260000400FA0559B142B1531E1A4005D182609B
:1072700001608380C26010467047092070470E206D
:10728000704700BF10B48468C26803468088121B30
:10729000904203D204205DF8044B7047DA681C6802
:1072A00002400020A154DA680132DA605DF8044B34
:1072B000704700BF03468068DA6890420DD010B472
:1072C00098689A881C6802400020A25C0A709A683C
:1072D00001329A605DF8044B70470520704700BF8B
:1072E000F8B52049204B0024C1F84041C1F8444181
:1072F000C1F84841C1F84C41C1F80041C1F804410E
:107300001B6833B31948D1F8045501681A686D1A1F
:1073100025F07F45AA4227460DD8197CDE69AD1AB3
:10732000144419B1D3E905201F7490471EB13346A8
:107330001A68AA42F1D90E490E4A0B7812789A427D
:1073400008D00D490D4A41F823404FF48013C2F88C
:107350000031F8BD531CDBB2022B08BF00230B70B9
:10736000EFE700BF001001405C32002058320020DF
:1073700055320020543200204C32002000E100E061
:107380002DE9F04FB34AB44913780978994285B092
:1073900000F088810133DBB2022B08BF0023AF4825
:1073A0001370AF4A0568DFF8D08252F82310D8F87E
:1073B00000606B1823F07F430360002E00F0C18152
:1073C00000200746044684463346AE4613E0D8689C
:1073D000DD69C3F800C0891A144438B10EEB040209
:1073E00022F07F42C3E90120DF611F460120002D0A
:1073F00000F05F812B461A688A42E8D9002800F025
:107400008B81C8F800309946521A1A600123009304
:10741000944B954EDFF864A243F0010301934D466F
:107420004FF0000B002F31D0D7E901303C46FF6907
:107430008A4ADFF84CC21268991A21F07F416145EF
:1074400000F2DD800B18236000220121C4E9012233
:10745000E2612174002D00F0F3802A689A4280F0E6
:10746000E880294605E0D1F800E09E4580F0CF8015
:1074700072460846C9699C469B1A0029F3D12360CD
:10748000E161C4612C462546002FCDD17078337858
:10749000984247D09C460CEB4C0CB27806EBCC0CD7
:1074A000591CCBB29A429CF80420337004BF0023CD
:1074B0003370022ADCF8084024D0032A18D0012AAD
:1074C000E6D1227C002AE3D1DCF80C306360DCF8E2
:1074D0001000A060DCF81410E1609AF800E0DCF81D
:1074E0001810A161BEF1000FA2D0626013469FE7A1
:1074F000002DCDD000232B74ED69002DFBD1C8F8F1
:107500000050C3E755B1AC4200F0BC802A4601E010
:10751000944239D01146D269002AF9D1002222744E
:107520009842B7D1BBF1000F01D1A94541D0002D40
:1075300044D04A4A4D4B1468D3F804654C4FD5F8F3
:1075400000803A78351B25F07F450335002A00F08E
:10755000B580464AA8452CBF4444641924F07F44B2
:10756000C2F84045D2F804359B1BA41B23F07F438F
:1075700024F07F440333A34200F2B98000238AF849
:10758000003005B0BDE8F08F8C427DD0E069226804
:10759000C861002858D0AC46036813440360AC456A
:1075A00052D0002233787078227465464FF0010B78
:1075B000B6E7009B002BE1D0002DBAD12B4E2D4A0F
:1075C000284C4FF400314FF480330127C2F880106B
:1075D0003C43C6F848334FF43C60C6F80833776044
:1075E000A0471E4BB7604FF43C601D60A047204B86
:1075F0001D7000238AF8003005B0BDE8F08FD31A63
:1076000023F07F4383420BD2C31A23601CE77244EA
:10761000A2EB0C020A602360E161C4612C4632E7F0
:1076200000230122C4E90033A360E36122743DB169
:107630002A68C8F80040D31A2B60E561254623E785
:10764000C8F8004025461FE700223378707822747E
:1076500066E700BF54320020553200205832002027
:107660004C32002010E502003C31002000100140A7
:107670004932002000E100E05C3200204832002066
:10768000FEFF7F0029462A46D5F81CC0C8F800C076
:10769000BCF1000F42D0D0691268C86100287FF4A5
:1076A0007BAF7CE7DFF8B4800027D8F80090009724
:1076B000AEE6A946C8F800500090A9E62349244A3E
:1076C0004FF48030C3F844034FF00109C3F80403BA
:1076D0004FF40030C1F8800142F001020860C3F8A5
:1076E00000904FF43C60904787F8009031E7184BCA
:1076F000D2F80415C2F8401543F001034FF43C6082
:107700009847124B4FF40032C3F8002100238AF847
:10771000003005B0BDE8F08FB14675E6CDE9022135
:107720000C4A0D4801239360C0F800C08AF800306D
:107730004FF43C60019B9847DDE90221D8F800C076
:10774000A9E70123B1463746009361E600E100E076
:1077500010E5020000100140583200205C32002089
:107760002DE9F8431F4D204E204FDFF898804FF44D
:1077700080334FF400324FF001090024C6F8802016
:1077800047EA0907C5F848334FF43C60C5F80833A9
:10779000C5F80490B847C5F808904FF43C60C8F8A5
:1077A0000040B847124A134B13491C601470134B26
:1077B000134A0C700B2114701C8099704FF48012C6
:1077C000E023C6F8802186F814333260C5F80845F6
:1077D00086F81133D5F80435C8F800302046BDE8E6
:1077E000F88300BF0010014000E100E010E5020056
:1077F000493200205C320020543200203C3100200D
:107800005532002058320020074B9B783BB142B1E3
:1078100038B10368187C10B959745A617047082050
:1078200070470720704700BF3C3100202DE9F0432E
:10783000264EB37883B0002B3AD00446002837D0C8
:1078400004290D4638D9436993B3437C0027012BA3
:107850000DF107000CBF8846B84691468DF80770B9
:1078600000F0E4F97378B0783278591CC9B28842D4
:1078700008BF39468A4223D003EB430306EBC30318
:107880000120134A18719C60D2F804259DF8070066
:107890007170C3E90325C3E9058900F0EDF90D4BCB
:1078A0004FF480123846C3F8002103B0BDE8F083DE
:1078B000082003B0BDE8F083072003B0BDE8F083E3
:1078C0009DF8070000F0D8F90420EEE73C310020D5
:1078D0000010014000E100E070B51B4EB37882B0AB
:1078E0004BB3044638B343692BB3002505740DF13F
:1078F00007008DF8075000F099F97378B078317867
:107900005A1CD2B2904208BF2A46914216D003EBCD
:10791000430306EBC30302219DF807009C60197125
:10792000727000F0A9F9094B4FF480122846C3F891
:10793000002102B070BD082002B070BD9DF80700A4
:1079400000F09AF90420F4E73C31002000E100E067
:1079500030B50478012C83B004D0022C2DD0F4B1C2
:1079600003B030BD4368374D19782846FFF78AFCCD
:10797000002837D1AA68EB689A4205D0324B8DF8BF
:1079800000001B6868469847A968EB68AA885B1ADC
:107990009A4240D22D4B01221A7003B030BD2C49BF
:1079A0002C48FFF787FC58B3274B03221B688DF840
:1079B00000206846984703B030BD274B274D1A7802
:1079C000C168AA5C01918DF800409AB9244903F17D
:1079D0000C00012202F0D8FA1B4B68461B6898473E
:1079E00003B030BD184B01901B688DF8004068460D
:1079F0009847C9E71A49181D012202F06DFDEBE70F
:107A00001548164A0378D35CB3B1114901220430FA
:107A100002F002FDA4E71048104A0378D35C2BB1B2
:107A20000F490122043002F057FD99E70C49012269
:107A30000C3002F0A9FA93E7054901220C3002F05C
:107A40002FFA8DE76432002060320020743200206B
:107A50008C32002078320020A42A0020103B002025
:107A6000883200202DE9F041334D8AB02A60002988
:107A700056D08A8880460D46304809681C46FFF774
:107A8000F1FB10B10AB0BDE8F081AA89A9682C48C1
:107A9000FFF7E8FB0028F5D12A4E98F810C02A4FCE
:107AA0000FCE02AD0FC596E80F0098F81160BCF13B
:107AB000000C85E80F0018BF4FF0010CD8F8043017
:107AC0000193002ED8F81430D8F808508DF82440CF
:107AD00014BF0E220022D8F80C40D8F800608DF8B0
:107AE0001D200893194A019B8DF81CC002A9384635
:107AF000CDE904450396029301F08CFA0028C1D128
:107B0000D8F80030124A01331070BBD0114A3B78CC
:107B1000D35C4BB11049381D012202F0DDFCB1E706
:107B200007200AB0BDE8F0810B4907F10C000122E3
:107B300002F02AFAA6E700BF60320020643200207B
:107B40007832002018E50200A42A002051790200B2
:107B500074320020103B00208832002070B5114D97
:107B6000014611482E78FFF7A5FB04460EB92046C2
:107B700070BD0E480E4A0378D35C00222A7053B1C0
:107B80000C490430012202F0A7FC0028EFD0FFF7D7
:107B900023FB204670BD074901220C3002F0F4F9A6
:107BA000F3E700BF7432002064320020A42A0020D2
:107BB000103B00208832002070B501461548FFF7C1
:107BC00061FB044608B1204670BD134D134E2B785F
:107BD000F35CA3B1281D02F071FC0028F3D1104919
:107BE0000C48FFF767FB0028EDD12B780C49F35CBC
:107BF00001224BB1BDE870400A4802F00DBC05F10E
:107C00000C0002F0B5F9E8E7BDE87040064802F064
:107C100047B900BF78320020A42A0020103B002082
:107C20008C320020A82A0020B02A002070B4EFF384
:107C3000108472B60D4B9A68AAB90D490D4E0125F4
:107C40009D60D1F8805035401D60C1F88060D1F84A
:107C500084505D604FF0FF33C1F88430027004B986
:107C600062B670BC704701230370F8E7043B002044
:107C700000E100E0FC06FFBD094B9A687AB170B9DB
:107C800010B4EFF3108172B6064A1C6814605C6889
:107C90005460986001B962B65DF8044B7047704754
:107CA000043B002000E100E030B482B050E8023F25
:107CB0001FFAA3F5C488A54202BFBFF32F8F00228D
:107CC0000DE0C48925448489A54228BF2D1BC3EA41
:107CD000054540E80254002CE8D14FF001028DF830
:107CE00003200193019B9DF803200B602AB14B8870
:107CF0000068184402B030BC704702F0FF03184619
:107D000002B030BC704700BF0A884B889A4201D04D
:107D10000020704750E8022FC2EA224240E80223C6
:107D2000002BF7D1012070474A09012301F01F0100
:107D300000EB820003FA01F100F022B801F01F020B
:107D400001234909934000EB8100D94300F026B894
:107D50004B0901F01F0150F82300C84000F001005A
:107D6000704700BF10B4034653E8000F0A4643E8CB
:107D7000002494F0000FF7D15DF8044B704700BF6A
:107D800010B4034653E8002F42EA010043E8000420
:107D900094F0000FF6D15DF8044B704710B4034621
:107DA00053E8002F02EA010043E8000494F0000FBA
:107DB000F6D15DF8044B704710B4034653E8002F2A
:107DC00002EB010043E8000494F0000FF6D15DF8E7
:107DD000044B704710B4034653E8002FA2EB010098
:107DE00043E8000494F0000FF6D15DF8044B7047AF
:107DF00010B40346012253E8001F41EA020043E8A1
:107E0000000494F0000FF6D15DF8044B704700BFFA
:107E100010B40346002253E8000F00EA020143E8D1
:107E2000001494F0000FF6D15DF8044B704700BFCA
:107E3000B8B130B4D0E90112521A0468D2B2531E5C
:107E40002160DBB242B101680A685C1E551C0D60FE
:107E50001370E3B2FF2BF6D103680020187130BC19
:107E600070470E20704700BFF0B583B00446002570
:107E70000DF107008DF80750FFF7D8FED4E9003167
:107E80001A688A4210D9511E19602168A3680F68C8
:107E900012F8015C0A79A68AE068DB1BDBB29A4221
:107EA00006FB050538BF0B719DF80700FFF7E4FEE0
:107EB000284603B0F0BD00BF30B5054683B00023AF
:107EC0000DF107000C468DF80730FFF7AFFE2A686A
:107ED0001368591C1160E968AA8A641AB4FBF2F4A9
:107EE0001C709DF80700FFF7C7FE03B030BD00BF50
:107EF000826842B110B50446436901680069984739
:107F00000023A36010BD70470EB400B582B0039982
:107F100021B104AB01AA019300F092F802B05DF820
:107F200004EB03B0704700BF2DE9F84F1646B1428D
:107F3000DDE90AB2884605461F467BD30B464FF063
:107F40000109B3FBF6F39E4209F10109F9D9B945DC
:107F500038BFB94612F0010A02D1BBF1000F47D178
:107F6000AA68012402E0013F06FB04F4012FFAD8BD
:107F7000B8FBF4F18E42F7D9304F07E0B442B4FBBE
:107F8000F6F315D3B8FBF3F1AA681C46531CAB609B
:107F90002B68785C9854D5E901329A4204FB118829
:107FA000ECD32846FFF7A4FFB4FBF6F3B442E9D2C2
:107FB000BAF1000F13D0BBF1000F10D02024D94527
:107FC0000BF1FF3B0BD2AB682A68591CA960D45453
:107FD000D5E901329A4204D2BBF1000FEFD1BDE8DE
:107FE000F88F2846FFF784FFBBF1000FE7D1F6E7D3
:107FF00093071AD42024AA68D94502F10101B0D20E
:108000002B68A9609C54D5E901329A420BF1FF3BE1
:1080100003D2BBF1000FEFD1A3E72846FFF768FFBB
:10802000AA68BBF1000FE7D19BE7002F0CBF3024FB
:108030002024E0E74FF0010989E700BF38E502009E
:10804000002900F0AD812DE9F04FDFF8A8940B78FE
:1080500085B0064690460C464FF0300A01E0237882
:1080600093B1013483B1252B15D0B2683168501C0F
:10807000B0608B54D6E901329A42F0D33046FFF714
:1080800037FF2378002BECD1337B002B40F09A8014
:1080900005B0BDE8F08F0027214614F8012B2D2AEA
:1080A00069D0302A6AD02B2A5ED02A2A69D0A2F160
:1080B0003003092B4FF000050BD805EB850502EBCB
:1080C000450511F8012FA2F13003092BA5F1300568
:1080D000F3D92E2A0C465FD0002301E014F8012FBB
:1080E00002F0FB016829F9D0252A00F05681583AA0
:1080F000D1B2202936D8202A34D8DFE812F0770010
:1081000033003300330033003300330033003300D7
:108110003300330021008500330033003300330087
:108120008500330033003300330033003300CE00CA
:10813000330033000B013300690033003300770054
:10814000D8F80020131DC8F80030B36831681278E1
:10815000581CB060CA54D6E901329A4202D3304664
:10816000FFF7C6FE01347AE7214614F8012B2D2AC9
:1081700047F0040795D147F001078DE747F0020764
:108180008AE7D8F800301A1DC8F800204A781D6820
:108190002E2A01F101049FD16278A2F13003092B4C
:1081A00004F101044FF000039AD803EB830302EBC0
:1081B000430314F8012FA2F130010929A3F1300380
:1081C000F3D98DE7304605B0BDE8F04FFFF790BE1C
:1081D000D8F80020111DC8F8001011683046CDE90C
:1081E00000570A22FFF7A0FE013438E7D8F8002034
:1081F000111DC8F8001011683046CDE90057102253
:10820000FFF792FE01342AE7D8F80020111DC8F8C4
:108210000010D2F800B08BEAEB72A2EBEB72092AE5
:1082200040F36381DFF8D0C2012011466329ACFB23
:1082300002E200F101004FEAD202F6DC9842024667
:1082400038BF1A460292002D40F0AB80B80700F10B
:1082500011810025BBF1000FC0F2FE807A070ED518
:10826000B1684A1CB26032682B205054D6E9012113
:10827000914204D330460393FFF73AFE039B07F085
:108280000302022A00F00981CDE9005759460A226B
:108290003046FFF749FE0134E1E6D8F80020131D0F
:1082A000C8F80030B368316817685A1CB26001F82A
:1082B00003A0D6E90123934280F00E813268581C56
:1082C0007821B060D154D6E90123934280F0FF8039
:1082D0000F2F03D93A4612090F2AFCD84FF08055C8
:1082E00006E00F2D4FEA15137FF63CAF1D46B3682D
:1082F0003268B7FBF5F1581CB06019F80100D05492
:10830000D6E901329A4205FB1177EAD33046FFF7EE
:10831000EFFDE6E7D8F800301A1DC8F8002017F086
:108320000107D3F800B05DD09BF80000002800F0F2
:10833000DE80B3685F46CBF10102591CB160316841
:10834000C854D6E901138B4202EB070B1AD217F877
:10835000010F0028F1D15D457FF604AF202702E030
:108360005D453FF4FFAEB2683368501CB0609F5467
:10837000D6E901329A4205F1FF35F1D33046FFF7D5
:10838000B7FDEDE730460292FFF7B2FD17F8010F97
:108390000028E0D0B368029ACFE7B3683168D7E627
:1083A0007047BBF1000F01DB7A0700D5013DB8072C
:1083B00066D4F9073FF54EAF002D3FF44AAF2022B7
:1083C0000299A942BFF446AFB168481CB06030685A
:1083D0004254D6E90101814205F1FF3554D2002D06
:1083E000EED136E7BBF1000F03D0584604F09CFEF7
:1083F0000746BD4215D9A5B1202102E0BD4210D0EB
:108400007DB1B2683368501CB0609954D6E901233D
:10841000934205F1FF35F1D33046FFF769FD202186
:10842000ECE79BF80020002A3FF49CAEB36831686B
:10843000581CB060CA54D6E90123934204D21BF8F9
:10844000012F002AF3D18DE63046FFF751FD1BF8CE
:10845000012F002AEAD185E6B1684A1CB260326871
:108460002D205054D6E901219142CBF1000BFFF4AD
:1084700006AFFFE6002B36D0F9073FF5EBAEE8E696
:10848000002B3FF4E7AE94E730460393FFF730FD4F
:10849000039B2022002D93D1DBE6002B7FF4F4AE6A
:1084A000FDB1029AAA42BFF4EFAEB1683268481C2F
:1084B000B06002F801A0D6E90121914205F1FF3533
:1084C000EED330460393FFF713FD039BE8E73046F6
:1084D000FFF70EFDB368FBE63046FFF709FDB36812
:1084E000ECE60025D0E61D46B4E60120A6E683466C
:1084F00031E700BF38E50200CDCCCCCC18B1036821
:108500000BB1DB69184770B50B4B0C4C0C4E1B1BA9
:10851000A6FB0326132B4FEA161688BF002509D9A0
:10852000236820460135143413B1DB69984710B92C
:10853000B542F5D3002070BDA82B0020A82B002049
:10854000CDCCCCCC29DF704728DF7047034B187A9D
:108550000122B0FA80F05A7440097047903200202E
:1085600030B5394D2B7A87B0002B39D0374B1C688A
:1085700002232B722379002B3DD0012B24D02268BB
:108580009368C3B10023CDE9033302930093A3683A
:108590000593032301932379002B48D0012B07D1A6
:1085A000E368616904911B03022102938DF80010B6
:1085B0009368684698470023254926482B726B60CC
:1085C000FFF7A2FB07B030BDD4E903031844FFF75F
:1085D000BBFF20B31128D2D101232B7207B030BDCD
:1085E0001B491C48FFF760FB184B04461860002825
:1085F000BED16860E6E7D4E90520121AB2F5805FC3
:1086000028BF4FF48052D4E903139208012A38BFDF
:10861000012201441844FFF795FF0028DAD12B7C92
:10862000002BCFD10146022000F016F8CAE72069DE
:10863000E1680123CDE902018DF8003063690493FC
:10864000936868469847B6E790320020A832002029
:10865000A4320020B82A0020831E012B3FD810B579
:10866000334C237A86B0002B37D0022B31D103282C
:108670003AD0304B00221B68E2601A79002A40D0C1
:10868000012A26D1D3E9042101328A421A6120D17C
:108690000020207219688A68BAB10022CDE903224D
:1086A000029200929A68019005921A79002A35D0B8
:1086B000012A07D1DA685B6904931303022202934B
:1086C0008DF800208B68684698471B491B48FFF7C8
:1086D0001BFB637C23B9FFF743FF06B010BD704757
:1086E00004F004FB06B010BDE3680133082B01D889
:1086F000E360EEE70F4B00221B68E26022720D2060
:10870000C8E7D3E90512881AB0F5805F94BF121844
:1087100002F5805291429A61DBD1B9E701221869D2
:108720008DF80020DA685B690493CDE90202C9E79D
:1087300090320020A8320020A4320020B82A002065
:1087400000F0FD03012B00D0704730B53B4DA0F188
:108750000100B0FA80F02B7A4009002287B028741B
:108760006A74002B4AD0364B1C6802232B72237983
:10877000002B4ED0012B07D1D4E903031844FFF797
:10878000E3FE48B311281BD0226893687BB1002315
:10879000CDE9033302930093A36805930323019368
:1087A00023790BB3012B0ED09368684698470023BA
:1087B000244925482B726B60FFF7A6FA07B030BD3D
:1087C00001232B72FAE7E368616904911B0302211C
:1087D00002938DF80010E7E72B7C002BEED10146C9
:1087E0000220FFF739FFE9E72069E16801238DF8EE
:1087F000003063690493CDE90201D5E711491248BD
:10880000FFF752FA0E4B044618600028ADD168609D
:10881000D4E7D4E90520121AB2F5805F28BF4FF4DF
:108820008052D4E903139208012A38BF012201447F
:108830001844FFF787FE0028A4D1CDE7903200202E
:10884000A8320020A4320020B82A0020FFF7F0BA96
:108850002DE9F041858A0331043D4E198046B6FB6F
:10886000F5F6FFF701FBA0B3F6B24FF48073013EBB
:108870000446C580C0F8008083802BD003460025C5
:1088800008E06279AE4202F1010262713860C0F81C
:1088900000801FD040461F46FFF7E6FA0135034629
:1088A0000028EED16779791E17D02246013399420C
:1088B0001268FBD1D2F800805FB12668002501E084
:1088C00034463668214601354046FFF7F5FAAF4297
:1088D000F6D800242046BDE8F08120682146FFF745
:1088E000EBFAF6E704300121FFF766BA2DE9F04113
:1088F000012104460430FFF76DFA10F0FF0301D0A8
:10890000BDE8F0816779791E16D02246013399427D
:108910001268FBD1D2F80080002FF1D02668002524
:1089200001E034463668214601354046FFF7C4FA77
:10893000AF42F6D8BDE8F08120682146BDE8F0419D
:10894000FFF7BABA2DE9F843C78804339F420446BB
:1089500015468846B3FBF7F207FB123002D8013AFE
:108960002468FCD13E1AAE4228BF2E469DB14FF07E
:1089700000090430AD1B2044324608EB090104F025
:108980009DFBAF42B14424683E464FF0000028BF33
:108990002E46002DEDD1BDE8F88300BF2DE9F84348
:1089A000C78804339F4288461546B3FBF7F1044657
:1089B00007FB113202D801392468FCD1BE1AAE423D
:1089C00028BF2E469DB14FF000090432A118AD1BFF
:1089D000324608EB090004F071FBAF42B144246851
:1089E0003E464FF0000228BF2E46002DEDD1BDE8D7
:1089F000F88300BF41DF7047064A074B10B50024DB
:108A000014701C60BFF35F8F0449054800F034F810
:108A1000204610BDB4320020B832002074E50200B8
:108A2000AC32002000B583B000230DF107008DF8B3
:108A30000730FFF7FBF8F1EE103A23F09F03E1EE69
:108A4000103ABFF35F8F0B4B4022C3F884219DF88F
:108A50000700FFF711F904F059F928B920BF40BF0A
:108A600020BF03B05DF804FBFFF7C4FF03B05DF85F
:108A700004FB00BF00E100E001600B6843604A684E
:108A8000934204BF00234360704700BF436843B173
:108A9000026891680B4443605268934204BF00230C
:108AA00043607047114910B4A1F5947205E052F883
:108AB0003330984238BF21460CD28C1AE30F03EBB7
:108AC000E4035B10914202EBC304F0D808485DF860
:108AD000044B704702D904F10802EEE76068044BCA
:108AE0005DF8044B002808BF18467047A8EA02004A
:108AF0006CE9020070B5161E07DD0C468D1914F8DE
:108B0000010BFFF759F8A542F9D1304670BD00BFFF
:108B100010B50C462046FFF721F80528FAD00120B1
:108B200010BD00BF10B44FF080414FF080520020C4
:108B3000C1F80C015E4BC1F81001C1F83805D2F83C
:108B40000414C3F82015D2F80814C3F82415D2F879
:108B50000C14C3F82815D2F81014C3F82C15D2F849
:108B60001414C3F83015D2F81814C3F83415D2F819
:108B70001C14C3F84015D2F82014C3F84415D2F8D9
:108B80002414C3F84815D2F82814C3F84C15D2F8A9
:108B90002C14C3F85015D2F83014C3F85415D2F879
:108BA0003414C3F86015D2F83814C3F86415D2F839
:108BB0003C04C3F86805D2F840043E49C3F86C058C
:108BC0000968D2F84424C3F87025082924D04FF04E
:108BD0008043D3F80024D20744BF6FF00102C3F8EA
:108BE0000024354AD2F8883043F47003C2F8883044
:108BF000BFF34F8FBFF36F8F4FF01023D3F80022D6
:108C0000002A23DBD3F80432002B1FDB2B4B2C4A2A
:108C10001A605DF8044B70472A4B1B68002BD6D1B5
:108C200029482A4A2A4C04602A492B4BFB20C2F8C7
:108C300018050A681B68294822F00F0203F00F0389
:108C400013434FF400720B600260C0E7244A012313
:108C5000C2F80435D2F80034002BFBD04FF01023BB
:108C600012211F4AC3F80012D2F80034002BFBD0A7
:108C70004FF0102312211A4AC3F80412D2F800341C
:108C8000002BFBD000231649C2F80435D1F800347C
:108C9000002BFBD0BFF34F8F0749124BCA6802F479
:108CA000E0621343CB60BFF34F8F00BFFDE700BF0F
:108CB00000C000403001001000ED00E0CC2A002090
:108CC0000090D003340100108C56004000F00040AA
:108CD00048810300E40E0040580200104096024014
:108CE00000E001400400FA05074B1B5C1F2B8ABF04
:108CF000064A4FF0A04203F01F03D2F80405D84003
:108D0000C04300F001007047ACEA020000030050CD
:108D1000064B1A5C1F2A86BF054902F01F024FF05E
:108D2000A04101239340C1F80C357047ACEA020022
:108D300000030050064B1A5C1F2A86BF054902F04B
:108D40001F024FF0A04101239340C1F8083570473E
:108D5000ACEA0200000300504FF0A04310B44FF4FF
:108D600080404FF400544FF400414FF48032C3F878
:108D70000845C3F80805C3F80815C3F808255DF8C9
:108D8000044B70474FF0A04310B44FF480404FF4B1
:108D900000544FF400414FF48032C3F80C45C3F83F
:108DA0000C05C3F80C15C3F80C255DF8044B70478F
:108DB0000A4B185C1F288ABF09494FF0A04100F0F8
:108DC0001F00D1F804350122824022EA030013403B
:108DD000C1F80805C1F80C35704700BFACEA0200C5
:108DE00000030050074B1B5C1F2B8ABF064A4FF045
:108DF000A04203F01F03D2F81005D840C04300F092
:108E000001007047A8EA0200000300500B2809D0B7
:108E10000C2809D0182809D019280CBF03204FF0BE
:108E2000FF307047002070470120704702207047D4
:108E3000014B185C704700BFA8EA0200C20730B4BB
:108E40000ED483070AD54FF0A0430C22C3F82C2779
:108E5000C3F83027C3F86027C3F8642730BC7047D5
:108E60004FF0A0430322C3F834274FF40055C3F852
:108E700038274FF48044C3F83C274FF40041C3F82F
:108E800040274FF48032C3F80855C3F80845C3F8AB
:108E90000815C3F80825D4E710B568B90E4CA368C7
:108EA000012262703BB1D3E900230020A260984701
:108EB000A368002BF7D110BD0128FCD1064C236913
:108EC000A070002BF7D0D3E900230120226198473E
:108ED0002369002BF7D110BDBC32002070B910B54A
:108EE000074CA368012262703BB1D3E90023002044
:108EF000A2609847A368002BF7D110BD704700BF50
:108F0000BC32002030B5012883B004D003281DD026
:108F1000B0B103B030BD224C00230DF107008DF835
:108F20000730FEF783FE23784BB3E3689DF8070014
:108F300001330122E360A270FEF79EFE03B030BD54
:108F4000184B0122C3F8802003B030BD144C00F050
:108F5000B1F800230DF107008DF80730FEF766FE2B
:108F6000E368013BE360E5682DB19DF80700FEF77B
:108F700083FE03B030BD00F0B1F8A570F5E70A48F4
:108F80006360A3602361E36000F088F803F0BEFE35
:108F900010B101232370C8E700F08CF8F9E700BF97
:108FA000BC32002000E100E0998E020030B585B0AF
:108FB0000478094A094B45688DF80040047AC06876
:108FC00053F82130039052F8211001958DF8084094
:108FD0006846984705B030BDD0320020D832002016
:108FE00030B585B0047845688DF80040D0E902407E
:108FF000064A074B039053F82130019552F821108F
:109000008DF808406846984705B030BDD032002042
:10901000D83200202DE9F047DFF8748090F800E0A6
:109020004B7F08F80E300D46074616460FCD88B028
:109030006C460FC495E80F003D78DFF85890DFF8D4
:1090400058C018F8055049F82E6084E80F004CF815
:109050002E00CDF810E05DB1002E0B4A694607F1F5
:10906000040008BF324601F0CBF808B0BDE8F08735
:10907000002E064A694607F10C0008BF324600F090
:1090800015FE08B0BDE8F087AD8F0200E18F020049
:10909000103B0020D8320020D0320020044A13793F
:1090A00023B90121106091801846704785207047D0
:1090B000E0320020084B1A68D20706D40122E021D2
:1090C00083F80013C3F880211A604FF08043012217
:1090D000C3F81825704700BF00E100E0044B0122EF
:1090E0001A604FF08042D2F81834DB03FBD470478B
:1090F0000C00004010B5174B1A6882B062B1002115
:10910000154A19601B68507900934FF08041012384
:10911000009CC1F8083398B1104B1A68BAB100220C
:109120001A601B6801934FF0804202210A4B01989C
:10913000C2F808131B68012002B0BDE810401847B0
:10914000116853718847054B1A68002AE7D102B0AD
:1091500010BD00BF00010040E032002004010040CB
:1091600070B5234C94F86A5082B0002D3CD14FF07A
:10917000FF304FF0FF314FF0FF33C4E90001C4E985
:109180000C01C4E90E01C4E91001C4E91201C4E9EB
:109190001401C4E916010622294604F16400C4E959
:1091A0000233C4E90433C4E90633C4E90833C4E92B
:1091B0000A33236603F090FF0E4B0F4A0F4E1560E3
:1091C000E02183F806134021C3F880111960136869
:1091D000019301994FF000430122284684F86A2048
:1091E000C6F8043302B070BD082002B070BD00BFE5
:1091F000E832002000E100E07C61004000600040B7
:10920000034B93F86A00003818BF0120704700BF75
:10921000E8320020F0B4754B1D1895F93040002C51
:1092200061DA8C78A707C4F3400C53D41C6A01346C
:1092300000F0D5805C6A013400F0CA800C260A2454
:1092400053F82450013552D0651CB5423FD253F833
:109250002570013700F0B480A51CB54237D253F811
:109260002570013700F0AC80E71CB7422FD253F8CD
:10927000275001353AD0271DB74228D253F827503E
:10928000013533D0671DB74221D253F8275001353D
:109290002CD0A71DB7421AD253F82750013525D03C
:1092A000E71DB74213D253F8275001351ED004F101
:1092B0000807B7420BD253F82750013516D00934AE
:1092C000B44204D2DC6A013408BF0B240FD004205E
:1092D000F0BC70471C68013474D05C6801346DD0F8
:1092E00008260224ACE70820F0BC70473C461E1854
:1092F00065B243F8242086F83050BCF1000F02D14B
:109300001C4484F858008A7854071AD4D60744D4E9
:109310001F284C7887BF364E00F01F0202464FF0E0
:10932000A04602F5E072A40046F82240314EC4087F
:1093300000F0070C375D012202FA0CF23A43325575
:109340008A7812F002021CD0AB0003F1804303F5CF
:10935000C0430978D3F8104524F44F3424F4407402
:10936000C3F8104502020904D3F8100501F4403196
:1093700002F47C520A430243C3F810250020F0BCDB
:109380007047083D2B44087893F8601041EA80113B
:1093900083F860101046F0BC70471F2887BF144A3E
:1093A00000F01F0404464FF0A04202EB8402D2F802
:1093B000004724F00204C2F80047B7E7012496E70B
:1093C0002C4694E7002485F830401A6025469AE739
:1093D000092685F830605A623446354690E70826FB
:1093E00085F830601A623446354689E7E832002055
:1093F000000300504C33002070B4324C251883B069
:1094000095F93030072B22DD234493F858309B091F
:10941000032B46D0012B0CBF4FF400324FF44032E7
:109420001F288ABF284B4FF0A04300F01F0003EB1A
:109430008000D0F8003723F44033C0F80037D0F86C
:1094400000371A43C0F8002703B070BC7047DAB287
:10945000072AF9D8980000F1804000F5C04003F1D8
:1094600040029200D0F8106592B202F1804202F5FB
:10947000C04246F00106C0F8106500201060126876
:109480000192019A0029DFD095F9302054F822206A
:10949000002AD9D00D49012202FA03F3C1F804339E
:1094A000D2E71F288ABF084A4FF0A04200F01F03EE
:1094B000D2F8102598BF0346DA4002F001020232CA
:1094C0001204ADE7E83200200003005000600040C5
:1094D0001F288ABF054B4FF0A04300F01F00D3F8B0
:1094E000103523FA00F000F001007047000300502F
:1094F0002DE9F047002388B0CDE90233C94A11684D
:10950000012900F04B821E46C74B1A68012A00F061
:109510003782C64B1A68012A00F02482C44B1A68AD
:10952000012A00F01182C34B1A68012A00F0FE8163
:10953000C14B1A68012A00F0EB81C04B1A68012A5E
:1095400000F0D881BE4B1A68012A08D0BD4B1A68BA
:10955000012A00F02F8216BB08B0BDE8F087BA4A96
:10956000D2F804231706F1D500221A601968009179
:10957000196E0098012903F1600346F080060ED1B0
:109580001A601B6801934FF0A042019BD2F810258E
:10959000AE4B0292D3F81035039346F00046AC4F21
:1095A00000240125A30003F180432E4203F5C043AC
:1095B0004FEA45050BD0D3F8100557F82420D3F80F
:1095C0001015C0F30520C1F3014102B190470134E9
:1095D000082CE7D1002EBFDA9D4C9C4F4FF0FF3096
:1095E0004FF0FF31CDE9060194F960000DF110084C
:1095F0000023451CC8F8043004934FF0010600F026
:10960000F780C0F3C20908AB03EB090E00F00703B3
:109610001EF8082C06FA03F312EA03055FFA80FC31
:1096200000F03F0021D022184FEA9C1192F930201F
:1096300054F82220002A00F03781032900F03681F7
:109640001F2800F2EB8005464FF0A04C0CEB850C78
:109650001EF8185CDCF800E71D40CEF3014E40F028
:10966000D180BEF1030F00F0B78194F96100411C75
:1096700033D0C0F3C20E08AB03EB0E0C00F00703AF
:109680001CF8081C06FA03F31942C2B200F03F00AE
:1096900023D004EB0009910999F9309054F82990EE
:1096A000B9F1000F00F01281032900F012811F2888
:1096B00000F2F68086464FF0A04202EB8E021CF8C4
:1096C00018ECD2F800C71EEA030FCCF3014C40F0AF
:1096D000DA80BCF1030F00F0918194F96200421C22
:1096E00033D0C0F3C20E08AB03EB0E0C00F007033F
:1096F0001CF8081C06FA03F31942C2B200F03F003E
:1097000023D004EB0009910999F9309054F829907D
:10971000B9F1000F00F0D080032900F0D0801F289D
:1097200000F2A58086464FF0A04202EB8E021CF8A4
:1097300018ECD2F800C71EEA030FCCF3014C40F03E
:109740008980BCF1030F00F06D8194F96300431C24
:1097500033D0C0F3C20E08AB03EB0E0C00F00703CE
:109760001CF8081C06FA03F31942C2B200F03F00CD
:1097700023D004EB0009910999F9309054F829900D
:10978000B9F1000F00F0AC80032900F0AC801F2875
:109790008BBFBE464FF0A04E02F01F0202460EEBFA
:1097A00082021CF818ECD2F800C71EEA030FCCF3B3
:1097B000014C60D1BCF1030F1CD0002D3FF4CCAEA6
:1097C0004FF0A042029BD2F81015D7F810058B423B
:1097D00003D1039B83423FF4BFAEDDE90423CDE90F
:1097E000021094F96000451CCDE906237FF409AF0F
:1097F00000253AE7032900F02981B9F1000FDCD0F8
:10980000C847DAE7BEF1020FF2D1032900F039812F
:109810000025002A3FF429AF904726E70CF01F05EA
:10982000BC4613E70061004004610040086100404D
:109830000C6100401061004014610040186100405C
:109840001C6100407C61004000600040000300504B
:10985000E8320020BCF1020F7FF477AF032900F05B
:109860000D81B9F1000F3FF470AFC8476DE702F00A
:109870001F0E3A4659E7BCF1020F9ED10329BCD115
:109880004FF4403CE4E0BCF1020F7FF426AF032923
:1098900000F0F180B9F1000F3FF41FAFC8471CE79B
:1098A00002F01F0E3A4608E70329A1D118F8095023
:1098B0001D4308F80950C3E603297FF446AF18F8A2
:1098C0000EA04AEA030A08F80EA028E703297FF44D
:1098D00004AF18F80EA04AEA030A08F80EA0E6E65C
:1098E00003297FF46AAF18F80EA04AEA030A08F8C1
:1098F0000EA04CE7644AD2F8042352067FF522AE4C
:1099000000221A601B680093009B46F0400619E68F
:109910005D4AD2F8042391067FF50FAE00221A604B
:109920001B680093009B46F0200606E6564AD2F8D4
:109930000423D0067FF5FCAD00221A601B6800935B
:10994000009B46F01006F3E54F4AD2F804231407B3
:109950007FF5E9AD00221A601B680093009B46F07A
:109960000806E0E5484AD2F8042355077FF5D6AD4E
:1099700000221A601B680093009B46F00406CDE5A8
:10998000414AD2F8042397077FF5C3AD00221A603D
:109990001B680093009B46F00206BAE53A49D1F8ED
:1099A000046316F001063FF4AFAD13601368009333
:1099B000009BA9E500221A601B6801934FF0A042AA
:1099C000019BD2F81025314B0292D3F81035039346
:1099D000002E3FF401AEE0E503297FF41AAF4FF407
:1099E0000035DCF8003723F44033CCF80037DCF8DE
:1099F00000372B43CCF8003701250AE703297FF411
:109A000049AF4FF4003CD2F8003723F44033C2F89A
:109A10000037D2F8003701354CEA0303EDB2C2F843
:109A2000003737E703297FF41CAF4FF4003CD2F82E
:109A3000003723F44033C2F80037D2F8003701353D
:109A40004CEA0303EDB2C2F800370AE74FF4003CDA
:109A5000D2F8003723F44033C2F80037D2F8003789
:109A6000013543EA0C03EDB2C2F80037B9F1000F3B
:109A70007FF4C6AEA4E64FF4403CC4E74FF4403C4C
:109A8000D5E74FF44035ACE70060004000030050DC
:109A9000014B1B68184700BF54330020114B9842FC
:109AA0001DD130B583B000230DF107008DF80730CC
:109AB0000D46FEF7BBF80C4B1C794CB99DF807001E
:109AC0001D6001221A71FEF7D7F8204603B030BDA1
:109AD0009DF80700FEF7D0F8112003B030BD00203C
:109AE000704700BF002000405433002030B56D4A5D
:109AF000D2F8043399058BB068D5D2F82431002B05
:109B000064D00023C2F82431D2F8243103934FF4F7
:109B10000171654B0398C2F8081393F8291009B92D
:109B2000012151605F4902228DF81820D1F880246C
:109B3000C1F880249869D968099200240025CDE9EC
:109B40000710C3E90645D3E9001206A89047554A15
:109B5000D2F81C31C3B1544B186A596988426AD291
:109B600093F8280000F0FF04002864D1C2F81C41DB
:109B7000D2F81C11029102999C68186A196A205C3B
:109B800001311962C2F81C05464AD2F84431DBB1F2
:109B90000021454BC2F84411D2F8440193F8291032
:109BA0000090009809B1012111609A6962B1586A68
:109BB000D96800229A610122CDE907108DF818209A
:109BC00006A8D3E9001290470BB030BD354AD2F851
:109BD00004335B07BBD5D2F80831002BB7D0324B2A
:109BE000996900293CD00021C2F80811D2F8081167
:109BF00004910499D868596AD2F8182542545A6ACF
:109C0000996901325A625A6A8A42A0D1DA69002AF5
:109C10002FD0DD685C6A18699A6101210022D86042
:109C2000DA615A628DF81810CDE90754D3E90012B1
:109C300006A890478BE71B4A0020C2F81C01D2F807
:109C40001C210192019A00299ED09A688DF8180073
:109C500008915861079206A8D3E90012904793E74C
:109C6000C2F80811D2F8080105900598D2F8182515
:109C7000C9E793F8292012B90A4A01215160094A1B
:109C80004FF40171C2F80813596ADA680891002488
:109C9000012007928DF81800D3E900129C6106A8F4
:109CA000904754E700200040603300202DE9F04148
:109CB000DFF8E88106792C2303FB068382B093F852
:109CC0002A30002B40F0A18005460C4600686F4901
:109CD0001746FFF7E3FE002840F093802368591CE5
:109CE00019D01F2B4FF001028ABF69494FF0A041E4
:109CF00003F01F0302FA03F3C1F8083523681F2B92
:109D000086BF03F01F03624A4FF0A04203F5E073E1
:109D1000032142F8231063685A1C0BD01F2B86BF07
:109D200003F01F035A4A4FF0A04203F5E0730021ED
:109D300042F823102B68A269C3F82425217D637D96
:109D40002A680B43C2F86C35D4E900122B68C3F8BB
:109D50001425C3F80C15237D012B62D02C2303FBA3
:109D600006F308EB03025760226948F80320002F2E
:109D700034D02A68237F474C0021C2F81C11D2F846
:109D80001C2100922A68009FC2F84411D2F84411A5
:109D90002A6801910199C2F804432A6842F3073105
:109DA00000294FEA123234DB01F1604101F56141D3
:109DB0005B01DBB281F80033296841F3C43323F03F
:109DC000604323F0030303F1604303F56143C1F3F0
:109DD000043101228A40C3F880211A602C232968AB
:109DE00003FB0686042400230122C6E90633C1F8DA
:109DF000004586F82A2086F82930736102B0BDE854
:109E0000F081112002B0BDE8F081082002B0BDE869
:109E1000F081214902F00F025B011144DBB20B76A5
:109E2000CAE7A368591C0BD01F2B86BF03F01F0382
:109E300017494FF0A04103F5E073002241F82320B9
:109E4000E3685A1C1AD01F2B8ABF11494FF0A0415A
:109E500003F01F03012202FA03F3C1F80835E36897
:109E60001F2B88BF03F01F0303F5E0738CBF084965
:109E70004FF0A041032241F82320E3682A68A1683B
:109E8000C2F80835C2F8101568E700BFED9A020065
:109E90000003005080000200FCEC00E06033002072
:109EA0002DE9F041314E05792C2303FB056304466F
:109EB000586984B000284CD11862996083F8280052
:109EC0005A612268C2F81C01D2F81C112268029162
:109ED0000121029F91602268D3F808C0C2F81C01DA
:109EE000D2F81C11019101991F6A196A1CF80770B8
:109EF00001311962C2F81C755A6812B104B0BDE88C
:109F0000F0811A6A5F692168BA421BD2864602E074
:109F100093F828200ABBD1F81C21002AF8D0C1F8F8
:109F20001CE1D1F81C210392039AD3F820801A6A0D
:109F30001CF8088001321A62C1F81C851A6ABA42FC
:109F4000E9D32168D1F81C31002BFBD00123CB6071
:109F500004E0112004B0BDE8F0810F202C2303FBA6
:109F6000056500236B6104B0BDE8F081603300201B
:109F70000379044A2C2101FB03235869003818BFD8
:109F80000120704760330020F0B4504F06792C2335
:109F900003FB067386B05D68044625B103684FF481
:109FA0000170C3F808032C2303FB0673986990B172
:109FB000D86900287CD11961DA612C2303FB067370
:109FC0005A683AB323684FF40172C3F8042300209F
:109FD00006B0F0BC704793F829509A61D960586276
:109FE000D861002DE9D12368C3F82451D3F8242186
:109FF00023680192019AC3F80851D3F80821236815
:10A000000292012202991A602C2303FB06735A68FC
:10A01000002AD7D12168C1F84421D1F84421039204
:10A02000039A2268D2F82411D2F80851D2F84401D8
:10A0300055B9002833D10029F4D02C2303FB067630
:10A040000023B3610320C3E70029F6D148BB996917
:10A05000C2F8080181B1D2F8081104910499DD68B1
:10A06000596AD2F818256A545A6A996901325A62B3
:10A070005A6A9142D5D806E0D2F80811059105999F
:10A08000D2F818255B6A2C2303FB0676002296F88B
:10A090002930B261A3B1236801221A6098E7002930
:10A0A000CBD12C2303FB06760023B3610F208FE76F
:10A0B00055B123684FF40172C3F80423112087E7D8
:10A0C000236801225A6083E7112081E76033002072
:10A0D00030B5494BD3F8242189B0002A57D000224B
:10A0E000C3F82421D3F82421029202228DF81020F3
:10A0F000029AD3F88014414AC3F880140791D3F828
:10A100003C15D3688DF81810002400250593C2E98A
:10A1100006451168536804A89847374BD3F8442183
:10A120004AB1364A0021C3F84411D3F8444190693A
:10A130000194019CE0B9304BD3F82021B2B12F4AF1
:10A140000021C3F82011D3F8204150690094009CED
:10A1500060B1D3F84C0593688DF818008DF8101095
:10A160005161059304A8D2E90013984709B030BDA6
:10A17000D3F83C35D0688DF81830012391610590F3
:10A180008DF8103004A8D2E900139847D3E7D3F82C
:10A1900010110029C1D0C3F81021D3F810111748AD
:10A1A000039103998469D3F83C15A142B5D1C469E0
:10A1B000ACB1D3F80052846125F02005C3F80052F9
:10A1C000D0E90343C26101228DF81810C360016811
:10A1D000436805948DF8102004A898479DE7C2684D
:10A1E000846101238DF818108DF810300592D0E9A4
:10A1F000001304A8984790E7002000409033002007
:10A200002DE9F04307797F4E07EBC70306EB830385
:10A2100085B093F82030002B40F0B38004460D4603
:10A22000006879499046FFF739FC002840F0A58086
:10A230002B68591C4FEAC70919D01F2B4FF0010298
:10A240008ABF72494FF0A04103F01F0302FA03F3E3
:10A25000C1F808352B681F2B86BF03F01F036B4A1C
:10A260004FF0A04203F5E073032142F823106B681E
:10A270005A1C0BD01F2B86BF03F01F03634A4FF0FD
:10A28000A04203F5E073002142F823102368AA6975
:10A29000C3F82425297D6A7D23680A43C3F86C2509
:10A2A000D5E900312268C2F80C35C2F814152B7DAF
:10A2B000012B72D009EB070206EB8203C3F804807E
:10A2C0002B6946F82230B8F1000F45D021682B7F6A
:10A2D0004F4D0022C1F81021D1F8101100912168D2
:10A2E000DDF800C0C1F82021D1F8201101912168CA
:10A2F000DDF804C0C1F82421D1F8241102912168AD
:10A30000DDF808C0C1F84421D1F844112268039156
:10A310000399C2F80453226842F3073100294FEA37
:10A32000123232DB01F1604101F561415B01DBB2C8
:10A3300081F80033216841F3C43323F0604323F0F4
:10A34000030303F1604303F56143C1F304310122C8
:10A350008A40C3F880211A604F44226806EB8706C2
:10A36000002301240821C6E9063386F82040C2F8FC
:10A370000015736105B0BDE8F083112005B0BDE89C
:10A38000F083082005B0BDE8F083224902F00F02F7
:10A390005B011144DBB20B76CCE7AB68591C0BD0E8
:10A3A0001F2B86BF03F01F0318494FF0A04103F590
:10A3B000E073002241F82320EB685A1C1AD01F2BAF
:10A3C0008ABF12494FF0A04103F01F03012202FA95
:10A3D00003F3C1F80835EB681F2B88BF03F01F0398
:10A3E00003F5E0738CBF09494FF0A041032241F807
:10A3F0002320EB682268A968C2F80835C2F8101556
:10A4000058E700BF90330020D1A0020000030050A5
:10A4100010030200FCEC00E0F0B501F06044B4F180
:10A42000005F83B02BD10679234F06EBC60407EB00
:10A430008404034660694FEAC60C002836D1A16047
:10A4400062611D68C5F82001D5F820E11D68CDF8CE
:10A4500004E0DDF804E0C5F85801D5F858E11D68BE
:10A46000CDF800E0DDF800E0C5F84415C5F8482552
:10A470001A6801219160626822B103B0F0BD10201A
:10A4800003B0F0BD1B6800E098B9D3F82021D3F8E1
:10A490005801002AF8D0002818BF0F200CEB060343
:10A4A00007EB830300225A6103B0F0BD112003B013
:10A4B000F0BD0F20F2E700BF903300200379054A7A
:10A4C00003EBC30302EB83035869003818BF012074
:10A4D000704700BF9033002001F06043B3F1005F8C
:10A4E0005ED1F0B40479474D04EBC40605EB860653
:10A4F00082B07668E30026B107684FF4047CC7F8A1
:10A5000008C3234405EB83039C694CBB9A61DC615F
:10A51000D9600368C3F81041D3F81061036801964D
:10A52000019EC3F84441D3F8444103680094009C61
:10A53000C3F83415C3F83825036801221A6004797A
:10A5400004EBC40305EB8303E6005B6853B30368C5
:10A550004FF40472C3F80423002002B0F0BC70472B
:10A56000DC69002C37D11961DA610368C3F8104146
:10A57000D3F8106103680196019EC3F84441D3F8F3
:10A58000444103680094009CC3F83415C3F838258F
:10A590000268D2F8003243F02003C2F80032CEE75E
:10A5A00010207047036801E0E9B910BBD3F810210F
:10A5B000D3F84411D3F82401002AF5D034440028FC
:10A5C0004FF0000305EB840518BF0320994218BF24
:10A5D0000F20AB61C1E796B103684FF40472C3F872
:10A5E00004231120B9E7344405EB84050F20AA6148
:10A5F000B3E7344405EB84050320A961ADE71120DE
:10A60000ABE700BF903300200220FEF7D1BB00BFB4
:10A610002DE9F0470D460646FEF7F8FB032805D85E
:10A62000012D04461AD0022D27D00DB1BDE8F087C8
:10A630001B48FDF751F91B4B1B4A04EB44010B442B
:10A64000125D9D78AA42F1D1002DEFD0174B1B6807
:10A65000002BEBD02846BDE8F0471847114F00EB20
:10A660004003FA18FD5C53784FEA40085BB9A044F8
:10A6700047440D4BBA781A55E6E70A4B00EB400405
:10A680001C446578E0E7DFF8289005484A464FF417
:10A690000041FDF7CBF80028E9D189F80060E6E732
:10A6A000D833002018340020343400202C3400200B
:10A6B000B433002010B50078FEF7A8FB03280BD8B0
:10A6C000064B00EB40001844407828B1044B1B684F
:10A6D00013B1BDE81040184710BD00BF183400206A
:10A6E0002C34002038B5BE4D2B7804466BB1BD4BE1
:10A6F0001B7800202870002B4DD0FEF71BFB01209B
:10A70000FEF718FB0320FEF715FB172C00F26681FD
:10A71000DFE814F0F700630063009F00B200C5009B
:10A72000D700970050004400500044007A00180001
:10A730001800180018001800E50020018100080129
:10A740005C005C00A848FDF7C7F8D4F11104054689
:10A7500000F02E81002840F02B81012C14D0C8235A
:10A7600003FB04F44FF4FA704FF400430021C3FBE1
:10A7700004014FF47A72002303F0A2FC2A4601463A
:10A780009948FDF753F805460220FEF7C1FA954BAC
:10A7900001221A701FE0FEF7DFFAB6E701202870E9
:10A7A000FEF706FBBDE83840904800224FF4804198
:10A7B000FDF73CB801202870FEF7FAFABDE83840F2
:10A7C0008A48002240F6CD41FDF730B8FEF7DAFAAC
:10A7D000874B00251C70284638BD0020FEF784FA00
:10A7E000002840F0CB80FEF793FA41F69A1143F22D
:10A7F0003333022C18BF19467D4B7C481C70BDE8D2
:10A8000038400022FDF712B8FEF7BCFA784B0C2254
:10A810001A700025DFE7734B1B78002B00F0DB80FC
:10A820000020FEF787FA0120FEF784FA0320FEF7E6
:10A8300081FA0120FEF76CFA6D4B14221A70002584
:10A84000C9E70020FEF764FA694B07221A70002559
:10A85000C1E70020FEF748FA002840F0A380FEF789
:10A8600057FA41F69A11624B604803241C70BDE808
:10A8700038400022FCF7DABF0020FEF735FA002846
:10A8800040F08A80FEF744FA43F23331584B574880
:10A8900004241C70BDE838400022FCF7C7BF00202C
:10A8A000FEF722FA002873D1FEF732FA504B4F48D8
:10A8B00005241C70BDE83840002241F69A11FCF7CF
:10A8C000B5BF0020FEF774FA494B484806241C70B7
:10A8D000BDE83840002240F6CD41FCF7A7BF414B10
:10A8E0001B78002B74D00020FEF724FA0120FEF71D
:10A8F00021FA0320FEF71EFA3D4B12221A700025A2
:10A9000069E7384B1B78002B5CD00020FEF712FA69
:10A910000120FEF70FFA0320FEF70CFA344B002556
:10A920001D7058E72F4B1B78002B48D00020FEF7F6
:10A9300001FA0120FEF7FEF90320FEF7FBF90020E3
:10A94000FEF7E6F90120FEF7E3F9294B15221A700C
:10A95000002540E7234B1B78BBB30020FEF7EAF944
:10A960000120FEF7E7F90320FEF7E4F90020FEF7E7
:10A97000CFF91F4B13221A7000252CE70020FEF799
:10A98000D9F9022C4EF2666118BF4FF4003133E75B
:10A990000020FEF7CFF989E70020FEF7CBF94FF44E
:10A9A000003173E70020FEF7C5F946F266615AE709
:10A9B0000220FEF7BFF90B4B00221A700BE7FEF7DF
:10A9C000CBF9BCE7FEF7C8F9A8E7FEF7C5F9CDE774
:10A9D000FEF7C2F990E7FEF7BFF92AE70025FAE68D
:10A9E00028340020B5330020B8330020F83300208D
:10A9F00030340020044B1B68DB0700D47047034B46
:10AA00001878FFF76FBE00BF2434002030340020D8
:10AA1000032801D900207047FEF7E4B9044B1B68F6
:10AA200013F0010301D118467047FFF75BBE00BF6A
:10AA30002434002038B5244B244A19608107044689
:10AA4000106004D410F001052CD1284638BD204BED
:10AA500020480E250F2210211D701125DA709971E2
:10AA60005D7240F266620421FCF748FB054630B196
:10AA7000E207EAD50120FEF7E1F9284638BDFCF7E8
:10AA800095FB05460028F3D10146134A1348FCF70D
:10AA9000BBFEE3070546D8D50120FEF7CFF9002D10
:10AAA000D3D102E00120FEF7C9F90D4A0D4800217B
:10AAB000FCF7AAFE05460028C7D1BDE838400A4A7F
:10AAC0000A480121FCF7A0BE2C34002024340020C9
:10AAD00018340020DCEA0200B5A6020000EB0200F8
:10AAE000F5A9020004EB020009A60200FCEA02003C
:10AAF000032806D8012A06D001291BD0022908D034
:10AB000071B107207047012911D002294FF00002CE
:10AB1000F6D10B4B00EB4000034400205A70704705
:10AB2000074B00EB4000034408469A70704700F161
:10AB30000E02D2B200EB400301490020CA54704714
:10AB400018340020032801D90620704708B5FEF705
:10AB50006FF91F2886BF0A4B00F01F004FF0A0437B
:10AB600003EB80030020D3F8002722F44032C3F81F
:10AB70000027D3F8002742F44032C3F8002708BD6D
:10AB80000003005010B50388102B07D0112B04D1FF
:10AB9000254B18680138186030B110BD224C21686F
:10ABA00011B30131216010BD01220221FFF7A0FF86
:10ABB00040B1072806D01D4B1B68002BEDD0BDE827
:10ABC00010401847072202210120FFF791FF08B12A
:10ABD0000728F0D1002108460A22FFF789FF002844
:10ABE000DBD00728E7D1D8E701220846FFF780FF2E
:10ABF00038B1072805D00D4B1B6803B19847216871
:10AC0000CFE7072202210120FFF772FF08B10728D2
:10AC1000F1D1042202210020FFF76AFF0028EED0C4
:10AC20000728E8D1EBE700BF3C340020383400208F
:10AC300008B50020FFF786FF10B1062800D008BD38
:10AC40000120FFF77FFF0028F9D0062808BF002069
:10AC500008BD00BF184B10B5186031B101200C467B
:10AC6000FFF7D6FEF8B102232370144B186808B121
:10AC7000002010BD01220221FFF73AFF08B107288A
:10AC8000F7D1072202210120FFF732FF08B1072880
:10AC9000EFD1002108460A22FFF72AFF0028E7D05B
:10ACA0000728E5D010BDFFF7B3FE10B10B232370CA
:10ACB000DBE72070D9E700BF383400203C340020A7
:10ACC00076DF70477ADF70477CDF70477FDF704741
:10ACD0008FDF7047B1DF704733DF7047FCF77CBA16
:10ACE00010B50388212B82B004460FD80F2B18D93A
:10ACF000103B112B15D8DFE803F024391447141446
:10AD000014141414141414141414141A522B45D0BB
:10AD1000562B08D1A0881321FFF7D2FF08B1FCF70A
:10AD20005BFA02B010BD3B2BF4D002B010BD002383
:10AD30008088ADF8043001A9FFF7CAFF0028F0D0E1
:10AD4000EDE71D4B1D491888000440F00300FBF798
:10AD500017FD0720FFF762FE50BB194BA188194869
:10AD6000198001F09FFC0028DBD0D8E7124B164970
:10AD70001888000440F00300FBF702FD104B4FF66B
:10AD8000FF721A8002B010BD0D4A00231088852181
:10AD90001A46FFF79BFF0028C3D0C0E7084A0023EC
:10ADA000108819461A46FFF795FF0028B9D0B6E774
:10ADB000FCF712FAD1E700BF7C2B002008EB020061
:10ADC000D62A00200836002014EB02000D4B4A88DA
:10ADD0001B889A4200D070470A8840F677239A422F
:10ADE000F9D110B4084A8B881088084C0849033BF5
:10ADF0009BB20004238040F003005DF8044B1A4628
:10AE0000FBF760BED62A00207C2B0020D42A00202D
:10AE100024EB020008B5037803B108BD054B3B21C4
:10AE20001888FFF74DFF0028F7D0BDE80840FCF771
:10AE3000D3B900BFD62A0020072808B51CD00A289D
:10AE40000ED0042800D008BD154B13211888FFF739
:10AE500037FF30F00803F6D0BDE80840FCF7BCB976
:10AE60000020FFF7DBFDB8B9FFF7E2FE88B9FFF776
:10AE700033FF0028F0D108BD094B1A884FF6FF7345
:10AE80009A42E0D1074801F02FF830F00803E3D1EF
:10AE900008BDFCF7A1F9EAE7FCF79EF9E4E700BF7B
:10AEA000D62A002038350020F0B50378012B83B076
:10AEB00004D0022B02D033B103B0F0BD4068FCF7E0
:10AEC0008BF903B0F0BD174E174C30782044FCF7D7
:10AED00045FE32780132D2B21444327014F8013C8B
:10AEE0000A2B03D0114B1B889342E5D8104F0E4D0F
:10AEF000104CADF806203B880DF10602294620468D
:10AF000001F0BAFD082804D0112806D0052800D089
:10AF100028B90023337003B0F0BD3278E9E7FCF7BD
:10AF20005BF9F6E73435002040340020D42A0020B5
:10AF3000D62A0020D82A00202DE9F0410578A5B9AD
:10AF4000838A06466BB3DFF86480174F3369585D18
:10AF5000FCF732FE0446A8B9B38A0135AB42F5D8F6
:10AF6000013B3269D35C0D2B01D0BDE8F0810A2092
:10AF7000FCF722FE1128F8D10A20FCF71DFE11284B
:10AF8000F5D0F2E7112802463946DFD0B8F80000C4
:10AF9000000440F00100FBF7BDFC2046FCF71CF963
:10AFA000DAE74FF0FF33DCE740EB02007C2B0020B8
:10AFB000FCF712B908B530B1032803D10220FFF71E
:10AFC0002DFD50B908BDFFF729FD50B9FFF730FE40
:10AFD00068B9FFF781FE0028F4D0BDE80840FCF70F
:10AFE000FBB8FCF7F9F8FFF723FE0028F1D0FCF7D7
:10AFF000F3F8EEE708B50B490B4801F039FA28B928
:10B000000948F72101F04CFA40B908BDFCF7E4F813
:10B010000548F72101F044FA0028F6D0BDE80840C1
:10B02000FCF7DAB8CDAD0200F035002000B5844D54
:10B03000844BB1B004AC00930FCD0FC495E803006E
:10B040004FF4807384E8030001937F4C03937F4A9D
:10B050000294694604A80723FCF704FD002840F089
:10B06000BF804FF400410020FBF7FCF9002840F0BE
:10B07000E480FBF7E9F9FCF773FB002840F0DA8085
:10B0800073490320FFF7D6FC002840F0D08004A9C4
:10B090000020FFF7DFFD002840F0C680FDF7ACFC84
:10B0A000002840F0BE8001F021FD002840F0B6806D
:10B0B000002304A90120049301F07CFE002840F045
:10B0C000AA8004A801F04CFF002840F0A1801123C1
:10B0D00060488DF8003002F027F85E4982B2684679
:10B0E000FFF7F2FD002840F090800822002104A81C
:10B0F00001F0F2FF584B049304A84FF0C873059376
:10B10000FFF7E0FD00287DD1FFF774FF534B544853
:10B11000049304A901F0B4FA002870D1002104229C
:10B12000684601F0D9FF4F4B4F480093694601F044
:10B13000E7FB002860D1AC22002104A801F0CCFF7D
:10B140004A4C4B4A189402214FF4A06001238DF819
:10B150001010ADF81200402444F250654548ADF897
:10B160005C3004A9CDE926458DF88C302D9200F095
:10B17000C7FD00283DD13F48012100F0BDFD1C2244
:10B18000002104A801F0A8FF00233B4A0493ADF876
:10B190001E308DF82030394B4FF420354FF4702499
:10B1A000032104A8CDE90554CDE909238DF81C102D
:10B1B00001F004F8D0B9324801F096FF314B324922
:10B1C0001888000440F00300FBF7DAFA294803214D
:10B1D00000F004FE38B9FBF7A9F9FDF723FCFAE704
:10B1E000FBF7FAFF3DE7FBF7F7FFF4E7FBF7F4FFA8
:10B1F000E1E7FBF7F1FFBEE7FBF7EEFF9BE7FBF7AD
:10B20000EBFF8BE7FBF7E8FF7EE7FBF7E5FF6CE77B
:10B21000FBF7E2FF5BE7FBF7DFFF52E7FBF7DCFF43
:10B2200046E7FBF7D9FF3EE7FBF7D6FF36E7FBF72C
:10B23000D3FF2CE7FBF7D0FF22E7FBF7CDFF18E7A2
:10B24000B8EB02001436002014370020A9AE02002B
:10B2500039AE02006CEB020010003C00DDAC0200D5
:10B260000836002039AF0200D82A0020D02A00205A
:10B27000B5AF02003835002015AE0200B1AF0200B4
:10B2800078EB02007C2B00208CEB02002DE9F04FC4
:10B29000DFF8B09100EB400509EBC50583B0EE6A1D
:10B2A000012E07468A4690464FEA400407D0022EF8
:10B2B0004FD056B30026304603B0BDE8F08FAE6ADB
:10B2C000D5F824B05E457DD9013EA6EB0B062D6A6C
:10B2D000464528BF4646A5EB0B0296427ED27B1C14
:10B2E00003EB430309EBC303324658685146584405
:10B2F00001F0E4FE274409EBC70906EB0B023046D8
:10B30000C9F8242003B0BDE8F08FAB6AD5F824B0AB
:10B310005B459CBF2A6A9B18013BA3EB0B03984536
:10B32000C9D8044409EBC4040137256AA5EB0B0610
:10B3300007EB4707B04509EBC7096FD2D9F80400FE
:10B340004246584401F0BAFE08EB0B0363624646DE
:10B35000B1E7013707EB47076C6AFF000026AB6ACD
:10B36000A34203F1FF3222D9131B2A6A434509EB9A
:10B370000701A2EB040B28BF43469B45486828BF42
:10B380009B46204451465A4601F098FE2B6A5C4485
:10B390009C425E44A8EB0B08DA440DD06C62B8F115
:10B3A000000F88D0AB6AA34203F1FF32DCD82A6ACF
:10B3B0001344013B1B1BD9E700246C62B8F1000F5A
:10B3C000CDD178E72D6A2E44013EA6EB0B0646450B
:10B3D00028BF4646A5EB0B02964280D307F1010831
:10B3E00008EB480809EBC8085146D8F80400019258
:10B3F000584401F063FE751B019AD8F804005D44BF
:10B400000AEB02012A4601F059FE274409EBC7095D
:10B410003046C9F8245003B0BDE8F08FD9F80400D5
:10B420005844C3443246ABEB050501F047FE0AEB36
:10B430000601D9F804002A4601F040FE464665623E
:10B4400039E700BF143B002038B5114C114B1248AE
:10B45000E36110254FF40073104A11492362E06440
:10B4600000232565E01D0225A3626362E362A365F4
:10B470006365E365A261A264C4E9045501F04CFE72
:10B480000849204601F048FE2023A37138BD00BFC3
:10B49000143B00202438002014380020D0EB020098
:10B4A000DCEB0200E0EB02006DDF704779DF7047F4
:10B4B0007DDF704764DF70472DE9F04F87B00746A6
:10B4C000119D00882C880394BDF84840DDF840A009
:10B4D000CDE90142002858D04FF0000988461E46A9
:10B4E000CB4604E03A880BF1010B93452CDAD8F8EF
:10B4F000002052F82B00059000220DF1130105A841
:10B50000FFF7D8FF044658BB9DF81320B242E9D19B
:10B51000B9F1000F28D02A88019B9119994239DC92
:10B5200052440DF1130105A84FF00109FFF7C2FFC6
:10B53000002834D129889DF813200A442A803A88AB
:10B540000BF1010B9345D2DBB9F1000F1DD02B8815
:10B55000039A013B9B1A9BB2FF2B1BD80AF80230BF
:10B56000204607B0BDE8F08F2A88019B511C324469
:10B5700002329A4289B20DDC029B29800AF801301E
:10B580002A88013292B22A80CAE70024204607B0F6
:10B59000BDE8F08F0C24204607B0BDE8F08F0446CC
:10B5A000204607B0BDE8F08F2DE9F047002317884B
:10B5B000138090F82D3088B0144605460E46002BB7
:10B5C00040F0FB80AA78002A40F0F080E978A1B131
:10B5D000DA1CBA4200F2ED800222F25423880133D1
:10B5E0009BB201222380F254238813449BB2238010
:10B5F000F154238813449BB223806A68AAB1D91CF2
:10B60000B94200F2D680022192F90020F154238839
:10B6100001339BB20A212380F154238801339BB26A
:10B620002380F2542388013323802B89002B40F0A0
:10B63000EE802B8A002B40F026812B8B002B40F0D4
:10B6400041812B6A002B47D0B4F800E00EF10602CE
:10B65000BA4200F2AE801A88052A40F292816FF455
:10B66000486802EB080189B24FF27D30814240F216
:10B6700088815988052940F284816FF4486C8C4494
:10B680001FFA8CFC844540F27C814FF6FF708242A9
:10B6900004D0814202D08A4200F27381052206F86A
:10B6A0000E202288013292B212212280B1542288C7
:10B6B000013292B222801988B1543244090A517081
:10B6C0002288023292B222805B88B35432441B0A31
:10B6D00053702388023323806B6A002B2FD0998804
:10B6E000B4F800C0881C0CF102020244BA4260D8CF
:10B6F000FE285ED8033106F80C102288013292B27F
:10B70000FF212280B1542288013292B2228019880E
:10B71000B1543244090A51702088023080B220802E
:10B720009A8862B199680593002900F02A81304413
:10B7300001F0C4FC059B9A8823881344238095F864
:10B740002C30002B40F0DB80287898B32B88012B1D
:10B7500000F0178123889A1CBA422AD8012804D104
:10B760006978023119448F4223D3023FFF1ABFB2D6
:10B77000B01806A9ADF81870FFF79AFED0B92B786B
:10B78000022B00F00281012B00F007810822FE2F1E
:10B790000FD82388791CF154238801339BB223806E
:10B7A000F254238801331F44278003E00433BB4253
:10B7B0004CD90C2008B0BDE8F087082FF9D906A8AD
:10B7C000FFF772FE0028F5D123880822F25423885F
:10B7D00001339BB21B222380F2542088013080B2B7
:10B7E0002080062230440DF1190101F067FC238806
:10B7F0009DF8182006339BB212F0FE0218BF0122FA
:10B800002380F254238801339BB22380DAE605F1CA
:10B810000808022305F10C01CDE9014700964046D6
:10B820001A460591FFF748FE0028C3D1CDE901472C
:10B8300005990096404610230622FFF73DFE00289A
:10B84000B8D12B8A002B3FF4F8AE1CE006A8FFF716
:10B850002DFE0028AED12388BDF818200321F15415
:10B86000238801339BB219212380F15423880133AB
:10B870009BB2F1182380F254130A4B7023880233D1
:10B880009BB22380A2E605F1100805F11401CDE971
:10B89000014700964046022303220591FFF70CFE64
:10B8A000002887D1CDE9014705990096404610232D
:10B8B0000722FFF701FE00287FF47CAF2B8B002BC3
:10B8C0003FF4BFAE05F1180805F11C01CDE90147B1
:10B8D00000964046022314220591FFF7EDFD002853
:10B8E0007FF468AFCDE901470599009640461023E3
:10B8F0001522FFF7E1FD00283FF4A3AE5AE7A96A3D
:10B9000000293ED04FF000094B464FF0160A2BE0BD
:10B910002388F054238801339BB2238006F803A0C8
:10B92000238801339BB2238031F82220F254334420
:10B93000120A5A702088023080B22080B8F80420A1
:10B9400030444AB1D8F80810D9B101F0B7FBB8F8C3
:10B95000042023881344238095F82C205FFA89F370
:10B960009A427FF6F1AEA96A03EB430201EB82082B
:10B9700009F10109B8F80430D81C0233FE2BC7D9ED
:10B9800017E7072008B0BDE8F087BDF818309F42E0
:10B99000FFF4FCAE1F460922F9E66B789F42FFF4E4
:10B9A000F5AE1F460822F2E6F8B130B44378934270
:10B9B0001CD0B9B10024234601E0994212D9045D9C
:10B9C000013423449BB2C5181C466D789542F4D1CE
:10B9D000994207D9015D9A1C012993B202D01844FB
:10B9E00030BC7047002030BC7047704700242346AD
:10B9F000EEE700BF72DF704773DF704774DF704798
:10BA000070B5044600F1AA060D4630460722002113
:10BA100001F062FBE38813B1A378012B75D0E379C1
:10BA2000002B6FD194F8AB30002B78D194F8AC3068
:10BA3000002B74D194F8AD30002B70D194F8AE3057
:10BA4000002B6CD194F8AF30002B68D194F8B03053
:10BA50001A1E18BF01226B1E032B00F24981DFE87A
:10BA600003F002060B0EA379002B40F0F780E37978
:10BA700013B1002A40F03581237A002B65D1657A15
:10BA8000002D4ED1A570002384F8B33004F13C059D
:10BA900018220021284601F01FFBE36A0122591EEB
:10BAA000914284F83C2016D9042B14D094F8243009
:10BAB00084F85120C3B184F85220A378002284F87E
:10BAC0005020042B00F20181DFE813F041004B000D
:10BAD000E1009900E60094F8242084F851301AB16E
